{
	"Development-Codebases/Blockchain/Eth_Smart_Contract_Voting/contracts/Election.sol": {
		"Election": {
			"abi": [
				{
					"inputs": [],
					"stateMutability": "nonpayable",
					"type": "constructor"
				},
				{
					"anonymous": false,
					"inputs": [
						{
							"indexed": true,
							"internalType": "bool",
							"name": "_isOpened",
							"type": "bool"
						}
					],
					"name": "changedEventState",
					"type": "event"
				},
				{
					"anonymous": false,
					"inputs": [
						{
							"indexed": true,
							"internalType": "uint256",
							"name": "_candidateId",
							"type": "uint256"
						}
					],
					"name": "votedEvent",
					"type": "event"
				},
				{
					"inputs": [
						{
							"internalType": "uint256",
							"name": "",
							"type": "uint256"
						}
					],
					"name": "candidates",
					"outputs": [
						{
							"internalType": "uint256",
							"name": "id",
							"type": "uint256"
						},
						{
							"internalType": "string",
							"name": "name",
							"type": "string"
						},
						{
							"internalType": "uint256",
							"name": "voteCount",
							"type": "uint256"
						}
					],
					"stateMutability": "view",
					"type": "function"
				},
				{
					"inputs": [],
					"name": "candidatesCount",
					"outputs": [
						{
							"internalType": "uint256",
							"name": "",
							"type": "uint256"
						}
					],
					"stateMutability": "view",
					"type": "function"
				},
				{
					"inputs": [],
					"name": "closeElection",
					"outputs": [],
					"stateMutability": "nonpayable",
					"type": "function"
				},
				{
					"inputs": [],
					"name": "openElection",
					"outputs": [],
					"stateMutability": "nonpayable",
					"type": "function"
				},
				{
					"inputs": [
						{
							"internalType": "uint256",
							"name": "_candidateId",
							"type": "uint256"
						}
					],
					"name": "vote",
					"outputs": [],
					"stateMutability": "nonpayable",
					"type": "function"
				},
				{
					"inputs": [
						{
							"internalType": "address",
							"name": "",
							"type": "address"
						}
					],
					"name": "voters",
					"outputs": [
						{
							"internalType": "bool",
							"name": "",
							"type": "bool"
						}
					],
					"stateMutability": "view",
					"type": "function"
				}
			],
			"devdoc": {
				"kind": "dev",
				"methods": {},
				"version": 1
			},
			"evm": {
				"assembly": "    /* \"Development-Codebases/Blockchain/Eth_Smart_Contract_Voting/contracts/Election.sol\":56:2146  contract Election {... */\n  mstore(0x40, 0x80)\n    /* \"Development-Codebases/Blockchain/Eth_Smart_Contract_Voting/contracts/Election.sol\":295:300  false */\n  0x00\n    /* \"Development-Codebases/Blockchain/Eth_Smart_Contract_Voting/contracts/Election.sol\":279:300  bool isOpened = false */\n  dup1\n  exp(0x0100, 0x14)\n  dup2\n  sload\n  dup2\n  0xff\n  mul\n  not\n  and\n  swap1\n  dup4\n  iszero\n  iszero\n  mul\n  or\n  swap1\n  sstore\n  pop\n    /* \"Development-Codebases/Blockchain/Eth_Smart_Contract_Voting/contracts/Election.sol\":678:813  constructor () {... */\n  callvalue\n  dup1\n  iszero\n  tag_1\n  jumpi\n  0x00\n  dup1\n  revert\ntag_1:\n  pop\n    /* \"Development-Codebases/Blockchain/Eth_Smart_Contract_Voting/contracts/Election.sol\":719:729  msg.sender */\n  caller\n    /* \"Development-Codebases/Blockchain/Eth_Smart_Contract_Voting/contracts/Election.sol\":703:716  electionOwner */\n  0x00\n  dup1\n    /* \"Development-Codebases/Blockchain/Eth_Smart_Contract_Voting/contracts/Election.sol\":703:729  electionOwner = msg.sender */\n  0x0100\n  exp\n  dup2\n  sload\n  dup2\n  0xffffffffffffffffffffffffffffffffffffffff\n  mul\n  not\n  and\n  swap1\n  dup4\n  0xffffffffffffffffffffffffffffffffffffffff\n  and\n  mul\n  or\n  swap1\n  sstore\n  pop\n    /* \"Development-Codebases/Blockchain/Eth_Smart_Contract_Voting/contracts/Election.sol\":739:767  addCandidate(\"Bitcoin club\") */\n  tag_4\n  mload(0x40)\n  dup1\n  0x40\n  add\n  0x40\n  mstore\n  dup1\n  0x0c\n  dup2\n  mstore\n  0x20\n  add\n  0x426974636f696e20636c75620000000000000000000000000000000000000000\n  dup2\n  mstore\n  pop\n    /* \"Development-Codebases/Blockchain/Eth_Smart_Contract_Voting/contracts/Election.sol\":739:751  addCandidate */\n  shl(0x20, tag_5)\n    /* \"Development-Codebases/Blockchain/Eth_Smart_Contract_Voting/contracts/Election.sol\":739:767  addCandidate(\"Bitcoin club\") */\n  0x20\n  shr\n  jump\t// in\ntag_4:\n    /* \"Development-Codebases/Blockchain/Eth_Smart_Contract_Voting/contracts/Election.sol\":777:806  addCandidate(\"Ethereum club\") */\n  tag_6\n  mload(0x40)\n  dup1\n  0x40\n  add\n  0x40\n  mstore\n  dup1\n  0x0d\n  dup2\n  mstore\n  0x20\n  add\n  0x457468657265756d20636c756200000000000000000000000000000000000000\n  dup2\n  mstore\n  pop\n    /* \"Development-Codebases/Blockchain/Eth_Smart_Contract_Voting/contracts/Election.sol\":777:789  addCandidate */\n  shl(0x20, tag_5)\n    /* \"Development-Codebases/Blockchain/Eth_Smart_Contract_Voting/contracts/Election.sol\":777:806  addCandidate(\"Ethereum club\") */\n  0x20\n  shr\n  jump\t// in\ntag_6:\n    /* \"Development-Codebases/Blockchain/Eth_Smart_Contract_Voting/contracts/Election.sol\":56:2146  contract Election {... */\n  jump(tag_7)\n    /* \"Development-Codebases/Blockchain/Eth_Smart_Contract_Voting/contracts/Election.sol\":843:1006  function addCandidate (string memory _name) private {... */\ntag_5:\n    /* \"Development-Codebases/Blockchain/Eth_Smart_Contract_Voting/contracts/Election.sol\":905:920  candidatesCount */\n  0x03\n  0x00\n    /* \"Development-Codebases/Blockchain/Eth_Smart_Contract_Voting/contracts/Election.sol\":905:923  candidatesCount ++ */\n  dup2\n  sload\n  dup1\n  swap3\n  swap2\n  swap1\n  tag_9\n  swap1\n  tag_10\n  jump\t// in\ntag_9:\n  swap2\n  swap1\n  pop\n  sstore\n  pop\n    /* \"Development-Codebases/Blockchain/Eth_Smart_Contract_Voting/contracts/Election.sol\":963:999  Candidate(candidatesCount, _name, 0) */\n  mload(0x40)\n  dup1\n  0x60\n  add\n  0x40\n  mstore\n  dup1\n    /* \"Development-Codebases/Blockchain/Eth_Smart_Contract_Voting/contracts/Election.sol\":973:988  candidatesCount */\n  sload(0x03)\n    /* \"Development-Codebases/Blockchain/Eth_Smart_Contract_Voting/contracts/Election.sol\":963:999  Candidate(candidatesCount, _name, 0) */\n  dup2\n  mstore\n  0x20\n  add\n    /* \"Development-Codebases/Blockchain/Eth_Smart_Contract_Voting/contracts/Election.sol\":990:995  _name */\n  dup3\n    /* \"Development-Codebases/Blockchain/Eth_Smart_Contract_Voting/contracts/Election.sol\":963:999  Candidate(candidatesCount, _name, 0) */\n  dup2\n  mstore\n  0x20\n  add\n    /* \"Development-Codebases/Blockchain/Eth_Smart_Contract_Voting/contracts/Election.sol\":997:998  0 */\n  0x00\n    /* \"Development-Codebases/Blockchain/Eth_Smart_Contract_Voting/contracts/Election.sol\":963:999  Candidate(candidatesCount, _name, 0) */\n  dup2\n  mstore\n  pop\n    /* \"Development-Codebases/Blockchain/Eth_Smart_Contract_Voting/contracts/Election.sol\":933:943  candidates */\n  0x02\n    /* \"Development-Codebases/Blockchain/Eth_Smart_Contract_Voting/contracts/Election.sol\":933:960  candidates[candidatesCount] */\n  0x00\n    /* \"Development-Codebases/Blockchain/Eth_Smart_Contract_Voting/contracts/Election.sol\":944:959  candidatesCount */\n  sload(0x03)\n    /* \"Development-Codebases/Blockchain/Eth_Smart_Contract_Voting/contracts/Election.sol\":933:960  candidates[candidatesCount] */\n  dup2\n  mstore\n  0x20\n  add\n  swap1\n  dup2\n  mstore\n  0x20\n  add\n  0x00\n  keccak256\n    /* \"Development-Codebases/Blockchain/Eth_Smart_Contract_Voting/contracts/Election.sol\":933:999  candidates[candidatesCount] = Candidate(candidatesCount, _name, 0) */\n  0x00\n  dup3\n  add\n  mload\n  dup2\n  0x00\n  add\n  sstore\n  0x20\n  dup3\n  add\n  mload\n  dup2\n  0x01\n  add\n  swap1\n  dup1\n  mload\n  swap1\n  0x20\n  add\n  swap1\n  tag_11\n  swap3\n  swap2\n  swap1\n  tag_12\n  jump\t// in\ntag_11:\n  pop\n  0x40\n  dup3\n  add\n  mload\n  dup2\n  0x02\n  add\n  sstore\n  swap1\n  pop\n  pop\n    /* \"Development-Codebases/Blockchain/Eth_Smart_Contract_Voting/contracts/Election.sol\":843:1006  function addCandidate (string memory _name) private {... */\n  pop\n  jump\t// out\n    /* \"Development-Codebases/Blockchain/Eth_Smart_Contract_Voting/contracts/Election.sol\":56:2146  contract Election {... */\ntag_12:\n  dup3\n  dup1\n  sload\n  tag_13\n  swap1\n  tag_14\n  jump\t// in\ntag_13:\n  swap1\n  0x00\n  mstore\n  keccak256(0x00, 0x20)\n  swap1\n  0x1f\n  add\n  0x20\n  swap1\n  div\n  dup2\n  add\n  swap3\n  dup3\n  tag_16\n  jumpi\n  0x00\n  dup6\n  sstore\n  jump(tag_15)\ntag_16:\n  dup3\n  0x1f\n  lt\n  tag_17\n  jumpi\n  dup1\n  mload\n  not(0xff)\n  and\n  dup4\n  dup1\n  add\n  or\n  dup6\n  sstore\n  jump(tag_15)\ntag_17:\n  dup3\n  dup1\n  add\n  0x01\n  add\n  dup6\n  sstore\n  dup3\n  iszero\n  tag_15\n  jumpi\n  swap2\n  dup3\n  add\ntag_18:\n  dup3\n  dup2\n  gt\n  iszero\n  tag_19\n  jumpi\n  dup3\n  mload\n  dup3\n  sstore\n  swap2\n  0x20\n  add\n  swap2\n  swap1\n  0x01\n  add\n  swap1\n  jump(tag_18)\ntag_19:\ntag_15:\n  pop\n  swap1\n  pop\n  tag_20\n  swap2\n  swap1\n  tag_21\n  jump\t// in\ntag_20:\n  pop\n  swap1\n  jump\t// out\ntag_21:\ntag_22:\n  dup1\n  dup3\n  gt\n  iszero\n  tag_23\n  jumpi\n  0x00\n  dup2\n  0x00\n  swap1\n  sstore\n  pop\n  0x01\n  add\n  jump(tag_22)\ntag_23:\n  pop\n  swap1\n  jump\t// out\n    /* \"#utility.yul\":7:84   */\ntag_25:\n    /* \"#utility.yul\":44:51   */\n  0x00\n    /* \"#utility.yul\":73:78   */\n  dup2\n    /* \"#utility.yul\":62:78   */\n  swap1\n  pop\n    /* \"#utility.yul\":52:84   */\n  swap2\n  swap1\n  pop\n  jump\t// out\n    /* \"#utility.yul\":90:410   */\ntag_14:\n    /* \"#utility.yul\":134:140   */\n  0x00\n    /* \"#utility.yul\":171:172   */\n  0x02\n    /* \"#utility.yul\":165:169   */\n  dup3\n    /* \"#utility.yul\":161:173   */\n  div\n    /* \"#utility.yul\":151:173   */\n  swap1\n  pop\n    /* \"#utility.yul\":218:219   */\n  0x01\n    /* \"#utility.yul\":212:216   */\n  dup3\n    /* \"#utility.yul\":208:220   */\n  and\n    /* \"#utility.yul\":239:257   */\n  dup1\n    /* \"#utility.yul\":229:231   */\n  tag_28\n  jumpi\n    /* \"#utility.yul\":295:299   */\n  0x7f\n    /* \"#utility.yul\":287:293   */\n  dup3\n    /* \"#utility.yul\":283:300   */\n  and\n    /* \"#utility.yul\":273:300   */\n  swap2\n  pop\n    /* \"#utility.yul\":229:231   */\ntag_28:\n    /* \"#utility.yul\":357:359   */\n  0x20\n    /* \"#utility.yul\":349:355   */\n  dup3\n    /* \"#utility.yul\":346:360   */\n  lt\n    /* \"#utility.yul\":326:344   */\n  dup2\n    /* \"#utility.yul\":323:361   */\n  eq\n    /* \"#utility.yul\":320:322   */\n  iszero\n  tag_29\n  jumpi\n    /* \"#utility.yul\":376:394   */\n  tag_30\n  tag_31\n  jump\t// in\ntag_30:\n    /* \"#utility.yul\":320:322   */\ntag_29:\n    /* \"#utility.yul\":141:410   */\n  pop\n  swap2\n  swap1\n  pop\n  jump\t// out\n    /* \"#utility.yul\":416:649   */\ntag_10:\n    /* \"#utility.yul\":455:458   */\n  0x00\n    /* \"#utility.yul\":478:502   */\n  tag_33\n    /* \"#utility.yul\":496:501   */\n  dup3\n    /* \"#utility.yul\":478:502   */\n  tag_25\n  jump\t// in\ntag_33:\n    /* \"#utility.yul\":469:502   */\n  swap2\n  pop\n    /* \"#utility.yul\":524:590   */\n  0xffffffffffffffffffffffffffffffffffffffffffffffffffffffffffffffff\n    /* \"#utility.yul\":517:522   */\n  dup3\n    /* \"#utility.yul\":514:591   */\n  eq\n    /* \"#utility.yul\":511:513   */\n  iszero\n  tag_34\n  jumpi\n    /* \"#utility.yul\":594:612   */\n  tag_35\n  tag_36\n  jump\t// in\ntag_35:\n    /* \"#utility.yul\":511:513   */\ntag_34:\n    /* \"#utility.yul\":641:642   */\n  0x01\n    /* \"#utility.yul\":634:639   */\n  dup3\n    /* \"#utility.yul\":630:643   */\n  add\n    /* \"#utility.yul\":623:643   */\n  swap1\n  pop\n    /* \"#utility.yul\":459:649   */\n  swap2\n  swap1\n  pop\n  jump\t// out\n    /* \"#utility.yul\":655:835   */\ntag_36:\n    /* \"#utility.yul\":703:780   */\n  0x4e487b7100000000000000000000000000000000000000000000000000000000\n    /* \"#utility.yul\":700:701   */\n  0x00\n    /* \"#utility.yul\":693:781   */\n  mstore\n    /* \"#utility.yul\":800:804   */\n  0x11\n    /* \"#utility.yul\":797:798   */\n  0x04\n    /* \"#utility.yul\":790:805   */\n  mstore\n    /* \"#utility.yul\":824:828   */\n  0x24\n    /* \"#utility.yul\":821:822   */\n  0x00\n    /* \"#utility.yul\":814:829   */\n  revert\n    /* \"#utility.yul\":841:1021   */\ntag_31:\n    /* \"#utility.yul\":889:966   */\n  0x4e487b7100000000000000000000000000000000000000000000000000000000\n    /* \"#utility.yul\":886:887   */\n  0x00\n    /* \"#utility.yul\":879:967   */\n  mstore\n    /* \"#utility.yul\":986:990   */\n  0x22\n    /* \"#utility.yul\":983:984   */\n  0x04\n    /* \"#utility.yul\":976:991   */\n  mstore\n    /* \"#utility.yul\":1010:1014   */\n  0x24\n    /* \"#utility.yul\":1007:1008   */\n  0x00\n    /* \"#utility.yul\":1000:1015   */\n  revert\n    /* \"Development-Codebases/Blockchain/Eth_Smart_Contract_Voting/contracts/Election.sol\":56:2146  contract Election {... */\ntag_7:\n  dataSize(sub_0)\n  dup1\n  dataOffset(sub_0)\n  0x00\n  codecopy\n  0x00\n  return\nstop\n\nsub_0: assembly {\n        /* \"Development-Codebases/Blockchain/Eth_Smart_Contract_Voting/contracts/Election.sol\":56:2146  contract Election {... */\n      mstore(0x40, 0x80)\n      callvalue\n      dup1\n      iszero\n      tag_1\n      jumpi\n      0x00\n      dup1\n      revert\n    tag_1:\n      pop\n      jumpi(tag_2, lt(calldatasize, 0x04))\n      shr(0xe0, calldataload(0x00))\n      dup1\n      0x0121b93f\n      eq\n      tag_3\n      jumpi\n      dup1\n      0x2d35a8a2\n      eq\n      tag_4\n      jumpi\n      dup1\n      0x3477ee2e\n      eq\n      tag_5\n      jumpi\n      dup1\n      0x6c6c32d0\n      eq\n      tag_6\n      jumpi\n      dup1\n      0xa3ec138d\n      eq\n      tag_7\n      jumpi\n      dup1\n      0xc5d00f5d\n      eq\n      tag_8\n      jumpi\n    tag_2:\n      0x00\n      dup1\n      revert\n        /* \"Development-Codebases/Blockchain/Eth_Smart_Contract_Voting/contracts/Election.sol\":1471:2144  function vote (uint _candidateId) public {... */\n    tag_3:\n      tag_9\n      0x04\n      dup1\n      calldatasize\n      sub\n      dup2\n      add\n      swap1\n      tag_10\n      swap2\n      swap1\n      tag_11\n      jump\t// in\n    tag_10:\n      tag_12\n      jump\t// in\n    tag_9:\n      stop\n        /* \"Development-Codebases/Blockchain/Eth_Smart_Contract_Voting/contracts/Election.sol\":491:518  uint public candidatesCount */\n    tag_4:\n      tag_13\n      tag_14\n      jump\t// in\n    tag_13:\n      mload(0x40)\n      tag_15\n      swap2\n      swap1\n      tag_16\n      jump\t// in\n    tag_15:\n      mload(0x40)\n      dup1\n      swap2\n      sub\n      swap1\n      return\n        /* \"Development-Codebases/Blockchain/Eth_Smart_Contract_Voting/contracts/Election.sol\":411:455  mapping(uint => Candidate) public candidates */\n    tag_5:\n      tag_17\n      0x04\n      dup1\n      calldatasize\n      sub\n      dup2\n      add\n      swap1\n      tag_18\n      swap2\n      swap1\n      tag_11\n      jump\t// in\n    tag_18:\n      tag_19\n      jump\t// in\n    tag_17:\n      mload(0x40)\n      tag_20\n      swap4\n      swap3\n      swap2\n      swap1\n      tag_21\n      jump\t// in\n    tag_20:\n      mload(0x40)\n      dup1\n      swap2\n      sub\n      swap1\n      return\n        /* \"Development-Codebases/Blockchain/Eth_Smart_Contract_Voting/contracts/Election.sol\":1240:1465  function closeElection() public{... */\n    tag_6:\n      tag_22\n      tag_23\n      jump\t// in\n    tag_22:\n      stop\n        /* \"Development-Codebases/Blockchain/Eth_Smart_Contract_Voting/contracts/Election.sol\":344:382  mapping(address => bool) public voters */\n    tag_7:\n      tag_24\n      0x04\n      dup1\n      calldatasize\n      sub\n      dup2\n      add\n      swap1\n      tag_25\n      swap2\n      swap1\n      tag_26\n      jump\t// in\n    tag_25:\n      tag_27\n      jump\t// in\n    tag_24:\n      mload(0x40)\n      tag_28\n      swap2\n      swap1\n      tag_29\n      jump\t// in\n    tag_28:\n      mload(0x40)\n      dup1\n      swap2\n      sub\n      swap1\n      return\n        /* \"Development-Codebases/Blockchain/Eth_Smart_Contract_Voting/contracts/Election.sol\":1012:1234  function openElection() public{... */\n    tag_8:\n      tag_30\n      tag_31\n      jump\t// in\n    tag_30:\n      stop\n        /* \"Development-Codebases/Blockchain/Eth_Smart_Contract_Voting/contracts/Election.sol\":1471:2144  function vote (uint _candidateId) public {... */\n    tag_12:\n        /* \"Development-Codebases/Blockchain/Eth_Smart_Contract_Voting/contracts/Election.sol\":1577:1585  isOpened */\n      0x00\n      0x14\n      swap1\n      sload\n      swap1\n      0x0100\n      exp\n      swap1\n      div\n      0xff\n      and\n        /* \"Development-Codebases/Blockchain/Eth_Smart_Contract_Voting/contracts/Election.sol\":1569:1613  require(isOpened, \"Elections is not opened\") */\n      tag_33\n      jumpi\n      mload(0x40)\n      0x08c379a000000000000000000000000000000000000000000000000000000000\n      dup2\n      mstore\n      0x04\n      add\n      tag_34\n      swap1\n      tag_35\n      jump\t// in\n    tag_34:\n      mload(0x40)\n      dup1\n      swap2\n      sub\n      swap1\n      revert\n    tag_33:\n        /* \"Development-Codebases/Blockchain/Eth_Smart_Contract_Voting/contracts/Election.sol\":1693:1706  electionOwner */\n      0x00\n      dup1\n      sload\n      swap1\n      0x0100\n      exp\n      swap1\n      div\n      0xffffffffffffffffffffffffffffffffffffffff\n      and\n        /* \"Development-Codebases/Blockchain/Eth_Smart_Contract_Voting/contracts/Election.sol\":1679:1706  msg.sender != electionOwner */\n      0xffffffffffffffffffffffffffffffffffffffff\n      and\n        /* \"Development-Codebases/Blockchain/Eth_Smart_Contract_Voting/contracts/Election.sol\":1679:1689  msg.sender */\n      caller\n        /* \"Development-Codebases/Blockchain/Eth_Smart_Contract_Voting/contracts/Election.sol\":1679:1706  msg.sender != electionOwner */\n      0xffffffffffffffffffffffffffffffffffffffff\n      and\n      eq\n      iszero\n        /* \"Development-Codebases/Blockchain/Eth_Smart_Contract_Voting/contracts/Election.sol\":1671:1707  require(msg.sender != electionOwner) */\n      tag_36\n      jumpi\n      0x00\n      dup1\n      revert\n    tag_36:\n        /* \"Development-Codebases/Blockchain/Eth_Smart_Contract_Voting/contracts/Election.sol\":1777:1783  voters */\n      0x01\n        /* \"Development-Codebases/Blockchain/Eth_Smart_Contract_Voting/contracts/Election.sol\":1777:1795  voters[msg.sender] */\n      0x00\n        /* \"Development-Codebases/Blockchain/Eth_Smart_Contract_Voting/contracts/Election.sol\":1784:1794  msg.sender */\n      caller\n        /* \"Development-Codebases/Blockchain/Eth_Smart_Contract_Voting/contracts/Election.sol\":1777:1795  voters[msg.sender] */\n      0xffffffffffffffffffffffffffffffffffffffff\n      and\n      0xffffffffffffffffffffffffffffffffffffffff\n      and\n      dup2\n      mstore\n      0x20\n      add\n      swap1\n      dup2\n      mstore\n      0x20\n      add\n      0x00\n      keccak256\n      0x00\n      swap1\n      sload\n      swap1\n      0x0100\n      exp\n      swap1\n      div\n      0xff\n      and\n        /* \"Development-Codebases/Blockchain/Eth_Smart_Contract_Voting/contracts/Election.sol\":1776:1795  !voters[msg.sender] */\n      iszero\n        /* \"Development-Codebases/Blockchain/Eth_Smart_Contract_Voting/contracts/Election.sol\":1768:1796  require(!voters[msg.sender]) */\n      tag_37\n      jumpi\n      0x00\n      dup1\n      revert\n    tag_37:\n        /* \"Development-Codebases/Blockchain/Eth_Smart_Contract_Voting/contracts/Election.sol\":1867:1868  0 */\n      0x00\n        /* \"Development-Codebases/Blockchain/Eth_Smart_Contract_Voting/contracts/Election.sol\":1852:1864  _candidateId */\n      dup2\n        /* \"Development-Codebases/Blockchain/Eth_Smart_Contract_Voting/contracts/Election.sol\":1852:1868  _candidateId > 0 */\n      gt\n        /* \"Development-Codebases/Blockchain/Eth_Smart_Contract_Voting/contracts/Election.sol\":1852:1903  _candidateId > 0 && _candidateId <= candidatesCount */\n      dup1\n      iszero\n      tag_38\n      jumpi\n      pop\n        /* \"Development-Codebases/Blockchain/Eth_Smart_Contract_Voting/contracts/Election.sol\":1888:1903  candidatesCount */\n      sload(0x03)\n        /* \"Development-Codebases/Blockchain/Eth_Smart_Contract_Voting/contracts/Election.sol\":1872:1884  _candidateId */\n      dup2\n        /* \"Development-Codebases/Blockchain/Eth_Smart_Contract_Voting/contracts/Election.sol\":1872:1903  _candidateId <= candidatesCount */\n      gt\n      iszero\n        /* \"Development-Codebases/Blockchain/Eth_Smart_Contract_Voting/contracts/Election.sol\":1852:1903  _candidateId > 0 && _candidateId <= candidatesCount */\n    tag_38:\n        /* \"Development-Codebases/Blockchain/Eth_Smart_Contract_Voting/contracts/Election.sol\":1844:1904  require(_candidateId > 0 && _candidateId <= candidatesCount) */\n      tag_39\n      jumpi\n      0x00\n      dup1\n      revert\n    tag_39:\n        /* \"Development-Codebases/Blockchain/Eth_Smart_Contract_Voting/contracts/Election.sol\":1975:1979  true */\n      0x01\n        /* \"Development-Codebases/Blockchain/Eth_Smart_Contract_Voting/contracts/Election.sol\":1954:1960  voters */\n      dup1\n        /* \"Development-Codebases/Blockchain/Eth_Smart_Contract_Voting/contracts/Election.sol\":1954:1972  voters[msg.sender] */\n      0x00\n        /* \"Development-Codebases/Blockchain/Eth_Smart_Contract_Voting/contracts/Election.sol\":1961:1971  msg.sender */\n      caller\n        /* \"Development-Codebases/Blockchain/Eth_Smart_Contract_Voting/contracts/Election.sol\":1954:1972  voters[msg.sender] */\n      0xffffffffffffffffffffffffffffffffffffffff\n      and\n      0xffffffffffffffffffffffffffffffffffffffff\n      and\n      dup2\n      mstore\n      0x20\n      add\n      swap1\n      dup2\n      mstore\n      0x20\n      add\n      0x00\n      keccak256\n      0x00\n        /* \"Development-Codebases/Blockchain/Eth_Smart_Contract_Voting/contracts/Election.sol\":1954:1979  voters[msg.sender] = true */\n      0x0100\n      exp\n      dup2\n      sload\n      dup2\n      0xff\n      mul\n      not\n      and\n      swap1\n      dup4\n      iszero\n      iszero\n      mul\n      or\n      swap1\n      sstore\n      pop\n        /* \"Development-Codebases/Blockchain/Eth_Smart_Contract_Voting/contracts/Election.sol\":2029:2039  candidates */\n      0x02\n        /* \"Development-Codebases/Blockchain/Eth_Smart_Contract_Voting/contracts/Election.sol\":2029:2053  candidates[_candidateId] */\n      0x00\n        /* \"Development-Codebases/Blockchain/Eth_Smart_Contract_Voting/contracts/Election.sol\":2040:2052  _candidateId */\n      dup3\n        /* \"Development-Codebases/Blockchain/Eth_Smart_Contract_Voting/contracts/Election.sol\":2029:2053  candidates[_candidateId] */\n      dup2\n      mstore\n      0x20\n      add\n      swap1\n      dup2\n      mstore\n      0x20\n      add\n      0x00\n      keccak256\n        /* \"Development-Codebases/Blockchain/Eth_Smart_Contract_Voting/contracts/Election.sol\":2029:2063  candidates[_candidateId].voteCount */\n      0x02\n      add\n      0x00\n        /* \"Development-Codebases/Blockchain/Eth_Smart_Contract_Voting/contracts/Election.sol\":2029:2066  candidates[_candidateId].voteCount ++ */\n      dup2\n      sload\n      dup1\n      swap3\n      swap2\n      swap1\n      tag_40\n      swap1\n      tag_41\n      jump\t// in\n    tag_40:\n      swap2\n      swap1\n      pop\n      sstore\n      pop\n        /* \"Development-Codebases/Blockchain/Eth_Smart_Contract_Voting/contracts/Election.sol\":2124:2136  _candidateId */\n      dup1\n        /* \"Development-Codebases/Blockchain/Eth_Smart_Contract_Voting/contracts/Election.sol\":2113:2137  votedEvent(_candidateId) */\n      0xfff3c900d938d21d0990d786e819f29b8d05c1ef587b462b939609625b684b16\n      mload(0x40)\n      mload(0x40)\n      dup1\n      swap2\n      sub\n      swap1\n      log2\n        /* \"Development-Codebases/Blockchain/Eth_Smart_Contract_Voting/contracts/Election.sol\":1471:2144  function vote (uint _candidateId) public {... */\n      pop\n      jump\t// out\n        /* \"Development-Codebases/Blockchain/Eth_Smart_Contract_Voting/contracts/Election.sol\":491:518  uint public candidatesCount */\n    tag_14:\n      sload(0x03)\n      dup2\n      jump\t// out\n        /* \"Development-Codebases/Blockchain/Eth_Smart_Contract_Voting/contracts/Election.sol\":411:455  mapping(uint => Candidate) public candidates */\n    tag_19:\n      mstore(0x20, 0x02)\n      dup1\n      0x00\n      mstore\n      keccak256(0x00, 0x40)\n      0x00\n      swap2\n      pop\n      swap1\n      pop\n      dup1\n      0x00\n      add\n      sload\n      swap1\n      dup1\n      0x01\n      add\n      dup1\n      sload\n      tag_42\n      swap1\n      tag_43\n      jump\t// in\n    tag_42:\n      dup1\n      0x1f\n      add\n      0x20\n      dup1\n      swap2\n      div\n      mul\n      0x20\n      add\n      mload(0x40)\n      swap1\n      dup2\n      add\n      0x40\n      mstore\n      dup1\n      swap3\n      swap2\n      swap1\n      dup2\n      dup2\n      mstore\n      0x20\n      add\n      dup3\n      dup1\n      sload\n      tag_44\n      swap1\n      tag_43\n      jump\t// in\n    tag_44:\n      dup1\n      iszero\n      tag_45\n      jumpi\n      dup1\n      0x1f\n      lt\n      tag_46\n      jumpi\n      0x0100\n      dup1\n      dup4\n      sload\n      div\n      mul\n      dup4\n      mstore\n      swap2\n      0x20\n      add\n      swap2\n      jump(tag_45)\n    tag_46:\n      dup3\n      add\n      swap2\n      swap1\n      0x00\n      mstore\n      keccak256(0x00, 0x20)\n      swap1\n    tag_47:\n      dup2\n      sload\n      dup2\n      mstore\n      swap1\n      0x01\n      add\n      swap1\n      0x20\n      add\n      dup1\n      dup4\n      gt\n      tag_47\n      jumpi\n      dup3\n      swap1\n      sub\n      0x1f\n      and\n      dup3\n      add\n      swap2\n    tag_45:\n      pop\n      pop\n      pop\n      pop\n      pop\n      swap1\n      dup1\n      0x02\n      add\n      sload\n      swap1\n      pop\n      dup4\n      jump\t// out\n        /* \"Development-Codebases/Blockchain/Eth_Smart_Contract_Voting/contracts/Election.sol\":1240:1465  function closeElection() public{... */\n    tag_23:\n        /* \"Development-Codebases/Blockchain/Eth_Smart_Contract_Voting/contracts/Election.sol\":1380:1390  msg.sender */\n      caller\n        /* \"Development-Codebases/Blockchain/Eth_Smart_Contract_Voting/contracts/Election.sol\":1363:1390  electionOwner == msg.sender */\n      0xffffffffffffffffffffffffffffffffffffffff\n      and\n        /* \"Development-Codebases/Blockchain/Eth_Smart_Contract_Voting/contracts/Election.sol\":1363:1376  electionOwner */\n      0x00\n      dup1\n      sload\n      swap1\n      0x0100\n      exp\n      swap1\n      div\n      0xffffffffffffffffffffffffffffffffffffffff\n      and\n        /* \"Development-Codebases/Blockchain/Eth_Smart_Contract_Voting/contracts/Election.sol\":1363:1390  electionOwner == msg.sender */\n      0xffffffffffffffffffffffffffffffffffffffff\n      and\n      eq\n        /* \"Development-Codebases/Blockchain/Eth_Smart_Contract_Voting/contracts/Election.sol\":1355:1391  require(electionOwner == msg.sender) */\n      tag_49\n      jumpi\n      0x00\n      dup1\n      revert\n    tag_49:\n        /* \"Development-Codebases/Blockchain/Eth_Smart_Contract_Voting/contracts/Election.sol\":1413:1418  false */\n      0x00\n        /* \"Development-Codebases/Blockchain/Eth_Smart_Contract_Voting/contracts/Election.sol\":1402:1410  isOpened */\n      dup1\n      0x14\n        /* \"Development-Codebases/Blockchain/Eth_Smart_Contract_Voting/contracts/Election.sol\":1402:1418  isOpened = false */\n      0x0100\n      exp\n      dup2\n      sload\n      dup2\n      0xff\n      mul\n      not\n      and\n      swap1\n      dup4\n      iszero\n      iszero\n      mul\n      or\n      swap1\n      sstore\n      pop\n        /* \"Development-Codebases/Blockchain/Eth_Smart_Contract_Voting/contracts/Election.sol\":1452:1457  false */\n      0x00\n        /* \"Development-Codebases/Blockchain/Eth_Smart_Contract_Voting/contracts/Election.sol\":1434:1458  changedEventState(false) */\n      iszero\n      iszero\n      0xc3bbf431bbff6d5ed800be02ce8d8ee2ca419c8f7751187e8ca8627d72a15aa6\n      mload(0x40)\n      mload(0x40)\n      dup1\n      swap2\n      sub\n      swap1\n      log2\n        /* \"Development-Codebases/Blockchain/Eth_Smart_Contract_Voting/contracts/Election.sol\":1240:1465  function closeElection() public{... */\n      jump\t// out\n        /* \"Development-Codebases/Blockchain/Eth_Smart_Contract_Voting/contracts/Election.sol\":344:382  mapping(address => bool) public voters */\n    tag_27:\n      mstore(0x20, 0x01)\n      dup1\n      0x00\n      mstore\n      keccak256(0x00, 0x40)\n      0x00\n      swap2\n      pop\n      sload\n      swap1\n      0x0100\n      exp\n      swap1\n      div\n      0xff\n      and\n      dup2\n      jump\t// out\n        /* \"Development-Codebases/Blockchain/Eth_Smart_Contract_Voting/contracts/Election.sol\":1012:1234  function openElection() public{... */\n    tag_31:\n        /* \"Development-Codebases/Blockchain/Eth_Smart_Contract_Voting/contracts/Election.sol\":1151:1161  msg.sender */\n      caller\n        /* \"Development-Codebases/Blockchain/Eth_Smart_Contract_Voting/contracts/Election.sol\":1134:1161  electionOwner == msg.sender */\n      0xffffffffffffffffffffffffffffffffffffffff\n      and\n        /* \"Development-Codebases/Blockchain/Eth_Smart_Contract_Voting/contracts/Election.sol\":1134:1147  electionOwner */\n      0x00\n      dup1\n      sload\n      swap1\n      0x0100\n      exp\n      swap1\n      div\n      0xffffffffffffffffffffffffffffffffffffffff\n      and\n        /* \"Development-Codebases/Blockchain/Eth_Smart_Contract_Voting/contracts/Election.sol\":1134:1161  electionOwner == msg.sender */\n      0xffffffffffffffffffffffffffffffffffffffff\n      and\n      eq\n        /* \"Development-Codebases/Blockchain/Eth_Smart_Contract_Voting/contracts/Election.sol\":1126:1162  require(electionOwner == msg.sender) */\n      tag_51\n      jumpi\n      0x00\n      dup1\n      revert\n    tag_51:\n        /* \"Development-Codebases/Blockchain/Eth_Smart_Contract_Voting/contracts/Election.sol\":1184:1188  true */\n      0x01\n        /* \"Development-Codebases/Blockchain/Eth_Smart_Contract_Voting/contracts/Election.sol\":1173:1181  isOpened */\n      0x00\n      0x14\n        /* \"Development-Codebases/Blockchain/Eth_Smart_Contract_Voting/contracts/Election.sol\":1173:1188  isOpened = true */\n      0x0100\n      exp\n      dup2\n      sload\n      dup2\n      0xff\n      mul\n      not\n      and\n      swap1\n      dup4\n      iszero\n      iszero\n      mul\n      or\n      swap1\n      sstore\n      pop\n        /* \"Development-Codebases/Blockchain/Eth_Smart_Contract_Voting/contracts/Election.sol\":1222:1226  true */\n      0x01\n        /* \"Development-Codebases/Blockchain/Eth_Smart_Contract_Voting/contracts/Election.sol\":1204:1227  changedEventState(true) */\n      iszero\n      iszero\n      0xc3bbf431bbff6d5ed800be02ce8d8ee2ca419c8f7751187e8ca8627d72a15aa6\n      mload(0x40)\n      mload(0x40)\n      dup1\n      swap2\n      sub\n      swap1\n      log2\n        /* \"Development-Codebases/Blockchain/Eth_Smart_Contract_Voting/contracts/Election.sol\":1012:1234  function openElection() public{... */\n      jump\t// out\n        /* \"#utility.yul\":7:146   */\n    tag_53:\n        /* \"#utility.yul\":53:58   */\n      0x00\n        /* \"#utility.yul\":91:97   */\n      dup2\n        /* \"#utility.yul\":78:98   */\n      calldataload\n        /* \"#utility.yul\":69:98   */\n      swap1\n      pop\n        /* \"#utility.yul\":107:140   */\n      tag_55\n        /* \"#utility.yul\":134:139   */\n      dup2\n        /* \"#utility.yul\":107:140   */\n      tag_56\n      jump\t// in\n    tag_55:\n        /* \"#utility.yul\":59:146   */\n      swap3\n      swap2\n      pop\n      pop\n      jump\t// out\n        /* \"#utility.yul\":152:291   */\n    tag_57:\n        /* \"#utility.yul\":198:203   */\n      0x00\n        /* \"#utility.yul\":236:242   */\n      dup2\n        /* \"#utility.yul\":223:243   */\n      calldataload\n        /* \"#utility.yul\":214:243   */\n      swap1\n      pop\n        /* \"#utility.yul\":252:285   */\n      tag_59\n        /* \"#utility.yul\":279:284   */\n      dup2\n        /* \"#utility.yul\":252:285   */\n      tag_60\n      jump\t// in\n    tag_59:\n        /* \"#utility.yul\":204:291   */\n      swap3\n      swap2\n      pop\n      pop\n      jump\t// out\n        /* \"#utility.yul\":297:626   */\n    tag_26:\n        /* \"#utility.yul\":356:362   */\n      0x00\n        /* \"#utility.yul\":405:407   */\n      0x20\n        /* \"#utility.yul\":393:402   */\n      dup3\n        /* \"#utility.yul\":384:391   */\n      dup5\n        /* \"#utility.yul\":380:403   */\n      sub\n        /* \"#utility.yul\":376:408   */\n      slt\n        /* \"#utility.yul\":373:375   */\n      iszero\n      tag_62\n      jumpi\n        /* \"#utility.yul\":411:490   */\n      tag_63\n      tag_64\n      jump\t// in\n    tag_63:\n        /* \"#utility.yul\":373:375   */\n    tag_62:\n        /* \"#utility.yul\":531:532   */\n      0x00\n        /* \"#utility.yul\":556:609   */\n      tag_65\n        /* \"#utility.yul\":601:608   */\n      dup5\n        /* \"#utility.yul\":592:598   */\n      dup3\n        /* \"#utility.yul\":581:590   */\n      dup6\n        /* \"#utility.yul\":577:599   */\n      add\n        /* \"#utility.yul\":556:609   */\n      tag_53\n      jump\t// in\n    tag_65:\n        /* \"#utility.yul\":546:609   */\n      swap2\n      pop\n        /* \"#utility.yul\":502:619   */\n      pop\n        /* \"#utility.yul\":363:626   */\n      swap3\n      swap2\n      pop\n      pop\n      jump\t// out\n        /* \"#utility.yul\":632:961   */\n    tag_11:\n        /* \"#utility.yul\":691:697   */\n      0x00\n        /* \"#utility.yul\":740:742   */\n      0x20\n        /* \"#utility.yul\":728:737   */\n      dup3\n        /* \"#utility.yul\":719:726   */\n      dup5\n        /* \"#utility.yul\":715:738   */\n      sub\n        /* \"#utility.yul\":711:743   */\n      slt\n        /* \"#utility.yul\":708:710   */\n      iszero\n      tag_67\n      jumpi\n        /* \"#utility.yul\":746:825   */\n      tag_68\n      tag_64\n      jump\t// in\n    tag_68:\n        /* \"#utility.yul\":708:710   */\n    tag_67:\n        /* \"#utility.yul\":866:867   */\n      0x00\n        /* \"#utility.yul\":891:944   */\n      tag_69\n        /* \"#utility.yul\":936:943   */\n      dup5\n        /* \"#utility.yul\":927:933   */\n      dup3\n        /* \"#utility.yul\":916:925   */\n      dup6\n        /* \"#utility.yul\":912:934   */\n      add\n        /* \"#utility.yul\":891:944   */\n      tag_57\n      jump\t// in\n    tag_69:\n        /* \"#utility.yul\":881:944   */\n      swap2\n      pop\n        /* \"#utility.yul\":837:954   */\n      pop\n        /* \"#utility.yul\":698:961   */\n      swap3\n      swap2\n      pop\n      pop\n      jump\t// out\n        /* \"#utility.yul\":967:1076   */\n    tag_70:\n        /* \"#utility.yul\":1048:1069   */\n      tag_72\n        /* \"#utility.yul\":1063:1068   */\n      dup2\n        /* \"#utility.yul\":1048:1069   */\n      tag_73\n      jump\t// in\n    tag_72:\n        /* \"#utility.yul\":1043:1046   */\n      dup3\n        /* \"#utility.yul\":1036:1070   */\n      mstore\n        /* \"#utility.yul\":1026:1076   */\n      pop\n      pop\n      jump\t// out\n        /* \"#utility.yul\":1082:1446   */\n    tag_74:\n        /* \"#utility.yul\":1170:1173   */\n      0x00\n        /* \"#utility.yul\":1198:1237   */\n      tag_76\n        /* \"#utility.yul\":1231:1236   */\n      dup3\n        /* \"#utility.yul\":1198:1237   */\n      tag_77\n      jump\t// in\n    tag_76:\n        /* \"#utility.yul\":1253:1324   */\n      tag_78\n        /* \"#utility.yul\":1317:1323   */\n      dup2\n        /* \"#utility.yul\":1312:1315   */\n      dup6\n        /* \"#utility.yul\":1253:1324   */\n      tag_79\n      jump\t// in\n    tag_78:\n        /* \"#utility.yul\":1246:1324   */\n      swap4\n      pop\n        /* \"#utility.yul\":1333:1385   */\n      tag_80\n        /* \"#utility.yul\":1378:1384   */\n      dup2\n        /* \"#utility.yul\":1373:1376   */\n      dup6\n        /* \"#utility.yul\":1366:1370   */\n      0x20\n        /* \"#utility.yul\":1359:1364   */\n      dup7\n        /* \"#utility.yul\":1355:1371   */\n      add\n        /* \"#utility.yul\":1333:1385   */\n      tag_81\n      jump\t// in\n    tag_80:\n        /* \"#utility.yul\":1410:1439   */\n      tag_82\n        /* \"#utility.yul\":1432:1438   */\n      dup2\n        /* \"#utility.yul\":1410:1439   */\n      tag_83\n      jump\t// in\n    tag_82:\n        /* \"#utility.yul\":1405:1408   */\n      dup5\n        /* \"#utility.yul\":1401:1440   */\n      add\n        /* \"#utility.yul\":1394:1440   */\n      swap2\n      pop\n        /* \"#utility.yul\":1174:1446   */\n      pop\n      swap3\n      swap2\n      pop\n      pop\n      jump\t// out\n        /* \"#utility.yul\":1452:1818   */\n    tag_84:\n        /* \"#utility.yul\":1594:1597   */\n      0x00\n        /* \"#utility.yul\":1615:1682   */\n      tag_86\n        /* \"#utility.yul\":1679:1681   */\n      0x17\n        /* \"#utility.yul\":1674:1677   */\n      dup4\n        /* \"#utility.yul\":1615:1682   */\n      tag_79\n      jump\t// in\n    tag_86:\n        /* \"#utility.yul\":1608:1682   */\n      swap2\n      pop\n        /* \"#utility.yul\":1691:1784   */\n      tag_87\n        /* \"#utility.yul\":1780:1783   */\n      dup3\n        /* \"#utility.yul\":1691:1784   */\n      tag_88\n      jump\t// in\n    tag_87:\n        /* \"#utility.yul\":1809:1811   */\n      0x20\n        /* \"#utility.yul\":1804:1807   */\n      dup3\n        /* \"#utility.yul\":1800:1812   */\n      add\n        /* \"#utility.yul\":1793:1812   */\n      swap1\n      pop\n        /* \"#utility.yul\":1598:1818   */\n      swap2\n      swap1\n      pop\n      jump\t// out\n        /* \"#utility.yul\":1824:1942   */\n    tag_89:\n        /* \"#utility.yul\":1911:1935   */\n      tag_91\n        /* \"#utility.yul\":1929:1934   */\n      dup2\n        /* \"#utility.yul\":1911:1935   */\n      tag_92\n      jump\t// in\n    tag_91:\n        /* \"#utility.yul\":1906:1909   */\n      dup3\n        /* \"#utility.yul\":1899:1936   */\n      mstore\n        /* \"#utility.yul\":1889:1942   */\n      pop\n      pop\n      jump\t// out\n        /* \"#utility.yul\":1948:2158   */\n    tag_29:\n        /* \"#utility.yul\":2035:2039   */\n      0x00\n        /* \"#utility.yul\":2073:2075   */\n      0x20\n        /* \"#utility.yul\":2062:2071   */\n      dup3\n        /* \"#utility.yul\":2058:2076   */\n      add\n        /* \"#utility.yul\":2050:2076   */\n      swap1\n      pop\n        /* \"#utility.yul\":2086:2151   */\n      tag_94\n        /* \"#utility.yul\":2148:2149   */\n      0x00\n        /* \"#utility.yul\":2137:2146   */\n      dup4\n        /* \"#utility.yul\":2133:2150   */\n      add\n        /* \"#utility.yul\":2124:2130   */\n      dup5\n        /* \"#utility.yul\":2086:2151   */\n      tag_70\n      jump\t// in\n    tag_94:\n        /* \"#utility.yul\":2040:2158   */\n      swap3\n      swap2\n      pop\n      pop\n      jump\t// out\n        /* \"#utility.yul\":2164:2583   */\n    tag_35:\n        /* \"#utility.yul\":2330:2334   */\n      0x00\n        /* \"#utility.yul\":2368:2370   */\n      0x20\n        /* \"#utility.yul\":2357:2366   */\n      dup3\n        /* \"#utility.yul\":2353:2371   */\n      add\n        /* \"#utility.yul\":2345:2371   */\n      swap1\n      pop\n        /* \"#utility.yul\":2417:2426   */\n      dup2\n        /* \"#utility.yul\":2411:2415   */\n      dup2\n        /* \"#utility.yul\":2407:2427   */\n      sub\n        /* \"#utility.yul\":2403:2404   */\n      0x00\n        /* \"#utility.yul\":2392:2401   */\n      dup4\n        /* \"#utility.yul\":2388:2405   */\n      add\n        /* \"#utility.yul\":2381:2428   */\n      mstore\n        /* \"#utility.yul\":2445:2576   */\n      tag_96\n        /* \"#utility.yul\":2571:2575   */\n      dup2\n        /* \"#utility.yul\":2445:2576   */\n      tag_84\n      jump\t// in\n    tag_96:\n        /* \"#utility.yul\":2437:2576   */\n      swap1\n      pop\n        /* \"#utility.yul\":2335:2583   */\n      swap2\n      swap1\n      pop\n      jump\t// out\n        /* \"#utility.yul\":2589:2811   */\n    tag_16:\n        /* \"#utility.yul\":2682:2686   */\n      0x00\n        /* \"#utility.yul\":2720:2722   */\n      0x20\n        /* \"#utility.yul\":2709:2718   */\n      dup3\n        /* \"#utility.yul\":2705:2723   */\n      add\n        /* \"#utility.yul\":2697:2723   */\n      swap1\n      pop\n        /* \"#utility.yul\":2733:2804   */\n      tag_98\n        /* \"#utility.yul\":2801:2802   */\n      0x00\n        /* \"#utility.yul\":2790:2799   */\n      dup4\n        /* \"#utility.yul\":2786:2803   */\n      add\n        /* \"#utility.yul\":2777:2783   */\n      dup5\n        /* \"#utility.yul\":2733:2804   */\n      tag_89\n      jump\t// in\n    tag_98:\n        /* \"#utility.yul\":2687:2811   */\n      swap3\n      swap2\n      pop\n      pop\n      jump\t// out\n        /* \"#utility.yul\":2817:3350   */\n    tag_21:\n        /* \"#utility.yul\":2986:2990   */\n      0x00\n        /* \"#utility.yul\":3024:3026   */\n      0x60\n        /* \"#utility.yul\":3013:3022   */\n      dup3\n        /* \"#utility.yul\":3009:3027   */\n      add\n        /* \"#utility.yul\":3001:3027   */\n      swap1\n      pop\n        /* \"#utility.yul\":3037:3108   */\n      tag_100\n        /* \"#utility.yul\":3105:3106   */\n      0x00\n        /* \"#utility.yul\":3094:3103   */\n      dup4\n        /* \"#utility.yul\":3090:3107   */\n      add\n        /* \"#utility.yul\":3081:3087   */\n      dup7\n        /* \"#utility.yul\":3037:3108   */\n      tag_89\n      jump\t// in\n    tag_100:\n        /* \"#utility.yul\":3155:3164   */\n      dup2\n        /* \"#utility.yul\":3149:3153   */\n      dup2\n        /* \"#utility.yul\":3145:3165   */\n      sub\n        /* \"#utility.yul\":3140:3142   */\n      0x20\n        /* \"#utility.yul\":3129:3138   */\n      dup4\n        /* \"#utility.yul\":3125:3143   */\n      add\n        /* \"#utility.yul\":3118:3166   */\n      mstore\n        /* \"#utility.yul\":3183:3261   */\n      tag_101\n        /* \"#utility.yul\":3256:3260   */\n      dup2\n        /* \"#utility.yul\":3247:3253   */\n      dup6\n        /* \"#utility.yul\":3183:3261   */\n      tag_74\n      jump\t// in\n    tag_101:\n        /* \"#utility.yul\":3175:3261   */\n      swap1\n      pop\n        /* \"#utility.yul\":3271:3343   */\n      tag_102\n        /* \"#utility.yul\":3339:3341   */\n      0x40\n        /* \"#utility.yul\":3328:3337   */\n      dup4\n        /* \"#utility.yul\":3324:3342   */\n      add\n        /* \"#utility.yul\":3315:3321   */\n      dup5\n        /* \"#utility.yul\":3271:3343   */\n      tag_89\n      jump\t// in\n    tag_102:\n        /* \"#utility.yul\":2991:3350   */\n      swap5\n      swap4\n      pop\n      pop\n      pop\n      pop\n      jump\t// out\n        /* \"#utility.yul\":3437:3536   */\n    tag_77:\n        /* \"#utility.yul\":3489:3495   */\n      0x00\n        /* \"#utility.yul\":3523:3528   */\n      dup2\n        /* \"#utility.yul\":3517:3529   */\n      mload\n        /* \"#utility.yul\":3507:3529   */\n      swap1\n      pop\n        /* \"#utility.yul\":3496:3536   */\n      swap2\n      swap1\n      pop\n      jump\t// out\n        /* \"#utility.yul\":3542:3711   */\n    tag_79:\n        /* \"#utility.yul\":3626:3637   */\n      0x00\n        /* \"#utility.yul\":3660:3666   */\n      dup3\n        /* \"#utility.yul\":3655:3658   */\n      dup3\n        /* \"#utility.yul\":3648:3667   */\n      mstore\n        /* \"#utility.yul\":3700:3704   */\n      0x20\n        /* \"#utility.yul\":3695:3698   */\n      dup3\n        /* \"#utility.yul\":3691:3705   */\n      add\n        /* \"#utility.yul\":3676:3705   */\n      swap1\n      pop\n        /* \"#utility.yul\":3638:3711   */\n      swap3\n      swap2\n      pop\n      pop\n      jump\t// out\n        /* \"#utility.yul\":3717:3813   */\n    tag_107:\n        /* \"#utility.yul\":3754:3761   */\n      0x00\n        /* \"#utility.yul\":3783:3807   */\n      tag_109\n        /* \"#utility.yul\":3801:3806   */\n      dup3\n        /* \"#utility.yul\":3783:3807   */\n      tag_110\n      jump\t// in\n    tag_109:\n        /* \"#utility.yul\":3772:3807   */\n      swap1\n      pop\n        /* \"#utility.yul\":3762:3813   */\n      swap2\n      swap1\n      pop\n      jump\t// out\n        /* \"#utility.yul\":3819:3909   */\n    tag_73:\n        /* \"#utility.yul\":3853:3860   */\n      0x00\n        /* \"#utility.yul\":3896:3901   */\n      dup2\n        /* \"#utility.yul\":3889:3902   */\n      iszero\n        /* \"#utility.yul\":3882:3903   */\n      iszero\n        /* \"#utility.yul\":3871:3903   */\n      swap1\n      pop\n        /* \"#utility.yul\":3861:3909   */\n      swap2\n      swap1\n      pop\n      jump\t// out\n        /* \"#utility.yul\":3915:4041   */\n    tag_110:\n        /* \"#utility.yul\":3952:3959   */\n      0x00\n        /* \"#utility.yul\":3992:4034   */\n      0xffffffffffffffffffffffffffffffffffffffff\n        /* \"#utility.yul\":3985:3990   */\n      dup3\n        /* \"#utility.yul\":3981:4035   */\n      and\n        /* \"#utility.yul\":3970:4035   */\n      swap1\n      pop\n        /* \"#utility.yul\":3960:4041   */\n      swap2\n      swap1\n      pop\n      jump\t// out\n        /* \"#utility.yul\":4047:4124   */\n    tag_92:\n        /* \"#utility.yul\":4084:4091   */\n      0x00\n        /* \"#utility.yul\":4113:4118   */\n      dup2\n        /* \"#utility.yul\":4102:4118   */\n      swap1\n      pop\n        /* \"#utility.yul\":4092:4124   */\n      swap2\n      swap1\n      pop\n      jump\t// out\n        /* \"#utility.yul\":4130:4437   */\n    tag_81:\n        /* \"#utility.yul\":4198:4199   */\n      0x00\n        /* \"#utility.yul\":4208:4321   */\n    tag_115:\n        /* \"#utility.yul\":4222:4228   */\n      dup4\n        /* \"#utility.yul\":4219:4220   */\n      dup2\n        /* \"#utility.yul\":4216:4229   */\n      lt\n        /* \"#utility.yul\":4208:4321   */\n      iszero\n      tag_117\n      jumpi\n        /* \"#utility.yul\":4307:4308   */\n      dup1\n        /* \"#utility.yul\":4302:4305   */\n      dup3\n        /* \"#utility.yul\":4298:4309   */\n      add\n        /* \"#utility.yul\":4292:4310   */\n      mload\n        /* \"#utility.yul\":4288:4289   */\n      dup2\n        /* \"#utility.yul\":4283:4286   */\n      dup5\n        /* \"#utility.yul\":4279:4290   */\n      add\n        /* \"#utility.yul\":4272:4311   */\n      mstore\n        /* \"#utility.yul\":4244:4246   */\n      0x20\n        /* \"#utility.yul\":4241:4242   */\n      dup2\n        /* \"#utility.yul\":4237:4247   */\n      add\n        /* \"#utility.yul\":4232:4247   */\n      swap1\n      pop\n        /* \"#utility.yul\":4208:4321   */\n      jump(tag_115)\n    tag_117:\n        /* \"#utility.yul\":4339:4345   */\n      dup4\n        /* \"#utility.yul\":4336:4337   */\n      dup2\n        /* \"#utility.yul\":4333:4346   */\n      gt\n        /* \"#utility.yul\":4330:4332   */\n      iszero\n      tag_118\n      jumpi\n        /* \"#utility.yul\":4419:4420   */\n      0x00\n        /* \"#utility.yul\":4410:4416   */\n      dup5\n        /* \"#utility.yul\":4405:4408   */\n      dup5\n        /* \"#utility.yul\":4401:4417   */\n      add\n        /* \"#utility.yul\":4394:4421   */\n      mstore\n        /* \"#utility.yul\":4330:4332   */\n    tag_118:\n        /* \"#utility.yul\":4179:4437   */\n      pop\n      pop\n      pop\n      pop\n      jump\t// out\n        /* \"#utility.yul\":4443:4763   */\n    tag_43:\n        /* \"#utility.yul\":4487:4493   */\n      0x00\n        /* \"#utility.yul\":4524:4525   */\n      0x02\n        /* \"#utility.yul\":4518:4522   */\n      dup3\n        /* \"#utility.yul\":4514:4526   */\n      div\n        /* \"#utility.yul\":4504:4526   */\n      swap1\n      pop\n        /* \"#utility.yul\":4571:4572   */\n      0x01\n        /* \"#utility.yul\":4565:4569   */\n      dup3\n        /* \"#utility.yul\":4561:4573   */\n      and\n        /* \"#utility.yul\":4592:4610   */\n      dup1\n        /* \"#utility.yul\":4582:4584   */\n      tag_120\n      jumpi\n        /* \"#utility.yul\":4648:4652   */\n      0x7f\n        /* \"#utility.yul\":4640:4646   */\n      dup3\n        /* \"#utility.yul\":4636:4653   */\n      and\n        /* \"#utility.yul\":4626:4653   */\n      swap2\n      pop\n        /* \"#utility.yul\":4582:4584   */\n    tag_120:\n        /* \"#utility.yul\":4710:4712   */\n      0x20\n        /* \"#utility.yul\":4702:4708   */\n      dup3\n        /* \"#utility.yul\":4699:4713   */\n      lt\n        /* \"#utility.yul\":4679:4697   */\n      dup2\n        /* \"#utility.yul\":4676:4714   */\n      eq\n        /* \"#utility.yul\":4673:4675   */\n      iszero\n      tag_121\n      jumpi\n        /* \"#utility.yul\":4729:4747   */\n      tag_122\n      tag_123\n      jump\t// in\n    tag_122:\n        /* \"#utility.yul\":4673:4675   */\n    tag_121:\n        /* \"#utility.yul\":4494:4763   */\n      pop\n      swap2\n      swap1\n      pop\n      jump\t// out\n        /* \"#utility.yul\":4769:5002   */\n    tag_41:\n        /* \"#utility.yul\":4808:4811   */\n      0x00\n        /* \"#utility.yul\":4831:4855   */\n      tag_125\n        /* \"#utility.yul\":4849:4854   */\n      dup3\n        /* \"#utility.yul\":4831:4855   */\n      tag_92\n      jump\t// in\n    tag_125:\n        /* \"#utility.yul\":4822:4855   */\n      swap2\n      pop\n        /* \"#utility.yul\":4877:4943   */\n      0xffffffffffffffffffffffffffffffffffffffffffffffffffffffffffffffff\n        /* \"#utility.yul\":4870:4875   */\n      dup3\n        /* \"#utility.yul\":4867:4944   */\n      eq\n        /* \"#utility.yul\":4864:4866   */\n      iszero\n      tag_126\n      jumpi\n        /* \"#utility.yul\":4947:4965   */\n      tag_127\n      tag_128\n      jump\t// in\n    tag_127:\n        /* \"#utility.yul\":4864:4866   */\n    tag_126:\n        /* \"#utility.yul\":4994:4995   */\n      0x01\n        /* \"#utility.yul\":4987:4992   */\n      dup3\n        /* \"#utility.yul\":4983:4996   */\n      add\n        /* \"#utility.yul\":4976:4996   */\n      swap1\n      pop\n        /* \"#utility.yul\":4812:5002   */\n      swap2\n      swap1\n      pop\n      jump\t// out\n        /* \"#utility.yul\":5008:5188   */\n    tag_128:\n        /* \"#utility.yul\":5056:5133   */\n      0x4e487b7100000000000000000000000000000000000000000000000000000000\n        /* \"#utility.yul\":5053:5054   */\n      0x00\n        /* \"#utility.yul\":5046:5134   */\n      mstore\n        /* \"#utility.yul\":5153:5157   */\n      0x11\n        /* \"#utility.yul\":5150:5151   */\n      0x04\n        /* \"#utility.yul\":5143:5158   */\n      mstore\n        /* \"#utility.yul\":5177:5181   */\n      0x24\n        /* \"#utility.yul\":5174:5175   */\n      0x00\n        /* \"#utility.yul\":5167:5182   */\n      revert\n        /* \"#utility.yul\":5194:5374   */\n    tag_123:\n        /* \"#utility.yul\":5242:5319   */\n      0x4e487b7100000000000000000000000000000000000000000000000000000000\n        /* \"#utility.yul\":5239:5240   */\n      0x00\n        /* \"#utility.yul\":5232:5320   */\n      mstore\n        /* \"#utility.yul\":5339:5343   */\n      0x22\n        /* \"#utility.yul\":5336:5337   */\n      0x04\n        /* \"#utility.yul\":5329:5344   */\n      mstore\n        /* \"#utility.yul\":5363:5367   */\n      0x24\n        /* \"#utility.yul\":5360:5361   */\n      0x00\n        /* \"#utility.yul\":5353:5368   */\n      revert\n        /* \"#utility.yul\":5503:5620   */\n    tag_64:\n        /* \"#utility.yul\":5612:5613   */\n      0x00\n        /* \"#utility.yul\":5609:5610   */\n      dup1\n        /* \"#utility.yul\":5602:5614   */\n      revert\n        /* \"#utility.yul\":5626:5728   */\n    tag_83:\n        /* \"#utility.yul\":5667:5673   */\n      0x00\n        /* \"#utility.yul\":5718:5720   */\n      0x1f\n        /* \"#utility.yul\":5714:5721   */\n      not\n        /* \"#utility.yul\":5709:5711   */\n      0x1f\n        /* \"#utility.yul\":5702:5707   */\n      dup4\n        /* \"#utility.yul\":5698:5712   */\n      add\n        /* \"#utility.yul\":5694:5722   */\n      and\n        /* \"#utility.yul\":5684:5722   */\n      swap1\n      pop\n        /* \"#utility.yul\":5674:5728   */\n      swap2\n      swap1\n      pop\n      jump\t// out\n        /* \"#utility.yul\":5734:5907   */\n    tag_88:\n        /* \"#utility.yul\":5874:5899   */\n      0x456c656374696f6e73206973206e6f74206f70656e6564000000000000000000\n        /* \"#utility.yul\":5870:5871   */\n      0x00\n        /* \"#utility.yul\":5862:5868   */\n      dup3\n        /* \"#utility.yul\":5858:5872   */\n      add\n        /* \"#utility.yul\":5851:5900   */\n      mstore\n        /* \"#utility.yul\":5840:5907   */\n      pop\n      jump\t// out\n        /* \"#utility.yul\":5913:6035   */\n    tag_56:\n        /* \"#utility.yul\":5986:6010   */\n      tag_137\n        /* \"#utility.yul\":6004:6009   */\n      dup2\n        /* \"#utility.yul\":5986:6010   */\n      tag_107\n      jump\t// in\n    tag_137:\n        /* \"#utility.yul\":5979:5984   */\n      dup2\n        /* \"#utility.yul\":5976:6011   */\n      eq\n        /* \"#utility.yul\":5966:5968   */\n      tag_138\n      jumpi\n        /* \"#utility.yul\":6025:6026   */\n      0x00\n        /* \"#utility.yul\":6022:6023   */\n      dup1\n        /* \"#utility.yul\":6015:6027   */\n      revert\n        /* \"#utility.yul\":5966:5968   */\n    tag_138:\n        /* \"#utility.yul\":5956:6035   */\n      pop\n      jump\t// out\n        /* \"#utility.yul\":6041:6163   */\n    tag_60:\n        /* \"#utility.yul\":6114:6138   */\n      tag_140\n        /* \"#utility.yul\":6132:6137   */\n      dup2\n        /* \"#utility.yul\":6114:6138   */\n      tag_92\n      jump\t// in\n    tag_140:\n        /* \"#utility.yul\":6107:6112   */\n      dup2\n        /* \"#utility.yul\":6104:6139   */\n      eq\n        /* \"#utility.yul\":6094:6096   */\n      tag_141\n      jumpi\n        /* \"#utility.yul\":6153:6154   */\n      0x00\n        /* \"#utility.yul\":6150:6151   */\n      dup1\n        /* \"#utility.yul\":6143:6155   */\n      revert\n        /* \"#utility.yul\":6094:6096   */\n    tag_141:\n        /* \"#utility.yul\":6084:6163   */\n      pop\n      jump\t// out\n\n    auxdata: 0xa264697066735822122060a3b54a9475e9e062b9811fd0b3a1465e8bd84eed8f91ccfda9d565a82006fa64736f6c63430008050033\n}\n",
				"bytecode": {
					"linkReferences": {},
					"object": "608060405260008060146101000a81548160ff0219169083151502179055503480156200002b57600080fd5b50336000806101000a81548173ffffffffffffffffffffffffffffffffffffffff021916908373ffffffffffffffffffffffffffffffffffffffff160217905550620000b26040518060400160405280600c81526020017f426974636f696e20636c75620000000000000000000000000000000000000000815250620000fe60201b60201c565b620000f86040518060400160405280600d81526020017f457468657265756d20636c756200000000000000000000000000000000000000815250620000fe60201b60201c565b62000320565b60036000815480929190620001139062000274565b91905055506040518060600160405280600354815260200182815260200160008152506002600060035481526020019081526020016000206000820151816000015560208201518160010190805190602001906200017392919062000184565b506040820151816002015590505050565b82805462000192906200023e565b90600052602060002090601f016020900481019282620001b6576000855562000202565b82601f10620001d157805160ff191683800117855562000202565b8280016001018555821562000202579182015b8281111562000201578251825591602001919060010190620001e4565b5b50905062000211919062000215565b5090565b5b808211156200023057600081600090555060010162000216565b5090565b6000819050919050565b600060028204905060018216806200025757607f821691505b602082108114156200026e576200026d620002f1565b5b50919050565b6000620002818262000234565b91507fffffffffffffffffffffffffffffffffffffffffffffffffffffffffffffffff821415620002b757620002b6620002c2565b5b600182019050919050565b7f4e487b7100000000000000000000000000000000000000000000000000000000600052601160045260246000fd5b7f4e487b7100000000000000000000000000000000000000000000000000000000600052602260045260246000fd5b6108aa80620003306000396000f3fe608060405234801561001057600080fd5b50600436106100625760003560e01c80630121b93f146100675780632d35a8a2146100835780633477ee2e146100a15780636c6c32d0146100d3578063a3ec138d146100dd578063c5d00f5d1461010d575b600080fd5b610081600480360381019061007c919061055c565b610117565b005b61008b6102e4565b604051610098919061063e565b60405180910390f35b6100bb60048036038101906100b6919061055c565b6102ea565b6040516100ca93929190610659565b60405180910390f35b6100db61039c565b005b6100f760048036038101906100f2919061052f565b610440565b6040516101049190610603565b60405180910390f35b610115610460565b005b600060149054906101000a900460ff16610166576040517f08c379a000000000000000000000000000000000000000000000000000000000815260040161015d9061061e565b60405180910390fd5b60008054906101000a900473ffffffffffffffffffffffffffffffffffffffff1673ffffffffffffffffffffffffffffffffffffffff163373ffffffffffffffffffffffffffffffffffffffff1614156101bf57600080fd5b600160003373ffffffffffffffffffffffffffffffffffffffff1673ffffffffffffffffffffffffffffffffffffffff16815260200190815260200160002060009054906101000a900460ff161561021657600080fd5b60008111801561022857506003548111155b61023157600080fd5b60018060003373ffffffffffffffffffffffffffffffffffffffff1673ffffffffffffffffffffffffffffffffffffffff16815260200190815260200160002060006101000a81548160ff0219169083151502179055506002600082815260200190815260200160002060020160008154809291906102af90610760565b9190505550807ffff3c900d938d21d0990d786e819f29b8d05c1ef587b462b939609625b684b1660405160405180910390a250565b60035481565b60026020528060005260406000206000915090508060000154908060010180546103139061072e565b80601f016020809104026020016040519081016040528092919081815260200182805461033f9061072e565b801561038c5780601f106103615761010080835404028352916020019161038c565b820191906000526020600020905b81548152906001019060200180831161036f57829003601f168201915b5050505050908060020154905083565b3373ffffffffffffffffffffffffffffffffffffffff1660008054906101000a900473ffffffffffffffffffffffffffffffffffffffff1673ffffffffffffffffffffffffffffffffffffffff16146103f457600080fd5b60008060146101000a81548160ff021916908315150217905550600015157fc3bbf431bbff6d5ed800be02ce8d8ee2ca419c8f7751187e8ca8627d72a15aa660405160405180910390a2565b60016020528060005260406000206000915054906101000a900460ff1681565b3373ffffffffffffffffffffffffffffffffffffffff1660008054906101000a900473ffffffffffffffffffffffffffffffffffffffff1673ffffffffffffffffffffffffffffffffffffffff16146104b857600080fd5b6001600060146101000a81548160ff021916908315150217905550600115157fc3bbf431bbff6d5ed800be02ce8d8ee2ca419c8f7751187e8ca8627d72a15aa660405160405180910390a2565b60008135905061051481610846565b92915050565b6000813590506105298161085d565b92915050565b60006020828403121561054557610544610807565b5b600061055384828501610505565b91505092915050565b60006020828403121561057257610571610807565b5b60006105808482850161051a565b91505092915050565b610592816106c5565b82525050565b60006105a382610697565b6105ad81856106a2565b93506105bd8185602086016106fb565b6105c68161080c565b840191505092915050565b60006105de6017836106a2565b91506105e98261081d565b602082019050919050565b6105fd816106f1565b82525050565b60006020820190506106186000830184610589565b92915050565b60006020820190508181036000830152610637816105d1565b9050919050565b600060208201905061065360008301846105f4565b92915050565b600060608201905061066e60008301866105f4565b81810360208301526106808185610598565b905061068f60408301846105f4565b949350505050565b600081519050919050565b600082825260208201905092915050565b60006106be826106d1565b9050919050565b60008115159050919050565b600073ffffffffffffffffffffffffffffffffffffffff82169050919050565b6000819050919050565b60005b838110156107195780820151818401526020810190506106fe565b83811115610728576000848401525b50505050565b6000600282049050600182168061074657607f821691505b6020821081141561075a576107596107d8565b5b50919050565b600061076b826106f1565b91507fffffffffffffffffffffffffffffffffffffffffffffffffffffffffffffffff82141561079e5761079d6107a9565b5b600182019050919050565b7f4e487b7100000000000000000000000000000000000000000000000000000000600052601160045260246000fd5b7f4e487b7100000000000000000000000000000000000000000000000000000000600052602260045260246000fd5b600080fd5b6000601f19601f8301169050919050565b7f456c656374696f6e73206973206e6f74206f70656e6564000000000000000000600082015250565b61084f816106b3565b811461085a57600080fd5b50565b610866816106f1565b811461087157600080fd5b5056fea264697066735822122060a3b54a9475e9e062b9811fd0b3a1465e8bd84eed8f91ccfda9d565a82006fa64736f6c63430008050033",
					"opcodes": "PUSH1 0x80 PUSH1 0x40 MSTORE PUSH1 0x0 DUP1 PUSH1 0x14 PUSH2 0x100 EXP DUP2 SLOAD DUP2 PUSH1 0xFF MUL NOT AND SWAP1 DUP4 ISZERO ISZERO MUL OR SWAP1 SSTORE POP CALLVALUE DUP1 ISZERO PUSH3 0x2B JUMPI PUSH1 0x0 DUP1 REVERT JUMPDEST POP CALLER PUSH1 0x0 DUP1 PUSH2 0x100 EXP DUP2 SLOAD DUP2 PUSH20 0xFFFFFFFFFFFFFFFFFFFFFFFFFFFFFFFFFFFFFFFF MUL NOT AND SWAP1 DUP4 PUSH20 0xFFFFFFFFFFFFFFFFFFFFFFFFFFFFFFFFFFFFFFFF AND MUL OR SWAP1 SSTORE POP PUSH3 0xB2 PUSH1 0x40 MLOAD DUP1 PUSH1 0x40 ADD PUSH1 0x40 MSTORE DUP1 PUSH1 0xC DUP2 MSTORE PUSH1 0x20 ADD PUSH32 0x426974636F696E20636C75620000000000000000000000000000000000000000 DUP2 MSTORE POP PUSH3 0xFE PUSH1 0x20 SHL PUSH1 0x20 SHR JUMP JUMPDEST PUSH3 0xF8 PUSH1 0x40 MLOAD DUP1 PUSH1 0x40 ADD PUSH1 0x40 MSTORE DUP1 PUSH1 0xD DUP2 MSTORE PUSH1 0x20 ADD PUSH32 0x457468657265756D20636C756200000000000000000000000000000000000000 DUP2 MSTORE POP PUSH3 0xFE PUSH1 0x20 SHL PUSH1 0x20 SHR JUMP JUMPDEST PUSH3 0x320 JUMP JUMPDEST PUSH1 0x3 PUSH1 0x0 DUP2 SLOAD DUP1 SWAP3 SWAP2 SWAP1 PUSH3 0x113 SWAP1 PUSH3 0x274 JUMP JUMPDEST SWAP2 SWAP1 POP SSTORE POP PUSH1 0x40 MLOAD DUP1 PUSH1 0x60 ADD PUSH1 0x40 MSTORE DUP1 PUSH1 0x3 SLOAD DUP2 MSTORE PUSH1 0x20 ADD DUP3 DUP2 MSTORE PUSH1 0x20 ADD PUSH1 0x0 DUP2 MSTORE POP PUSH1 0x2 PUSH1 0x0 PUSH1 0x3 SLOAD DUP2 MSTORE PUSH1 0x20 ADD SWAP1 DUP2 MSTORE PUSH1 0x20 ADD PUSH1 0x0 KECCAK256 PUSH1 0x0 DUP3 ADD MLOAD DUP2 PUSH1 0x0 ADD SSTORE PUSH1 0x20 DUP3 ADD MLOAD DUP2 PUSH1 0x1 ADD SWAP1 DUP1 MLOAD SWAP1 PUSH1 0x20 ADD SWAP1 PUSH3 0x173 SWAP3 SWAP2 SWAP1 PUSH3 0x184 JUMP JUMPDEST POP PUSH1 0x40 DUP3 ADD MLOAD DUP2 PUSH1 0x2 ADD SSTORE SWAP1 POP POP POP JUMP JUMPDEST DUP3 DUP1 SLOAD PUSH3 0x192 SWAP1 PUSH3 0x23E JUMP JUMPDEST SWAP1 PUSH1 0x0 MSTORE PUSH1 0x20 PUSH1 0x0 KECCAK256 SWAP1 PUSH1 0x1F ADD PUSH1 0x20 SWAP1 DIV DUP2 ADD SWAP3 DUP3 PUSH3 0x1B6 JUMPI PUSH1 0x0 DUP6 SSTORE PUSH3 0x202 JUMP JUMPDEST DUP3 PUSH1 0x1F LT PUSH3 0x1D1 JUMPI DUP1 MLOAD PUSH1 0xFF NOT AND DUP4 DUP1 ADD OR DUP6 SSTORE PUSH3 0x202 JUMP JUMPDEST DUP3 DUP1 ADD PUSH1 0x1 ADD DUP6 SSTORE DUP3 ISZERO PUSH3 0x202 JUMPI SWAP2 DUP3 ADD JUMPDEST DUP3 DUP2 GT ISZERO PUSH3 0x201 JUMPI DUP3 MLOAD DUP3 SSTORE SWAP2 PUSH1 0x20 ADD SWAP2 SWAP1 PUSH1 0x1 ADD SWAP1 PUSH3 0x1E4 JUMP JUMPDEST JUMPDEST POP SWAP1 POP PUSH3 0x211 SWAP2 SWAP1 PUSH3 0x215 JUMP JUMPDEST POP SWAP1 JUMP JUMPDEST JUMPDEST DUP1 DUP3 GT ISZERO PUSH3 0x230 JUMPI PUSH1 0x0 DUP2 PUSH1 0x0 SWAP1 SSTORE POP PUSH1 0x1 ADD PUSH3 0x216 JUMP JUMPDEST POP SWAP1 JUMP JUMPDEST PUSH1 0x0 DUP2 SWAP1 POP SWAP2 SWAP1 POP JUMP JUMPDEST PUSH1 0x0 PUSH1 0x2 DUP3 DIV SWAP1 POP PUSH1 0x1 DUP3 AND DUP1 PUSH3 0x257 JUMPI PUSH1 0x7F DUP3 AND SWAP2 POP JUMPDEST PUSH1 0x20 DUP3 LT DUP2 EQ ISZERO PUSH3 0x26E JUMPI PUSH3 0x26D PUSH3 0x2F1 JUMP JUMPDEST JUMPDEST POP SWAP2 SWAP1 POP JUMP JUMPDEST PUSH1 0x0 PUSH3 0x281 DUP3 PUSH3 0x234 JUMP JUMPDEST SWAP2 POP PUSH32 0xFFFFFFFFFFFFFFFFFFFFFFFFFFFFFFFFFFFFFFFFFFFFFFFFFFFFFFFFFFFFFFFF DUP3 EQ ISZERO PUSH3 0x2B7 JUMPI PUSH3 0x2B6 PUSH3 0x2C2 JUMP JUMPDEST JUMPDEST PUSH1 0x1 DUP3 ADD SWAP1 POP SWAP2 SWAP1 POP JUMP JUMPDEST PUSH32 0x4E487B7100000000000000000000000000000000000000000000000000000000 PUSH1 0x0 MSTORE PUSH1 0x11 PUSH1 0x4 MSTORE PUSH1 0x24 PUSH1 0x0 REVERT JUMPDEST PUSH32 0x4E487B7100000000000000000000000000000000000000000000000000000000 PUSH1 0x0 MSTORE PUSH1 0x22 PUSH1 0x4 MSTORE PUSH1 0x24 PUSH1 0x0 REVERT JUMPDEST PUSH2 0x8AA DUP1 PUSH3 0x330 PUSH1 0x0 CODECOPY PUSH1 0x0 RETURN INVALID PUSH1 0x80 PUSH1 0x40 MSTORE CALLVALUE DUP1 ISZERO PUSH2 0x10 JUMPI PUSH1 0x0 DUP1 REVERT JUMPDEST POP PUSH1 0x4 CALLDATASIZE LT PUSH2 0x62 JUMPI PUSH1 0x0 CALLDATALOAD PUSH1 0xE0 SHR DUP1 PUSH4 0x121B93F EQ PUSH2 0x67 JUMPI DUP1 PUSH4 0x2D35A8A2 EQ PUSH2 0x83 JUMPI DUP1 PUSH4 0x3477EE2E EQ PUSH2 0xA1 JUMPI DUP1 PUSH4 0x6C6C32D0 EQ PUSH2 0xD3 JUMPI DUP1 PUSH4 0xA3EC138D EQ PUSH2 0xDD JUMPI DUP1 PUSH4 0xC5D00F5D EQ PUSH2 0x10D JUMPI JUMPDEST PUSH1 0x0 DUP1 REVERT JUMPDEST PUSH2 0x81 PUSH1 0x4 DUP1 CALLDATASIZE SUB DUP2 ADD SWAP1 PUSH2 0x7C SWAP2 SWAP1 PUSH2 0x55C JUMP JUMPDEST PUSH2 0x117 JUMP JUMPDEST STOP JUMPDEST PUSH2 0x8B PUSH2 0x2E4 JUMP JUMPDEST PUSH1 0x40 MLOAD PUSH2 0x98 SWAP2 SWAP1 PUSH2 0x63E JUMP JUMPDEST PUSH1 0x40 MLOAD DUP1 SWAP2 SUB SWAP1 RETURN JUMPDEST PUSH2 0xBB PUSH1 0x4 DUP1 CALLDATASIZE SUB DUP2 ADD SWAP1 PUSH2 0xB6 SWAP2 SWAP1 PUSH2 0x55C JUMP JUMPDEST PUSH2 0x2EA JUMP JUMPDEST PUSH1 0x40 MLOAD PUSH2 0xCA SWAP4 SWAP3 SWAP2 SWAP1 PUSH2 0x659 JUMP JUMPDEST PUSH1 0x40 MLOAD DUP1 SWAP2 SUB SWAP1 RETURN JUMPDEST PUSH2 0xDB PUSH2 0x39C JUMP JUMPDEST STOP JUMPDEST PUSH2 0xF7 PUSH1 0x4 DUP1 CALLDATASIZE SUB DUP2 ADD SWAP1 PUSH2 0xF2 SWAP2 SWAP1 PUSH2 0x52F JUMP JUMPDEST PUSH2 0x440 JUMP JUMPDEST PUSH1 0x40 MLOAD PUSH2 0x104 SWAP2 SWAP1 PUSH2 0x603 JUMP JUMPDEST PUSH1 0x40 MLOAD DUP1 SWAP2 SUB SWAP1 RETURN JUMPDEST PUSH2 0x115 PUSH2 0x460 JUMP JUMPDEST STOP JUMPDEST PUSH1 0x0 PUSH1 0x14 SWAP1 SLOAD SWAP1 PUSH2 0x100 EXP SWAP1 DIV PUSH1 0xFF AND PUSH2 0x166 JUMPI PUSH1 0x40 MLOAD PUSH32 0x8C379A000000000000000000000000000000000000000000000000000000000 DUP2 MSTORE PUSH1 0x4 ADD PUSH2 0x15D SWAP1 PUSH2 0x61E JUMP JUMPDEST PUSH1 0x40 MLOAD DUP1 SWAP2 SUB SWAP1 REVERT JUMPDEST PUSH1 0x0 DUP1 SLOAD SWAP1 PUSH2 0x100 EXP SWAP1 DIV PUSH20 0xFFFFFFFFFFFFFFFFFFFFFFFFFFFFFFFFFFFFFFFF AND PUSH20 0xFFFFFFFFFFFFFFFFFFFFFFFFFFFFFFFFFFFFFFFF AND CALLER PUSH20 0xFFFFFFFFFFFFFFFFFFFFFFFFFFFFFFFFFFFFFFFF AND EQ ISZERO PUSH2 0x1BF JUMPI PUSH1 0x0 DUP1 REVERT JUMPDEST PUSH1 0x1 PUSH1 0x0 CALLER PUSH20 0xFFFFFFFFFFFFFFFFFFFFFFFFFFFFFFFFFFFFFFFF AND PUSH20 0xFFFFFFFFFFFFFFFFFFFFFFFFFFFFFFFFFFFFFFFF AND DUP2 MSTORE PUSH1 0x20 ADD SWAP1 DUP2 MSTORE PUSH1 0x20 ADD PUSH1 0x0 KECCAK256 PUSH1 0x0 SWAP1 SLOAD SWAP1 PUSH2 0x100 EXP SWAP1 DIV PUSH1 0xFF AND ISZERO PUSH2 0x216 JUMPI PUSH1 0x0 DUP1 REVERT JUMPDEST PUSH1 0x0 DUP2 GT DUP1 ISZERO PUSH2 0x228 JUMPI POP PUSH1 0x3 SLOAD DUP2 GT ISZERO JUMPDEST PUSH2 0x231 JUMPI PUSH1 0x0 DUP1 REVERT JUMPDEST PUSH1 0x1 DUP1 PUSH1 0x0 CALLER PUSH20 0xFFFFFFFFFFFFFFFFFFFFFFFFFFFFFFFFFFFFFFFF AND PUSH20 0xFFFFFFFFFFFFFFFFFFFFFFFFFFFFFFFFFFFFFFFF AND DUP2 MSTORE PUSH1 0x20 ADD SWAP1 DUP2 MSTORE PUSH1 0x20 ADD PUSH1 0x0 KECCAK256 PUSH1 0x0 PUSH2 0x100 EXP DUP2 SLOAD DUP2 PUSH1 0xFF MUL NOT AND SWAP1 DUP4 ISZERO ISZERO MUL OR SWAP1 SSTORE POP PUSH1 0x2 PUSH1 0x0 DUP3 DUP2 MSTORE PUSH1 0x20 ADD SWAP1 DUP2 MSTORE PUSH1 0x20 ADD PUSH1 0x0 KECCAK256 PUSH1 0x2 ADD PUSH1 0x0 DUP2 SLOAD DUP1 SWAP3 SWAP2 SWAP1 PUSH2 0x2AF SWAP1 PUSH2 0x760 JUMP JUMPDEST SWAP2 SWAP1 POP SSTORE POP DUP1 PUSH32 0xFFF3C900D938D21D0990D786E819F29B8D05C1EF587B462B939609625B684B16 PUSH1 0x40 MLOAD PUSH1 0x40 MLOAD DUP1 SWAP2 SUB SWAP1 LOG2 POP JUMP JUMPDEST PUSH1 0x3 SLOAD DUP2 JUMP JUMPDEST PUSH1 0x2 PUSH1 0x20 MSTORE DUP1 PUSH1 0x0 MSTORE PUSH1 0x40 PUSH1 0x0 KECCAK256 PUSH1 0x0 SWAP2 POP SWAP1 POP DUP1 PUSH1 0x0 ADD SLOAD SWAP1 DUP1 PUSH1 0x1 ADD DUP1 SLOAD PUSH2 0x313 SWAP1 PUSH2 0x72E JUMP JUMPDEST DUP1 PUSH1 0x1F ADD PUSH1 0x20 DUP1 SWAP2 DIV MUL PUSH1 0x20 ADD PUSH1 0x40 MLOAD SWAP1 DUP2 ADD PUSH1 0x40 MSTORE DUP1 SWAP3 SWAP2 SWAP1 DUP2 DUP2 MSTORE PUSH1 0x20 ADD DUP3 DUP1 SLOAD PUSH2 0x33F SWAP1 PUSH2 0x72E JUMP JUMPDEST DUP1 ISZERO PUSH2 0x38C JUMPI DUP1 PUSH1 0x1F LT PUSH2 0x361 JUMPI PUSH2 0x100 DUP1 DUP4 SLOAD DIV MUL DUP4 MSTORE SWAP2 PUSH1 0x20 ADD SWAP2 PUSH2 0x38C JUMP JUMPDEST DUP3 ADD SWAP2 SWAP1 PUSH1 0x0 MSTORE PUSH1 0x20 PUSH1 0x0 KECCAK256 SWAP1 JUMPDEST DUP2 SLOAD DUP2 MSTORE SWAP1 PUSH1 0x1 ADD SWAP1 PUSH1 0x20 ADD DUP1 DUP4 GT PUSH2 0x36F JUMPI DUP3 SWAP1 SUB PUSH1 0x1F AND DUP3 ADD SWAP2 JUMPDEST POP POP POP POP POP SWAP1 DUP1 PUSH1 0x2 ADD SLOAD SWAP1 POP DUP4 JUMP JUMPDEST CALLER PUSH20 0xFFFFFFFFFFFFFFFFFFFFFFFFFFFFFFFFFFFFFFFF AND PUSH1 0x0 DUP1 SLOAD SWAP1 PUSH2 0x100 EXP SWAP1 DIV PUSH20 0xFFFFFFFFFFFFFFFFFFFFFFFFFFFFFFFFFFFFFFFF AND PUSH20 0xFFFFFFFFFFFFFFFFFFFFFFFFFFFFFFFFFFFFFFFF AND EQ PUSH2 0x3F4 JUMPI PUSH1 0x0 DUP1 REVERT JUMPDEST PUSH1 0x0 DUP1 PUSH1 0x14 PUSH2 0x100 EXP DUP2 SLOAD DUP2 PUSH1 0xFF MUL NOT AND SWAP1 DUP4 ISZERO ISZERO MUL OR SWAP1 SSTORE POP PUSH1 0x0 ISZERO ISZERO PUSH32 0xC3BBF431BBFF6D5ED800BE02CE8D8EE2CA419C8F7751187E8CA8627D72A15AA6 PUSH1 0x40 MLOAD PUSH1 0x40 MLOAD DUP1 SWAP2 SUB SWAP1 LOG2 JUMP JUMPDEST PUSH1 0x1 PUSH1 0x20 MSTORE DUP1 PUSH1 0x0 MSTORE PUSH1 0x40 PUSH1 0x0 KECCAK256 PUSH1 0x0 SWAP2 POP SLOAD SWAP1 PUSH2 0x100 EXP SWAP1 DIV PUSH1 0xFF AND DUP2 JUMP JUMPDEST CALLER PUSH20 0xFFFFFFFFFFFFFFFFFFFFFFFFFFFFFFFFFFFFFFFF AND PUSH1 0x0 DUP1 SLOAD SWAP1 PUSH2 0x100 EXP SWAP1 DIV PUSH20 0xFFFFFFFFFFFFFFFFFFFFFFFFFFFFFFFFFFFFFFFF AND PUSH20 0xFFFFFFFFFFFFFFFFFFFFFFFFFFFFFFFFFFFFFFFF AND EQ PUSH2 0x4B8 JUMPI PUSH1 0x0 DUP1 REVERT JUMPDEST PUSH1 0x1 PUSH1 0x0 PUSH1 0x14 PUSH2 0x100 EXP DUP2 SLOAD DUP2 PUSH1 0xFF MUL NOT AND SWAP1 DUP4 ISZERO ISZERO MUL OR SWAP1 SSTORE POP PUSH1 0x1 ISZERO ISZERO PUSH32 0xC3BBF431BBFF6D5ED800BE02CE8D8EE2CA419C8F7751187E8CA8627D72A15AA6 PUSH1 0x40 MLOAD PUSH1 0x40 MLOAD DUP1 SWAP2 SUB SWAP1 LOG2 JUMP JUMPDEST PUSH1 0x0 DUP2 CALLDATALOAD SWAP1 POP PUSH2 0x514 DUP2 PUSH2 0x846 JUMP JUMPDEST SWAP3 SWAP2 POP POP JUMP JUMPDEST PUSH1 0x0 DUP2 CALLDATALOAD SWAP1 POP PUSH2 0x529 DUP2 PUSH2 0x85D JUMP JUMPDEST SWAP3 SWAP2 POP POP JUMP JUMPDEST PUSH1 0x0 PUSH1 0x20 DUP3 DUP5 SUB SLT ISZERO PUSH2 0x545 JUMPI PUSH2 0x544 PUSH2 0x807 JUMP JUMPDEST JUMPDEST PUSH1 0x0 PUSH2 0x553 DUP5 DUP3 DUP6 ADD PUSH2 0x505 JUMP JUMPDEST SWAP2 POP POP SWAP3 SWAP2 POP POP JUMP JUMPDEST PUSH1 0x0 PUSH1 0x20 DUP3 DUP5 SUB SLT ISZERO PUSH2 0x572 JUMPI PUSH2 0x571 PUSH2 0x807 JUMP JUMPDEST JUMPDEST PUSH1 0x0 PUSH2 0x580 DUP5 DUP3 DUP6 ADD PUSH2 0x51A JUMP JUMPDEST SWAP2 POP POP SWAP3 SWAP2 POP POP JUMP JUMPDEST PUSH2 0x592 DUP2 PUSH2 0x6C5 JUMP JUMPDEST DUP3 MSTORE POP POP JUMP JUMPDEST PUSH1 0x0 PUSH2 0x5A3 DUP3 PUSH2 0x697 JUMP JUMPDEST PUSH2 0x5AD DUP2 DUP6 PUSH2 0x6A2 JUMP JUMPDEST SWAP4 POP PUSH2 0x5BD DUP2 DUP6 PUSH1 0x20 DUP7 ADD PUSH2 0x6FB JUMP JUMPDEST PUSH2 0x5C6 DUP2 PUSH2 0x80C JUMP JUMPDEST DUP5 ADD SWAP2 POP POP SWAP3 SWAP2 POP POP JUMP JUMPDEST PUSH1 0x0 PUSH2 0x5DE PUSH1 0x17 DUP4 PUSH2 0x6A2 JUMP JUMPDEST SWAP2 POP PUSH2 0x5E9 DUP3 PUSH2 0x81D JUMP JUMPDEST PUSH1 0x20 DUP3 ADD SWAP1 POP SWAP2 SWAP1 POP JUMP JUMPDEST PUSH2 0x5FD DUP2 PUSH2 0x6F1 JUMP JUMPDEST DUP3 MSTORE POP POP JUMP JUMPDEST PUSH1 0x0 PUSH1 0x20 DUP3 ADD SWAP1 POP PUSH2 0x618 PUSH1 0x0 DUP4 ADD DUP5 PUSH2 0x589 JUMP JUMPDEST SWAP3 SWAP2 POP POP JUMP JUMPDEST PUSH1 0x0 PUSH1 0x20 DUP3 ADD SWAP1 POP DUP2 DUP2 SUB PUSH1 0x0 DUP4 ADD MSTORE PUSH2 0x637 DUP2 PUSH2 0x5D1 JUMP JUMPDEST SWAP1 POP SWAP2 SWAP1 POP JUMP JUMPDEST PUSH1 0x0 PUSH1 0x20 DUP3 ADD SWAP1 POP PUSH2 0x653 PUSH1 0x0 DUP4 ADD DUP5 PUSH2 0x5F4 JUMP JUMPDEST SWAP3 SWAP2 POP POP JUMP JUMPDEST PUSH1 0x0 PUSH1 0x60 DUP3 ADD SWAP1 POP PUSH2 0x66E PUSH1 0x0 DUP4 ADD DUP7 PUSH2 0x5F4 JUMP JUMPDEST DUP2 DUP2 SUB PUSH1 0x20 DUP4 ADD MSTORE PUSH2 0x680 DUP2 DUP6 PUSH2 0x598 JUMP JUMPDEST SWAP1 POP PUSH2 0x68F PUSH1 0x40 DUP4 ADD DUP5 PUSH2 0x5F4 JUMP JUMPDEST SWAP5 SWAP4 POP POP POP POP JUMP JUMPDEST PUSH1 0x0 DUP2 MLOAD SWAP1 POP SWAP2 SWAP1 POP JUMP JUMPDEST PUSH1 0x0 DUP3 DUP3 MSTORE PUSH1 0x20 DUP3 ADD SWAP1 POP SWAP3 SWAP2 POP POP JUMP JUMPDEST PUSH1 0x0 PUSH2 0x6BE DUP3 PUSH2 0x6D1 JUMP JUMPDEST SWAP1 POP SWAP2 SWAP1 POP JUMP JUMPDEST PUSH1 0x0 DUP2 ISZERO ISZERO SWAP1 POP SWAP2 SWAP1 POP JUMP JUMPDEST PUSH1 0x0 PUSH20 0xFFFFFFFFFFFFFFFFFFFFFFFFFFFFFFFFFFFFFFFF DUP3 AND SWAP1 POP SWAP2 SWAP1 POP JUMP JUMPDEST PUSH1 0x0 DUP2 SWAP1 POP SWAP2 SWAP1 POP JUMP JUMPDEST PUSH1 0x0 JUMPDEST DUP4 DUP2 LT ISZERO PUSH2 0x719 JUMPI DUP1 DUP3 ADD MLOAD DUP2 DUP5 ADD MSTORE PUSH1 0x20 DUP2 ADD SWAP1 POP PUSH2 0x6FE JUMP JUMPDEST DUP4 DUP2 GT ISZERO PUSH2 0x728 JUMPI PUSH1 0x0 DUP5 DUP5 ADD MSTORE JUMPDEST POP POP POP POP JUMP JUMPDEST PUSH1 0x0 PUSH1 0x2 DUP3 DIV SWAP1 POP PUSH1 0x1 DUP3 AND DUP1 PUSH2 0x746 JUMPI PUSH1 0x7F DUP3 AND SWAP2 POP JUMPDEST PUSH1 0x20 DUP3 LT DUP2 EQ ISZERO PUSH2 0x75A JUMPI PUSH2 0x759 PUSH2 0x7D8 JUMP JUMPDEST JUMPDEST POP SWAP2 SWAP1 POP JUMP JUMPDEST PUSH1 0x0 PUSH2 0x76B DUP3 PUSH2 0x6F1 JUMP JUMPDEST SWAP2 POP PUSH32 0xFFFFFFFFFFFFFFFFFFFFFFFFFFFFFFFFFFFFFFFFFFFFFFFFFFFFFFFFFFFFFFFF DUP3 EQ ISZERO PUSH2 0x79E JUMPI PUSH2 0x79D PUSH2 0x7A9 JUMP JUMPDEST JUMPDEST PUSH1 0x1 DUP3 ADD SWAP1 POP SWAP2 SWAP1 POP JUMP JUMPDEST PUSH32 0x4E487B7100000000000000000000000000000000000000000000000000000000 PUSH1 0x0 MSTORE PUSH1 0x11 PUSH1 0x4 MSTORE PUSH1 0x24 PUSH1 0x0 REVERT JUMPDEST PUSH32 0x4E487B7100000000000000000000000000000000000000000000000000000000 PUSH1 0x0 MSTORE PUSH1 0x22 PUSH1 0x4 MSTORE PUSH1 0x24 PUSH1 0x0 REVERT JUMPDEST PUSH1 0x0 DUP1 REVERT JUMPDEST PUSH1 0x0 PUSH1 0x1F NOT PUSH1 0x1F DUP4 ADD AND SWAP1 POP SWAP2 SWAP1 POP JUMP JUMPDEST PUSH32 0x456C656374696F6E73206973206E6F74206F70656E6564000000000000000000 PUSH1 0x0 DUP3 ADD MSTORE POP JUMP JUMPDEST PUSH2 0x84F DUP2 PUSH2 0x6B3 JUMP JUMPDEST DUP2 EQ PUSH2 0x85A JUMPI PUSH1 0x0 DUP1 REVERT JUMPDEST POP JUMP JUMPDEST PUSH2 0x866 DUP2 PUSH2 0x6F1 JUMP JUMPDEST DUP2 EQ PUSH2 0x871 JUMPI PUSH1 0x0 DUP1 REVERT JUMPDEST POP JUMP INVALID LOG2 PUSH5 0x6970667358 0x22 SLT KECCAK256 PUSH1 0xA3 0xB5 0x4A SWAP5 PUSH22 0xE9E062B9811FD0B3A1465E8BD84EED8F91CCFDA9D565 0xA8 KECCAK256 MOD STATICCALL PUSH5 0x736F6C6343 STOP ADDMOD SDIV STOP CALLER "
				},
				"gasEstimates": {
					"creation": {
						"codeDepositCost": "443600",
						"executionCost": "infinite",
						"totalCost": "infinite"
					},
					"external": {
						"candidates(uint256)": "infinite",
						"candidatesCount()": "2429",
						"closeElection()": "27833",
						"openElection()": "27877",
						"vote(uint256)": "infinite",
						"voters(address)": "2911"
					},
					"internal": {
						"addCandidate(string memory)": "infinite"
					}
				},
				"methodIdentifiers": {
					"candidates(uint256)": "3477ee2e",
					"candidatesCount()": "2d35a8a2",
					"closeElection()": "6c6c32d0",
					"openElection()": "c5d00f5d",
					"vote(uint256)": "0121b93f",
					"voters(address)": "a3ec138d"
				}
			},
			"storageLayout": {
				"storage": [
					{
						"astId": 10,
						"contract": "Development-Codebases/Blockchain/Eth_Smart_Contract_Voting/contracts/Election.sol:Election",
						"label": "electionOwner",
						"offset": 0,
						"slot": "0",
						"type": "t_address"
					},
					{
						"astId": 13,
						"contract": "Development-Codebases/Blockchain/Eth_Smart_Contract_Voting/contracts/Election.sol:Election",
						"label": "isOpened",
						"offset": 20,
						"slot": "0",
						"type": "t_bool"
					},
					{
						"astId": 17,
						"contract": "Development-Codebases/Blockchain/Eth_Smart_Contract_Voting/contracts/Election.sol:Election",
						"label": "voters",
						"offset": 0,
						"slot": "1",
						"type": "t_mapping(t_address,t_bool)"
					},
					{
						"astId": 22,
						"contract": "Development-Codebases/Blockchain/Eth_Smart_Contract_Voting/contracts/Election.sol:Election",
						"label": "candidates",
						"offset": 0,
						"slot": "2",
						"type": "t_mapping(t_uint256,t_struct(Candidate)8_storage)"
					},
					{
						"astId": 24,
						"contract": "Development-Codebases/Blockchain/Eth_Smart_Contract_Voting/contracts/Election.sol:Election",
						"label": "candidatesCount",
						"offset": 0,
						"slot": "3",
						"type": "t_uint256"
					}
				],
				"types": {
					"t_address": {
						"encoding": "inplace",
						"label": "address",
						"numberOfBytes": "20"
					},
					"t_bool": {
						"encoding": "inplace",
						"label": "bool",
						"numberOfBytes": "1"
					},
					"t_mapping(t_address,t_bool)": {
						"encoding": "mapping",
						"key": "t_address",
						"label": "mapping(address => bool)",
						"numberOfBytes": "32",
						"value": "t_bool"
					},
					"t_mapping(t_uint256,t_struct(Candidate)8_storage)": {
						"encoding": "mapping",
						"key": "t_uint256",
						"label": "mapping(uint256 => struct Election.Candidate)",
						"numberOfBytes": "32",
						"value": "t_struct(Candidate)8_storage"
					},
					"t_string_storage": {
						"encoding": "bytes",
						"label": "string",
						"numberOfBytes": "32"
					},
					"t_struct(Candidate)8_storage": {
						"encoding": "inplace",
						"label": "struct Election.Candidate",
						"members": [
							{
								"astId": 3,
								"contract": "Development-Codebases/Blockchain/Eth_Smart_Contract_Voting/contracts/Election.sol:Election",
								"label": "id",
								"offset": 0,
								"slot": "0",
								"type": "t_uint256"
							},
							{
								"astId": 5,
								"contract": "Development-Codebases/Blockchain/Eth_Smart_Contract_Voting/contracts/Election.sol:Election",
								"label": "name",
								"offset": 0,
								"slot": "1",
								"type": "t_string_storage"
							},
							{
								"astId": 7,
								"contract": "Development-Codebases/Blockchain/Eth_Smart_Contract_Voting/contracts/Election.sol:Election",
								"label": "voteCount",
								"offset": 0,
								"slot": "2",
								"type": "t_uint256"
							}
						],
						"numberOfBytes": "96"
					},
					"t_uint256": {
						"encoding": "inplace",
						"label": "uint256",
						"numberOfBytes": "32"
					}
				}
			},
			"userdoc": {
				"kind": "user",
				"methods": {},
				"version": 1
			}
		}
	}
}