{
	"Development-Codebases/Blockchain/Eth_Smart_Contract_Voting/contracts/Election.sol": {
		"Election": {
			"abi": [
				{
					"inputs": [],
					"stateMutability": "nonpayable",
					"type": "constructor"
				},
				{
					"anonymous": false,
					"inputs": [
						{
							"indexed": true,
							"internalType": "bool",
							"name": "_isOpened",
							"type": "bool"
						}
					],
					"name": "changedEventState",
					"type": "event"
				},
				{
					"anonymous": false,
					"inputs": [
						{
							"indexed": true,
							"internalType": "uint256",
							"name": "_candidateId",
							"type": "uint256"
						}
					],
					"name": "votedEvent",
					"type": "event"
				},
				{
					"inputs": [
						{
							"internalType": "uint256",
							"name": "",
							"type": "uint256"
						}
					],
					"name": "candidates",
					"outputs": [
						{
							"internalType": "uint256",
							"name": "id",
							"type": "uint256"
						},
						{
							"internalType": "string",
							"name": "name",
							"type": "string"
						},
						{
							"internalType": "uint256",
							"name": "voteCount",
							"type": "uint256"
						}
					],
					"stateMutability": "view",
					"type": "function"
				},
				{
					"inputs": [],
					"name": "candidatesCount",
					"outputs": [
						{
							"internalType": "uint256",
							"name": "",
							"type": "uint256"
						}
					],
					"stateMutability": "view",
					"type": "function"
				},
				{
					"inputs": [],
					"name": "closeElection",
					"outputs": [],
					"stateMutability": "nonpayable",
					"type": "function"
				},
				{
					"inputs": [],
					"name": "openElection",
					"outputs": [],
					"stateMutability": "nonpayable",
					"type": "function"
				},
				{
					"inputs": [
						{
							"internalType": "uint256",
							"name": "_candidateId",
							"type": "uint256"
						}
					],
					"name": "vote",
					"outputs": [],
					"stateMutability": "nonpayable",
					"type": "function"
				},
				{
					"inputs": [
						{
							"internalType": "address",
							"name": "",
							"type": "address"
						}
					],
					"name": "voters",
					"outputs": [
						{
							"internalType": "bool",
							"name": "",
							"type": "bool"
						}
					],
					"stateMutability": "view",
					"type": "function"
				}
			],
			"devdoc": {
				"kind": "dev",
				"methods": {},
				"version": 1
			},
			"evm": {
				"assembly": "    /* \"Development-Codebases/Blockchain/Eth_Smart_Contract_Voting/contracts/Election.sol\":56:2195  contract Election {... */\n  mstore(0x40, 0x80)\n    /* \"Development-Codebases/Blockchain/Eth_Smart_Contract_Voting/contracts/Election.sol\":295:300  false */\n  0x00\n    /* \"Development-Codebases/Blockchain/Eth_Smart_Contract_Voting/contracts/Election.sol\":279:300  bool isOpened = false */\n  dup1\n  exp(0x0100, 0x14)\n  dup2\n  sload\n  dup2\n  0xff\n  mul\n  not\n  and\n  swap1\n  dup4\n  iszero\n  iszero\n  mul\n  or\n  swap1\n  sstore\n  pop\n    /* \"Development-Codebases/Blockchain/Eth_Smart_Contract_Voting/contracts/Election.sol\":678:813  constructor () {... */\n  callvalue\n  dup1\n  iszero\n  tag_1\n  jumpi\n  0x00\n  dup1\n  revert\ntag_1:\n  pop\n    /* \"Development-Codebases/Blockchain/Eth_Smart_Contract_Voting/contracts/Election.sol\":719:729  msg.sender */\n  caller\n    /* \"Development-Codebases/Blockchain/Eth_Smart_Contract_Voting/contracts/Election.sol\":703:716  electionOwner */\n  0x00\n  dup1\n    /* \"Development-Codebases/Blockchain/Eth_Smart_Contract_Voting/contracts/Election.sol\":703:729  electionOwner = msg.sender */\n  0x0100\n  exp\n  dup2\n  sload\n  dup2\n  0xffffffffffffffffffffffffffffffffffffffff\n  mul\n  not\n  and\n  swap1\n  dup4\n  0xffffffffffffffffffffffffffffffffffffffff\n  and\n  mul\n  or\n  swap1\n  sstore\n  pop\n    /* \"Development-Codebases/Blockchain/Eth_Smart_Contract_Voting/contracts/Election.sol\":739:767  addCandidate(\"Bitcoin club\") */\n  tag_4\n  mload(0x40)\n  dup1\n  0x40\n  add\n  0x40\n  mstore\n  dup1\n  0x0c\n  dup2\n  mstore\n  0x20\n  add\n  0x426974636f696e20636c75620000000000000000000000000000000000000000\n  dup2\n  mstore\n  pop\n    /* \"Development-Codebases/Blockchain/Eth_Smart_Contract_Voting/contracts/Election.sol\":739:751  addCandidate */\n  shl(0x20, tag_5)\n    /* \"Development-Codebases/Blockchain/Eth_Smart_Contract_Voting/contracts/Election.sol\":739:767  addCandidate(\"Bitcoin club\") */\n  0x20\n  shr\n  jump\t// in\ntag_4:\n    /* \"Development-Codebases/Blockchain/Eth_Smart_Contract_Voting/contracts/Election.sol\":777:806  addCandidate(\"Ethereum club\") */\n  tag_6\n  mload(0x40)\n  dup1\n  0x40\n  add\n  0x40\n  mstore\n  dup1\n  0x0d\n  dup2\n  mstore\n  0x20\n  add\n  0x457468657265756d20636c756200000000000000000000000000000000000000\n  dup2\n  mstore\n  pop\n    /* \"Development-Codebases/Blockchain/Eth_Smart_Contract_Voting/contracts/Election.sol\":777:789  addCandidate */\n  shl(0x20, tag_5)\n    /* \"Development-Codebases/Blockchain/Eth_Smart_Contract_Voting/contracts/Election.sol\":777:806  addCandidate(\"Ethereum club\") */\n  0x20\n  shr\n  jump\t// in\ntag_6:\n    /* \"Development-Codebases/Blockchain/Eth_Smart_Contract_Voting/contracts/Election.sol\":56:2195  contract Election {... */\n  jump(tag_7)\n    /* \"Development-Codebases/Blockchain/Eth_Smart_Contract_Voting/contracts/Election.sol\":843:1006  function addCandidate (string memory _name) private {... */\ntag_5:\n    /* \"Development-Codebases/Blockchain/Eth_Smart_Contract_Voting/contracts/Election.sol\":905:920  candidatesCount */\n  0x03\n  0x00\n    /* \"Development-Codebases/Blockchain/Eth_Smart_Contract_Voting/contracts/Election.sol\":905:923  candidatesCount ++ */\n  dup2\n  sload\n  dup1\n  swap3\n  swap2\n  swap1\n  tag_9\n  swap1\n  tag_10\n  jump\t// in\ntag_9:\n  swap2\n  swap1\n  pop\n  sstore\n  pop\n    /* \"Development-Codebases/Blockchain/Eth_Smart_Contract_Voting/contracts/Election.sol\":963:999  Candidate(candidatesCount, _name, 0) */\n  mload(0x40)\n  dup1\n  0x60\n  add\n  0x40\n  mstore\n  dup1\n    /* \"Development-Codebases/Blockchain/Eth_Smart_Contract_Voting/contracts/Election.sol\":973:988  candidatesCount */\n  sload(0x03)\n    /* \"Development-Codebases/Blockchain/Eth_Smart_Contract_Voting/contracts/Election.sol\":963:999  Candidate(candidatesCount, _name, 0) */\n  dup2\n  mstore\n  0x20\n  add\n    /* \"Development-Codebases/Blockchain/Eth_Smart_Contract_Voting/contracts/Election.sol\":990:995  _name */\n  dup3\n    /* \"Development-Codebases/Blockchain/Eth_Smart_Contract_Voting/contracts/Election.sol\":963:999  Candidate(candidatesCount, _name, 0) */\n  dup2\n  mstore\n  0x20\n  add\n    /* \"Development-Codebases/Blockchain/Eth_Smart_Contract_Voting/contracts/Election.sol\":997:998  0 */\n  0x00\n    /* \"Development-Codebases/Blockchain/Eth_Smart_Contract_Voting/contracts/Election.sol\":963:999  Candidate(candidatesCount, _name, 0) */\n  dup2\n  mstore\n  pop\n    /* \"Development-Codebases/Blockchain/Eth_Smart_Contract_Voting/contracts/Election.sol\":933:943  candidates */\n  0x02\n    /* \"Development-Codebases/Blockchain/Eth_Smart_Contract_Voting/contracts/Election.sol\":933:960  candidates[candidatesCount] */\n  0x00\n    /* \"Development-Codebases/Blockchain/Eth_Smart_Contract_Voting/contracts/Election.sol\":944:959  candidatesCount */\n  sload(0x03)\n    /* \"Development-Codebases/Blockchain/Eth_Smart_Contract_Voting/contracts/Election.sol\":933:960  candidates[candidatesCount] */\n  dup2\n  mstore\n  0x20\n  add\n  swap1\n  dup2\n  mstore\n  0x20\n  add\n  0x00\n  keccak256\n    /* \"Development-Codebases/Blockchain/Eth_Smart_Contract_Voting/contracts/Election.sol\":933:999  candidates[candidatesCount] = Candidate(candidatesCount, _name, 0) */\n  0x00\n  dup3\n  add\n  mload\n  dup2\n  0x00\n  add\n  sstore\n  0x20\n  dup3\n  add\n  mload\n  dup2\n  0x01\n  add\n  swap1\n  dup1\n  mload\n  swap1\n  0x20\n  add\n  swap1\n  tag_11\n  swap3\n  swap2\n  swap1\n  tag_12\n  jump\t// in\ntag_11:\n  pop\n  0x40\n  dup3\n  add\n  mload\n  dup2\n  0x02\n  add\n  sstore\n  swap1\n  pop\n  pop\n    /* \"Development-Codebases/Blockchain/Eth_Smart_Contract_Voting/contracts/Election.sol\":843:1006  function addCandidate (string memory _name) private {... */\n  pop\n  jump\t// out\n    /* \"Development-Codebases/Blockchain/Eth_Smart_Contract_Voting/contracts/Election.sol\":56:2195  contract Election {... */\ntag_12:\n  dup3\n  dup1\n  sload\n  tag_13\n  swap1\n  tag_14\n  jump\t// in\ntag_13:\n  swap1\n  0x00\n  mstore\n  keccak256(0x00, 0x20)\n  swap1\n  0x1f\n  add\n  0x20\n  swap1\n  div\n  dup2\n  add\n  swap3\n  dup3\n  tag_16\n  jumpi\n  0x00\n  dup6\n  sstore\n  jump(tag_15)\ntag_16:\n  dup3\n  0x1f\n  lt\n  tag_17\n  jumpi\n  dup1\n  mload\n  not(0xff)\n  and\n  dup4\n  dup1\n  add\n  or\n  dup6\n  sstore\n  jump(tag_15)\ntag_17:\n  dup3\n  dup1\n  add\n  0x01\n  add\n  dup6\n  sstore\n  dup3\n  iszero\n  tag_15\n  jumpi\n  swap2\n  dup3\n  add\ntag_18:\n  dup3\n  dup2\n  gt\n  iszero\n  tag_19\n  jumpi\n  dup3\n  mload\n  dup3\n  sstore\n  swap2\n  0x20\n  add\n  swap2\n  swap1\n  0x01\n  add\n  swap1\n  jump(tag_18)\ntag_19:\ntag_15:\n  pop\n  swap1\n  pop\n  tag_20\n  swap2\n  swap1\n  tag_21\n  jump\t// in\ntag_20:\n  pop\n  swap1\n  jump\t// out\ntag_21:\ntag_22:\n  dup1\n  dup3\n  gt\n  iszero\n  tag_23\n  jumpi\n  0x00\n  dup2\n  0x00\n  swap1\n  sstore\n  pop\n  0x01\n  add\n  jump(tag_22)\ntag_23:\n  pop\n  swap1\n  jump\t// out\n    /* \"#utility.yul\":7:84   */\ntag_25:\n    /* \"#utility.yul\":44:51   */\n  0x00\n    /* \"#utility.yul\":73:78   */\n  dup2\n    /* \"#utility.yul\":62:78   */\n  swap1\n  pop\n    /* \"#utility.yul\":52:84   */\n  swap2\n  swap1\n  pop\n  jump\t// out\n    /* \"#utility.yul\":90:410   */\ntag_14:\n    /* \"#utility.yul\":134:140   */\n  0x00\n    /* \"#utility.yul\":171:172   */\n  0x02\n    /* \"#utility.yul\":165:169   */\n  dup3\n    /* \"#utility.yul\":161:173   */\n  div\n    /* \"#utility.yul\":151:173   */\n  swap1\n  pop\n    /* \"#utility.yul\":218:219   */\n  0x01\n    /* \"#utility.yul\":212:216   */\n  dup3\n    /* \"#utility.yul\":208:220   */\n  and\n    /* \"#utility.yul\":239:257   */\n  dup1\n    /* \"#utility.yul\":229:231   */\n  tag_28\n  jumpi\n    /* \"#utility.yul\":295:299   */\n  0x7f\n    /* \"#utility.yul\":287:293   */\n  dup3\n    /* \"#utility.yul\":283:300   */\n  and\n    /* \"#utility.yul\":273:300   */\n  swap2\n  pop\n    /* \"#utility.yul\":229:231   */\ntag_28:\n    /* \"#utility.yul\":357:359   */\n  0x20\n    /* \"#utility.yul\":349:355   */\n  dup3\n    /* \"#utility.yul\":346:360   */\n  lt\n    /* \"#utility.yul\":326:344   */\n  dup2\n    /* \"#utility.yul\":323:361   */\n  eq\n    /* \"#utility.yul\":320:322   */\n  iszero\n  tag_29\n  jumpi\n    /* \"#utility.yul\":376:394   */\n  tag_30\n  tag_31\n  jump\t// in\ntag_30:\n    /* \"#utility.yul\":320:322   */\ntag_29:\n    /* \"#utility.yul\":141:410   */\n  pop\n  swap2\n  swap1\n  pop\n  jump\t// out\n    /* \"#utility.yul\":416:649   */\ntag_10:\n    /* \"#utility.yul\":455:458   */\n  0x00\n    /* \"#utility.yul\":478:502   */\n  tag_33\n    /* \"#utility.yul\":496:501   */\n  dup3\n    /* \"#utility.yul\":478:502   */\n  tag_25\n  jump\t// in\ntag_33:\n    /* \"#utility.yul\":469:502   */\n  swap2\n  pop\n    /* \"#utility.yul\":524:590   */\n  0xffffffffffffffffffffffffffffffffffffffffffffffffffffffffffffffff\n    /* \"#utility.yul\":517:522   */\n  dup3\n    /* \"#utility.yul\":514:591   */\n  eq\n    /* \"#utility.yul\":511:513   */\n  iszero\n  tag_34\n  jumpi\n    /* \"#utility.yul\":594:612   */\n  tag_35\n  tag_36\n  jump\t// in\ntag_35:\n    /* \"#utility.yul\":511:513   */\ntag_34:\n    /* \"#utility.yul\":641:642   */\n  0x01\n    /* \"#utility.yul\":634:639   */\n  dup3\n    /* \"#utility.yul\":630:643   */\n  add\n    /* \"#utility.yul\":623:643   */\n  swap1\n  pop\n    /* \"#utility.yul\":459:649   */\n  swap2\n  swap1\n  pop\n  jump\t// out\n    /* \"#utility.yul\":655:835   */\ntag_36:\n    /* \"#utility.yul\":703:780   */\n  0x4e487b7100000000000000000000000000000000000000000000000000000000\n    /* \"#utility.yul\":700:701   */\n  0x00\n    /* \"#utility.yul\":693:781   */\n  mstore\n    /* \"#utility.yul\":800:804   */\n  0x11\n    /* \"#utility.yul\":797:798   */\n  0x04\n    /* \"#utility.yul\":790:805   */\n  mstore\n    /* \"#utility.yul\":824:828   */\n  0x24\n    /* \"#utility.yul\":821:822   */\n  0x00\n    /* \"#utility.yul\":814:829   */\n  revert\n    /* \"#utility.yul\":841:1021   */\ntag_31:\n    /* \"#utility.yul\":889:966   */\n  0x4e487b7100000000000000000000000000000000000000000000000000000000\n    /* \"#utility.yul\":886:887   */\n  0x00\n    /* \"#utility.yul\":879:967   */\n  mstore\n    /* \"#utility.yul\":986:990   */\n  0x22\n    /* \"#utility.yul\":983:984   */\n  0x04\n    /* \"#utility.yul\":976:991   */\n  mstore\n    /* \"#utility.yul\":1010:1014   */\n  0x24\n    /* \"#utility.yul\":1007:1008   */\n  0x00\n    /* \"#utility.yul\":1000:1015   */\n  revert\n    /* \"Development-Codebases/Blockchain/Eth_Smart_Contract_Voting/contracts/Election.sol\":56:2195  contract Election {... */\ntag_7:\n  dataSize(sub_0)\n  dup1\n  dataOffset(sub_0)\n  0x00\n  codecopy\n  0x00\n  return\nstop\n\nsub_0: assembly {\n        /* \"Development-Codebases/Blockchain/Eth_Smart_Contract_Voting/contracts/Election.sol\":56:2195  contract Election {... */\n      mstore(0x40, 0x80)\n      callvalue\n      dup1\n      iszero\n      tag_1\n      jumpi\n      0x00\n      dup1\n      revert\n    tag_1:\n      pop\n      jumpi(tag_2, lt(calldatasize, 0x04))\n      shr(0xe0, calldataload(0x00))\n      dup1\n      0x0121b93f\n      eq\n      tag_3\n      jumpi\n      dup1\n      0x2d35a8a2\n      eq\n      tag_4\n      jumpi\n      dup1\n      0x3477ee2e\n      eq\n      tag_5\n      jumpi\n      dup1\n      0x6c6c32d0\n      eq\n      tag_6\n      jumpi\n      dup1\n      0xa3ec138d\n      eq\n      tag_7\n      jumpi\n      dup1\n      0xc5d00f5d\n      eq\n      tag_8\n      jumpi\n    tag_2:\n      0x00\n      dup1\n      revert\n        /* \"Development-Codebases/Blockchain/Eth_Smart_Contract_Voting/contracts/Election.sol\":1471:2193  function vote (uint _candidateId) public {... */\n    tag_3:\n      tag_9\n      0x04\n      dup1\n      calldatasize\n      sub\n      dup2\n      add\n      swap1\n      tag_10\n      swap2\n      swap1\n      tag_11\n      jump\t// in\n    tag_10:\n      tag_12\n      jump\t// in\n    tag_9:\n      stop\n        /* \"Development-Codebases/Blockchain/Eth_Smart_Contract_Voting/contracts/Election.sol\":491:518  uint public candidatesCount */\n    tag_4:\n      tag_13\n      tag_14\n      jump\t// in\n    tag_13:\n      mload(0x40)\n      tag_15\n      swap2\n      swap1\n      tag_16\n      jump\t// in\n    tag_15:\n      mload(0x40)\n      dup1\n      swap2\n      sub\n      swap1\n      return\n        /* \"Development-Codebases/Blockchain/Eth_Smart_Contract_Voting/contracts/Election.sol\":411:455  mapping(uint => Candidate) public candidates */\n    tag_5:\n      tag_17\n      0x04\n      dup1\n      calldatasize\n      sub\n      dup2\n      add\n      swap1\n      tag_18\n      swap2\n      swap1\n      tag_11\n      jump\t// in\n    tag_18:\n      tag_19\n      jump\t// in\n    tag_17:\n      mload(0x40)\n      tag_20\n      swap4\n      swap3\n      swap2\n      swap1\n      tag_21\n      jump\t// in\n    tag_20:\n      mload(0x40)\n      dup1\n      swap2\n      sub\n      swap1\n      return\n        /* \"Development-Codebases/Blockchain/Eth_Smart_Contract_Voting/contracts/Election.sol\":1240:1465  function closeElection() public{... */\n    tag_6:\n      tag_22\n      tag_23\n      jump\t// in\n    tag_22:\n      stop\n        /* \"Development-Codebases/Blockchain/Eth_Smart_Contract_Voting/contracts/Election.sol\":344:382  mapping(address => bool) public voters */\n    tag_7:\n      tag_24\n      0x04\n      dup1\n      calldatasize\n      sub\n      dup2\n      add\n      swap1\n      tag_25\n      swap2\n      swap1\n      tag_26\n      jump\t// in\n    tag_25:\n      tag_27\n      jump\t// in\n    tag_24:\n      mload(0x40)\n      tag_28\n      swap2\n      swap1\n      tag_29\n      jump\t// in\n    tag_28:\n      mload(0x40)\n      dup1\n      swap2\n      sub\n      swap1\n      return\n        /* \"Development-Codebases/Blockchain/Eth_Smart_Contract_Voting/contracts/Election.sol\":1012:1234  function openElection() public{... */\n    tag_8:\n      tag_30\n      tag_31\n      jump\t// in\n    tag_30:\n      stop\n        /* \"Development-Codebases/Blockchain/Eth_Smart_Contract_Voting/contracts/Election.sol\":1471:2193  function vote (uint _candidateId) public {... */\n    tag_12:\n        /* \"Development-Codebases/Blockchain/Eth_Smart_Contract_Voting/contracts/Election.sol\":1577:1585  isOpened */\n      0x00\n      0x14\n      swap1\n      sload\n      swap1\n      0x0100\n      exp\n      swap1\n      div\n      0xff\n      and\n        /* \"Development-Codebases/Blockchain/Eth_Smart_Contract_Voting/contracts/Election.sol\":1569:1613  require(isOpened, \"Elections is not opened\") */\n      tag_33\n      jumpi\n      mload(0x40)\n      0x08c379a000000000000000000000000000000000000000000000000000000000\n      dup2\n      mstore\n      0x04\n      add\n      tag_34\n      swap1\n      tag_35\n      jump\t// in\n    tag_34:\n      mload(0x40)\n      dup1\n      swap2\n      sub\n      swap1\n      revert\n    tag_33:\n        /* \"Development-Codebases/Blockchain/Eth_Smart_Contract_Voting/contracts/Election.sol\":1693:1706  electionOwner */\n      0x00\n      dup1\n      sload\n      swap1\n      0x0100\n      exp\n      swap1\n      div\n      0xffffffffffffffffffffffffffffffffffffffff\n      and\n        /* \"Development-Codebases/Blockchain/Eth_Smart_Contract_Voting/contracts/Election.sol\":1679:1706  msg.sender != electionOwner */\n      0xffffffffffffffffffffffffffffffffffffffff\n      and\n        /* \"Development-Codebases/Blockchain/Eth_Smart_Contract_Voting/contracts/Election.sol\":1679:1689  msg.sender */\n      caller\n        /* \"Development-Codebases/Blockchain/Eth_Smart_Contract_Voting/contracts/Election.sol\":1679:1706  msg.sender != electionOwner */\n      0xffffffffffffffffffffffffffffffffffffffff\n      and\n      eq\n      iszero\n        /* \"Development-Codebases/Blockchain/Eth_Smart_Contract_Voting/contracts/Election.sol\":1671:1752  require(msg.sender != electionOwner, \"The election owner is not allowed to vote\") */\n      tag_36\n      jumpi\n      mload(0x40)\n      0x08c379a000000000000000000000000000000000000000000000000000000000\n      dup2\n      mstore\n      0x04\n      add\n      tag_37\n      swap1\n      tag_38\n      jump\t// in\n    tag_37:\n      mload(0x40)\n      dup1\n      swap2\n      sub\n      swap1\n      revert\n    tag_36:\n        /* \"Development-Codebases/Blockchain/Eth_Smart_Contract_Voting/contracts/Election.sol\":1822:1828  voters */\n      0x01\n        /* \"Development-Codebases/Blockchain/Eth_Smart_Contract_Voting/contracts/Election.sol\":1822:1840  voters[msg.sender] */\n      0x00\n        /* \"Development-Codebases/Blockchain/Eth_Smart_Contract_Voting/contracts/Election.sol\":1829:1839  msg.sender */\n      caller\n        /* \"Development-Codebases/Blockchain/Eth_Smart_Contract_Voting/contracts/Election.sol\":1822:1840  voters[msg.sender] */\n      0xffffffffffffffffffffffffffffffffffffffff\n      and\n      0xffffffffffffffffffffffffffffffffffffffff\n      and\n      dup2\n      mstore\n      0x20\n      add\n      swap1\n      dup2\n      mstore\n      0x20\n      add\n      0x00\n      keccak256\n      0x00\n      swap1\n      sload\n      swap1\n      0x0100\n      exp\n      swap1\n      div\n      0xff\n      and\n        /* \"Development-Codebases/Blockchain/Eth_Smart_Contract_Voting/contracts/Election.sol\":1821:1840  !voters[msg.sender] */\n      iszero\n        /* \"Development-Codebases/Blockchain/Eth_Smart_Contract_Voting/contracts/Election.sol\":1813:1845  require(!voters[msg.sender], \"\") */\n      tag_39\n      jumpi\n      mload(0x40)\n      0x08c379a000000000000000000000000000000000000000000000000000000000\n      dup2\n      mstore\n      0x04\n      add\n      tag_40\n      swap1\n      tag_41\n      jump\t// in\n    tag_40:\n      mload(0x40)\n      dup1\n      swap2\n      sub\n      swap1\n      revert\n    tag_39:\n        /* \"Development-Codebases/Blockchain/Eth_Smart_Contract_Voting/contracts/Election.sol\":1916:1917  0 */\n      0x00\n        /* \"Development-Codebases/Blockchain/Eth_Smart_Contract_Voting/contracts/Election.sol\":1901:1913  _candidateId */\n      dup2\n        /* \"Development-Codebases/Blockchain/Eth_Smart_Contract_Voting/contracts/Election.sol\":1901:1917  _candidateId > 0 */\n      gt\n        /* \"Development-Codebases/Blockchain/Eth_Smart_Contract_Voting/contracts/Election.sol\":1901:1952  _candidateId > 0 && _candidateId <= candidatesCount */\n      dup1\n      iszero\n      tag_42\n      jumpi\n      pop\n        /* \"Development-Codebases/Blockchain/Eth_Smart_Contract_Voting/contracts/Election.sol\":1937:1952  candidatesCount */\n      sload(0x03)\n        /* \"Development-Codebases/Blockchain/Eth_Smart_Contract_Voting/contracts/Election.sol\":1921:1933  _candidateId */\n      dup2\n        /* \"Development-Codebases/Blockchain/Eth_Smart_Contract_Voting/contracts/Election.sol\":1921:1952  _candidateId <= candidatesCount */\n      gt\n      iszero\n        /* \"Development-Codebases/Blockchain/Eth_Smart_Contract_Voting/contracts/Election.sol\":1901:1952  _candidateId > 0 && _candidateId <= candidatesCount */\n    tag_42:\n        /* \"Development-Codebases/Blockchain/Eth_Smart_Contract_Voting/contracts/Election.sol\":1893:1953  require(_candidateId > 0 && _candidateId <= candidatesCount) */\n      tag_43\n      jumpi\n      0x00\n      dup1\n      revert\n    tag_43:\n        /* \"Development-Codebases/Blockchain/Eth_Smart_Contract_Voting/contracts/Election.sol\":2024:2028  true */\n      0x01\n        /* \"Development-Codebases/Blockchain/Eth_Smart_Contract_Voting/contracts/Election.sol\":2003:2009  voters */\n      dup1\n        /* \"Development-Codebases/Blockchain/Eth_Smart_Contract_Voting/contracts/Election.sol\":2003:2021  voters[msg.sender] */\n      0x00\n        /* \"Development-Codebases/Blockchain/Eth_Smart_Contract_Voting/contracts/Election.sol\":2010:2020  msg.sender */\n      caller\n        /* \"Development-Codebases/Blockchain/Eth_Smart_Contract_Voting/contracts/Election.sol\":2003:2021  voters[msg.sender] */\n      0xffffffffffffffffffffffffffffffffffffffff\n      and\n      0xffffffffffffffffffffffffffffffffffffffff\n      and\n      dup2\n      mstore\n      0x20\n      add\n      swap1\n      dup2\n      mstore\n      0x20\n      add\n      0x00\n      keccak256\n      0x00\n        /* \"Development-Codebases/Blockchain/Eth_Smart_Contract_Voting/contracts/Election.sol\":2003:2028  voters[msg.sender] = true */\n      0x0100\n      exp\n      dup2\n      sload\n      dup2\n      0xff\n      mul\n      not\n      and\n      swap1\n      dup4\n      iszero\n      iszero\n      mul\n      or\n      swap1\n      sstore\n      pop\n        /* \"Development-Codebases/Blockchain/Eth_Smart_Contract_Voting/contracts/Election.sol\":2078:2088  candidates */\n      0x02\n        /* \"Development-Codebases/Blockchain/Eth_Smart_Contract_Voting/contracts/Election.sol\":2078:2102  candidates[_candidateId] */\n      0x00\n        /* \"Development-Codebases/Blockchain/Eth_Smart_Contract_Voting/contracts/Election.sol\":2089:2101  _candidateId */\n      dup3\n        /* \"Development-Codebases/Blockchain/Eth_Smart_Contract_Voting/contracts/Election.sol\":2078:2102  candidates[_candidateId] */\n      dup2\n      mstore\n      0x20\n      add\n      swap1\n      dup2\n      mstore\n      0x20\n      add\n      0x00\n      keccak256\n        /* \"Development-Codebases/Blockchain/Eth_Smart_Contract_Voting/contracts/Election.sol\":2078:2112  candidates[_candidateId].voteCount */\n      0x02\n      add\n      0x00\n        /* \"Development-Codebases/Blockchain/Eth_Smart_Contract_Voting/contracts/Election.sol\":2078:2115  candidates[_candidateId].voteCount ++ */\n      dup2\n      sload\n      dup1\n      swap3\n      swap2\n      swap1\n      tag_44\n      swap1\n      tag_45\n      jump\t// in\n    tag_44:\n      swap2\n      swap1\n      pop\n      sstore\n      pop\n        /* \"Development-Codebases/Blockchain/Eth_Smart_Contract_Voting/contracts/Election.sol\":2173:2185  _candidateId */\n      dup1\n        /* \"Development-Codebases/Blockchain/Eth_Smart_Contract_Voting/contracts/Election.sol\":2162:2186  votedEvent(_candidateId) */\n      0xfff3c900d938d21d0990d786e819f29b8d05c1ef587b462b939609625b684b16\n      mload(0x40)\n      mload(0x40)\n      dup1\n      swap2\n      sub\n      swap1\n      log2\n        /* \"Development-Codebases/Blockchain/Eth_Smart_Contract_Voting/contracts/Election.sol\":1471:2193  function vote (uint _candidateId) public {... */\n      pop\n      jump\t// out\n        /* \"Development-Codebases/Blockchain/Eth_Smart_Contract_Voting/contracts/Election.sol\":491:518  uint public candidatesCount */\n    tag_14:\n      sload(0x03)\n      dup2\n      jump\t// out\n        /* \"Development-Codebases/Blockchain/Eth_Smart_Contract_Voting/contracts/Election.sol\":411:455  mapping(uint => Candidate) public candidates */\n    tag_19:\n      mstore(0x20, 0x02)\n      dup1\n      0x00\n      mstore\n      keccak256(0x00, 0x40)\n      0x00\n      swap2\n      pop\n      swap1\n      pop\n      dup1\n      0x00\n      add\n      sload\n      swap1\n      dup1\n      0x01\n      add\n      dup1\n      sload\n      tag_46\n      swap1\n      tag_47\n      jump\t// in\n    tag_46:\n      dup1\n      0x1f\n      add\n      0x20\n      dup1\n      swap2\n      div\n      mul\n      0x20\n      add\n      mload(0x40)\n      swap1\n      dup2\n      add\n      0x40\n      mstore\n      dup1\n      swap3\n      swap2\n      swap1\n      dup2\n      dup2\n      mstore\n      0x20\n      add\n      dup3\n      dup1\n      sload\n      tag_48\n      swap1\n      tag_47\n      jump\t// in\n    tag_48:\n      dup1\n      iszero\n      tag_49\n      jumpi\n      dup1\n      0x1f\n      lt\n      tag_50\n      jumpi\n      0x0100\n      dup1\n      dup4\n      sload\n      div\n      mul\n      dup4\n      mstore\n      swap2\n      0x20\n      add\n      swap2\n      jump(tag_49)\n    tag_50:\n      dup3\n      add\n      swap2\n      swap1\n      0x00\n      mstore\n      keccak256(0x00, 0x20)\n      swap1\n    tag_51:\n      dup2\n      sload\n      dup2\n      mstore\n      swap1\n      0x01\n      add\n      swap1\n      0x20\n      add\n      dup1\n      dup4\n      gt\n      tag_51\n      jumpi\n      dup3\n      swap1\n      sub\n      0x1f\n      and\n      dup3\n      add\n      swap2\n    tag_49:\n      pop\n      pop\n      pop\n      pop\n      pop\n      swap1\n      dup1\n      0x02\n      add\n      sload\n      swap1\n      pop\n      dup4\n      jump\t// out\n        /* \"Development-Codebases/Blockchain/Eth_Smart_Contract_Voting/contracts/Election.sol\":1240:1465  function closeElection() public{... */\n    tag_23:\n        /* \"Development-Codebases/Blockchain/Eth_Smart_Contract_Voting/contracts/Election.sol\":1380:1390  msg.sender */\n      caller\n        /* \"Development-Codebases/Blockchain/Eth_Smart_Contract_Voting/contracts/Election.sol\":1363:1390  electionOwner == msg.sender */\n      0xffffffffffffffffffffffffffffffffffffffff\n      and\n        /* \"Development-Codebases/Blockchain/Eth_Smart_Contract_Voting/contracts/Election.sol\":1363:1376  electionOwner */\n      0x00\n      dup1\n      sload\n      swap1\n      0x0100\n      exp\n      swap1\n      div\n      0xffffffffffffffffffffffffffffffffffffffff\n      and\n        /* \"Development-Codebases/Blockchain/Eth_Smart_Contract_Voting/contracts/Election.sol\":1363:1390  electionOwner == msg.sender */\n      0xffffffffffffffffffffffffffffffffffffffff\n      and\n      eq\n        /* \"Development-Codebases/Blockchain/Eth_Smart_Contract_Voting/contracts/Election.sol\":1355:1391  require(electionOwner == msg.sender) */\n      tag_53\n      jumpi\n      0x00\n      dup1\n      revert\n    tag_53:\n        /* \"Development-Codebases/Blockchain/Eth_Smart_Contract_Voting/contracts/Election.sol\":1413:1418  false */\n      0x00\n        /* \"Development-Codebases/Blockchain/Eth_Smart_Contract_Voting/contracts/Election.sol\":1402:1410  isOpened */\n      dup1\n      0x14\n        /* \"Development-Codebases/Blockchain/Eth_Smart_Contract_Voting/contracts/Election.sol\":1402:1418  isOpened = false */\n      0x0100\n      exp\n      dup2\n      sload\n      dup2\n      0xff\n      mul\n      not\n      and\n      swap1\n      dup4\n      iszero\n      iszero\n      mul\n      or\n      swap1\n      sstore\n      pop\n        /* \"Development-Codebases/Blockchain/Eth_Smart_Contract_Voting/contracts/Election.sol\":1452:1457  false */\n      0x00\n        /* \"Development-Codebases/Blockchain/Eth_Smart_Contract_Voting/contracts/Election.sol\":1434:1458  changedEventState(false) */\n      iszero\n      iszero\n      0xc3bbf431bbff6d5ed800be02ce8d8ee2ca419c8f7751187e8ca8627d72a15aa6\n      mload(0x40)\n      mload(0x40)\n      dup1\n      swap2\n      sub\n      swap1\n      log2\n        /* \"Development-Codebases/Blockchain/Eth_Smart_Contract_Voting/contracts/Election.sol\":1240:1465  function closeElection() public{... */\n      jump\t// out\n        /* \"Development-Codebases/Blockchain/Eth_Smart_Contract_Voting/contracts/Election.sol\":344:382  mapping(address => bool) public voters */\n    tag_27:\n      mstore(0x20, 0x01)\n      dup1\n      0x00\n      mstore\n      keccak256(0x00, 0x40)\n      0x00\n      swap2\n      pop\n      sload\n      swap1\n      0x0100\n      exp\n      swap1\n      div\n      0xff\n      and\n      dup2\n      jump\t// out\n        /* \"Development-Codebases/Blockchain/Eth_Smart_Contract_Voting/contracts/Election.sol\":1012:1234  function openElection() public{... */\n    tag_31:\n        /* \"Development-Codebases/Blockchain/Eth_Smart_Contract_Voting/contracts/Election.sol\":1151:1161  msg.sender */\n      caller\n        /* \"Development-Codebases/Blockchain/Eth_Smart_Contract_Voting/contracts/Election.sol\":1134:1161  electionOwner == msg.sender */\n      0xffffffffffffffffffffffffffffffffffffffff\n      and\n        /* \"Development-Codebases/Blockchain/Eth_Smart_Contract_Voting/contracts/Election.sol\":1134:1147  electionOwner */\n      0x00\n      dup1\n      sload\n      swap1\n      0x0100\n      exp\n      swap1\n      div\n      0xffffffffffffffffffffffffffffffffffffffff\n      and\n        /* \"Development-Codebases/Blockchain/Eth_Smart_Contract_Voting/contracts/Election.sol\":1134:1161  electionOwner == msg.sender */\n      0xffffffffffffffffffffffffffffffffffffffff\n      and\n      eq\n        /* \"Development-Codebases/Blockchain/Eth_Smart_Contract_Voting/contracts/Election.sol\":1126:1162  require(electionOwner == msg.sender) */\n      tag_55\n      jumpi\n      0x00\n      dup1\n      revert\n    tag_55:\n        /* \"Development-Codebases/Blockchain/Eth_Smart_Contract_Voting/contracts/Election.sol\":1184:1188  true */\n      0x01\n        /* \"Development-Codebases/Blockchain/Eth_Smart_Contract_Voting/contracts/Election.sol\":1173:1181  isOpened */\n      0x00\n      0x14\n        /* \"Development-Codebases/Blockchain/Eth_Smart_Contract_Voting/contracts/Election.sol\":1173:1188  isOpened = true */\n      0x0100\n      exp\n      dup2\n      sload\n      dup2\n      0xff\n      mul\n      not\n      and\n      swap1\n      dup4\n      iszero\n      iszero\n      mul\n      or\n      swap1\n      sstore\n      pop\n        /* \"Development-Codebases/Blockchain/Eth_Smart_Contract_Voting/contracts/Election.sol\":1222:1226  true */\n      0x01\n        /* \"Development-Codebases/Blockchain/Eth_Smart_Contract_Voting/contracts/Election.sol\":1204:1227  changedEventState(true) */\n      iszero\n      iszero\n      0xc3bbf431bbff6d5ed800be02ce8d8ee2ca419c8f7751187e8ca8627d72a15aa6\n      mload(0x40)\n      mload(0x40)\n      dup1\n      swap2\n      sub\n      swap1\n      log2\n        /* \"Development-Codebases/Blockchain/Eth_Smart_Contract_Voting/contracts/Election.sol\":1012:1234  function openElection() public{... */\n      jump\t// out\n        /* \"#utility.yul\":7:146   */\n    tag_57:\n        /* \"#utility.yul\":53:58   */\n      0x00\n        /* \"#utility.yul\":91:97   */\n      dup2\n        /* \"#utility.yul\":78:98   */\n      calldataload\n        /* \"#utility.yul\":69:98   */\n      swap1\n      pop\n        /* \"#utility.yul\":107:140   */\n      tag_59\n        /* \"#utility.yul\":134:139   */\n      dup2\n        /* \"#utility.yul\":107:140   */\n      tag_60\n      jump\t// in\n    tag_59:\n        /* \"#utility.yul\":59:146   */\n      swap3\n      swap2\n      pop\n      pop\n      jump\t// out\n        /* \"#utility.yul\":152:291   */\n    tag_61:\n        /* \"#utility.yul\":198:203   */\n      0x00\n        /* \"#utility.yul\":236:242   */\n      dup2\n        /* \"#utility.yul\":223:243   */\n      calldataload\n        /* \"#utility.yul\":214:243   */\n      swap1\n      pop\n        /* \"#utility.yul\":252:285   */\n      tag_63\n        /* \"#utility.yul\":279:284   */\n      dup2\n        /* \"#utility.yul\":252:285   */\n      tag_64\n      jump\t// in\n    tag_63:\n        /* \"#utility.yul\":204:291   */\n      swap3\n      swap2\n      pop\n      pop\n      jump\t// out\n        /* \"#utility.yul\":297:626   */\n    tag_26:\n        /* \"#utility.yul\":356:362   */\n      0x00\n        /* \"#utility.yul\":405:407   */\n      0x20\n        /* \"#utility.yul\":393:402   */\n      dup3\n        /* \"#utility.yul\":384:391   */\n      dup5\n        /* \"#utility.yul\":380:403   */\n      sub\n        /* \"#utility.yul\":376:408   */\n      slt\n        /* \"#utility.yul\":373:375   */\n      iszero\n      tag_66\n      jumpi\n        /* \"#utility.yul\":411:490   */\n      tag_67\n      tag_68\n      jump\t// in\n    tag_67:\n        /* \"#utility.yul\":373:375   */\n    tag_66:\n        /* \"#utility.yul\":531:532   */\n      0x00\n        /* \"#utility.yul\":556:609   */\n      tag_69\n        /* \"#utility.yul\":601:608   */\n      dup5\n        /* \"#utility.yul\":592:598   */\n      dup3\n        /* \"#utility.yul\":581:590   */\n      dup6\n        /* \"#utility.yul\":577:599   */\n      add\n        /* \"#utility.yul\":556:609   */\n      tag_57\n      jump\t// in\n    tag_69:\n        /* \"#utility.yul\":546:609   */\n      swap2\n      pop\n        /* \"#utility.yul\":502:619   */\n      pop\n        /* \"#utility.yul\":363:626   */\n      swap3\n      swap2\n      pop\n      pop\n      jump\t// out\n        /* \"#utility.yul\":632:961   */\n    tag_11:\n        /* \"#utility.yul\":691:697   */\n      0x00\n        /* \"#utility.yul\":740:742   */\n      0x20\n        /* \"#utility.yul\":728:737   */\n      dup3\n        /* \"#utility.yul\":719:726   */\n      dup5\n        /* \"#utility.yul\":715:738   */\n      sub\n        /* \"#utility.yul\":711:743   */\n      slt\n        /* \"#utility.yul\":708:710   */\n      iszero\n      tag_71\n      jumpi\n        /* \"#utility.yul\":746:825   */\n      tag_72\n      tag_68\n      jump\t// in\n    tag_72:\n        /* \"#utility.yul\":708:710   */\n    tag_71:\n        /* \"#utility.yul\":866:867   */\n      0x00\n        /* \"#utility.yul\":891:944   */\n      tag_73\n        /* \"#utility.yul\":936:943   */\n      dup5\n        /* \"#utility.yul\":927:933   */\n      dup3\n        /* \"#utility.yul\":916:925   */\n      dup6\n        /* \"#utility.yul\":912:934   */\n      add\n        /* \"#utility.yul\":891:944   */\n      tag_61\n      jump\t// in\n    tag_73:\n        /* \"#utility.yul\":881:944   */\n      swap2\n      pop\n        /* \"#utility.yul\":837:954   */\n      pop\n        /* \"#utility.yul\":698:961   */\n      swap3\n      swap2\n      pop\n      pop\n      jump\t// out\n        /* \"#utility.yul\":967:1076   */\n    tag_74:\n        /* \"#utility.yul\":1048:1069   */\n      tag_76\n        /* \"#utility.yul\":1063:1068   */\n      dup2\n        /* \"#utility.yul\":1048:1069   */\n      tag_77\n      jump\t// in\n    tag_76:\n        /* \"#utility.yul\":1043:1046   */\n      dup3\n        /* \"#utility.yul\":1036:1070   */\n      mstore\n        /* \"#utility.yul\":1026:1076   */\n      pop\n      pop\n      jump\t// out\n        /* \"#utility.yul\":1082:1446   */\n    tag_78:\n        /* \"#utility.yul\":1170:1173   */\n      0x00\n        /* \"#utility.yul\":1198:1237   */\n      tag_80\n        /* \"#utility.yul\":1231:1236   */\n      dup3\n        /* \"#utility.yul\":1198:1237   */\n      tag_81\n      jump\t// in\n    tag_80:\n        /* \"#utility.yul\":1253:1324   */\n      tag_82\n        /* \"#utility.yul\":1317:1323   */\n      dup2\n        /* \"#utility.yul\":1312:1315   */\n      dup6\n        /* \"#utility.yul\":1253:1324   */\n      tag_83\n      jump\t// in\n    tag_82:\n        /* \"#utility.yul\":1246:1324   */\n      swap4\n      pop\n        /* \"#utility.yul\":1333:1385   */\n      tag_84\n        /* \"#utility.yul\":1378:1384   */\n      dup2\n        /* \"#utility.yul\":1373:1376   */\n      dup6\n        /* \"#utility.yul\":1366:1370   */\n      0x20\n        /* \"#utility.yul\":1359:1364   */\n      dup7\n        /* \"#utility.yul\":1355:1371   */\n      add\n        /* \"#utility.yul\":1333:1385   */\n      tag_85\n      jump\t// in\n    tag_84:\n        /* \"#utility.yul\":1410:1439   */\n      tag_86\n        /* \"#utility.yul\":1432:1438   */\n      dup2\n        /* \"#utility.yul\":1410:1439   */\n      tag_87\n      jump\t// in\n    tag_86:\n        /* \"#utility.yul\":1405:1408   */\n      dup5\n        /* \"#utility.yul\":1401:1440   */\n      add\n        /* \"#utility.yul\":1394:1440   */\n      swap2\n      pop\n        /* \"#utility.yul\":1174:1446   */\n      pop\n      swap3\n      swap2\n      pop\n      pop\n      jump\t// out\n        /* \"#utility.yul\":1452:1818   */\n    tag_88:\n        /* \"#utility.yul\":1594:1597   */\n      0x00\n        /* \"#utility.yul\":1615:1682   */\n      tag_90\n        /* \"#utility.yul\":1679:1681   */\n      0x17\n        /* \"#utility.yul\":1674:1677   */\n      dup4\n        /* \"#utility.yul\":1615:1682   */\n      tag_83\n      jump\t// in\n    tag_90:\n        /* \"#utility.yul\":1608:1682   */\n      swap2\n      pop\n        /* \"#utility.yul\":1691:1784   */\n      tag_91\n        /* \"#utility.yul\":1780:1783   */\n      dup3\n        /* \"#utility.yul\":1691:1784   */\n      tag_92\n      jump\t// in\n    tag_91:\n        /* \"#utility.yul\":1809:1811   */\n      0x20\n        /* \"#utility.yul\":1804:1807   */\n      dup3\n        /* \"#utility.yul\":1800:1812   */\n      add\n        /* \"#utility.yul\":1793:1812   */\n      swap1\n      pop\n        /* \"#utility.yul\":1598:1818   */\n      swap2\n      swap1\n      pop\n      jump\t// out\n        /* \"#utility.yul\":1824:2190   */\n    tag_93:\n        /* \"#utility.yul\":1966:1969   */\n      0x00\n        /* \"#utility.yul\":1987:2054   */\n      tag_95\n        /* \"#utility.yul\":2051:2053   */\n      0x29\n        /* \"#utility.yul\":2046:2049   */\n      dup4\n        /* \"#utility.yul\":1987:2054   */\n      tag_83\n      jump\t// in\n    tag_95:\n        /* \"#utility.yul\":1980:2054   */\n      swap2\n      pop\n        /* \"#utility.yul\":2063:2156   */\n      tag_96\n        /* \"#utility.yul\":2152:2155   */\n      dup3\n        /* \"#utility.yul\":2063:2156   */\n      tag_97\n      jump\t// in\n    tag_96:\n        /* \"#utility.yul\":2181:2183   */\n      0x40\n        /* \"#utility.yul\":2176:2179   */\n      dup3\n        /* \"#utility.yul\":2172:2184   */\n      add\n        /* \"#utility.yul\":2165:2184   */\n      swap1\n      pop\n        /* \"#utility.yul\":1970:2190   */\n      swap2\n      swap1\n      pop\n      jump\t// out\n        /* \"#utility.yul\":2196:2560   */\n    tag_98:\n        /* \"#utility.yul\":2338:2341   */\n      0x00\n        /* \"#utility.yul\":2359:2425   */\n      tag_100\n        /* \"#utility.yul\":2423:2424   */\n      0x00\n        /* \"#utility.yul\":2418:2421   */\n      dup4\n        /* \"#utility.yul\":2359:2425   */\n      tag_83\n      jump\t// in\n    tag_100:\n        /* \"#utility.yul\":2352:2425   */\n      swap2\n      pop\n        /* \"#utility.yul\":2434:2527   */\n      tag_101\n        /* \"#utility.yul\":2523:2526   */\n      dup3\n        /* \"#utility.yul\":2434:2527   */\n      tag_102\n      jump\t// in\n    tag_101:\n        /* \"#utility.yul\":2552:2553   */\n      0x00\n        /* \"#utility.yul\":2547:2550   */\n      dup3\n        /* \"#utility.yul\":2543:2554   */\n      add\n        /* \"#utility.yul\":2536:2554   */\n      swap1\n      pop\n        /* \"#utility.yul\":2342:2560   */\n      swap2\n      swap1\n      pop\n      jump\t// out\n        /* \"#utility.yul\":2566:2684   */\n    tag_103:\n        /* \"#utility.yul\":2653:2677   */\n      tag_105\n        /* \"#utility.yul\":2671:2676   */\n      dup2\n        /* \"#utility.yul\":2653:2677   */\n      tag_106\n      jump\t// in\n    tag_105:\n        /* \"#utility.yul\":2648:2651   */\n      dup3\n        /* \"#utility.yul\":2641:2678   */\n      mstore\n        /* \"#utility.yul\":2631:2684   */\n      pop\n      pop\n      jump\t// out\n        /* \"#utility.yul\":2690:2900   */\n    tag_29:\n        /* \"#utility.yul\":2777:2781   */\n      0x00\n        /* \"#utility.yul\":2815:2817   */\n      0x20\n        /* \"#utility.yul\":2804:2813   */\n      dup3\n        /* \"#utility.yul\":2800:2818   */\n      add\n        /* \"#utility.yul\":2792:2818   */\n      swap1\n      pop\n        /* \"#utility.yul\":2828:2893   */\n      tag_108\n        /* \"#utility.yul\":2890:2891   */\n      0x00\n        /* \"#utility.yul\":2879:2888   */\n      dup4\n        /* \"#utility.yul\":2875:2892   */\n      add\n        /* \"#utility.yul\":2866:2872   */\n      dup5\n        /* \"#utility.yul\":2828:2893   */\n      tag_74\n      jump\t// in\n    tag_108:\n        /* \"#utility.yul\":2782:2900   */\n      swap3\n      swap2\n      pop\n      pop\n      jump\t// out\n        /* \"#utility.yul\":2906:3325   */\n    tag_35:\n        /* \"#utility.yul\":3072:3076   */\n      0x00\n        /* \"#utility.yul\":3110:3112   */\n      0x20\n        /* \"#utility.yul\":3099:3108   */\n      dup3\n        /* \"#utility.yul\":3095:3113   */\n      add\n        /* \"#utility.yul\":3087:3113   */\n      swap1\n      pop\n        /* \"#utility.yul\":3159:3168   */\n      dup2\n        /* \"#utility.yul\":3153:3157   */\n      dup2\n        /* \"#utility.yul\":3149:3169   */\n      sub\n        /* \"#utility.yul\":3145:3146   */\n      0x00\n        /* \"#utility.yul\":3134:3143   */\n      dup4\n        /* \"#utility.yul\":3130:3147   */\n      add\n        /* \"#utility.yul\":3123:3170   */\n      mstore\n        /* \"#utility.yul\":3187:3318   */\n      tag_110\n        /* \"#utility.yul\":3313:3317   */\n      dup2\n        /* \"#utility.yul\":3187:3318   */\n      tag_88\n      jump\t// in\n    tag_110:\n        /* \"#utility.yul\":3179:3318   */\n      swap1\n      pop\n        /* \"#utility.yul\":3077:3325   */\n      swap2\n      swap1\n      pop\n      jump\t// out\n        /* \"#utility.yul\":3331:3750   */\n    tag_38:\n        /* \"#utility.yul\":3497:3501   */\n      0x00\n        /* \"#utility.yul\":3535:3537   */\n      0x20\n        /* \"#utility.yul\":3524:3533   */\n      dup3\n        /* \"#utility.yul\":3520:3538   */\n      add\n        /* \"#utility.yul\":3512:3538   */\n      swap1\n      pop\n        /* \"#utility.yul\":3584:3593   */\n      dup2\n        /* \"#utility.yul\":3578:3582   */\n      dup2\n        /* \"#utility.yul\":3574:3594   */\n      sub\n        /* \"#utility.yul\":3570:3571   */\n      0x00\n        /* \"#utility.yul\":3559:3568   */\n      dup4\n        /* \"#utility.yul\":3555:3572   */\n      add\n        /* \"#utility.yul\":3548:3595   */\n      mstore\n        /* \"#utility.yul\":3612:3743   */\n      tag_112\n        /* \"#utility.yul\":3738:3742   */\n      dup2\n        /* \"#utility.yul\":3612:3743   */\n      tag_93\n      jump\t// in\n    tag_112:\n        /* \"#utility.yul\":3604:3743   */\n      swap1\n      pop\n        /* \"#utility.yul\":3502:3750   */\n      swap2\n      swap1\n      pop\n      jump\t// out\n        /* \"#utility.yul\":3756:4175   */\n    tag_41:\n        /* \"#utility.yul\":3922:3926   */\n      0x00\n        /* \"#utility.yul\":3960:3962   */\n      0x20\n        /* \"#utility.yul\":3949:3958   */\n      dup3\n        /* \"#utility.yul\":3945:3963   */\n      add\n        /* \"#utility.yul\":3937:3963   */\n      swap1\n      pop\n        /* \"#utility.yul\":4009:4018   */\n      dup2\n        /* \"#utility.yul\":4003:4007   */\n      dup2\n        /* \"#utility.yul\":3999:4019   */\n      sub\n        /* \"#utility.yul\":3995:3996   */\n      0x00\n        /* \"#utility.yul\":3984:3993   */\n      dup4\n        /* \"#utility.yul\":3980:3997   */\n      add\n        /* \"#utility.yul\":3973:4020   */\n      mstore\n        /* \"#utility.yul\":4037:4168   */\n      tag_114\n        /* \"#utility.yul\":4163:4167   */\n      dup2\n        /* \"#utility.yul\":4037:4168   */\n      tag_98\n      jump\t// in\n    tag_114:\n        /* \"#utility.yul\":4029:4168   */\n      swap1\n      pop\n        /* \"#utility.yul\":3927:4175   */\n      swap2\n      swap1\n      pop\n      jump\t// out\n        /* \"#utility.yul\":4181:4403   */\n    tag_16:\n        /* \"#utility.yul\":4274:4278   */\n      0x00\n        /* \"#utility.yul\":4312:4314   */\n      0x20\n        /* \"#utility.yul\":4301:4310   */\n      dup3\n        /* \"#utility.yul\":4297:4315   */\n      add\n        /* \"#utility.yul\":4289:4315   */\n      swap1\n      pop\n        /* \"#utility.yul\":4325:4396   */\n      tag_116\n        /* \"#utility.yul\":4393:4394   */\n      0x00\n        /* \"#utility.yul\":4382:4391   */\n      dup4\n        /* \"#utility.yul\":4378:4395   */\n      add\n        /* \"#utility.yul\":4369:4375   */\n      dup5\n        /* \"#utility.yul\":4325:4396   */\n      tag_103\n      jump\t// in\n    tag_116:\n        /* \"#utility.yul\":4279:4403   */\n      swap3\n      swap2\n      pop\n      pop\n      jump\t// out\n        /* \"#utility.yul\":4409:4942   */\n    tag_21:\n        /* \"#utility.yul\":4578:4582   */\n      0x00\n        /* \"#utility.yul\":4616:4618   */\n      0x60\n        /* \"#utility.yul\":4605:4614   */\n      dup3\n        /* \"#utility.yul\":4601:4619   */\n      add\n        /* \"#utility.yul\":4593:4619   */\n      swap1\n      pop\n        /* \"#utility.yul\":4629:4700   */\n      tag_118\n        /* \"#utility.yul\":4697:4698   */\n      0x00\n        /* \"#utility.yul\":4686:4695   */\n      dup4\n        /* \"#utility.yul\":4682:4699   */\n      add\n        /* \"#utility.yul\":4673:4679   */\n      dup7\n        /* \"#utility.yul\":4629:4700   */\n      tag_103\n      jump\t// in\n    tag_118:\n        /* \"#utility.yul\":4747:4756   */\n      dup2\n        /* \"#utility.yul\":4741:4745   */\n      dup2\n        /* \"#utility.yul\":4737:4757   */\n      sub\n        /* \"#utility.yul\":4732:4734   */\n      0x20\n        /* \"#utility.yul\":4721:4730   */\n      dup4\n        /* \"#utility.yul\":4717:4735   */\n      add\n        /* \"#utility.yul\":4710:4758   */\n      mstore\n        /* \"#utility.yul\":4775:4853   */\n      tag_119\n        /* \"#utility.yul\":4848:4852   */\n      dup2\n        /* \"#utility.yul\":4839:4845   */\n      dup6\n        /* \"#utility.yul\":4775:4853   */\n      tag_78\n      jump\t// in\n    tag_119:\n        /* \"#utility.yul\":4767:4853   */\n      swap1\n      pop\n        /* \"#utility.yul\":4863:4935   */\n      tag_120\n        /* \"#utility.yul\":4931:4933   */\n      0x40\n        /* \"#utility.yul\":4920:4929   */\n      dup4\n        /* \"#utility.yul\":4916:4934   */\n      add\n        /* \"#utility.yul\":4907:4913   */\n      dup5\n        /* \"#utility.yul\":4863:4935   */\n      tag_103\n      jump\t// in\n    tag_120:\n        /* \"#utility.yul\":4583:4942   */\n      swap5\n      swap4\n      pop\n      pop\n      pop\n      pop\n      jump\t// out\n        /* \"#utility.yul\":5029:5128   */\n    tag_81:\n        /* \"#utility.yul\":5081:5087   */\n      0x00\n        /* \"#utility.yul\":5115:5120   */\n      dup2\n        /* \"#utility.yul\":5109:5121   */\n      mload\n        /* \"#utility.yul\":5099:5121   */\n      swap1\n      pop\n        /* \"#utility.yul\":5088:5128   */\n      swap2\n      swap1\n      pop\n      jump\t// out\n        /* \"#utility.yul\":5134:5303   */\n    tag_83:\n        /* \"#utility.yul\":5218:5229   */\n      0x00\n        /* \"#utility.yul\":5252:5258   */\n      dup3\n        /* \"#utility.yul\":5247:5250   */\n      dup3\n        /* \"#utility.yul\":5240:5259   */\n      mstore\n        /* \"#utility.yul\":5292:5296   */\n      0x20\n        /* \"#utility.yul\":5287:5290   */\n      dup3\n        /* \"#utility.yul\":5283:5297   */\n      add\n        /* \"#utility.yul\":5268:5297   */\n      swap1\n      pop\n        /* \"#utility.yul\":5230:5303   */\n      swap3\n      swap2\n      pop\n      pop\n      jump\t// out\n        /* \"#utility.yul\":5309:5405   */\n    tag_125:\n        /* \"#utility.yul\":5346:5353   */\n      0x00\n        /* \"#utility.yul\":5375:5399   */\n      tag_127\n        /* \"#utility.yul\":5393:5398   */\n      dup3\n        /* \"#utility.yul\":5375:5399   */\n      tag_128\n      jump\t// in\n    tag_127:\n        /* \"#utility.yul\":5364:5399   */\n      swap1\n      pop\n        /* \"#utility.yul\":5354:5405   */\n      swap2\n      swap1\n      pop\n      jump\t// out\n        /* \"#utility.yul\":5411:5501   */\n    tag_77:\n        /* \"#utility.yul\":5445:5452   */\n      0x00\n        /* \"#utility.yul\":5488:5493   */\n      dup2\n        /* \"#utility.yul\":5481:5494   */\n      iszero\n        /* \"#utility.yul\":5474:5495   */\n      iszero\n        /* \"#utility.yul\":5463:5495   */\n      swap1\n      pop\n        /* \"#utility.yul\":5453:5501   */\n      swap2\n      swap1\n      pop\n      jump\t// out\n        /* \"#utility.yul\":5507:5633   */\n    tag_128:\n        /* \"#utility.yul\":5544:5551   */\n      0x00\n        /* \"#utility.yul\":5584:5626   */\n      0xffffffffffffffffffffffffffffffffffffffff\n        /* \"#utility.yul\":5577:5582   */\n      dup3\n        /* \"#utility.yul\":5573:5627   */\n      and\n        /* \"#utility.yul\":5562:5627   */\n      swap1\n      pop\n        /* \"#utility.yul\":5552:5633   */\n      swap2\n      swap1\n      pop\n      jump\t// out\n        /* \"#utility.yul\":5639:5716   */\n    tag_106:\n        /* \"#utility.yul\":5676:5683   */\n      0x00\n        /* \"#utility.yul\":5705:5710   */\n      dup2\n        /* \"#utility.yul\":5694:5710   */\n      swap1\n      pop\n        /* \"#utility.yul\":5684:5716   */\n      swap2\n      swap1\n      pop\n      jump\t// out\n        /* \"#utility.yul\":5722:6029   */\n    tag_85:\n        /* \"#utility.yul\":5790:5791   */\n      0x00\n        /* \"#utility.yul\":5800:5913   */\n    tag_133:\n        /* \"#utility.yul\":5814:5820   */\n      dup4\n        /* \"#utility.yul\":5811:5812   */\n      dup2\n        /* \"#utility.yul\":5808:5821   */\n      lt\n        /* \"#utility.yul\":5800:5913   */\n      iszero\n      tag_135\n      jumpi\n        /* \"#utility.yul\":5899:5900   */\n      dup1\n        /* \"#utility.yul\":5894:5897   */\n      dup3\n        /* \"#utility.yul\":5890:5901   */\n      add\n        /* \"#utility.yul\":5884:5902   */\n      mload\n        /* \"#utility.yul\":5880:5881   */\n      dup2\n        /* \"#utility.yul\":5875:5878   */\n      dup5\n        /* \"#utility.yul\":5871:5882   */\n      add\n        /* \"#utility.yul\":5864:5903   */\n      mstore\n        /* \"#utility.yul\":5836:5838   */\n      0x20\n        /* \"#utility.yul\":5833:5834   */\n      dup2\n        /* \"#utility.yul\":5829:5839   */\n      add\n        /* \"#utility.yul\":5824:5839   */\n      swap1\n      pop\n        /* \"#utility.yul\":5800:5913   */\n      jump(tag_133)\n    tag_135:\n        /* \"#utility.yul\":5931:5937   */\n      dup4\n        /* \"#utility.yul\":5928:5929   */\n      dup2\n        /* \"#utility.yul\":5925:5938   */\n      gt\n        /* \"#utility.yul\":5922:5924   */\n      iszero\n      tag_136\n      jumpi\n        /* \"#utility.yul\":6011:6012   */\n      0x00\n        /* \"#utility.yul\":6002:6008   */\n      dup5\n        /* \"#utility.yul\":5997:6000   */\n      dup5\n        /* \"#utility.yul\":5993:6009   */\n      add\n        /* \"#utility.yul\":5986:6013   */\n      mstore\n        /* \"#utility.yul\":5922:5924   */\n    tag_136:\n        /* \"#utility.yul\":5771:6029   */\n      pop\n      pop\n      pop\n      pop\n      jump\t// out\n        /* \"#utility.yul\":6035:6355   */\n    tag_47:\n        /* \"#utility.yul\":6079:6085   */\n      0x00\n        /* \"#utility.yul\":6116:6117   */\n      0x02\n        /* \"#utility.yul\":6110:6114   */\n      dup3\n        /* \"#utility.yul\":6106:6118   */\n      div\n        /* \"#utility.yul\":6096:6118   */\n      swap1\n      pop\n        /* \"#utility.yul\":6163:6164   */\n      0x01\n        /* \"#utility.yul\":6157:6161   */\n      dup3\n        /* \"#utility.yul\":6153:6165   */\n      and\n        /* \"#utility.yul\":6184:6202   */\n      dup1\n        /* \"#utility.yul\":6174:6176   */\n      tag_138\n      jumpi\n        /* \"#utility.yul\":6240:6244   */\n      0x7f\n        /* \"#utility.yul\":6232:6238   */\n      dup3\n        /* \"#utility.yul\":6228:6245   */\n      and\n        /* \"#utility.yul\":6218:6245   */\n      swap2\n      pop\n        /* \"#utility.yul\":6174:6176   */\n    tag_138:\n        /* \"#utility.yul\":6302:6304   */\n      0x20\n        /* \"#utility.yul\":6294:6300   */\n      dup3\n        /* \"#utility.yul\":6291:6305   */\n      lt\n        /* \"#utility.yul\":6271:6289   */\n      dup2\n        /* \"#utility.yul\":6268:6306   */\n      eq\n        /* \"#utility.yul\":6265:6267   */\n      iszero\n      tag_139\n      jumpi\n        /* \"#utility.yul\":6321:6339   */\n      tag_140\n      tag_141\n      jump\t// in\n    tag_140:\n        /* \"#utility.yul\":6265:6267   */\n    tag_139:\n        /* \"#utility.yul\":6086:6355   */\n      pop\n      swap2\n      swap1\n      pop\n      jump\t// out\n        /* \"#utility.yul\":6361:6594   */\n    tag_45:\n        /* \"#utility.yul\":6400:6403   */\n      0x00\n        /* \"#utility.yul\":6423:6447   */\n      tag_143\n        /* \"#utility.yul\":6441:6446   */\n      dup3\n        /* \"#utility.yul\":6423:6447   */\n      tag_106\n      jump\t// in\n    tag_143:\n        /* \"#utility.yul\":6414:6447   */\n      swap2\n      pop\n        /* \"#utility.yul\":6469:6535   */\n      0xffffffffffffffffffffffffffffffffffffffffffffffffffffffffffffffff\n        /* \"#utility.yul\":6462:6467   */\n      dup3\n        /* \"#utility.yul\":6459:6536   */\n      eq\n        /* \"#utility.yul\":6456:6458   */\n      iszero\n      tag_144\n      jumpi\n        /* \"#utility.yul\":6539:6557   */\n      tag_145\n      tag_146\n      jump\t// in\n    tag_145:\n        /* \"#utility.yul\":6456:6458   */\n    tag_144:\n        /* \"#utility.yul\":6586:6587   */\n      0x01\n        /* \"#utility.yul\":6579:6584   */\n      dup3\n        /* \"#utility.yul\":6575:6588   */\n      add\n        /* \"#utility.yul\":6568:6588   */\n      swap1\n      pop\n        /* \"#utility.yul\":6404:6594   */\n      swap2\n      swap1\n      pop\n      jump\t// out\n        /* \"#utility.yul\":6600:6780   */\n    tag_146:\n        /* \"#utility.yul\":6648:6725   */\n      0x4e487b7100000000000000000000000000000000000000000000000000000000\n        /* \"#utility.yul\":6645:6646   */\n      0x00\n        /* \"#utility.yul\":6638:6726   */\n      mstore\n        /* \"#utility.yul\":6745:6749   */\n      0x11\n        /* \"#utility.yul\":6742:6743   */\n      0x04\n        /* \"#utility.yul\":6735:6750   */\n      mstore\n        /* \"#utility.yul\":6769:6773   */\n      0x24\n        /* \"#utility.yul\":6766:6767   */\n      0x00\n        /* \"#utility.yul\":6759:6774   */\n      revert\n        /* \"#utility.yul\":6786:6966   */\n    tag_141:\n        /* \"#utility.yul\":6834:6911   */\n      0x4e487b7100000000000000000000000000000000000000000000000000000000\n        /* \"#utility.yul\":6831:6832   */\n      0x00\n        /* \"#utility.yul\":6824:6912   */\n      mstore\n        /* \"#utility.yul\":6931:6935   */\n      0x22\n        /* \"#utility.yul\":6928:6929   */\n      0x04\n        /* \"#utility.yul\":6921:6936   */\n      mstore\n        /* \"#utility.yul\":6955:6959   */\n      0x24\n        /* \"#utility.yul\":6952:6953   */\n      0x00\n        /* \"#utility.yul\":6945:6960   */\n      revert\n        /* \"#utility.yul\":7095:7212   */\n    tag_68:\n        /* \"#utility.yul\":7204:7205   */\n      0x00\n        /* \"#utility.yul\":7201:7202   */\n      dup1\n        /* \"#utility.yul\":7194:7206   */\n      revert\n        /* \"#utility.yul\":7218:7320   */\n    tag_87:\n        /* \"#utility.yul\":7259:7265   */\n      0x00\n        /* \"#utility.yul\":7310:7312   */\n      0x1f\n        /* \"#utility.yul\":7306:7313   */\n      not\n        /* \"#utility.yul\":7301:7303   */\n      0x1f\n        /* \"#utility.yul\":7294:7299   */\n      dup4\n        /* \"#utility.yul\":7290:7304   */\n      add\n        /* \"#utility.yul\":7286:7314   */\n      and\n        /* \"#utility.yul\":7276:7314   */\n      swap1\n      pop\n        /* \"#utility.yul\":7266:7320   */\n      swap2\n      swap1\n      pop\n      jump\t// out\n        /* \"#utility.yul\":7326:7499   */\n    tag_92:\n        /* \"#utility.yul\":7466:7491   */\n      0x456c656374696f6e73206973206e6f74206f70656e6564000000000000000000\n        /* \"#utility.yul\":7462:7463   */\n      0x00\n        /* \"#utility.yul\":7454:7460   */\n      dup3\n        /* \"#utility.yul\":7450:7464   */\n      add\n        /* \"#utility.yul\":7443:7492   */\n      mstore\n        /* \"#utility.yul\":7432:7499   */\n      pop\n      jump\t// out\n        /* \"#utility.yul\":7505:7733   */\n    tag_97:\n        /* \"#utility.yul\":7645:7679   */\n      0x54686520656c656374696f6e206f776e6572206973206e6f7420616c6c6f7765\n        /* \"#utility.yul\":7641:7642   */\n      0x00\n        /* \"#utility.yul\":7633:7639   */\n      dup3\n        /* \"#utility.yul\":7629:7643   */\n      add\n        /* \"#utility.yul\":7622:7680   */\n      mstore\n        /* \"#utility.yul\":7714:7725   */\n      0x6420746f20766f74650000000000000000000000000000000000000000000000\n        /* \"#utility.yul\":7709:7711   */\n      0x20\n        /* \"#utility.yul\":7701:7707   */\n      dup3\n        /* \"#utility.yul\":7697:7712   */\n      add\n        /* \"#utility.yul\":7690:7726   */\n      mstore\n        /* \"#utility.yul\":7611:7733   */\n      pop\n      jump\t// out\n        /* \"#utility.yul\":7739:7853   */\n    tag_102:\n        /* \"#utility.yul\":7845:7853   */\n      pop\n      jump\t// out\n        /* \"#utility.yul\":7859:7981   */\n    tag_60:\n        /* \"#utility.yul\":7932:7956   */\n      tag_157\n        /* \"#utility.yul\":7950:7955   */\n      dup2\n        /* \"#utility.yul\":7932:7956   */\n      tag_125\n      jump\t// in\n    tag_157:\n        /* \"#utility.yul\":7925:7930   */\n      dup2\n        /* \"#utility.yul\":7922:7957   */\n      eq\n        /* \"#utility.yul\":7912:7914   */\n      tag_158\n      jumpi\n        /* \"#utility.yul\":7971:7972   */\n      0x00\n        /* \"#utility.yul\":7968:7969   */\n      dup1\n        /* \"#utility.yul\":7961:7973   */\n      revert\n        /* \"#utility.yul\":7912:7914   */\n    tag_158:\n        /* \"#utility.yul\":7902:7981   */\n      pop\n      jump\t// out\n        /* \"#utility.yul\":7987:8109   */\n    tag_64:\n        /* \"#utility.yul\":8060:8084   */\n      tag_160\n        /* \"#utility.yul\":8078:8083   */\n      dup2\n        /* \"#utility.yul\":8060:8084   */\n      tag_106\n      jump\t// in\n    tag_160:\n        /* \"#utility.yul\":8053:8058   */\n      dup2\n        /* \"#utility.yul\":8050:8085   */\n      eq\n        /* \"#utility.yul\":8040:8042   */\n      tag_161\n      jumpi\n        /* \"#utility.yul\":8099:8100   */\n      0x00\n        /* \"#utility.yul\":8096:8097   */\n      dup1\n        /* \"#utility.yul\":8089:8101   */\n      revert\n        /* \"#utility.yul\":8040:8042   */\n    tag_161:\n        /* \"#utility.yul\":8030:8109   */\n      pop\n      jump\t// out\n\n    auxdata: 0xa2646970667358221220af96b9386b8bf641d0796780c4d484e73780a4a52e7ee288fba3b8c217c2b2dc64736f6c63430008050033\n}\n",
				"bytecode": {
					"linkReferences": {},
					"object": "608060405260008060146101000a81548160ff0219169083151502179055503480156200002b57600080fd5b50336000806101000a81548173ffffffffffffffffffffffffffffffffffffffff021916908373ffffffffffffffffffffffffffffffffffffffff160217905550620000b26040518060400160405280600c81526020017f426974636f696e20636c75620000000000000000000000000000000000000000815250620000fe60201b60201c565b620000f86040518060400160405280600d81526020017f457468657265756d20636c756200000000000000000000000000000000000000815250620000fe60201b60201c565b62000320565b60036000815480929190620001139062000274565b91905055506040518060600160405280600354815260200182815260200160008152506002600060035481526020019081526020016000206000820151816000015560208201518160010190805190602001906200017392919062000184565b506040820151816002015590505050565b82805462000192906200023e565b90600052602060002090601f016020900481019282620001b6576000855562000202565b82601f10620001d157805160ff191683800117855562000202565b8280016001018555821562000202579182015b8281111562000201578251825591602001919060010190620001e4565b5b50905062000211919062000215565b5090565b5b808211156200023057600081600090555060010162000216565b5090565b6000819050919050565b600060028204905060018216806200025757607f821691505b602082108114156200026e576200026d620002f1565b5b50919050565b6000620002818262000234565b91507fffffffffffffffffffffffffffffffffffffffffffffffffffffffffffffffff821415620002b757620002b6620002c2565b5b600182019050919050565b7f4e487b7100000000000000000000000000000000000000000000000000000000600052601160045260246000fd5b7f4e487b7100000000000000000000000000000000000000000000000000000000600052602260045260246000fd5b6109ee80620003306000396000f3fe608060405234801561001057600080fd5b50600436106100625760003560e01c80630121b93f146100675780632d35a8a2146100835780633477ee2e146100a15780636c6c32d0146100d3578063a3ec138d146100dd578063c5d00f5d1461010d575b600080fd5b610081600480360381019061007c91906105c8565b610117565b005b61008b610350565b6040516100989190610730565b60405180910390f35b6100bb60048036038101906100b691906105c8565b610356565b6040516100ca9392919061074b565b60405180910390f35b6100db610408565b005b6100f760048036038101906100f2919061059b565b6104ac565b60405161010491906106b5565b60405180910390f35b6101156104cc565b005b600060149054906101000a900460ff16610166576040517f08c379a000000000000000000000000000000000000000000000000000000000815260040161015d906106d0565b60405180910390fd5b60008054906101000a900473ffffffffffffffffffffffffffffffffffffffff1673ffffffffffffffffffffffffffffffffffffffff163373ffffffffffffffffffffffffffffffffffffffff1614156101f5576040517f08c379a00000000000000000000000000000000000000000000000000000000081526004016101ec906106f0565b60405180910390fd5b600160003373ffffffffffffffffffffffffffffffffffffffff1673ffffffffffffffffffffffffffffffffffffffff16815260200190815260200160002060009054906101000a900460ff1615610282576040517f08c379a000000000000000000000000000000000000000000000000000000000815260040161027990610710565b60405180910390fd5b60008111801561029457506003548111155b61029d57600080fd5b60018060003373ffffffffffffffffffffffffffffffffffffffff1673ffffffffffffffffffffffffffffffffffffffff16815260200190815260200160002060006101000a81548160ff02191690831515021790555060026000828152602001908152602001600020600201600081548092919061031b90610852565b9190505550807ffff3c900d938d21d0990d786e819f29b8d05c1ef587b462b939609625b684b1660405160405180910390a250565b60035481565b600260205280600052604060002060009150905080600001549080600101805461037f90610820565b80601f01602080910402602001604051908101604052809291908181526020018280546103ab90610820565b80156103f85780601f106103cd576101008083540402835291602001916103f8565b820191906000526020600020905b8154815290600101906020018083116103db57829003601f168201915b5050505050908060020154905083565b3373ffffffffffffffffffffffffffffffffffffffff1660008054906101000a900473ffffffffffffffffffffffffffffffffffffffff1673ffffffffffffffffffffffffffffffffffffffff161461046057600080fd5b60008060146101000a81548160ff021916908315150217905550600015157fc3bbf431bbff6d5ed800be02ce8d8ee2ca419c8f7751187e8ca8627d72a15aa660405160405180910390a2565b60016020528060005260406000206000915054906101000a900460ff1681565b3373ffffffffffffffffffffffffffffffffffffffff1660008054906101000a900473ffffffffffffffffffffffffffffffffffffffff1673ffffffffffffffffffffffffffffffffffffffff161461052457600080fd5b6001600060146101000a81548160ff021916908315150217905550600115157fc3bbf431bbff6d5ed800be02ce8d8ee2ca419c8f7751187e8ca8627d72a15aa660405160405180910390a2565b6000813590506105808161098a565b92915050565b600081359050610595816109a1565b92915050565b6000602082840312156105b1576105b06108f9565b5b60006105bf84828501610571565b91505092915050565b6000602082840312156105de576105dd6108f9565b5b60006105ec84828501610586565b91505092915050565b6105fe816107b7565b82525050565b600061060f82610789565b6106198185610794565b93506106298185602086016107ed565b610632816108fe565b840191505092915050565b600061064a601783610794565b91506106558261090f565b602082019050919050565b600061066d602983610794565b915061067882610938565b604082019050919050565b6000610690600083610794565b915061069b82610987565b600082019050919050565b6106af816107e3565b82525050565b60006020820190506106ca60008301846105f5565b92915050565b600060208201905081810360008301526106e98161063d565b9050919050565b6000602082019050818103600083015261070981610660565b9050919050565b6000602082019050818103600083015261072981610683565b9050919050565b600060208201905061074560008301846106a6565b92915050565b600060608201905061076060008301866106a6565b81810360208301526107728185610604565b905061078160408301846106a6565b949350505050565b600081519050919050565b600082825260208201905092915050565b60006107b0826107c3565b9050919050565b60008115159050919050565b600073ffffffffffffffffffffffffffffffffffffffff82169050919050565b6000819050919050565b60005b8381101561080b5780820151818401526020810190506107f0565b8381111561081a576000848401525b50505050565b6000600282049050600182168061083857607f821691505b6020821081141561084c5761084b6108ca565b5b50919050565b600061085d826107e3565b91507fffffffffffffffffffffffffffffffffffffffffffffffffffffffffffffffff8214156108905761088f61089b565b5b600182019050919050565b7f4e487b7100000000000000000000000000000000000000000000000000000000600052601160045260246000fd5b7f4e487b7100000000000000000000000000000000000000000000000000000000600052602260045260246000fd5b600080fd5b6000601f19601f8301169050919050565b7f456c656374696f6e73206973206e6f74206f70656e6564000000000000000000600082015250565b7f54686520656c656374696f6e206f776e6572206973206e6f7420616c6c6f776560008201527f6420746f20766f74650000000000000000000000000000000000000000000000602082015250565b50565b610993816107a5565b811461099e57600080fd5b50565b6109aa816107e3565b81146109b557600080fd5b5056fea2646970667358221220af96b9386b8bf641d0796780c4d484e73780a4a52e7ee288fba3b8c217c2b2dc64736f6c63430008050033",
					"opcodes": "PUSH1 0x80 PUSH1 0x40 MSTORE PUSH1 0x0 DUP1 PUSH1 0x14 PUSH2 0x100 EXP DUP2 SLOAD DUP2 PUSH1 0xFF MUL NOT AND SWAP1 DUP4 ISZERO ISZERO MUL OR SWAP1 SSTORE POP CALLVALUE DUP1 ISZERO PUSH3 0x2B JUMPI PUSH1 0x0 DUP1 REVERT JUMPDEST POP CALLER PUSH1 0x0 DUP1 PUSH2 0x100 EXP DUP2 SLOAD DUP2 PUSH20 0xFFFFFFFFFFFFFFFFFFFFFFFFFFFFFFFFFFFFFFFF MUL NOT AND SWAP1 DUP4 PUSH20 0xFFFFFFFFFFFFFFFFFFFFFFFFFFFFFFFFFFFFFFFF AND MUL OR SWAP1 SSTORE POP PUSH3 0xB2 PUSH1 0x40 MLOAD DUP1 PUSH1 0x40 ADD PUSH1 0x40 MSTORE DUP1 PUSH1 0xC DUP2 MSTORE PUSH1 0x20 ADD PUSH32 0x426974636F696E20636C75620000000000000000000000000000000000000000 DUP2 MSTORE POP PUSH3 0xFE PUSH1 0x20 SHL PUSH1 0x20 SHR JUMP JUMPDEST PUSH3 0xF8 PUSH1 0x40 MLOAD DUP1 PUSH1 0x40 ADD PUSH1 0x40 MSTORE DUP1 PUSH1 0xD DUP2 MSTORE PUSH1 0x20 ADD PUSH32 0x457468657265756D20636C756200000000000000000000000000000000000000 DUP2 MSTORE POP PUSH3 0xFE PUSH1 0x20 SHL PUSH1 0x20 SHR JUMP JUMPDEST PUSH3 0x320 JUMP JUMPDEST PUSH1 0x3 PUSH1 0x0 DUP2 SLOAD DUP1 SWAP3 SWAP2 SWAP1 PUSH3 0x113 SWAP1 PUSH3 0x274 JUMP JUMPDEST SWAP2 SWAP1 POP SSTORE POP PUSH1 0x40 MLOAD DUP1 PUSH1 0x60 ADD PUSH1 0x40 MSTORE DUP1 PUSH1 0x3 SLOAD DUP2 MSTORE PUSH1 0x20 ADD DUP3 DUP2 MSTORE PUSH1 0x20 ADD PUSH1 0x0 DUP2 MSTORE POP PUSH1 0x2 PUSH1 0x0 PUSH1 0x3 SLOAD DUP2 MSTORE PUSH1 0x20 ADD SWAP1 DUP2 MSTORE PUSH1 0x20 ADD PUSH1 0x0 KECCAK256 PUSH1 0x0 DUP3 ADD MLOAD DUP2 PUSH1 0x0 ADD SSTORE PUSH1 0x20 DUP3 ADD MLOAD DUP2 PUSH1 0x1 ADD SWAP1 DUP1 MLOAD SWAP1 PUSH1 0x20 ADD SWAP1 PUSH3 0x173 SWAP3 SWAP2 SWAP1 PUSH3 0x184 JUMP JUMPDEST POP PUSH1 0x40 DUP3 ADD MLOAD DUP2 PUSH1 0x2 ADD SSTORE SWAP1 POP POP POP JUMP JUMPDEST DUP3 DUP1 SLOAD PUSH3 0x192 SWAP1 PUSH3 0x23E JUMP JUMPDEST SWAP1 PUSH1 0x0 MSTORE PUSH1 0x20 PUSH1 0x0 KECCAK256 SWAP1 PUSH1 0x1F ADD PUSH1 0x20 SWAP1 DIV DUP2 ADD SWAP3 DUP3 PUSH3 0x1B6 JUMPI PUSH1 0x0 DUP6 SSTORE PUSH3 0x202 JUMP JUMPDEST DUP3 PUSH1 0x1F LT PUSH3 0x1D1 JUMPI DUP1 MLOAD PUSH1 0xFF NOT AND DUP4 DUP1 ADD OR DUP6 SSTORE PUSH3 0x202 JUMP JUMPDEST DUP3 DUP1 ADD PUSH1 0x1 ADD DUP6 SSTORE DUP3 ISZERO PUSH3 0x202 JUMPI SWAP2 DUP3 ADD JUMPDEST DUP3 DUP2 GT ISZERO PUSH3 0x201 JUMPI DUP3 MLOAD DUP3 SSTORE SWAP2 PUSH1 0x20 ADD SWAP2 SWAP1 PUSH1 0x1 ADD SWAP1 PUSH3 0x1E4 JUMP JUMPDEST JUMPDEST POP SWAP1 POP PUSH3 0x211 SWAP2 SWAP1 PUSH3 0x215 JUMP JUMPDEST POP SWAP1 JUMP JUMPDEST JUMPDEST DUP1 DUP3 GT ISZERO PUSH3 0x230 JUMPI PUSH1 0x0 DUP2 PUSH1 0x0 SWAP1 SSTORE POP PUSH1 0x1 ADD PUSH3 0x216 JUMP JUMPDEST POP SWAP1 JUMP JUMPDEST PUSH1 0x0 DUP2 SWAP1 POP SWAP2 SWAP1 POP JUMP JUMPDEST PUSH1 0x0 PUSH1 0x2 DUP3 DIV SWAP1 POP PUSH1 0x1 DUP3 AND DUP1 PUSH3 0x257 JUMPI PUSH1 0x7F DUP3 AND SWAP2 POP JUMPDEST PUSH1 0x20 DUP3 LT DUP2 EQ ISZERO PUSH3 0x26E JUMPI PUSH3 0x26D PUSH3 0x2F1 JUMP JUMPDEST JUMPDEST POP SWAP2 SWAP1 POP JUMP JUMPDEST PUSH1 0x0 PUSH3 0x281 DUP3 PUSH3 0x234 JUMP JUMPDEST SWAP2 POP PUSH32 0xFFFFFFFFFFFFFFFFFFFFFFFFFFFFFFFFFFFFFFFFFFFFFFFFFFFFFFFFFFFFFFFF DUP3 EQ ISZERO PUSH3 0x2B7 JUMPI PUSH3 0x2B6 PUSH3 0x2C2 JUMP JUMPDEST JUMPDEST PUSH1 0x1 DUP3 ADD SWAP1 POP SWAP2 SWAP1 POP JUMP JUMPDEST PUSH32 0x4E487B7100000000000000000000000000000000000000000000000000000000 PUSH1 0x0 MSTORE PUSH1 0x11 PUSH1 0x4 MSTORE PUSH1 0x24 PUSH1 0x0 REVERT JUMPDEST PUSH32 0x4E487B7100000000000000000000000000000000000000000000000000000000 PUSH1 0x0 MSTORE PUSH1 0x22 PUSH1 0x4 MSTORE PUSH1 0x24 PUSH1 0x0 REVERT JUMPDEST PUSH2 0x9EE DUP1 PUSH3 0x330 PUSH1 0x0 CODECOPY PUSH1 0x0 RETURN INVALID PUSH1 0x80 PUSH1 0x40 MSTORE CALLVALUE DUP1 ISZERO PUSH2 0x10 JUMPI PUSH1 0x0 DUP1 REVERT JUMPDEST POP PUSH1 0x4 CALLDATASIZE LT PUSH2 0x62 JUMPI PUSH1 0x0 CALLDATALOAD PUSH1 0xE0 SHR DUP1 PUSH4 0x121B93F EQ PUSH2 0x67 JUMPI DUP1 PUSH4 0x2D35A8A2 EQ PUSH2 0x83 JUMPI DUP1 PUSH4 0x3477EE2E EQ PUSH2 0xA1 JUMPI DUP1 PUSH4 0x6C6C32D0 EQ PUSH2 0xD3 JUMPI DUP1 PUSH4 0xA3EC138D EQ PUSH2 0xDD JUMPI DUP1 PUSH4 0xC5D00F5D EQ PUSH2 0x10D JUMPI JUMPDEST PUSH1 0x0 DUP1 REVERT JUMPDEST PUSH2 0x81 PUSH1 0x4 DUP1 CALLDATASIZE SUB DUP2 ADD SWAP1 PUSH2 0x7C SWAP2 SWAP1 PUSH2 0x5C8 JUMP JUMPDEST PUSH2 0x117 JUMP JUMPDEST STOP JUMPDEST PUSH2 0x8B PUSH2 0x350 JUMP JUMPDEST PUSH1 0x40 MLOAD PUSH2 0x98 SWAP2 SWAP1 PUSH2 0x730 JUMP JUMPDEST PUSH1 0x40 MLOAD DUP1 SWAP2 SUB SWAP1 RETURN JUMPDEST PUSH2 0xBB PUSH1 0x4 DUP1 CALLDATASIZE SUB DUP2 ADD SWAP1 PUSH2 0xB6 SWAP2 SWAP1 PUSH2 0x5C8 JUMP JUMPDEST PUSH2 0x356 JUMP JUMPDEST PUSH1 0x40 MLOAD PUSH2 0xCA SWAP4 SWAP3 SWAP2 SWAP1 PUSH2 0x74B JUMP JUMPDEST PUSH1 0x40 MLOAD DUP1 SWAP2 SUB SWAP1 RETURN JUMPDEST PUSH2 0xDB PUSH2 0x408 JUMP JUMPDEST STOP JUMPDEST PUSH2 0xF7 PUSH1 0x4 DUP1 CALLDATASIZE SUB DUP2 ADD SWAP1 PUSH2 0xF2 SWAP2 SWAP1 PUSH2 0x59B JUMP JUMPDEST PUSH2 0x4AC JUMP JUMPDEST PUSH1 0x40 MLOAD PUSH2 0x104 SWAP2 SWAP1 PUSH2 0x6B5 JUMP JUMPDEST PUSH1 0x40 MLOAD DUP1 SWAP2 SUB SWAP1 RETURN JUMPDEST PUSH2 0x115 PUSH2 0x4CC JUMP JUMPDEST STOP JUMPDEST PUSH1 0x0 PUSH1 0x14 SWAP1 SLOAD SWAP1 PUSH2 0x100 EXP SWAP1 DIV PUSH1 0xFF AND PUSH2 0x166 JUMPI PUSH1 0x40 MLOAD PUSH32 0x8C379A000000000000000000000000000000000000000000000000000000000 DUP2 MSTORE PUSH1 0x4 ADD PUSH2 0x15D SWAP1 PUSH2 0x6D0 JUMP JUMPDEST PUSH1 0x40 MLOAD DUP1 SWAP2 SUB SWAP1 REVERT JUMPDEST PUSH1 0x0 DUP1 SLOAD SWAP1 PUSH2 0x100 EXP SWAP1 DIV PUSH20 0xFFFFFFFFFFFFFFFFFFFFFFFFFFFFFFFFFFFFFFFF AND PUSH20 0xFFFFFFFFFFFFFFFFFFFFFFFFFFFFFFFFFFFFFFFF AND CALLER PUSH20 0xFFFFFFFFFFFFFFFFFFFFFFFFFFFFFFFFFFFFFFFF AND EQ ISZERO PUSH2 0x1F5 JUMPI PUSH1 0x40 MLOAD PUSH32 0x8C379A000000000000000000000000000000000000000000000000000000000 DUP2 MSTORE PUSH1 0x4 ADD PUSH2 0x1EC SWAP1 PUSH2 0x6F0 JUMP JUMPDEST PUSH1 0x40 MLOAD DUP1 SWAP2 SUB SWAP1 REVERT JUMPDEST PUSH1 0x1 PUSH1 0x0 CALLER PUSH20 0xFFFFFFFFFFFFFFFFFFFFFFFFFFFFFFFFFFFFFFFF AND PUSH20 0xFFFFFFFFFFFFFFFFFFFFFFFFFFFFFFFFFFFFFFFF AND DUP2 MSTORE PUSH1 0x20 ADD SWAP1 DUP2 MSTORE PUSH1 0x20 ADD PUSH1 0x0 KECCAK256 PUSH1 0x0 SWAP1 SLOAD SWAP1 PUSH2 0x100 EXP SWAP1 DIV PUSH1 0xFF AND ISZERO PUSH2 0x282 JUMPI PUSH1 0x40 MLOAD PUSH32 0x8C379A000000000000000000000000000000000000000000000000000000000 DUP2 MSTORE PUSH1 0x4 ADD PUSH2 0x279 SWAP1 PUSH2 0x710 JUMP JUMPDEST PUSH1 0x40 MLOAD DUP1 SWAP2 SUB SWAP1 REVERT JUMPDEST PUSH1 0x0 DUP2 GT DUP1 ISZERO PUSH2 0x294 JUMPI POP PUSH1 0x3 SLOAD DUP2 GT ISZERO JUMPDEST PUSH2 0x29D JUMPI PUSH1 0x0 DUP1 REVERT JUMPDEST PUSH1 0x1 DUP1 PUSH1 0x0 CALLER PUSH20 0xFFFFFFFFFFFFFFFFFFFFFFFFFFFFFFFFFFFFFFFF AND PUSH20 0xFFFFFFFFFFFFFFFFFFFFFFFFFFFFFFFFFFFFFFFF AND DUP2 MSTORE PUSH1 0x20 ADD SWAP1 DUP2 MSTORE PUSH1 0x20 ADD PUSH1 0x0 KECCAK256 PUSH1 0x0 PUSH2 0x100 EXP DUP2 SLOAD DUP2 PUSH1 0xFF MUL NOT AND SWAP1 DUP4 ISZERO ISZERO MUL OR SWAP1 SSTORE POP PUSH1 0x2 PUSH1 0x0 DUP3 DUP2 MSTORE PUSH1 0x20 ADD SWAP1 DUP2 MSTORE PUSH1 0x20 ADD PUSH1 0x0 KECCAK256 PUSH1 0x2 ADD PUSH1 0x0 DUP2 SLOAD DUP1 SWAP3 SWAP2 SWAP1 PUSH2 0x31B SWAP1 PUSH2 0x852 JUMP JUMPDEST SWAP2 SWAP1 POP SSTORE POP DUP1 PUSH32 0xFFF3C900D938D21D0990D786E819F29B8D05C1EF587B462B939609625B684B16 PUSH1 0x40 MLOAD PUSH1 0x40 MLOAD DUP1 SWAP2 SUB SWAP1 LOG2 POP JUMP JUMPDEST PUSH1 0x3 SLOAD DUP2 JUMP JUMPDEST PUSH1 0x2 PUSH1 0x20 MSTORE DUP1 PUSH1 0x0 MSTORE PUSH1 0x40 PUSH1 0x0 KECCAK256 PUSH1 0x0 SWAP2 POP SWAP1 POP DUP1 PUSH1 0x0 ADD SLOAD SWAP1 DUP1 PUSH1 0x1 ADD DUP1 SLOAD PUSH2 0x37F SWAP1 PUSH2 0x820 JUMP JUMPDEST DUP1 PUSH1 0x1F ADD PUSH1 0x20 DUP1 SWAP2 DIV MUL PUSH1 0x20 ADD PUSH1 0x40 MLOAD SWAP1 DUP2 ADD PUSH1 0x40 MSTORE DUP1 SWAP3 SWAP2 SWAP1 DUP2 DUP2 MSTORE PUSH1 0x20 ADD DUP3 DUP1 SLOAD PUSH2 0x3AB SWAP1 PUSH2 0x820 JUMP JUMPDEST DUP1 ISZERO PUSH2 0x3F8 JUMPI DUP1 PUSH1 0x1F LT PUSH2 0x3CD JUMPI PUSH2 0x100 DUP1 DUP4 SLOAD DIV MUL DUP4 MSTORE SWAP2 PUSH1 0x20 ADD SWAP2 PUSH2 0x3F8 JUMP JUMPDEST DUP3 ADD SWAP2 SWAP1 PUSH1 0x0 MSTORE PUSH1 0x20 PUSH1 0x0 KECCAK256 SWAP1 JUMPDEST DUP2 SLOAD DUP2 MSTORE SWAP1 PUSH1 0x1 ADD SWAP1 PUSH1 0x20 ADD DUP1 DUP4 GT PUSH2 0x3DB JUMPI DUP3 SWAP1 SUB PUSH1 0x1F AND DUP3 ADD SWAP2 JUMPDEST POP POP POP POP POP SWAP1 DUP1 PUSH1 0x2 ADD SLOAD SWAP1 POP DUP4 JUMP JUMPDEST CALLER PUSH20 0xFFFFFFFFFFFFFFFFFFFFFFFFFFFFFFFFFFFFFFFF AND PUSH1 0x0 DUP1 SLOAD SWAP1 PUSH2 0x100 EXP SWAP1 DIV PUSH20 0xFFFFFFFFFFFFFFFFFFFFFFFFFFFFFFFFFFFFFFFF AND PUSH20 0xFFFFFFFFFFFFFFFFFFFFFFFFFFFFFFFFFFFFFFFF AND EQ PUSH2 0x460 JUMPI PUSH1 0x0 DUP1 REVERT JUMPDEST PUSH1 0x0 DUP1 PUSH1 0x14 PUSH2 0x100 EXP DUP2 SLOAD DUP2 PUSH1 0xFF MUL NOT AND SWAP1 DUP4 ISZERO ISZERO MUL OR SWAP1 SSTORE POP PUSH1 0x0 ISZERO ISZERO PUSH32 0xC3BBF431BBFF6D5ED800BE02CE8D8EE2CA419C8F7751187E8CA8627D72A15AA6 PUSH1 0x40 MLOAD PUSH1 0x40 MLOAD DUP1 SWAP2 SUB SWAP1 LOG2 JUMP JUMPDEST PUSH1 0x1 PUSH1 0x20 MSTORE DUP1 PUSH1 0x0 MSTORE PUSH1 0x40 PUSH1 0x0 KECCAK256 PUSH1 0x0 SWAP2 POP SLOAD SWAP1 PUSH2 0x100 EXP SWAP1 DIV PUSH1 0xFF AND DUP2 JUMP JUMPDEST CALLER PUSH20 0xFFFFFFFFFFFFFFFFFFFFFFFFFFFFFFFFFFFFFFFF AND PUSH1 0x0 DUP1 SLOAD SWAP1 PUSH2 0x100 EXP SWAP1 DIV PUSH20 0xFFFFFFFFFFFFFFFFFFFFFFFFFFFFFFFFFFFFFFFF AND PUSH20 0xFFFFFFFFFFFFFFFFFFFFFFFFFFFFFFFFFFFFFFFF AND EQ PUSH2 0x524 JUMPI PUSH1 0x0 DUP1 REVERT JUMPDEST PUSH1 0x1 PUSH1 0x0 PUSH1 0x14 PUSH2 0x100 EXP DUP2 SLOAD DUP2 PUSH1 0xFF MUL NOT AND SWAP1 DUP4 ISZERO ISZERO MUL OR SWAP1 SSTORE POP PUSH1 0x1 ISZERO ISZERO PUSH32 0xC3BBF431BBFF6D5ED800BE02CE8D8EE2CA419C8F7751187E8CA8627D72A15AA6 PUSH1 0x40 MLOAD PUSH1 0x40 MLOAD DUP1 SWAP2 SUB SWAP1 LOG2 JUMP JUMPDEST PUSH1 0x0 DUP2 CALLDATALOAD SWAP1 POP PUSH2 0x580 DUP2 PUSH2 0x98A JUMP JUMPDEST SWAP3 SWAP2 POP POP JUMP JUMPDEST PUSH1 0x0 DUP2 CALLDATALOAD SWAP1 POP PUSH2 0x595 DUP2 PUSH2 0x9A1 JUMP JUMPDEST SWAP3 SWAP2 POP POP JUMP JUMPDEST PUSH1 0x0 PUSH1 0x20 DUP3 DUP5 SUB SLT ISZERO PUSH2 0x5B1 JUMPI PUSH2 0x5B0 PUSH2 0x8F9 JUMP JUMPDEST JUMPDEST PUSH1 0x0 PUSH2 0x5BF DUP5 DUP3 DUP6 ADD PUSH2 0x571 JUMP JUMPDEST SWAP2 POP POP SWAP3 SWAP2 POP POP JUMP JUMPDEST PUSH1 0x0 PUSH1 0x20 DUP3 DUP5 SUB SLT ISZERO PUSH2 0x5DE JUMPI PUSH2 0x5DD PUSH2 0x8F9 JUMP JUMPDEST JUMPDEST PUSH1 0x0 PUSH2 0x5EC DUP5 DUP3 DUP6 ADD PUSH2 0x586 JUMP JUMPDEST SWAP2 POP POP SWAP3 SWAP2 POP POP JUMP JUMPDEST PUSH2 0x5FE DUP2 PUSH2 0x7B7 JUMP JUMPDEST DUP3 MSTORE POP POP JUMP JUMPDEST PUSH1 0x0 PUSH2 0x60F DUP3 PUSH2 0x789 JUMP JUMPDEST PUSH2 0x619 DUP2 DUP6 PUSH2 0x794 JUMP JUMPDEST SWAP4 POP PUSH2 0x629 DUP2 DUP6 PUSH1 0x20 DUP7 ADD PUSH2 0x7ED JUMP JUMPDEST PUSH2 0x632 DUP2 PUSH2 0x8FE JUMP JUMPDEST DUP5 ADD SWAP2 POP POP SWAP3 SWAP2 POP POP JUMP JUMPDEST PUSH1 0x0 PUSH2 0x64A PUSH1 0x17 DUP4 PUSH2 0x794 JUMP JUMPDEST SWAP2 POP PUSH2 0x655 DUP3 PUSH2 0x90F JUMP JUMPDEST PUSH1 0x20 DUP3 ADD SWAP1 POP SWAP2 SWAP1 POP JUMP JUMPDEST PUSH1 0x0 PUSH2 0x66D PUSH1 0x29 DUP4 PUSH2 0x794 JUMP JUMPDEST SWAP2 POP PUSH2 0x678 DUP3 PUSH2 0x938 JUMP JUMPDEST PUSH1 0x40 DUP3 ADD SWAP1 POP SWAP2 SWAP1 POP JUMP JUMPDEST PUSH1 0x0 PUSH2 0x690 PUSH1 0x0 DUP4 PUSH2 0x794 JUMP JUMPDEST SWAP2 POP PUSH2 0x69B DUP3 PUSH2 0x987 JUMP JUMPDEST PUSH1 0x0 DUP3 ADD SWAP1 POP SWAP2 SWAP1 POP JUMP JUMPDEST PUSH2 0x6AF DUP2 PUSH2 0x7E3 JUMP JUMPDEST DUP3 MSTORE POP POP JUMP JUMPDEST PUSH1 0x0 PUSH1 0x20 DUP3 ADD SWAP1 POP PUSH2 0x6CA PUSH1 0x0 DUP4 ADD DUP5 PUSH2 0x5F5 JUMP JUMPDEST SWAP3 SWAP2 POP POP JUMP JUMPDEST PUSH1 0x0 PUSH1 0x20 DUP3 ADD SWAP1 POP DUP2 DUP2 SUB PUSH1 0x0 DUP4 ADD MSTORE PUSH2 0x6E9 DUP2 PUSH2 0x63D JUMP JUMPDEST SWAP1 POP SWAP2 SWAP1 POP JUMP JUMPDEST PUSH1 0x0 PUSH1 0x20 DUP3 ADD SWAP1 POP DUP2 DUP2 SUB PUSH1 0x0 DUP4 ADD MSTORE PUSH2 0x709 DUP2 PUSH2 0x660 JUMP JUMPDEST SWAP1 POP SWAP2 SWAP1 POP JUMP JUMPDEST PUSH1 0x0 PUSH1 0x20 DUP3 ADD SWAP1 POP DUP2 DUP2 SUB PUSH1 0x0 DUP4 ADD MSTORE PUSH2 0x729 DUP2 PUSH2 0x683 JUMP JUMPDEST SWAP1 POP SWAP2 SWAP1 POP JUMP JUMPDEST PUSH1 0x0 PUSH1 0x20 DUP3 ADD SWAP1 POP PUSH2 0x745 PUSH1 0x0 DUP4 ADD DUP5 PUSH2 0x6A6 JUMP JUMPDEST SWAP3 SWAP2 POP POP JUMP JUMPDEST PUSH1 0x0 PUSH1 0x60 DUP3 ADD SWAP1 POP PUSH2 0x760 PUSH1 0x0 DUP4 ADD DUP7 PUSH2 0x6A6 JUMP JUMPDEST DUP2 DUP2 SUB PUSH1 0x20 DUP4 ADD MSTORE PUSH2 0x772 DUP2 DUP6 PUSH2 0x604 JUMP JUMPDEST SWAP1 POP PUSH2 0x781 PUSH1 0x40 DUP4 ADD DUP5 PUSH2 0x6A6 JUMP JUMPDEST SWAP5 SWAP4 POP POP POP POP JUMP JUMPDEST PUSH1 0x0 DUP2 MLOAD SWAP1 POP SWAP2 SWAP1 POP JUMP JUMPDEST PUSH1 0x0 DUP3 DUP3 MSTORE PUSH1 0x20 DUP3 ADD SWAP1 POP SWAP3 SWAP2 POP POP JUMP JUMPDEST PUSH1 0x0 PUSH2 0x7B0 DUP3 PUSH2 0x7C3 JUMP JUMPDEST SWAP1 POP SWAP2 SWAP1 POP JUMP JUMPDEST PUSH1 0x0 DUP2 ISZERO ISZERO SWAP1 POP SWAP2 SWAP1 POP JUMP JUMPDEST PUSH1 0x0 PUSH20 0xFFFFFFFFFFFFFFFFFFFFFFFFFFFFFFFFFFFFFFFF DUP3 AND SWAP1 POP SWAP2 SWAP1 POP JUMP JUMPDEST PUSH1 0x0 DUP2 SWAP1 POP SWAP2 SWAP1 POP JUMP JUMPDEST PUSH1 0x0 JUMPDEST DUP4 DUP2 LT ISZERO PUSH2 0x80B JUMPI DUP1 DUP3 ADD MLOAD DUP2 DUP5 ADD MSTORE PUSH1 0x20 DUP2 ADD SWAP1 POP PUSH2 0x7F0 JUMP JUMPDEST DUP4 DUP2 GT ISZERO PUSH2 0x81A JUMPI PUSH1 0x0 DUP5 DUP5 ADD MSTORE JUMPDEST POP POP POP POP JUMP JUMPDEST PUSH1 0x0 PUSH1 0x2 DUP3 DIV SWAP1 POP PUSH1 0x1 DUP3 AND DUP1 PUSH2 0x838 JUMPI PUSH1 0x7F DUP3 AND SWAP2 POP JUMPDEST PUSH1 0x20 DUP3 LT DUP2 EQ ISZERO PUSH2 0x84C JUMPI PUSH2 0x84B PUSH2 0x8CA JUMP JUMPDEST JUMPDEST POP SWAP2 SWAP1 POP JUMP JUMPDEST PUSH1 0x0 PUSH2 0x85D DUP3 PUSH2 0x7E3 JUMP JUMPDEST SWAP2 POP PUSH32 0xFFFFFFFFFFFFFFFFFFFFFFFFFFFFFFFFFFFFFFFFFFFFFFFFFFFFFFFFFFFFFFFF DUP3 EQ ISZERO PUSH2 0x890 JUMPI PUSH2 0x88F PUSH2 0x89B JUMP JUMPDEST JUMPDEST PUSH1 0x1 DUP3 ADD SWAP1 POP SWAP2 SWAP1 POP JUMP JUMPDEST PUSH32 0x4E487B7100000000000000000000000000000000000000000000000000000000 PUSH1 0x0 MSTORE PUSH1 0x11 PUSH1 0x4 MSTORE PUSH1 0x24 PUSH1 0x0 REVERT JUMPDEST PUSH32 0x4E487B7100000000000000000000000000000000000000000000000000000000 PUSH1 0x0 MSTORE PUSH1 0x22 PUSH1 0x4 MSTORE PUSH1 0x24 PUSH1 0x0 REVERT JUMPDEST PUSH1 0x0 DUP1 REVERT JUMPDEST PUSH1 0x0 PUSH1 0x1F NOT PUSH1 0x1F DUP4 ADD AND SWAP1 POP SWAP2 SWAP1 POP JUMP JUMPDEST PUSH32 0x456C656374696F6E73206973206E6F74206F70656E6564000000000000000000 PUSH1 0x0 DUP3 ADD MSTORE POP JUMP JUMPDEST PUSH32 0x54686520656C656374696F6E206F776E6572206973206E6F7420616C6C6F7765 PUSH1 0x0 DUP3 ADD MSTORE PUSH32 0x6420746F20766F74650000000000000000000000000000000000000000000000 PUSH1 0x20 DUP3 ADD MSTORE POP JUMP JUMPDEST POP JUMP JUMPDEST PUSH2 0x993 DUP2 PUSH2 0x7A5 JUMP JUMPDEST DUP2 EQ PUSH2 0x99E JUMPI PUSH1 0x0 DUP1 REVERT JUMPDEST POP JUMP JUMPDEST PUSH2 0x9AA DUP2 PUSH2 0x7E3 JUMP JUMPDEST DUP2 EQ PUSH2 0x9B5 JUMPI PUSH1 0x0 DUP1 REVERT JUMPDEST POP JUMP INVALID LOG2 PUSH5 0x6970667358 0x22 SLT KECCAK256 0xAF SWAP7 0xB9 CODESIZE PUSH12 0x8BF641D0796780C4D484E737 DUP1 LOG4 0xA5 0x2E PUSH31 0xE288FBA3B8C217C2B2DC64736F6C6343000805003300000000000000000000 "
				},
				"gasEstimates": {
					"creation": {
						"codeDepositCost": "508400",
						"executionCost": "infinite",
						"totalCost": "infinite"
					},
					"external": {
						"candidates(uint256)": "infinite",
						"candidatesCount()": "2429",
						"closeElection()": "27833",
						"openElection()": "27877",
						"vote(uint256)": "infinite",
						"voters(address)": "2911"
					},
					"internal": {
						"addCandidate(string memory)": "infinite"
					}
				},
				"methodIdentifiers": {
					"candidates(uint256)": "3477ee2e",
					"candidatesCount()": "2d35a8a2",
					"closeElection()": "6c6c32d0",
					"openElection()": "c5d00f5d",
					"vote(uint256)": "0121b93f",
					"voters(address)": "a3ec138d"
				}
			},
			"storageLayout": {
				"storage": [
					{
						"astId": 10,
						"contract": "Development-Codebases/Blockchain/Eth_Smart_Contract_Voting/contracts/Election.sol:Election",
						"label": "electionOwner",
						"offset": 0,
						"slot": "0",
						"type": "t_address"
					},
					{
						"astId": 13,
						"contract": "Development-Codebases/Blockchain/Eth_Smart_Contract_Voting/contracts/Election.sol:Election",
						"label": "isOpened",
						"offset": 20,
						"slot": "0",
						"type": "t_bool"
					},
					{
						"astId": 17,
						"contract": "Development-Codebases/Blockchain/Eth_Smart_Contract_Voting/contracts/Election.sol:Election",
						"label": "voters",
						"offset": 0,
						"slot": "1",
						"type": "t_mapping(t_address,t_bool)"
					},
					{
						"astId": 22,
						"contract": "Development-Codebases/Blockchain/Eth_Smart_Contract_Voting/contracts/Election.sol:Election",
						"label": "candidates",
						"offset": 0,
						"slot": "2",
						"type": "t_mapping(t_uint256,t_struct(Candidate)8_storage)"
					},
					{
						"astId": 24,
						"contract": "Development-Codebases/Blockchain/Eth_Smart_Contract_Voting/contracts/Election.sol:Election",
						"label": "candidatesCount",
						"offset": 0,
						"slot": "3",
						"type": "t_uint256"
					}
				],
				"types": {
					"t_address": {
						"encoding": "inplace",
						"label": "address",
						"numberOfBytes": "20"
					},
					"t_bool": {
						"encoding": "inplace",
						"label": "bool",
						"numberOfBytes": "1"
					},
					"t_mapping(t_address,t_bool)": {
						"encoding": "mapping",
						"key": "t_address",
						"label": "mapping(address => bool)",
						"numberOfBytes": "32",
						"value": "t_bool"
					},
					"t_mapping(t_uint256,t_struct(Candidate)8_storage)": {
						"encoding": "mapping",
						"key": "t_uint256",
						"label": "mapping(uint256 => struct Election.Candidate)",
						"numberOfBytes": "32",
						"value": "t_struct(Candidate)8_storage"
					},
					"t_string_storage": {
						"encoding": "bytes",
						"label": "string",
						"numberOfBytes": "32"
					},
					"t_struct(Candidate)8_storage": {
						"encoding": "inplace",
						"label": "struct Election.Candidate",
						"members": [
							{
								"astId": 3,
								"contract": "Development-Codebases/Blockchain/Eth_Smart_Contract_Voting/contracts/Election.sol:Election",
								"label": "id",
								"offset": 0,
								"slot": "0",
								"type": "t_uint256"
							},
							{
								"astId": 5,
								"contract": "Development-Codebases/Blockchain/Eth_Smart_Contract_Voting/contracts/Election.sol:Election",
								"label": "name",
								"offset": 0,
								"slot": "1",
								"type": "t_string_storage"
							},
							{
								"astId": 7,
								"contract": "Development-Codebases/Blockchain/Eth_Smart_Contract_Voting/contracts/Election.sol:Election",
								"label": "voteCount",
								"offset": 0,
								"slot": "2",
								"type": "t_uint256"
							}
						],
						"numberOfBytes": "96"
					},
					"t_uint256": {
						"encoding": "inplace",
						"label": "uint256",
						"numberOfBytes": "32"
					}
				}
			},
			"userdoc": {
				"kind": "user",
				"methods": {},
				"version": 1
			}
		}
	}
}