{
	"Development-Codebases/Blockchain/Eth_Smart_Contract_Voting/contracts/Election.sol": {
		"Election": {
			"abi": [
				{
					"inputs": [],
					"stateMutability": "nonpayable",
					"type": "constructor"
				},
				{
					"anonymous": false,
					"inputs": [
						{
							"indexed": false,
							"internalType": "bool",
							"name": "",
							"type": "bool"
						}
					],
					"name": "openedEvent",
					"type": "event"
				},
				{
					"anonymous": false,
					"inputs": [
						{
							"indexed": true,
							"internalType": "uint256",
							"name": "_candidateId",
							"type": "uint256"
						}
					],
					"name": "votedEvent",
					"type": "event"
				},
				{
					"inputs": [
						{
							"internalType": "uint256",
							"name": "",
							"type": "uint256"
						}
					],
					"name": "candidates",
					"outputs": [
						{
							"internalType": "uint256",
							"name": "id",
							"type": "uint256"
						},
						{
							"internalType": "string",
							"name": "name",
							"type": "string"
						},
						{
							"internalType": "uint256",
							"name": "voteCount",
							"type": "uint256"
						}
					],
					"stateMutability": "view",
					"type": "function"
				},
				{
					"inputs": [],
					"name": "candidatesCount",
					"outputs": [
						{
							"internalType": "uint256",
							"name": "",
							"type": "uint256"
						}
					],
					"stateMutability": "view",
					"type": "function"
				},
				{
					"inputs": [],
					"name": "changeElectionStateOpened",
					"outputs": [],
					"stateMutability": "nonpayable",
					"type": "function"
				},
				{
					"inputs": [],
					"name": "closeElection",
					"outputs": [],
					"stateMutability": "nonpayable",
					"type": "function"
				},
				{
					"inputs": [],
					"name": "openElection",
					"outputs": [],
					"stateMutability": "nonpayable",
					"type": "function"
				},
				{
					"inputs": [
						{
							"internalType": "uint256",
							"name": "_candidateId",
							"type": "uint256"
						}
					],
					"name": "vote",
					"outputs": [],
					"stateMutability": "nonpayable",
					"type": "function"
				},
				{
					"inputs": [
						{
							"internalType": "address",
							"name": "",
							"type": "address"
						}
					],
					"name": "voters",
					"outputs": [
						{
							"internalType": "bool",
							"name": "",
							"type": "bool"
						}
					],
					"stateMutability": "view",
					"type": "function"
				}
			],
			"devdoc": {
				"kind": "dev",
				"methods": {},
				"version": 1
			},
			"evm": {
				"assembly": "    /* \"Development-Codebases/Blockchain/Eth_Smart_Contract_Voting/contracts/Election.sol\":56:1988  contract Election {... */\n  mstore(0x40, 0x80)\n    /* \"Development-Codebases/Blockchain/Eth_Smart_Contract_Voting/contracts/Election.sol\":295:300  false */\n  0x00\n    /* \"Development-Codebases/Blockchain/Eth_Smart_Contract_Voting/contracts/Election.sol\":279:300  bool isOpened = false */\n  dup1\n  exp(0x0100, 0x14)\n  dup2\n  sload\n  dup2\n  0xff\n  mul\n  not\n  and\n  swap1\n  dup4\n  iszero\n  iszero\n  mul\n  or\n  swap1\n  sstore\n  pop\n    /* \"Development-Codebases/Blockchain/Eth_Smart_Contract_Voting/contracts/Election.sol\":655:790  constructor () {... */\n  callvalue\n  dup1\n  iszero\n  tag_1\n  jumpi\n  0x00\n  dup1\n  revert\ntag_1:\n  pop\n    /* \"Development-Codebases/Blockchain/Eth_Smart_Contract_Voting/contracts/Election.sol\":696:706  msg.sender */\n  caller\n    /* \"Development-Codebases/Blockchain/Eth_Smart_Contract_Voting/contracts/Election.sol\":680:693  electionOwner */\n  0x00\n  dup1\n    /* \"Development-Codebases/Blockchain/Eth_Smart_Contract_Voting/contracts/Election.sol\":680:706  electionOwner = msg.sender */\n  0x0100\n  exp\n  dup2\n  sload\n  dup2\n  0xffffffffffffffffffffffffffffffffffffffff\n  mul\n  not\n  and\n  swap1\n  dup4\n  0xffffffffffffffffffffffffffffffffffffffff\n  and\n  mul\n  or\n  swap1\n  sstore\n  pop\n    /* \"Development-Codebases/Blockchain/Eth_Smart_Contract_Voting/contracts/Election.sol\":716:744  addCandidate(\"Bitcoin club\") */\n  tag_4\n  mload(0x40)\n  dup1\n  0x40\n  add\n  0x40\n  mstore\n  dup1\n  0x0c\n  dup2\n  mstore\n  0x20\n  add\n  0x426974636f696e20636c75620000000000000000000000000000000000000000\n  dup2\n  mstore\n  pop\n    /* \"Development-Codebases/Blockchain/Eth_Smart_Contract_Voting/contracts/Election.sol\":716:728  addCandidate */\n  shl(0x20, tag_5)\n    /* \"Development-Codebases/Blockchain/Eth_Smart_Contract_Voting/contracts/Election.sol\":716:744  addCandidate(\"Bitcoin club\") */\n  0x20\n  shr\n  jump\t// in\ntag_4:\n    /* \"Development-Codebases/Blockchain/Eth_Smart_Contract_Voting/contracts/Election.sol\":754:783  addCandidate(\"Ethereum club\") */\n  tag_6\n  mload(0x40)\n  dup1\n  0x40\n  add\n  0x40\n  mstore\n  dup1\n  0x0d\n  dup2\n  mstore\n  0x20\n  add\n  0x457468657265756d20636c756200000000000000000000000000000000000000\n  dup2\n  mstore\n  pop\n    /* \"Development-Codebases/Blockchain/Eth_Smart_Contract_Voting/contracts/Election.sol\":754:766  addCandidate */\n  shl(0x20, tag_5)\n    /* \"Development-Codebases/Blockchain/Eth_Smart_Contract_Voting/contracts/Election.sol\":754:783  addCandidate(\"Ethereum club\") */\n  0x20\n  shr\n  jump\t// in\ntag_6:\n    /* \"Development-Codebases/Blockchain/Eth_Smart_Contract_Voting/contracts/Election.sol\":56:1988  contract Election {... */\n  jump(tag_7)\n    /* \"Development-Codebases/Blockchain/Eth_Smart_Contract_Voting/contracts/Election.sol\":820:983  function addCandidate (string memory _name) private {... */\ntag_5:\n    /* \"Development-Codebases/Blockchain/Eth_Smart_Contract_Voting/contracts/Election.sol\":882:897  candidatesCount */\n  0x03\n  0x00\n    /* \"Development-Codebases/Blockchain/Eth_Smart_Contract_Voting/contracts/Election.sol\":882:900  candidatesCount ++ */\n  dup2\n  sload\n  dup1\n  swap3\n  swap2\n  swap1\n  tag_9\n  swap1\n  tag_10\n  jump\t// in\ntag_9:\n  swap2\n  swap1\n  pop\n  sstore\n  pop\n    /* \"Development-Codebases/Blockchain/Eth_Smart_Contract_Voting/contracts/Election.sol\":940:976  Candidate(candidatesCount, _name, 0) */\n  mload(0x40)\n  dup1\n  0x60\n  add\n  0x40\n  mstore\n  dup1\n    /* \"Development-Codebases/Blockchain/Eth_Smart_Contract_Voting/contracts/Election.sol\":950:965  candidatesCount */\n  sload(0x03)\n    /* \"Development-Codebases/Blockchain/Eth_Smart_Contract_Voting/contracts/Election.sol\":940:976  Candidate(candidatesCount, _name, 0) */\n  dup2\n  mstore\n  0x20\n  add\n    /* \"Development-Codebases/Blockchain/Eth_Smart_Contract_Voting/contracts/Election.sol\":967:972  _name */\n  dup3\n    /* \"Development-Codebases/Blockchain/Eth_Smart_Contract_Voting/contracts/Election.sol\":940:976  Candidate(candidatesCount, _name, 0) */\n  dup2\n  mstore\n  0x20\n  add\n    /* \"Development-Codebases/Blockchain/Eth_Smart_Contract_Voting/contracts/Election.sol\":974:975  0 */\n  0x00\n    /* \"Development-Codebases/Blockchain/Eth_Smart_Contract_Voting/contracts/Election.sol\":940:976  Candidate(candidatesCount, _name, 0) */\n  dup2\n  mstore\n  pop\n    /* \"Development-Codebases/Blockchain/Eth_Smart_Contract_Voting/contracts/Election.sol\":910:920  candidates */\n  0x02\n    /* \"Development-Codebases/Blockchain/Eth_Smart_Contract_Voting/contracts/Election.sol\":910:937  candidates[candidatesCount] */\n  0x00\n    /* \"Development-Codebases/Blockchain/Eth_Smart_Contract_Voting/contracts/Election.sol\":921:936  candidatesCount */\n  sload(0x03)\n    /* \"Development-Codebases/Blockchain/Eth_Smart_Contract_Voting/contracts/Election.sol\":910:937  candidates[candidatesCount] */\n  dup2\n  mstore\n  0x20\n  add\n  swap1\n  dup2\n  mstore\n  0x20\n  add\n  0x00\n  keccak256\n    /* \"Development-Codebases/Blockchain/Eth_Smart_Contract_Voting/contracts/Election.sol\":910:976  candidates[candidatesCount] = Candidate(candidatesCount, _name, 0) */\n  0x00\n  dup3\n  add\n  mload\n  dup2\n  0x00\n  add\n  sstore\n  0x20\n  dup3\n  add\n  mload\n  dup2\n  0x01\n  add\n  swap1\n  dup1\n  mload\n  swap1\n  0x20\n  add\n  swap1\n  tag_11\n  swap3\n  swap2\n  swap1\n  tag_12\n  jump\t// in\ntag_11:\n  pop\n  0x40\n  dup3\n  add\n  mload\n  dup2\n  0x02\n  add\n  sstore\n  swap1\n  pop\n  pop\n    /* \"Development-Codebases/Blockchain/Eth_Smart_Contract_Voting/contracts/Election.sol\":820:983  function addCandidate (string memory _name) private {... */\n  pop\n  jump\t// out\n    /* \"Development-Codebases/Blockchain/Eth_Smart_Contract_Voting/contracts/Election.sol\":56:1988  contract Election {... */\ntag_12:\n  dup3\n  dup1\n  sload\n  tag_13\n  swap1\n  tag_14\n  jump\t// in\ntag_13:\n  swap1\n  0x00\n  mstore\n  keccak256(0x00, 0x20)\n  swap1\n  0x1f\n  add\n  0x20\n  swap1\n  div\n  dup2\n  add\n  swap3\n  dup3\n  tag_16\n  jumpi\n  0x00\n  dup6\n  sstore\n  jump(tag_15)\ntag_16:\n  dup3\n  0x1f\n  lt\n  tag_17\n  jumpi\n  dup1\n  mload\n  not(0xff)\n  and\n  dup4\n  dup1\n  add\n  or\n  dup6\n  sstore\n  jump(tag_15)\ntag_17:\n  dup3\n  dup1\n  add\n  0x01\n  add\n  dup6\n  sstore\n  dup3\n  iszero\n  tag_15\n  jumpi\n  swap2\n  dup3\n  add\ntag_18:\n  dup3\n  dup2\n  gt\n  iszero\n  tag_19\n  jumpi\n  dup3\n  mload\n  dup3\n  sstore\n  swap2\n  0x20\n  add\n  swap2\n  swap1\n  0x01\n  add\n  swap1\n  jump(tag_18)\ntag_19:\ntag_15:\n  pop\n  swap1\n  pop\n  tag_20\n  swap2\n  swap1\n  tag_21\n  jump\t// in\ntag_20:\n  pop\n  swap1\n  jump\t// out\ntag_21:\ntag_22:\n  dup1\n  dup3\n  gt\n  iszero\n  tag_23\n  jumpi\n  0x00\n  dup2\n  0x00\n  swap1\n  sstore\n  pop\n  0x01\n  add\n  jump(tag_22)\ntag_23:\n  pop\n  swap1\n  jump\t// out\n    /* \"#utility.yul\":7:84   */\ntag_25:\n    /* \"#utility.yul\":44:51   */\n  0x00\n    /* \"#utility.yul\":73:78   */\n  dup2\n    /* \"#utility.yul\":62:78   */\n  swap1\n  pop\n    /* \"#utility.yul\":52:84   */\n  swap2\n  swap1\n  pop\n  jump\t// out\n    /* \"#utility.yul\":90:410   */\ntag_14:\n    /* \"#utility.yul\":134:140   */\n  0x00\n    /* \"#utility.yul\":171:172   */\n  0x02\n    /* \"#utility.yul\":165:169   */\n  dup3\n    /* \"#utility.yul\":161:173   */\n  div\n    /* \"#utility.yul\":151:173   */\n  swap1\n  pop\n    /* \"#utility.yul\":218:219   */\n  0x01\n    /* \"#utility.yul\":212:216   */\n  dup3\n    /* \"#utility.yul\":208:220   */\n  and\n    /* \"#utility.yul\":239:257   */\n  dup1\n    /* \"#utility.yul\":229:231   */\n  tag_28\n  jumpi\n    /* \"#utility.yul\":295:299   */\n  0x7f\n    /* \"#utility.yul\":287:293   */\n  dup3\n    /* \"#utility.yul\":283:300   */\n  and\n    /* \"#utility.yul\":273:300   */\n  swap2\n  pop\n    /* \"#utility.yul\":229:231   */\ntag_28:\n    /* \"#utility.yul\":357:359   */\n  0x20\n    /* \"#utility.yul\":349:355   */\n  dup3\n    /* \"#utility.yul\":346:360   */\n  lt\n    /* \"#utility.yul\":326:344   */\n  dup2\n    /* \"#utility.yul\":323:361   */\n  eq\n    /* \"#utility.yul\":320:322   */\n  iszero\n  tag_29\n  jumpi\n    /* \"#utility.yul\":376:394   */\n  tag_30\n  tag_31\n  jump\t// in\ntag_30:\n    /* \"#utility.yul\":320:322   */\ntag_29:\n    /* \"#utility.yul\":141:410   */\n  pop\n  swap2\n  swap1\n  pop\n  jump\t// out\n    /* \"#utility.yul\":416:649   */\ntag_10:\n    /* \"#utility.yul\":455:458   */\n  0x00\n    /* \"#utility.yul\":478:502   */\n  tag_33\n    /* \"#utility.yul\":496:501   */\n  dup3\n    /* \"#utility.yul\":478:502   */\n  tag_25\n  jump\t// in\ntag_33:\n    /* \"#utility.yul\":469:502   */\n  swap2\n  pop\n    /* \"#utility.yul\":524:590   */\n  0xffffffffffffffffffffffffffffffffffffffffffffffffffffffffffffffff\n    /* \"#utility.yul\":517:522   */\n  dup3\n    /* \"#utility.yul\":514:591   */\n  eq\n    /* \"#utility.yul\":511:513   */\n  iszero\n  tag_34\n  jumpi\n    /* \"#utility.yul\":594:612   */\n  tag_35\n  tag_36\n  jump\t// in\ntag_35:\n    /* \"#utility.yul\":511:513   */\ntag_34:\n    /* \"#utility.yul\":641:642   */\n  0x01\n    /* \"#utility.yul\":634:639   */\n  dup3\n    /* \"#utility.yul\":630:643   */\n  add\n    /* \"#utility.yul\":623:643   */\n  swap1\n  pop\n    /* \"#utility.yul\":459:649   */\n  swap2\n  swap1\n  pop\n  jump\t// out\n    /* \"#utility.yul\":655:835   */\ntag_36:\n    /* \"#utility.yul\":703:780   */\n  0x4e487b7100000000000000000000000000000000000000000000000000000000\n    /* \"#utility.yul\":700:701   */\n  0x00\n    /* \"#utility.yul\":693:781   */\n  mstore\n    /* \"#utility.yul\":800:804   */\n  0x11\n    /* \"#utility.yul\":797:798   */\n  0x04\n    /* \"#utility.yul\":790:805   */\n  mstore\n    /* \"#utility.yul\":824:828   */\n  0x24\n    /* \"#utility.yul\":821:822   */\n  0x00\n    /* \"#utility.yul\":814:829   */\n  revert\n    /* \"#utility.yul\":841:1021   */\ntag_31:\n    /* \"#utility.yul\":889:966   */\n  0x4e487b7100000000000000000000000000000000000000000000000000000000\n    /* \"#utility.yul\":886:887   */\n  0x00\n    /* \"#utility.yul\":879:967   */\n  mstore\n    /* \"#utility.yul\":986:990   */\n  0x22\n    /* \"#utility.yul\":983:984   */\n  0x04\n    /* \"#utility.yul\":976:991   */\n  mstore\n    /* \"#utility.yul\":1010:1014   */\n  0x24\n    /* \"#utility.yul\":1007:1008   */\n  0x00\n    /* \"#utility.yul\":1000:1015   */\n  revert\n    /* \"Development-Codebases/Blockchain/Eth_Smart_Contract_Voting/contracts/Election.sol\":56:1988  contract Election {... */\ntag_7:\n  dataSize(sub_0)\n  dup1\n  dataOffset(sub_0)\n  0x00\n  codecopy\n  0x00\n  return\nstop\n\nsub_0: assembly {\n        /* \"Development-Codebases/Blockchain/Eth_Smart_Contract_Voting/contracts/Election.sol\":56:1988  contract Election {... */\n      mstore(0x40, 0x80)\n      callvalue\n      dup1\n      iszero\n      tag_1\n      jumpi\n      0x00\n      dup1\n      revert\n    tag_1:\n      pop\n      jumpi(tag_2, lt(calldatasize, 0x04))\n      shr(0xe0, calldataload(0x00))\n      dup1\n      0x6c6c32d0\n      gt\n      tag_10\n      jumpi\n      dup1\n      0x6c6c32d0\n      eq\n      tag_6\n      jumpi\n      dup1\n      0xa3ec138d\n      eq\n      tag_7\n      jumpi\n      dup1\n      0xc12dd4a3\n      eq\n      tag_8\n      jumpi\n      dup1\n      0xc5d00f5d\n      eq\n      tag_9\n      jumpi\n      jump(tag_2)\n    tag_10:\n      dup1\n      0x0121b93f\n      eq\n      tag_3\n      jumpi\n      dup1\n      0x2d35a8a2\n      eq\n      tag_4\n      jumpi\n      dup1\n      0x3477ee2e\n      eq\n      tag_5\n      jumpi\n    tag_2:\n      0x00\n      dup1\n      revert\n        /* \"Development-Codebases/Blockchain/Eth_Smart_Contract_Voting/contracts/Election.sol\":1434:1986  function vote (uint _candidateId) public {... */\n    tag_3:\n      tag_11\n      0x04\n      dup1\n      calldatasize\n      sub\n      dup2\n      add\n      swap1\n      tag_12\n      swap2\n      swap1\n      tag_13\n      jump\t// in\n    tag_12:\n      tag_14\n      jump\t// in\n    tag_11:\n      stop\n        /* \"Development-Codebases/Blockchain/Eth_Smart_Contract_Voting/contracts/Election.sol\":491:518  uint public candidatesCount */\n    tag_4:\n      tag_15\n      tag_16\n      jump\t// in\n    tag_15:\n      mload(0x40)\n      tag_17\n      swap2\n      swap1\n      tag_18\n      jump\t// in\n    tag_17:\n      mload(0x40)\n      dup1\n      swap2\n      sub\n      swap1\n      return\n        /* \"Development-Codebases/Blockchain/Eth_Smart_Contract_Voting/contracts/Election.sol\":411:455  mapping(uint => Candidate) public candidates */\n    tag_5:\n      tag_19\n      0x04\n      dup1\n      calldatasize\n      sub\n      dup2\n      add\n      swap1\n      tag_20\n      swap2\n      swap1\n      tag_13\n      jump\t// in\n    tag_20:\n      tag_21\n      jump\t// in\n    tag_19:\n      mload(0x40)\n      tag_22\n      swap4\n      swap3\n      swap2\n      swap1\n      tag_23\n      jump\t// in\n    tag_22:\n      mload(0x40)\n      dup1\n      swap2\n      sub\n      swap1\n      return\n        /* \"Development-Codebases/Blockchain/Eth_Smart_Contract_Voting/contracts/Election.sol\":1243:1428  function closeElection() public{... */\n    tag_6:\n      tag_24\n      tag_25\n      jump\t// in\n    tag_24:\n      stop\n        /* \"Development-Codebases/Blockchain/Eth_Smart_Contract_Voting/contracts/Election.sol\":344:382  mapping(address => bool) public voters */\n    tag_7:\n      tag_26\n      0x04\n      dup1\n      calldatasize\n      sub\n      dup2\n      add\n      swap1\n      tag_27\n      swap2\n      swap1\n      tag_28\n      jump\t// in\n    tag_27:\n      tag_29\n      jump\t// in\n    tag_26:\n      mload(0x40)\n      tag_30\n      swap2\n      swap1\n      tag_31\n      jump\t// in\n    tag_30:\n      mload(0x40)\n      dup1\n      swap2\n      sub\n      swap1\n      return\n        /* \"Development-Codebases/Blockchain/Eth_Smart_Contract_Voting/contracts/Election.sol\":989:1048  function changeElectionStateOpened() public{... */\n    tag_8:\n      tag_32\n      tag_33\n      jump\t// in\n    tag_32:\n      stop\n        /* \"Development-Codebases/Blockchain/Eth_Smart_Contract_Voting/contracts/Election.sol\":1054:1237  function openElection() public{... */\n    tag_9:\n      tag_34\n      tag_35\n      jump\t// in\n    tag_34:\n      stop\n        /* \"Development-Codebases/Blockchain/Eth_Smart_Contract_Voting/contracts/Election.sol\":1434:1986  function vote (uint _candidateId) public {... */\n    tag_14:\n        /* \"Development-Codebases/Blockchain/Eth_Smart_Contract_Voting/contracts/Election.sol\":1540:1548  isOpened */\n      0x00\n      0x14\n      swap1\n      sload\n      swap1\n      0x0100\n      exp\n      swap1\n      div\n      0xff\n      and\n        /* \"Development-Codebases/Blockchain/Eth_Smart_Contract_Voting/contracts/Election.sol\":1532:1549  require(isOpened) */\n      tag_37\n      jumpi\n      0x00\n      dup1\n      revert\n    tag_37:\n        /* \"Development-Codebases/Blockchain/Eth_Smart_Contract_Voting/contracts/Election.sol\":1619:1625  voters */\n      0x01\n        /* \"Development-Codebases/Blockchain/Eth_Smart_Contract_Voting/contracts/Election.sol\":1619:1637  voters[msg.sender] */\n      0x00\n        /* \"Development-Codebases/Blockchain/Eth_Smart_Contract_Voting/contracts/Election.sol\":1626:1636  msg.sender */\n      caller\n        /* \"Development-Codebases/Blockchain/Eth_Smart_Contract_Voting/contracts/Election.sol\":1619:1637  voters[msg.sender] */\n      0xffffffffffffffffffffffffffffffffffffffff\n      and\n      0xffffffffffffffffffffffffffffffffffffffff\n      and\n      dup2\n      mstore\n      0x20\n      add\n      swap1\n      dup2\n      mstore\n      0x20\n      add\n      0x00\n      keccak256\n      0x00\n      swap1\n      sload\n      swap1\n      0x0100\n      exp\n      swap1\n      div\n      0xff\n      and\n        /* \"Development-Codebases/Blockchain/Eth_Smart_Contract_Voting/contracts/Election.sol\":1618:1637  !voters[msg.sender] */\n      iszero\n        /* \"Development-Codebases/Blockchain/Eth_Smart_Contract_Voting/contracts/Election.sol\":1610:1638  require(!voters[msg.sender]) */\n      tag_38\n      jumpi\n      0x00\n      dup1\n      revert\n    tag_38:\n        /* \"Development-Codebases/Blockchain/Eth_Smart_Contract_Voting/contracts/Election.sol\":1709:1710  0 */\n      0x00\n        /* \"Development-Codebases/Blockchain/Eth_Smart_Contract_Voting/contracts/Election.sol\":1694:1706  _candidateId */\n      dup2\n        /* \"Development-Codebases/Blockchain/Eth_Smart_Contract_Voting/contracts/Election.sol\":1694:1710  _candidateId > 0 */\n      gt\n        /* \"Development-Codebases/Blockchain/Eth_Smart_Contract_Voting/contracts/Election.sol\":1694:1745  _candidateId > 0 && _candidateId <= candidatesCount */\n      dup1\n      iszero\n      tag_39\n      jumpi\n      pop\n        /* \"Development-Codebases/Blockchain/Eth_Smart_Contract_Voting/contracts/Election.sol\":1730:1745  candidatesCount */\n      sload(0x03)\n        /* \"Development-Codebases/Blockchain/Eth_Smart_Contract_Voting/contracts/Election.sol\":1714:1726  _candidateId */\n      dup2\n        /* \"Development-Codebases/Blockchain/Eth_Smart_Contract_Voting/contracts/Election.sol\":1714:1745  _candidateId <= candidatesCount */\n      gt\n      iszero\n        /* \"Development-Codebases/Blockchain/Eth_Smart_Contract_Voting/contracts/Election.sol\":1694:1745  _candidateId > 0 && _candidateId <= candidatesCount */\n    tag_39:\n        /* \"Development-Codebases/Blockchain/Eth_Smart_Contract_Voting/contracts/Election.sol\":1686:1746  require(_candidateId > 0 && _candidateId <= candidatesCount) */\n      tag_40\n      jumpi\n      0x00\n      dup1\n      revert\n    tag_40:\n        /* \"Development-Codebases/Blockchain/Eth_Smart_Contract_Voting/contracts/Election.sol\":1817:1821  true */\n      0x01\n        /* \"Development-Codebases/Blockchain/Eth_Smart_Contract_Voting/contracts/Election.sol\":1796:1802  voters */\n      dup1\n        /* \"Development-Codebases/Blockchain/Eth_Smart_Contract_Voting/contracts/Election.sol\":1796:1814  voters[msg.sender] */\n      0x00\n        /* \"Development-Codebases/Blockchain/Eth_Smart_Contract_Voting/contracts/Election.sol\":1803:1813  msg.sender */\n      caller\n        /* \"Development-Codebases/Blockchain/Eth_Smart_Contract_Voting/contracts/Election.sol\":1796:1814  voters[msg.sender] */\n      0xffffffffffffffffffffffffffffffffffffffff\n      and\n      0xffffffffffffffffffffffffffffffffffffffff\n      and\n      dup2\n      mstore\n      0x20\n      add\n      swap1\n      dup2\n      mstore\n      0x20\n      add\n      0x00\n      keccak256\n      0x00\n        /* \"Development-Codebases/Blockchain/Eth_Smart_Contract_Voting/contracts/Election.sol\":1796:1821  voters[msg.sender] = true */\n      0x0100\n      exp\n      dup2\n      sload\n      dup2\n      0xff\n      mul\n      not\n      and\n      swap1\n      dup4\n      iszero\n      iszero\n      mul\n      or\n      swap1\n      sstore\n      pop\n        /* \"Development-Codebases/Blockchain/Eth_Smart_Contract_Voting/contracts/Election.sol\":1871:1881  candidates */\n      0x02\n        /* \"Development-Codebases/Blockchain/Eth_Smart_Contract_Voting/contracts/Election.sol\":1871:1895  candidates[_candidateId] */\n      0x00\n        /* \"Development-Codebases/Blockchain/Eth_Smart_Contract_Voting/contracts/Election.sol\":1882:1894  _candidateId */\n      dup3\n        /* \"Development-Codebases/Blockchain/Eth_Smart_Contract_Voting/contracts/Election.sol\":1871:1895  candidates[_candidateId] */\n      dup2\n      mstore\n      0x20\n      add\n      swap1\n      dup2\n      mstore\n      0x20\n      add\n      0x00\n      keccak256\n        /* \"Development-Codebases/Blockchain/Eth_Smart_Contract_Voting/contracts/Election.sol\":1871:1905  candidates[_candidateId].voteCount */\n      0x02\n      add\n      0x00\n        /* \"Development-Codebases/Blockchain/Eth_Smart_Contract_Voting/contracts/Election.sol\":1871:1908  candidates[_candidateId].voteCount ++ */\n      dup2\n      sload\n      dup1\n      swap3\n      swap2\n      swap1\n      tag_41\n      swap1\n      tag_42\n      jump\t// in\n    tag_41:\n      swap2\n      swap1\n      pop\n      sstore\n      pop\n        /* \"Development-Codebases/Blockchain/Eth_Smart_Contract_Voting/contracts/Election.sol\":1966:1978  _candidateId */\n      dup1\n        /* \"Development-Codebases/Blockchain/Eth_Smart_Contract_Voting/contracts/Election.sol\":1955:1979  votedEvent(_candidateId) */\n      0xfff3c900d938d21d0990d786e819f29b8d05c1ef587b462b939609625b684b16\n      mload(0x40)\n      mload(0x40)\n      dup1\n      swap2\n      sub\n      swap1\n      log2\n        /* \"Development-Codebases/Blockchain/Eth_Smart_Contract_Voting/contracts/Election.sol\":1434:1986  function vote (uint _candidateId) public {... */\n      pop\n      jump\t// out\n        /* \"Development-Codebases/Blockchain/Eth_Smart_Contract_Voting/contracts/Election.sol\":491:518  uint public candidatesCount */\n    tag_16:\n      sload(0x03)\n      dup2\n      jump\t// out\n        /* \"Development-Codebases/Blockchain/Eth_Smart_Contract_Voting/contracts/Election.sol\":411:455  mapping(uint => Candidate) public candidates */\n    tag_21:\n      mstore(0x20, 0x02)\n      dup1\n      0x00\n      mstore\n      keccak256(0x00, 0x40)\n      0x00\n      swap2\n      pop\n      swap1\n      pop\n      dup1\n      0x00\n      add\n      sload\n      swap1\n      dup1\n      0x01\n      add\n      dup1\n      sload\n      tag_43\n      swap1\n      tag_44\n      jump\t// in\n    tag_43:\n      dup1\n      0x1f\n      add\n      0x20\n      dup1\n      swap2\n      div\n      mul\n      0x20\n      add\n      mload(0x40)\n      swap1\n      dup2\n      add\n      0x40\n      mstore\n      dup1\n      swap3\n      swap2\n      swap1\n      dup2\n      dup2\n      mstore\n      0x20\n      add\n      dup3\n      dup1\n      sload\n      tag_45\n      swap1\n      tag_44\n      jump\t// in\n    tag_45:\n      dup1\n      iszero\n      tag_46\n      jumpi\n      dup1\n      0x1f\n      lt\n      tag_47\n      jumpi\n      0x0100\n      dup1\n      dup4\n      sload\n      div\n      mul\n      dup4\n      mstore\n      swap2\n      0x20\n      add\n      swap2\n      jump(tag_46)\n    tag_47:\n      dup3\n      add\n      swap2\n      swap1\n      0x00\n      mstore\n      keccak256(0x00, 0x20)\n      swap1\n    tag_48:\n      dup2\n      sload\n      dup2\n      mstore\n      swap1\n      0x01\n      add\n      swap1\n      0x20\n      add\n      dup1\n      dup4\n      gt\n      tag_48\n      jumpi\n      dup3\n      swap1\n      sub\n      0x1f\n      and\n      dup3\n      add\n      swap2\n    tag_46:\n      pop\n      pop\n      pop\n      pop\n      pop\n      swap1\n      dup1\n      0x02\n      add\n      sload\n      swap1\n      pop\n      dup4\n      jump\t// out\n        /* \"Development-Codebases/Blockchain/Eth_Smart_Contract_Voting/contracts/Election.sol\":1243:1428  function closeElection() public{... */\n    tag_25:\n        /* \"Development-Codebases/Blockchain/Eth_Smart_Contract_Voting/contracts/Election.sol\":1383:1393  msg.sender */\n      caller\n        /* \"Development-Codebases/Blockchain/Eth_Smart_Contract_Voting/contracts/Election.sol\":1366:1393  electionOwner == msg.sender */\n      0xffffffffffffffffffffffffffffffffffffffff\n      and\n        /* \"Development-Codebases/Blockchain/Eth_Smart_Contract_Voting/contracts/Election.sol\":1366:1379  electionOwner */\n      0x00\n      dup1\n      sload\n      swap1\n      0x0100\n      exp\n      swap1\n      div\n      0xffffffffffffffffffffffffffffffffffffffff\n      and\n        /* \"Development-Codebases/Blockchain/Eth_Smart_Contract_Voting/contracts/Election.sol\":1366:1393  electionOwner == msg.sender */\n      0xffffffffffffffffffffffffffffffffffffffff\n      and\n      eq\n        /* \"Development-Codebases/Blockchain/Eth_Smart_Contract_Voting/contracts/Election.sol\":1358:1394  require(electionOwner == msg.sender) */\n      tag_50\n      jumpi\n      0x00\n      dup1\n      revert\n    tag_50:\n        /* \"Development-Codebases/Blockchain/Eth_Smart_Contract_Voting/contracts/Election.sol\":1416:1421  false */\n      0x00\n        /* \"Development-Codebases/Blockchain/Eth_Smart_Contract_Voting/contracts/Election.sol\":1405:1413  isOpened */\n      dup1\n      0x14\n        /* \"Development-Codebases/Blockchain/Eth_Smart_Contract_Voting/contracts/Election.sol\":1405:1421  isOpened = false */\n      0x0100\n      exp\n      dup2\n      sload\n      dup2\n      0xff\n      mul\n      not\n      and\n      swap1\n      dup4\n      iszero\n      iszero\n      mul\n      or\n      swap1\n      sstore\n      pop\n        /* \"Development-Codebases/Blockchain/Eth_Smart_Contract_Voting/contracts/Election.sol\":1243:1428  function closeElection() public{... */\n      jump\t// out\n        /* \"Development-Codebases/Blockchain/Eth_Smart_Contract_Voting/contracts/Election.sol\":344:382  mapping(address => bool) public voters */\n    tag_29:\n      mstore(0x20, 0x01)\n      dup1\n      0x00\n      mstore\n      keccak256(0x00, 0x40)\n      0x00\n      swap2\n      pop\n      sload\n      swap1\n      0x0100\n      exp\n      swap1\n      div\n      0xff\n      and\n      dup2\n      jump\t// out\n        /* \"Development-Codebases/Blockchain/Eth_Smart_Contract_Voting/contracts/Election.sol\":989:1048  function changeElectionStateOpened() public{... */\n    tag_33:\n      jump\t// out\n        /* \"Development-Codebases/Blockchain/Eth_Smart_Contract_Voting/contracts/Election.sol\":1054:1237  function openElection() public{... */\n    tag_35:\n        /* \"Development-Codebases/Blockchain/Eth_Smart_Contract_Voting/contracts/Election.sol\":1193:1203  msg.sender */\n      caller\n        /* \"Development-Codebases/Blockchain/Eth_Smart_Contract_Voting/contracts/Election.sol\":1176:1203  electionOwner == msg.sender */\n      0xffffffffffffffffffffffffffffffffffffffff\n      and\n        /* \"Development-Codebases/Blockchain/Eth_Smart_Contract_Voting/contracts/Election.sol\":1176:1189  electionOwner */\n      0x00\n      dup1\n      sload\n      swap1\n      0x0100\n      exp\n      swap1\n      div\n      0xffffffffffffffffffffffffffffffffffffffff\n      and\n        /* \"Development-Codebases/Blockchain/Eth_Smart_Contract_Voting/contracts/Election.sol\":1176:1203  electionOwner == msg.sender */\n      0xffffffffffffffffffffffffffffffffffffffff\n      and\n      eq\n        /* \"Development-Codebases/Blockchain/Eth_Smart_Contract_Voting/contracts/Election.sol\":1168:1204  require(electionOwner == msg.sender) */\n      tag_53\n      jumpi\n      0x00\n      dup1\n      revert\n    tag_53:\n        /* \"Development-Codebases/Blockchain/Eth_Smart_Contract_Voting/contracts/Election.sol\":1226:1230  true */\n      0x01\n        /* \"Development-Codebases/Blockchain/Eth_Smart_Contract_Voting/contracts/Election.sol\":1215:1223  isOpened */\n      0x00\n      0x14\n        /* \"Development-Codebases/Blockchain/Eth_Smart_Contract_Voting/contracts/Election.sol\":1215:1230  isOpened = true */\n      0x0100\n      exp\n      dup2\n      sload\n      dup2\n      0xff\n      mul\n      not\n      and\n      swap1\n      dup4\n      iszero\n      iszero\n      mul\n      or\n      swap1\n      sstore\n      pop\n        /* \"Development-Codebases/Blockchain/Eth_Smart_Contract_Voting/contracts/Election.sol\":1054:1237  function openElection() public{... */\n      jump\t// out\n        /* \"#utility.yul\":7:146   */\n    tag_55:\n        /* \"#utility.yul\":53:58   */\n      0x00\n        /* \"#utility.yul\":91:97   */\n      dup2\n        /* \"#utility.yul\":78:98   */\n      calldataload\n        /* \"#utility.yul\":69:98   */\n      swap1\n      pop\n        /* \"#utility.yul\":107:140   */\n      tag_57\n        /* \"#utility.yul\":134:139   */\n      dup2\n        /* \"#utility.yul\":107:140   */\n      tag_58\n      jump\t// in\n    tag_57:\n        /* \"#utility.yul\":59:146   */\n      swap3\n      swap2\n      pop\n      pop\n      jump\t// out\n        /* \"#utility.yul\":152:291   */\n    tag_59:\n        /* \"#utility.yul\":198:203   */\n      0x00\n        /* \"#utility.yul\":236:242   */\n      dup2\n        /* \"#utility.yul\":223:243   */\n      calldataload\n        /* \"#utility.yul\":214:243   */\n      swap1\n      pop\n        /* \"#utility.yul\":252:285   */\n      tag_61\n        /* \"#utility.yul\":279:284   */\n      dup2\n        /* \"#utility.yul\":252:285   */\n      tag_62\n      jump\t// in\n    tag_61:\n        /* \"#utility.yul\":204:291   */\n      swap3\n      swap2\n      pop\n      pop\n      jump\t// out\n        /* \"#utility.yul\":297:626   */\n    tag_28:\n        /* \"#utility.yul\":356:362   */\n      0x00\n        /* \"#utility.yul\":405:407   */\n      0x20\n        /* \"#utility.yul\":393:402   */\n      dup3\n        /* \"#utility.yul\":384:391   */\n      dup5\n        /* \"#utility.yul\":380:403   */\n      sub\n        /* \"#utility.yul\":376:408   */\n      slt\n        /* \"#utility.yul\":373:375   */\n      iszero\n      tag_64\n      jumpi\n        /* \"#utility.yul\":411:490   */\n      tag_65\n      tag_66\n      jump\t// in\n    tag_65:\n        /* \"#utility.yul\":373:375   */\n    tag_64:\n        /* \"#utility.yul\":531:532   */\n      0x00\n        /* \"#utility.yul\":556:609   */\n      tag_67\n        /* \"#utility.yul\":601:608   */\n      dup5\n        /* \"#utility.yul\":592:598   */\n      dup3\n        /* \"#utility.yul\":581:590   */\n      dup6\n        /* \"#utility.yul\":577:599   */\n      add\n        /* \"#utility.yul\":556:609   */\n      tag_55\n      jump\t// in\n    tag_67:\n        /* \"#utility.yul\":546:609   */\n      swap2\n      pop\n        /* \"#utility.yul\":502:619   */\n      pop\n        /* \"#utility.yul\":363:626   */\n      swap3\n      swap2\n      pop\n      pop\n      jump\t// out\n        /* \"#utility.yul\":632:961   */\n    tag_13:\n        /* \"#utility.yul\":691:697   */\n      0x00\n        /* \"#utility.yul\":740:742   */\n      0x20\n        /* \"#utility.yul\":728:737   */\n      dup3\n        /* \"#utility.yul\":719:726   */\n      dup5\n        /* \"#utility.yul\":715:738   */\n      sub\n        /* \"#utility.yul\":711:743   */\n      slt\n        /* \"#utility.yul\":708:710   */\n      iszero\n      tag_69\n      jumpi\n        /* \"#utility.yul\":746:825   */\n      tag_70\n      tag_66\n      jump\t// in\n    tag_70:\n        /* \"#utility.yul\":708:710   */\n    tag_69:\n        /* \"#utility.yul\":866:867   */\n      0x00\n        /* \"#utility.yul\":891:944   */\n      tag_71\n        /* \"#utility.yul\":936:943   */\n      dup5\n        /* \"#utility.yul\":927:933   */\n      dup3\n        /* \"#utility.yul\":916:925   */\n      dup6\n        /* \"#utility.yul\":912:934   */\n      add\n        /* \"#utility.yul\":891:944   */\n      tag_59\n      jump\t// in\n    tag_71:\n        /* \"#utility.yul\":881:944   */\n      swap2\n      pop\n        /* \"#utility.yul\":837:954   */\n      pop\n        /* \"#utility.yul\":698:961   */\n      swap3\n      swap2\n      pop\n      pop\n      jump\t// out\n        /* \"#utility.yul\":967:1076   */\n    tag_72:\n        /* \"#utility.yul\":1048:1069   */\n      tag_74\n        /* \"#utility.yul\":1063:1068   */\n      dup2\n        /* \"#utility.yul\":1048:1069   */\n      tag_75\n      jump\t// in\n    tag_74:\n        /* \"#utility.yul\":1043:1046   */\n      dup3\n        /* \"#utility.yul\":1036:1070   */\n      mstore\n        /* \"#utility.yul\":1026:1076   */\n      pop\n      pop\n      jump\t// out\n        /* \"#utility.yul\":1082:1446   */\n    tag_76:\n        /* \"#utility.yul\":1170:1173   */\n      0x00\n        /* \"#utility.yul\":1198:1237   */\n      tag_78\n        /* \"#utility.yul\":1231:1236   */\n      dup3\n        /* \"#utility.yul\":1198:1237   */\n      tag_79\n      jump\t// in\n    tag_78:\n        /* \"#utility.yul\":1253:1324   */\n      tag_80\n        /* \"#utility.yul\":1317:1323   */\n      dup2\n        /* \"#utility.yul\":1312:1315   */\n      dup6\n        /* \"#utility.yul\":1253:1324   */\n      tag_81\n      jump\t// in\n    tag_80:\n        /* \"#utility.yul\":1246:1324   */\n      swap4\n      pop\n        /* \"#utility.yul\":1333:1385   */\n      tag_82\n        /* \"#utility.yul\":1378:1384   */\n      dup2\n        /* \"#utility.yul\":1373:1376   */\n      dup6\n        /* \"#utility.yul\":1366:1370   */\n      0x20\n        /* \"#utility.yul\":1359:1364   */\n      dup7\n        /* \"#utility.yul\":1355:1371   */\n      add\n        /* \"#utility.yul\":1333:1385   */\n      tag_83\n      jump\t// in\n    tag_82:\n        /* \"#utility.yul\":1410:1439   */\n      tag_84\n        /* \"#utility.yul\":1432:1438   */\n      dup2\n        /* \"#utility.yul\":1410:1439   */\n      tag_85\n      jump\t// in\n    tag_84:\n        /* \"#utility.yul\":1405:1408   */\n      dup5\n        /* \"#utility.yul\":1401:1440   */\n      add\n        /* \"#utility.yul\":1394:1440   */\n      swap2\n      pop\n        /* \"#utility.yul\":1174:1446   */\n      pop\n      swap3\n      swap2\n      pop\n      pop\n      jump\t// out\n        /* \"#utility.yul\":1452:1570   */\n    tag_86:\n        /* \"#utility.yul\":1539:1563   */\n      tag_88\n        /* \"#utility.yul\":1557:1562   */\n      dup2\n        /* \"#utility.yul\":1539:1563   */\n      tag_89\n      jump\t// in\n    tag_88:\n        /* \"#utility.yul\":1534:1537   */\n      dup3\n        /* \"#utility.yul\":1527:1564   */\n      mstore\n        /* \"#utility.yul\":1517:1570   */\n      pop\n      pop\n      jump\t// out\n        /* \"#utility.yul\":1576:1786   */\n    tag_31:\n        /* \"#utility.yul\":1663:1667   */\n      0x00\n        /* \"#utility.yul\":1701:1703   */\n      0x20\n        /* \"#utility.yul\":1690:1699   */\n      dup3\n        /* \"#utility.yul\":1686:1704   */\n      add\n        /* \"#utility.yul\":1678:1704   */\n      swap1\n      pop\n        /* \"#utility.yul\":1714:1779   */\n      tag_91\n        /* \"#utility.yul\":1776:1777   */\n      0x00\n        /* \"#utility.yul\":1765:1774   */\n      dup4\n        /* \"#utility.yul\":1761:1778   */\n      add\n        /* \"#utility.yul\":1752:1758   */\n      dup5\n        /* \"#utility.yul\":1714:1779   */\n      tag_72\n      jump\t// in\n    tag_91:\n        /* \"#utility.yul\":1668:1786   */\n      swap3\n      swap2\n      pop\n      pop\n      jump\t// out\n        /* \"#utility.yul\":1792:2014   */\n    tag_18:\n        /* \"#utility.yul\":1885:1889   */\n      0x00\n        /* \"#utility.yul\":1923:1925   */\n      0x20\n        /* \"#utility.yul\":1912:1921   */\n      dup3\n        /* \"#utility.yul\":1908:1926   */\n      add\n        /* \"#utility.yul\":1900:1926   */\n      swap1\n      pop\n        /* \"#utility.yul\":1936:2007   */\n      tag_93\n        /* \"#utility.yul\":2004:2005   */\n      0x00\n        /* \"#utility.yul\":1993:2002   */\n      dup4\n        /* \"#utility.yul\":1989:2006   */\n      add\n        /* \"#utility.yul\":1980:1986   */\n      dup5\n        /* \"#utility.yul\":1936:2007   */\n      tag_86\n      jump\t// in\n    tag_93:\n        /* \"#utility.yul\":1890:2014   */\n      swap3\n      swap2\n      pop\n      pop\n      jump\t// out\n        /* \"#utility.yul\":2020:2553   */\n    tag_23:\n        /* \"#utility.yul\":2189:2193   */\n      0x00\n        /* \"#utility.yul\":2227:2229   */\n      0x60\n        /* \"#utility.yul\":2216:2225   */\n      dup3\n        /* \"#utility.yul\":2212:2230   */\n      add\n        /* \"#utility.yul\":2204:2230   */\n      swap1\n      pop\n        /* \"#utility.yul\":2240:2311   */\n      tag_95\n        /* \"#utility.yul\":2308:2309   */\n      0x00\n        /* \"#utility.yul\":2297:2306   */\n      dup4\n        /* \"#utility.yul\":2293:2310   */\n      add\n        /* \"#utility.yul\":2284:2290   */\n      dup7\n        /* \"#utility.yul\":2240:2311   */\n      tag_86\n      jump\t// in\n    tag_95:\n        /* \"#utility.yul\":2358:2367   */\n      dup2\n        /* \"#utility.yul\":2352:2356   */\n      dup2\n        /* \"#utility.yul\":2348:2368   */\n      sub\n        /* \"#utility.yul\":2343:2345   */\n      0x20\n        /* \"#utility.yul\":2332:2341   */\n      dup4\n        /* \"#utility.yul\":2328:2346   */\n      add\n        /* \"#utility.yul\":2321:2369   */\n      mstore\n        /* \"#utility.yul\":2386:2464   */\n      tag_96\n        /* \"#utility.yul\":2459:2463   */\n      dup2\n        /* \"#utility.yul\":2450:2456   */\n      dup6\n        /* \"#utility.yul\":2386:2464   */\n      tag_76\n      jump\t// in\n    tag_96:\n        /* \"#utility.yul\":2378:2464   */\n      swap1\n      pop\n        /* \"#utility.yul\":2474:2546   */\n      tag_97\n        /* \"#utility.yul\":2542:2544   */\n      0x40\n        /* \"#utility.yul\":2531:2540   */\n      dup4\n        /* \"#utility.yul\":2527:2545   */\n      add\n        /* \"#utility.yul\":2518:2524   */\n      dup5\n        /* \"#utility.yul\":2474:2546   */\n      tag_86\n      jump\t// in\n    tag_97:\n        /* \"#utility.yul\":2194:2553   */\n      swap5\n      swap4\n      pop\n      pop\n      pop\n      pop\n      jump\t// out\n        /* \"#utility.yul\":2640:2739   */\n    tag_79:\n        /* \"#utility.yul\":2692:2698   */\n      0x00\n        /* \"#utility.yul\":2726:2731   */\n      dup2\n        /* \"#utility.yul\":2720:2732   */\n      mload\n        /* \"#utility.yul\":2710:2732   */\n      swap1\n      pop\n        /* \"#utility.yul\":2699:2739   */\n      swap2\n      swap1\n      pop\n      jump\t// out\n        /* \"#utility.yul\":2745:2914   */\n    tag_81:\n        /* \"#utility.yul\":2829:2840   */\n      0x00\n        /* \"#utility.yul\":2863:2869   */\n      dup3\n        /* \"#utility.yul\":2858:2861   */\n      dup3\n        /* \"#utility.yul\":2851:2870   */\n      mstore\n        /* \"#utility.yul\":2903:2907   */\n      0x20\n        /* \"#utility.yul\":2898:2901   */\n      dup3\n        /* \"#utility.yul\":2894:2908   */\n      add\n        /* \"#utility.yul\":2879:2908   */\n      swap1\n      pop\n        /* \"#utility.yul\":2841:2914   */\n      swap3\n      swap2\n      pop\n      pop\n      jump\t// out\n        /* \"#utility.yul\":2920:3016   */\n    tag_102:\n        /* \"#utility.yul\":2957:2964   */\n      0x00\n        /* \"#utility.yul\":2986:3010   */\n      tag_104\n        /* \"#utility.yul\":3004:3009   */\n      dup3\n        /* \"#utility.yul\":2986:3010   */\n      tag_105\n      jump\t// in\n    tag_104:\n        /* \"#utility.yul\":2975:3010   */\n      swap1\n      pop\n        /* \"#utility.yul\":2965:3016   */\n      swap2\n      swap1\n      pop\n      jump\t// out\n        /* \"#utility.yul\":3022:3112   */\n    tag_75:\n        /* \"#utility.yul\":3056:3063   */\n      0x00\n        /* \"#utility.yul\":3099:3104   */\n      dup2\n        /* \"#utility.yul\":3092:3105   */\n      iszero\n        /* \"#utility.yul\":3085:3106   */\n      iszero\n        /* \"#utility.yul\":3074:3106   */\n      swap1\n      pop\n        /* \"#utility.yul\":3064:3112   */\n      swap2\n      swap1\n      pop\n      jump\t// out\n        /* \"#utility.yul\":3118:3244   */\n    tag_105:\n        /* \"#utility.yul\":3155:3162   */\n      0x00\n        /* \"#utility.yul\":3195:3237   */\n      0xffffffffffffffffffffffffffffffffffffffff\n        /* \"#utility.yul\":3188:3193   */\n      dup3\n        /* \"#utility.yul\":3184:3238   */\n      and\n        /* \"#utility.yul\":3173:3238   */\n      swap1\n      pop\n        /* \"#utility.yul\":3163:3244   */\n      swap2\n      swap1\n      pop\n      jump\t// out\n        /* \"#utility.yul\":3250:3327   */\n    tag_89:\n        /* \"#utility.yul\":3287:3294   */\n      0x00\n        /* \"#utility.yul\":3316:3321   */\n      dup2\n        /* \"#utility.yul\":3305:3321   */\n      swap1\n      pop\n        /* \"#utility.yul\":3295:3327   */\n      swap2\n      swap1\n      pop\n      jump\t// out\n        /* \"#utility.yul\":3333:3640   */\n    tag_83:\n        /* \"#utility.yul\":3401:3402   */\n      0x00\n        /* \"#utility.yul\":3411:3524   */\n    tag_110:\n        /* \"#utility.yul\":3425:3431   */\n      dup4\n        /* \"#utility.yul\":3422:3423   */\n      dup2\n        /* \"#utility.yul\":3419:3432   */\n      lt\n        /* \"#utility.yul\":3411:3524   */\n      iszero\n      tag_112\n      jumpi\n        /* \"#utility.yul\":3510:3511   */\n      dup1\n        /* \"#utility.yul\":3505:3508   */\n      dup3\n        /* \"#utility.yul\":3501:3512   */\n      add\n        /* \"#utility.yul\":3495:3513   */\n      mload\n        /* \"#utility.yul\":3491:3492   */\n      dup2\n        /* \"#utility.yul\":3486:3489   */\n      dup5\n        /* \"#utility.yul\":3482:3493   */\n      add\n        /* \"#utility.yul\":3475:3514   */\n      mstore\n        /* \"#utility.yul\":3447:3449   */\n      0x20\n        /* \"#utility.yul\":3444:3445   */\n      dup2\n        /* \"#utility.yul\":3440:3450   */\n      add\n        /* \"#utility.yul\":3435:3450   */\n      swap1\n      pop\n        /* \"#utility.yul\":3411:3524   */\n      jump(tag_110)\n    tag_112:\n        /* \"#utility.yul\":3542:3548   */\n      dup4\n        /* \"#utility.yul\":3539:3540   */\n      dup2\n        /* \"#utility.yul\":3536:3549   */\n      gt\n        /* \"#utility.yul\":3533:3535   */\n      iszero\n      tag_113\n      jumpi\n        /* \"#utility.yul\":3622:3623   */\n      0x00\n        /* \"#utility.yul\":3613:3619   */\n      dup5\n        /* \"#utility.yul\":3608:3611   */\n      dup5\n        /* \"#utility.yul\":3604:3620   */\n      add\n        /* \"#utility.yul\":3597:3624   */\n      mstore\n        /* \"#utility.yul\":3533:3535   */\n    tag_113:\n        /* \"#utility.yul\":3382:3640   */\n      pop\n      pop\n      pop\n      pop\n      jump\t// out\n        /* \"#utility.yul\":3646:3966   */\n    tag_44:\n        /* \"#utility.yul\":3690:3696   */\n      0x00\n        /* \"#utility.yul\":3727:3728   */\n      0x02\n        /* \"#utility.yul\":3721:3725   */\n      dup3\n        /* \"#utility.yul\":3717:3729   */\n      div\n        /* \"#utility.yul\":3707:3729   */\n      swap1\n      pop\n        /* \"#utility.yul\":3774:3775   */\n      0x01\n        /* \"#utility.yul\":3768:3772   */\n      dup3\n        /* \"#utility.yul\":3764:3776   */\n      and\n        /* \"#utility.yul\":3795:3813   */\n      dup1\n        /* \"#utility.yul\":3785:3787   */\n      tag_115\n      jumpi\n        /* \"#utility.yul\":3851:3855   */\n      0x7f\n        /* \"#utility.yul\":3843:3849   */\n      dup3\n        /* \"#utility.yul\":3839:3856   */\n      and\n        /* \"#utility.yul\":3829:3856   */\n      swap2\n      pop\n        /* \"#utility.yul\":3785:3787   */\n    tag_115:\n        /* \"#utility.yul\":3913:3915   */\n      0x20\n        /* \"#utility.yul\":3905:3911   */\n      dup3\n        /* \"#utility.yul\":3902:3916   */\n      lt\n        /* \"#utility.yul\":3882:3900   */\n      dup2\n        /* \"#utility.yul\":3879:3917   */\n      eq\n        /* \"#utility.yul\":3876:3878   */\n      iszero\n      tag_116\n      jumpi\n        /* \"#utility.yul\":3932:3950   */\n      tag_117\n      tag_118\n      jump\t// in\n    tag_117:\n        /* \"#utility.yul\":3876:3878   */\n    tag_116:\n        /* \"#utility.yul\":3697:3966   */\n      pop\n      swap2\n      swap1\n      pop\n      jump\t// out\n        /* \"#utility.yul\":3972:4205   */\n    tag_42:\n        /* \"#utility.yul\":4011:4014   */\n      0x00\n        /* \"#utility.yul\":4034:4058   */\n      tag_120\n        /* \"#utility.yul\":4052:4057   */\n      dup3\n        /* \"#utility.yul\":4034:4058   */\n      tag_89\n      jump\t// in\n    tag_120:\n        /* \"#utility.yul\":4025:4058   */\n      swap2\n      pop\n        /* \"#utility.yul\":4080:4146   */\n      0xffffffffffffffffffffffffffffffffffffffffffffffffffffffffffffffff\n        /* \"#utility.yul\":4073:4078   */\n      dup3\n        /* \"#utility.yul\":4070:4147   */\n      eq\n        /* \"#utility.yul\":4067:4069   */\n      iszero\n      tag_121\n      jumpi\n        /* \"#utility.yul\":4150:4168   */\n      tag_122\n      tag_123\n      jump\t// in\n    tag_122:\n        /* \"#utility.yul\":4067:4069   */\n    tag_121:\n        /* \"#utility.yul\":4197:4198   */\n      0x01\n        /* \"#utility.yul\":4190:4195   */\n      dup3\n        /* \"#utility.yul\":4186:4199   */\n      add\n        /* \"#utility.yul\":4179:4199   */\n      swap1\n      pop\n        /* \"#utility.yul\":4015:4205   */\n      swap2\n      swap1\n      pop\n      jump\t// out\n        /* \"#utility.yul\":4211:4391   */\n    tag_123:\n        /* \"#utility.yul\":4259:4336   */\n      0x4e487b7100000000000000000000000000000000000000000000000000000000\n        /* \"#utility.yul\":4256:4257   */\n      0x00\n        /* \"#utility.yul\":4249:4337   */\n      mstore\n        /* \"#utility.yul\":4356:4360   */\n      0x11\n        /* \"#utility.yul\":4353:4354   */\n      0x04\n        /* \"#utility.yul\":4346:4361   */\n      mstore\n        /* \"#utility.yul\":4380:4384   */\n      0x24\n        /* \"#utility.yul\":4377:4378   */\n      0x00\n        /* \"#utility.yul\":4370:4385   */\n      revert\n        /* \"#utility.yul\":4397:4577   */\n    tag_118:\n        /* \"#utility.yul\":4445:4522   */\n      0x4e487b7100000000000000000000000000000000000000000000000000000000\n        /* \"#utility.yul\":4442:4443   */\n      0x00\n        /* \"#utility.yul\":4435:4523   */\n      mstore\n        /* \"#utility.yul\":4542:4546   */\n      0x22\n        /* \"#utility.yul\":4539:4540   */\n      0x04\n        /* \"#utility.yul\":4532:4547   */\n      mstore\n        /* \"#utility.yul\":4566:4570   */\n      0x24\n        /* \"#utility.yul\":4563:4564   */\n      0x00\n        /* \"#utility.yul\":4556:4571   */\n      revert\n        /* \"#utility.yul\":4706:4823   */\n    tag_66:\n        /* \"#utility.yul\":4815:4816   */\n      0x00\n        /* \"#utility.yul\":4812:4813   */\n      dup1\n        /* \"#utility.yul\":4805:4817   */\n      revert\n        /* \"#utility.yul\":4829:4931   */\n    tag_85:\n        /* \"#utility.yul\":4870:4876   */\n      0x00\n        /* \"#utility.yul\":4921:4923   */\n      0x1f\n        /* \"#utility.yul\":4917:4924   */\n      not\n        /* \"#utility.yul\":4912:4914   */\n      0x1f\n        /* \"#utility.yul\":4905:4910   */\n      dup4\n        /* \"#utility.yul\":4901:4915   */\n      add\n        /* \"#utility.yul\":4897:4925   */\n      and\n        /* \"#utility.yul\":4887:4925   */\n      swap1\n      pop\n        /* \"#utility.yul\":4877:4931   */\n      swap2\n      swap1\n      pop\n      jump\t// out\n        /* \"#utility.yul\":4937:5059   */\n    tag_58:\n        /* \"#utility.yul\":5010:5034   */\n      tag_131\n        /* \"#utility.yul\":5028:5033   */\n      dup2\n        /* \"#utility.yul\":5010:5034   */\n      tag_102\n      jump\t// in\n    tag_131:\n        /* \"#utility.yul\":5003:5008   */\n      dup2\n        /* \"#utility.yul\":5000:5035   */\n      eq\n        /* \"#utility.yul\":4990:4992   */\n      tag_132\n      jumpi\n        /* \"#utility.yul\":5049:5050   */\n      0x00\n        /* \"#utility.yul\":5046:5047   */\n      dup1\n        /* \"#utility.yul\":5039:5051   */\n      revert\n        /* \"#utility.yul\":4990:4992   */\n    tag_132:\n        /* \"#utility.yul\":4980:5059   */\n      pop\n      jump\t// out\n        /* \"#utility.yul\":5065:5187   */\n    tag_62:\n        /* \"#utility.yul\":5138:5162   */\n      tag_134\n        /* \"#utility.yul\":5156:5161   */\n      dup2\n        /* \"#utility.yul\":5138:5162   */\n      tag_89\n      jump\t// in\n    tag_134:\n        /* \"#utility.yul\":5131:5136   */\n      dup2\n        /* \"#utility.yul\":5128:5163   */\n      eq\n        /* \"#utility.yul\":5118:5120   */\n      tag_135\n      jumpi\n        /* \"#utility.yul\":5177:5178   */\n      0x00\n        /* \"#utility.yul\":5174:5175   */\n      dup1\n        /* \"#utility.yul\":5167:5179   */\n      revert\n        /* \"#utility.yul\":5118:5120   */\n    tag_135:\n        /* \"#utility.yul\":5108:5187   */\n      pop\n      jump\t// out\n\n    auxdata: 0xa264697066735822122020f5e05a542f5cb7e750bd557eeb27988a627854e76ec7242bda0f2a0208ff3464736f6c63430008050033\n}\n",
				"bytecode": {
					"linkReferences": {},
					"object": "608060405260008060146101000a81548160ff02191690831515021790555034801561002a57600080fd5b50336000806101000a81548173ffffffffffffffffffffffffffffffffffffffff021916908373ffffffffffffffffffffffffffffffffffffffff1602179055506100af6040518060400160405280600c81526020017f426974636f696e20636c756200000000000000000000000000000000000000008152506100f860201b60201c565b6100f36040518060400160405280600d81526020017f457468657265756d20636c7562000000000000000000000000000000000000008152506100f860201b60201c565b610300565b6003600081548092919061010b90610259565b919050555060405180606001604052806003548152602001828152602001600081525060026000600354815260200190815260200160002060008201518160000155602082015181600101908051906020019061016992919061017a565b506040820151816002015590505050565b82805461018690610227565b90600052602060002090601f0160209004810192826101a857600085556101ef565b82601f106101c157805160ff19168380011785556101ef565b828001600101855582156101ef579182015b828111156101ee5782518255916020019190600101906101d3565b5b5090506101fc9190610200565b5090565b5b80821115610219576000816000905550600101610201565b5090565b6000819050919050565b6000600282049050600182168061023f57607f821691505b60208210811415610253576102526102d1565b5b50919050565b60006102648261021d565b91507fffffffffffffffffffffffffffffffffffffffffffffffffffffffffffffffff821415610297576102966102a2565b5b600182019050919050565b7f4e487b7100000000000000000000000000000000000000000000000000000000600052601160045260246000fd5b7f4e487b7100000000000000000000000000000000000000000000000000000000600052602260045260246000fd5b6107768061030f6000396000f3fe608060405234801561001057600080fd5b506004361061007d5760003560e01c80636c6c32d01161005b5780636c6c32d0146100ee578063a3ec138d146100f8578063c12dd4a314610128578063c5d00f5d146101325761007d565b80630121b93f146100825780632d35a8a21461009e5780633477ee2e146100bc575b600080fd5b61009c60048036038101906100979190610494565b61013c565b005b6100a661027a565b6040516100b39190610533565b60405180910390f35b6100d660048036038101906100d19190610494565b610280565b6040516100e59392919061054e565b60405180910390f35b6100f6610332565b005b610112600480360381019061010d9190610467565b6103a6565b60405161011f9190610518565b60405180910390f35b6101306103c6565b005b61013a6103c8565b005b600060149054906101000a900460ff1661015557600080fd5b600160003373ffffffffffffffffffffffffffffffffffffffff1673ffffffffffffffffffffffffffffffffffffffff16815260200190815260200160002060009054906101000a900460ff16156101ac57600080fd5b6000811180156101be57506003548111155b6101c757600080fd5b60018060003373ffffffffffffffffffffffffffffffffffffffff1673ffffffffffffffffffffffffffffffffffffffff16815260200190815260200160002060006101000a81548160ff02191690831515021790555060026000828152602001908152602001600020600201600081548092919061024590610655565b9190505550807ffff3c900d938d21d0990d786e819f29b8d05c1ef587b462b939609625b684b1660405160405180910390a250565b60035481565b60026020528060005260406000206000915090508060000154908060010180546102a990610623565b80601f01602080910402602001604051908101604052809291908181526020018280546102d590610623565b80156103225780601f106102f757610100808354040283529160200191610322565b820191906000526020600020905b81548152906001019060200180831161030557829003601f168201915b5050505050908060020154905083565b3373ffffffffffffffffffffffffffffffffffffffff1660008054906101000a900473ffffffffffffffffffffffffffffffffffffffff1673ffffffffffffffffffffffffffffffffffffffff161461038a57600080fd5b60008060146101000a81548160ff021916908315150217905550565b60016020528060005260406000206000915054906101000a900460ff1681565b565b3373ffffffffffffffffffffffffffffffffffffffff1660008054906101000a900473ffffffffffffffffffffffffffffffffffffffff1673ffffffffffffffffffffffffffffffffffffffff161461042057600080fd5b6001600060146101000a81548160ff021916908315150217905550565b60008135905061044c81610712565b92915050565b60008135905061046181610729565b92915050565b60006020828403121561047d5761047c6106fc565b5b600061048b8482850161043d565b91505092915050565b6000602082840312156104aa576104a96106fc565b5b60006104b884828501610452565b91505092915050565b6104ca816105ba565b82525050565b60006104db8261058c565b6104e58185610597565b93506104f58185602086016105f0565b6104fe81610701565b840191505092915050565b610512816105e6565b82525050565b600060208201905061052d60008301846104c1565b92915050565b60006020820190506105486000830184610509565b92915050565b60006060820190506105636000830186610509565b818103602083015261057581856104d0565b90506105846040830184610509565b949350505050565b600081519050919050565b600082825260208201905092915050565b60006105b3826105c6565b9050919050565b60008115159050919050565b600073ffffffffffffffffffffffffffffffffffffffff82169050919050565b6000819050919050565b60005b8381101561060e5780820151818401526020810190506105f3565b8381111561061d576000848401525b50505050565b6000600282049050600182168061063b57607f821691505b6020821081141561064f5761064e6106cd565b5b50919050565b6000610660826105e6565b91507fffffffffffffffffffffffffffffffffffffffffffffffffffffffffffffffff8214156106935761069261069e565b5b600182019050919050565b7f4e487b7100000000000000000000000000000000000000000000000000000000600052601160045260246000fd5b7f4e487b7100000000000000000000000000000000000000000000000000000000600052602260045260246000fd5b600080fd5b6000601f19601f8301169050919050565b61071b816105a8565b811461072657600080fd5b50565b610732816105e6565b811461073d57600080fd5b5056fea264697066735822122020f5e05a542f5cb7e750bd557eeb27988a627854e76ec7242bda0f2a0208ff3464736f6c63430008050033",
					"opcodes": "PUSH1 0x80 PUSH1 0x40 MSTORE PUSH1 0x0 DUP1 PUSH1 0x14 PUSH2 0x100 EXP DUP2 SLOAD DUP2 PUSH1 0xFF MUL NOT AND SWAP1 DUP4 ISZERO ISZERO MUL OR SWAP1 SSTORE POP CALLVALUE DUP1 ISZERO PUSH2 0x2A JUMPI PUSH1 0x0 DUP1 REVERT JUMPDEST POP CALLER PUSH1 0x0 DUP1 PUSH2 0x100 EXP DUP2 SLOAD DUP2 PUSH20 0xFFFFFFFFFFFFFFFFFFFFFFFFFFFFFFFFFFFFFFFF MUL NOT AND SWAP1 DUP4 PUSH20 0xFFFFFFFFFFFFFFFFFFFFFFFFFFFFFFFFFFFFFFFF AND MUL OR SWAP1 SSTORE POP PUSH2 0xAF PUSH1 0x40 MLOAD DUP1 PUSH1 0x40 ADD PUSH1 0x40 MSTORE DUP1 PUSH1 0xC DUP2 MSTORE PUSH1 0x20 ADD PUSH32 0x426974636F696E20636C75620000000000000000000000000000000000000000 DUP2 MSTORE POP PUSH2 0xF8 PUSH1 0x20 SHL PUSH1 0x20 SHR JUMP JUMPDEST PUSH2 0xF3 PUSH1 0x40 MLOAD DUP1 PUSH1 0x40 ADD PUSH1 0x40 MSTORE DUP1 PUSH1 0xD DUP2 MSTORE PUSH1 0x20 ADD PUSH32 0x457468657265756D20636C756200000000000000000000000000000000000000 DUP2 MSTORE POP PUSH2 0xF8 PUSH1 0x20 SHL PUSH1 0x20 SHR JUMP JUMPDEST PUSH2 0x300 JUMP JUMPDEST PUSH1 0x3 PUSH1 0x0 DUP2 SLOAD DUP1 SWAP3 SWAP2 SWAP1 PUSH2 0x10B SWAP1 PUSH2 0x259 JUMP JUMPDEST SWAP2 SWAP1 POP SSTORE POP PUSH1 0x40 MLOAD DUP1 PUSH1 0x60 ADD PUSH1 0x40 MSTORE DUP1 PUSH1 0x3 SLOAD DUP2 MSTORE PUSH1 0x20 ADD DUP3 DUP2 MSTORE PUSH1 0x20 ADD PUSH1 0x0 DUP2 MSTORE POP PUSH1 0x2 PUSH1 0x0 PUSH1 0x3 SLOAD DUP2 MSTORE PUSH1 0x20 ADD SWAP1 DUP2 MSTORE PUSH1 0x20 ADD PUSH1 0x0 KECCAK256 PUSH1 0x0 DUP3 ADD MLOAD DUP2 PUSH1 0x0 ADD SSTORE PUSH1 0x20 DUP3 ADD MLOAD DUP2 PUSH1 0x1 ADD SWAP1 DUP1 MLOAD SWAP1 PUSH1 0x20 ADD SWAP1 PUSH2 0x169 SWAP3 SWAP2 SWAP1 PUSH2 0x17A JUMP JUMPDEST POP PUSH1 0x40 DUP3 ADD MLOAD DUP2 PUSH1 0x2 ADD SSTORE SWAP1 POP POP POP JUMP JUMPDEST DUP3 DUP1 SLOAD PUSH2 0x186 SWAP1 PUSH2 0x227 JUMP JUMPDEST SWAP1 PUSH1 0x0 MSTORE PUSH1 0x20 PUSH1 0x0 KECCAK256 SWAP1 PUSH1 0x1F ADD PUSH1 0x20 SWAP1 DIV DUP2 ADD SWAP3 DUP3 PUSH2 0x1A8 JUMPI PUSH1 0x0 DUP6 SSTORE PUSH2 0x1EF JUMP JUMPDEST DUP3 PUSH1 0x1F LT PUSH2 0x1C1 JUMPI DUP1 MLOAD PUSH1 0xFF NOT AND DUP4 DUP1 ADD OR DUP6 SSTORE PUSH2 0x1EF JUMP JUMPDEST DUP3 DUP1 ADD PUSH1 0x1 ADD DUP6 SSTORE DUP3 ISZERO PUSH2 0x1EF JUMPI SWAP2 DUP3 ADD JUMPDEST DUP3 DUP2 GT ISZERO PUSH2 0x1EE JUMPI DUP3 MLOAD DUP3 SSTORE SWAP2 PUSH1 0x20 ADD SWAP2 SWAP1 PUSH1 0x1 ADD SWAP1 PUSH2 0x1D3 JUMP JUMPDEST JUMPDEST POP SWAP1 POP PUSH2 0x1FC SWAP2 SWAP1 PUSH2 0x200 JUMP JUMPDEST POP SWAP1 JUMP JUMPDEST JUMPDEST DUP1 DUP3 GT ISZERO PUSH2 0x219 JUMPI PUSH1 0x0 DUP2 PUSH1 0x0 SWAP1 SSTORE POP PUSH1 0x1 ADD PUSH2 0x201 JUMP JUMPDEST POP SWAP1 JUMP JUMPDEST PUSH1 0x0 DUP2 SWAP1 POP SWAP2 SWAP1 POP JUMP JUMPDEST PUSH1 0x0 PUSH1 0x2 DUP3 DIV SWAP1 POP PUSH1 0x1 DUP3 AND DUP1 PUSH2 0x23F JUMPI PUSH1 0x7F DUP3 AND SWAP2 POP JUMPDEST PUSH1 0x20 DUP3 LT DUP2 EQ ISZERO PUSH2 0x253 JUMPI PUSH2 0x252 PUSH2 0x2D1 JUMP JUMPDEST JUMPDEST POP SWAP2 SWAP1 POP JUMP JUMPDEST PUSH1 0x0 PUSH2 0x264 DUP3 PUSH2 0x21D JUMP JUMPDEST SWAP2 POP PUSH32 0xFFFFFFFFFFFFFFFFFFFFFFFFFFFFFFFFFFFFFFFFFFFFFFFFFFFFFFFFFFFFFFFF DUP3 EQ ISZERO PUSH2 0x297 JUMPI PUSH2 0x296 PUSH2 0x2A2 JUMP JUMPDEST JUMPDEST PUSH1 0x1 DUP3 ADD SWAP1 POP SWAP2 SWAP1 POP JUMP JUMPDEST PUSH32 0x4E487B7100000000000000000000000000000000000000000000000000000000 PUSH1 0x0 MSTORE PUSH1 0x11 PUSH1 0x4 MSTORE PUSH1 0x24 PUSH1 0x0 REVERT JUMPDEST PUSH32 0x4E487B7100000000000000000000000000000000000000000000000000000000 PUSH1 0x0 MSTORE PUSH1 0x22 PUSH1 0x4 MSTORE PUSH1 0x24 PUSH1 0x0 REVERT JUMPDEST PUSH2 0x776 DUP1 PUSH2 0x30F PUSH1 0x0 CODECOPY PUSH1 0x0 RETURN INVALID PUSH1 0x80 PUSH1 0x40 MSTORE CALLVALUE DUP1 ISZERO PUSH2 0x10 JUMPI PUSH1 0x0 DUP1 REVERT JUMPDEST POP PUSH1 0x4 CALLDATASIZE LT PUSH2 0x7D JUMPI PUSH1 0x0 CALLDATALOAD PUSH1 0xE0 SHR DUP1 PUSH4 0x6C6C32D0 GT PUSH2 0x5B JUMPI DUP1 PUSH4 0x6C6C32D0 EQ PUSH2 0xEE JUMPI DUP1 PUSH4 0xA3EC138D EQ PUSH2 0xF8 JUMPI DUP1 PUSH4 0xC12DD4A3 EQ PUSH2 0x128 JUMPI DUP1 PUSH4 0xC5D00F5D EQ PUSH2 0x132 JUMPI PUSH2 0x7D JUMP JUMPDEST DUP1 PUSH4 0x121B93F EQ PUSH2 0x82 JUMPI DUP1 PUSH4 0x2D35A8A2 EQ PUSH2 0x9E JUMPI DUP1 PUSH4 0x3477EE2E EQ PUSH2 0xBC JUMPI JUMPDEST PUSH1 0x0 DUP1 REVERT JUMPDEST PUSH2 0x9C PUSH1 0x4 DUP1 CALLDATASIZE SUB DUP2 ADD SWAP1 PUSH2 0x97 SWAP2 SWAP1 PUSH2 0x494 JUMP JUMPDEST PUSH2 0x13C JUMP JUMPDEST STOP JUMPDEST PUSH2 0xA6 PUSH2 0x27A JUMP JUMPDEST PUSH1 0x40 MLOAD PUSH2 0xB3 SWAP2 SWAP1 PUSH2 0x533 JUMP JUMPDEST PUSH1 0x40 MLOAD DUP1 SWAP2 SUB SWAP1 RETURN JUMPDEST PUSH2 0xD6 PUSH1 0x4 DUP1 CALLDATASIZE SUB DUP2 ADD SWAP1 PUSH2 0xD1 SWAP2 SWAP1 PUSH2 0x494 JUMP JUMPDEST PUSH2 0x280 JUMP JUMPDEST PUSH1 0x40 MLOAD PUSH2 0xE5 SWAP4 SWAP3 SWAP2 SWAP1 PUSH2 0x54E JUMP JUMPDEST PUSH1 0x40 MLOAD DUP1 SWAP2 SUB SWAP1 RETURN JUMPDEST PUSH2 0xF6 PUSH2 0x332 JUMP JUMPDEST STOP JUMPDEST PUSH2 0x112 PUSH1 0x4 DUP1 CALLDATASIZE SUB DUP2 ADD SWAP1 PUSH2 0x10D SWAP2 SWAP1 PUSH2 0x467 JUMP JUMPDEST PUSH2 0x3A6 JUMP JUMPDEST PUSH1 0x40 MLOAD PUSH2 0x11F SWAP2 SWAP1 PUSH2 0x518 JUMP JUMPDEST PUSH1 0x40 MLOAD DUP1 SWAP2 SUB SWAP1 RETURN JUMPDEST PUSH2 0x130 PUSH2 0x3C6 JUMP JUMPDEST STOP JUMPDEST PUSH2 0x13A PUSH2 0x3C8 JUMP JUMPDEST STOP JUMPDEST PUSH1 0x0 PUSH1 0x14 SWAP1 SLOAD SWAP1 PUSH2 0x100 EXP SWAP1 DIV PUSH1 0xFF AND PUSH2 0x155 JUMPI PUSH1 0x0 DUP1 REVERT JUMPDEST PUSH1 0x1 PUSH1 0x0 CALLER PUSH20 0xFFFFFFFFFFFFFFFFFFFFFFFFFFFFFFFFFFFFFFFF AND PUSH20 0xFFFFFFFFFFFFFFFFFFFFFFFFFFFFFFFFFFFFFFFF AND DUP2 MSTORE PUSH1 0x20 ADD SWAP1 DUP2 MSTORE PUSH1 0x20 ADD PUSH1 0x0 KECCAK256 PUSH1 0x0 SWAP1 SLOAD SWAP1 PUSH2 0x100 EXP SWAP1 DIV PUSH1 0xFF AND ISZERO PUSH2 0x1AC JUMPI PUSH1 0x0 DUP1 REVERT JUMPDEST PUSH1 0x0 DUP2 GT DUP1 ISZERO PUSH2 0x1BE JUMPI POP PUSH1 0x3 SLOAD DUP2 GT ISZERO JUMPDEST PUSH2 0x1C7 JUMPI PUSH1 0x0 DUP1 REVERT JUMPDEST PUSH1 0x1 DUP1 PUSH1 0x0 CALLER PUSH20 0xFFFFFFFFFFFFFFFFFFFFFFFFFFFFFFFFFFFFFFFF AND PUSH20 0xFFFFFFFFFFFFFFFFFFFFFFFFFFFFFFFFFFFFFFFF AND DUP2 MSTORE PUSH1 0x20 ADD SWAP1 DUP2 MSTORE PUSH1 0x20 ADD PUSH1 0x0 KECCAK256 PUSH1 0x0 PUSH2 0x100 EXP DUP2 SLOAD DUP2 PUSH1 0xFF MUL NOT AND SWAP1 DUP4 ISZERO ISZERO MUL OR SWAP1 SSTORE POP PUSH1 0x2 PUSH1 0x0 DUP3 DUP2 MSTORE PUSH1 0x20 ADD SWAP1 DUP2 MSTORE PUSH1 0x20 ADD PUSH1 0x0 KECCAK256 PUSH1 0x2 ADD PUSH1 0x0 DUP2 SLOAD DUP1 SWAP3 SWAP2 SWAP1 PUSH2 0x245 SWAP1 PUSH2 0x655 JUMP JUMPDEST SWAP2 SWAP1 POP SSTORE POP DUP1 PUSH32 0xFFF3C900D938D21D0990D786E819F29B8D05C1EF587B462B939609625B684B16 PUSH1 0x40 MLOAD PUSH1 0x40 MLOAD DUP1 SWAP2 SUB SWAP1 LOG2 POP JUMP JUMPDEST PUSH1 0x3 SLOAD DUP2 JUMP JUMPDEST PUSH1 0x2 PUSH1 0x20 MSTORE DUP1 PUSH1 0x0 MSTORE PUSH1 0x40 PUSH1 0x0 KECCAK256 PUSH1 0x0 SWAP2 POP SWAP1 POP DUP1 PUSH1 0x0 ADD SLOAD SWAP1 DUP1 PUSH1 0x1 ADD DUP1 SLOAD PUSH2 0x2A9 SWAP1 PUSH2 0x623 JUMP JUMPDEST DUP1 PUSH1 0x1F ADD PUSH1 0x20 DUP1 SWAP2 DIV MUL PUSH1 0x20 ADD PUSH1 0x40 MLOAD SWAP1 DUP2 ADD PUSH1 0x40 MSTORE DUP1 SWAP3 SWAP2 SWAP1 DUP2 DUP2 MSTORE PUSH1 0x20 ADD DUP3 DUP1 SLOAD PUSH2 0x2D5 SWAP1 PUSH2 0x623 JUMP JUMPDEST DUP1 ISZERO PUSH2 0x322 JUMPI DUP1 PUSH1 0x1F LT PUSH2 0x2F7 JUMPI PUSH2 0x100 DUP1 DUP4 SLOAD DIV MUL DUP4 MSTORE SWAP2 PUSH1 0x20 ADD SWAP2 PUSH2 0x322 JUMP JUMPDEST DUP3 ADD SWAP2 SWAP1 PUSH1 0x0 MSTORE PUSH1 0x20 PUSH1 0x0 KECCAK256 SWAP1 JUMPDEST DUP2 SLOAD DUP2 MSTORE SWAP1 PUSH1 0x1 ADD SWAP1 PUSH1 0x20 ADD DUP1 DUP4 GT PUSH2 0x305 JUMPI DUP3 SWAP1 SUB PUSH1 0x1F AND DUP3 ADD SWAP2 JUMPDEST POP POP POP POP POP SWAP1 DUP1 PUSH1 0x2 ADD SLOAD SWAP1 POP DUP4 JUMP JUMPDEST CALLER PUSH20 0xFFFFFFFFFFFFFFFFFFFFFFFFFFFFFFFFFFFFFFFF AND PUSH1 0x0 DUP1 SLOAD SWAP1 PUSH2 0x100 EXP SWAP1 DIV PUSH20 0xFFFFFFFFFFFFFFFFFFFFFFFFFFFFFFFFFFFFFFFF AND PUSH20 0xFFFFFFFFFFFFFFFFFFFFFFFFFFFFFFFFFFFFFFFF AND EQ PUSH2 0x38A JUMPI PUSH1 0x0 DUP1 REVERT JUMPDEST PUSH1 0x0 DUP1 PUSH1 0x14 PUSH2 0x100 EXP DUP2 SLOAD DUP2 PUSH1 0xFF MUL NOT AND SWAP1 DUP4 ISZERO ISZERO MUL OR SWAP1 SSTORE POP JUMP JUMPDEST PUSH1 0x1 PUSH1 0x20 MSTORE DUP1 PUSH1 0x0 MSTORE PUSH1 0x40 PUSH1 0x0 KECCAK256 PUSH1 0x0 SWAP2 POP SLOAD SWAP1 PUSH2 0x100 EXP SWAP1 DIV PUSH1 0xFF AND DUP2 JUMP JUMPDEST JUMP JUMPDEST CALLER PUSH20 0xFFFFFFFFFFFFFFFFFFFFFFFFFFFFFFFFFFFFFFFF AND PUSH1 0x0 DUP1 SLOAD SWAP1 PUSH2 0x100 EXP SWAP1 DIV PUSH20 0xFFFFFFFFFFFFFFFFFFFFFFFFFFFFFFFFFFFFFFFF AND PUSH20 0xFFFFFFFFFFFFFFFFFFFFFFFFFFFFFFFFFFFFFFFF AND EQ PUSH2 0x420 JUMPI PUSH1 0x0 DUP1 REVERT JUMPDEST PUSH1 0x1 PUSH1 0x0 PUSH1 0x14 PUSH2 0x100 EXP DUP2 SLOAD DUP2 PUSH1 0xFF MUL NOT AND SWAP1 DUP4 ISZERO ISZERO MUL OR SWAP1 SSTORE POP JUMP JUMPDEST PUSH1 0x0 DUP2 CALLDATALOAD SWAP1 POP PUSH2 0x44C DUP2 PUSH2 0x712 JUMP JUMPDEST SWAP3 SWAP2 POP POP JUMP JUMPDEST PUSH1 0x0 DUP2 CALLDATALOAD SWAP1 POP PUSH2 0x461 DUP2 PUSH2 0x729 JUMP JUMPDEST SWAP3 SWAP2 POP POP JUMP JUMPDEST PUSH1 0x0 PUSH1 0x20 DUP3 DUP5 SUB SLT ISZERO PUSH2 0x47D JUMPI PUSH2 0x47C PUSH2 0x6FC JUMP JUMPDEST JUMPDEST PUSH1 0x0 PUSH2 0x48B DUP5 DUP3 DUP6 ADD PUSH2 0x43D JUMP JUMPDEST SWAP2 POP POP SWAP3 SWAP2 POP POP JUMP JUMPDEST PUSH1 0x0 PUSH1 0x20 DUP3 DUP5 SUB SLT ISZERO PUSH2 0x4AA JUMPI PUSH2 0x4A9 PUSH2 0x6FC JUMP JUMPDEST JUMPDEST PUSH1 0x0 PUSH2 0x4B8 DUP5 DUP3 DUP6 ADD PUSH2 0x452 JUMP JUMPDEST SWAP2 POP POP SWAP3 SWAP2 POP POP JUMP JUMPDEST PUSH2 0x4CA DUP2 PUSH2 0x5BA JUMP JUMPDEST DUP3 MSTORE POP POP JUMP JUMPDEST PUSH1 0x0 PUSH2 0x4DB DUP3 PUSH2 0x58C JUMP JUMPDEST PUSH2 0x4E5 DUP2 DUP6 PUSH2 0x597 JUMP JUMPDEST SWAP4 POP PUSH2 0x4F5 DUP2 DUP6 PUSH1 0x20 DUP7 ADD PUSH2 0x5F0 JUMP JUMPDEST PUSH2 0x4FE DUP2 PUSH2 0x701 JUMP JUMPDEST DUP5 ADD SWAP2 POP POP SWAP3 SWAP2 POP POP JUMP JUMPDEST PUSH2 0x512 DUP2 PUSH2 0x5E6 JUMP JUMPDEST DUP3 MSTORE POP POP JUMP JUMPDEST PUSH1 0x0 PUSH1 0x20 DUP3 ADD SWAP1 POP PUSH2 0x52D PUSH1 0x0 DUP4 ADD DUP5 PUSH2 0x4C1 JUMP JUMPDEST SWAP3 SWAP2 POP POP JUMP JUMPDEST PUSH1 0x0 PUSH1 0x20 DUP3 ADD SWAP1 POP PUSH2 0x548 PUSH1 0x0 DUP4 ADD DUP5 PUSH2 0x509 JUMP JUMPDEST SWAP3 SWAP2 POP POP JUMP JUMPDEST PUSH1 0x0 PUSH1 0x60 DUP3 ADD SWAP1 POP PUSH2 0x563 PUSH1 0x0 DUP4 ADD DUP7 PUSH2 0x509 JUMP JUMPDEST DUP2 DUP2 SUB PUSH1 0x20 DUP4 ADD MSTORE PUSH2 0x575 DUP2 DUP6 PUSH2 0x4D0 JUMP JUMPDEST SWAP1 POP PUSH2 0x584 PUSH1 0x40 DUP4 ADD DUP5 PUSH2 0x509 JUMP JUMPDEST SWAP5 SWAP4 POP POP POP POP JUMP JUMPDEST PUSH1 0x0 DUP2 MLOAD SWAP1 POP SWAP2 SWAP1 POP JUMP JUMPDEST PUSH1 0x0 DUP3 DUP3 MSTORE PUSH1 0x20 DUP3 ADD SWAP1 POP SWAP3 SWAP2 POP POP JUMP JUMPDEST PUSH1 0x0 PUSH2 0x5B3 DUP3 PUSH2 0x5C6 JUMP JUMPDEST SWAP1 POP SWAP2 SWAP1 POP JUMP JUMPDEST PUSH1 0x0 DUP2 ISZERO ISZERO SWAP1 POP SWAP2 SWAP1 POP JUMP JUMPDEST PUSH1 0x0 PUSH20 0xFFFFFFFFFFFFFFFFFFFFFFFFFFFFFFFFFFFFFFFF DUP3 AND SWAP1 POP SWAP2 SWAP1 POP JUMP JUMPDEST PUSH1 0x0 DUP2 SWAP1 POP SWAP2 SWAP1 POP JUMP JUMPDEST PUSH1 0x0 JUMPDEST DUP4 DUP2 LT ISZERO PUSH2 0x60E JUMPI DUP1 DUP3 ADD MLOAD DUP2 DUP5 ADD MSTORE PUSH1 0x20 DUP2 ADD SWAP1 POP PUSH2 0x5F3 JUMP JUMPDEST DUP4 DUP2 GT ISZERO PUSH2 0x61D JUMPI PUSH1 0x0 DUP5 DUP5 ADD MSTORE JUMPDEST POP POP POP POP JUMP JUMPDEST PUSH1 0x0 PUSH1 0x2 DUP3 DIV SWAP1 POP PUSH1 0x1 DUP3 AND DUP1 PUSH2 0x63B JUMPI PUSH1 0x7F DUP3 AND SWAP2 POP JUMPDEST PUSH1 0x20 DUP3 LT DUP2 EQ ISZERO PUSH2 0x64F JUMPI PUSH2 0x64E PUSH2 0x6CD JUMP JUMPDEST JUMPDEST POP SWAP2 SWAP1 POP JUMP JUMPDEST PUSH1 0x0 PUSH2 0x660 DUP3 PUSH2 0x5E6 JUMP JUMPDEST SWAP2 POP PUSH32 0xFFFFFFFFFFFFFFFFFFFFFFFFFFFFFFFFFFFFFFFFFFFFFFFFFFFFFFFFFFFFFFFF DUP3 EQ ISZERO PUSH2 0x693 JUMPI PUSH2 0x692 PUSH2 0x69E JUMP JUMPDEST JUMPDEST PUSH1 0x1 DUP3 ADD SWAP1 POP SWAP2 SWAP1 POP JUMP JUMPDEST PUSH32 0x4E487B7100000000000000000000000000000000000000000000000000000000 PUSH1 0x0 MSTORE PUSH1 0x11 PUSH1 0x4 MSTORE PUSH1 0x24 PUSH1 0x0 REVERT JUMPDEST PUSH32 0x4E487B7100000000000000000000000000000000000000000000000000000000 PUSH1 0x0 MSTORE PUSH1 0x22 PUSH1 0x4 MSTORE PUSH1 0x24 PUSH1 0x0 REVERT JUMPDEST PUSH1 0x0 DUP1 REVERT JUMPDEST PUSH1 0x0 PUSH1 0x1F NOT PUSH1 0x1F DUP4 ADD AND SWAP1 POP SWAP2 SWAP1 POP JUMP JUMPDEST PUSH2 0x71B DUP2 PUSH2 0x5A8 JUMP JUMPDEST DUP2 EQ PUSH2 0x726 JUMPI PUSH1 0x0 DUP1 REVERT JUMPDEST POP JUMP JUMPDEST PUSH2 0x732 DUP2 PUSH2 0x5E6 JUMP JUMPDEST DUP2 EQ PUSH2 0x73D JUMPI PUSH1 0x0 DUP1 REVERT JUMPDEST POP JUMP INVALID LOG2 PUSH5 0x6970667358 0x22 SLT KECCAK256 KECCAK256 CREATE2 0xE0 GAS SLOAD 0x2F 0x5C 0xB7 0xE7 POP 0xBD SSTORE PUSH31 0xEB27988A627854E76EC7242BDA0F2A0208FF3464736F6C6343000805003300 "
				},
				"gasEstimates": {
					"creation": {
						"codeDepositCost": "382000",
						"executionCost": "infinite",
						"totalCost": "infinite"
					},
					"external": {
						"candidates(uint256)": "infinite",
						"candidatesCount()": "2452",
						"changeElectionStateOpened()": "188",
						"closeElection()": "26628",
						"openElection()": "26694",
						"vote(uint256)": "infinite",
						"voters(address)": "2867"
					},
					"internal": {
						"addCandidate(string memory)": "infinite"
					}
				},
				"methodIdentifiers": {
					"candidates(uint256)": "3477ee2e",
					"candidatesCount()": "2d35a8a2",
					"changeElectionStateOpened()": "c12dd4a3",
					"closeElection()": "6c6c32d0",
					"openElection()": "c5d00f5d",
					"vote(uint256)": "0121b93f",
					"voters(address)": "a3ec138d"
				}
			},
			"storageLayout": {
				"storage": [
					{
						"astId": 10,
						"contract": "Development-Codebases/Blockchain/Eth_Smart_Contract_Voting/contracts/Election.sol:Election",
						"label": "electionOwner",
						"offset": 0,
						"slot": "0",
						"type": "t_address"
					},
					{
						"astId": 13,
						"contract": "Development-Codebases/Blockchain/Eth_Smart_Contract_Voting/contracts/Election.sol:Election",
						"label": "isOpened",
						"offset": 20,
						"slot": "0",
						"type": "t_bool"
					},
					{
						"astId": 17,
						"contract": "Development-Codebases/Blockchain/Eth_Smart_Contract_Voting/contracts/Election.sol:Election",
						"label": "voters",
						"offset": 0,
						"slot": "1",
						"type": "t_mapping(t_address,t_bool)"
					},
					{
						"astId": 22,
						"contract": "Development-Codebases/Blockchain/Eth_Smart_Contract_Voting/contracts/Election.sol:Election",
						"label": "candidates",
						"offset": 0,
						"slot": "2",
						"type": "t_mapping(t_uint256,t_struct(Candidate)8_storage)"
					},
					{
						"astId": 24,
						"contract": "Development-Codebases/Blockchain/Eth_Smart_Contract_Voting/contracts/Election.sol:Election",
						"label": "candidatesCount",
						"offset": 0,
						"slot": "3",
						"type": "t_uint256"
					}
				],
				"types": {
					"t_address": {
						"encoding": "inplace",
						"label": "address",
						"numberOfBytes": "20"
					},
					"t_bool": {
						"encoding": "inplace",
						"label": "bool",
						"numberOfBytes": "1"
					},
					"t_mapping(t_address,t_bool)": {
						"encoding": "mapping",
						"key": "t_address",
						"label": "mapping(address => bool)",
						"numberOfBytes": "32",
						"value": "t_bool"
					},
					"t_mapping(t_uint256,t_struct(Candidate)8_storage)": {
						"encoding": "mapping",
						"key": "t_uint256",
						"label": "mapping(uint256 => struct Election.Candidate)",
						"numberOfBytes": "32",
						"value": "t_struct(Candidate)8_storage"
					},
					"t_string_storage": {
						"encoding": "bytes",
						"label": "string",
						"numberOfBytes": "32"
					},
					"t_struct(Candidate)8_storage": {
						"encoding": "inplace",
						"label": "struct Election.Candidate",
						"members": [
							{
								"astId": 3,
								"contract": "Development-Codebases/Blockchain/Eth_Smart_Contract_Voting/contracts/Election.sol:Election",
								"label": "id",
								"offset": 0,
								"slot": "0",
								"type": "t_uint256"
							},
							{
								"astId": 5,
								"contract": "Development-Codebases/Blockchain/Eth_Smart_Contract_Voting/contracts/Election.sol:Election",
								"label": "name",
								"offset": 0,
								"slot": "1",
								"type": "t_string_storage"
							},
							{
								"astId": 7,
								"contract": "Development-Codebases/Blockchain/Eth_Smart_Contract_Voting/contracts/Election.sol:Election",
								"label": "voteCount",
								"offset": 0,
								"slot": "2",
								"type": "t_uint256"
							}
						],
						"numberOfBytes": "96"
					},
					"t_uint256": {
						"encoding": "inplace",
						"label": "uint256",
						"numberOfBytes": "32"
					}
				}
			},
			"userdoc": {
				"kind": "user",
				"methods": {},
				"version": 1
			}
		}
	}
}