{
	"Development-Codebases/Blockchain/Eth_Smart_Contract_Voting/contracts/Election.sol": {
		"Election": {
			"abi": [
				{
					"inputs": [],
					"stateMutability": "nonpayable",
					"type": "constructor"
				},
				{
					"anonymous": false,
					"inputs": [
						{
							"indexed": false,
							"internalType": "string",
							"name": "_isOpened",
							"type": "string"
						}
					],
					"name": "ChangedEventState",
					"type": "event"
				},
				{
					"anonymous": false,
					"inputs": [
						{
							"indexed": true,
							"internalType": "uint256",
							"name": "_candidateId",
							"type": "uint256"
						}
					],
					"name": "VotedEvent",
					"type": "event"
				},
				{
					"anonymous": false,
					"inputs": [
						{
							"indexed": false,
							"internalType": "string",
							"name": "_winningCandidate",
							"type": "string"
						}
					],
					"name": "WinnerPrinted",
					"type": "event"
				},
				{
					"inputs": [
						{
							"internalType": "uint256",
							"name": "",
							"type": "uint256"
						}
					],
					"name": "candidates",
					"outputs": [
						{
							"internalType": "uint256",
							"name": "id",
							"type": "uint256"
						},
						{
							"internalType": "string",
							"name": "name",
							"type": "string"
						},
						{
							"internalType": "uint256",
							"name": "voteCount",
							"type": "uint256"
						}
					],
					"stateMutability": "view",
					"type": "function"
				},
				{
					"inputs": [],
					"name": "candidatesCount",
					"outputs": [
						{
							"internalType": "uint256",
							"name": "",
							"type": "uint256"
						}
					],
					"stateMutability": "view",
					"type": "function"
				},
				{
					"inputs": [],
					"name": "closeElection",
					"outputs": [],
					"stateMutability": "nonpayable",
					"type": "function"
				},
				{
					"inputs": [],
					"name": "electionOwner",
					"outputs": [
						{
							"internalType": "address",
							"name": "",
							"type": "address"
						}
					],
					"stateMutability": "view",
					"type": "function"
				},
				{
					"inputs": [],
					"name": "isOpened",
					"outputs": [
						{
							"internalType": "uint256",
							"name": "",
							"type": "uint256"
						}
					],
					"stateMutability": "view",
					"type": "function"
				},
				{
					"inputs": [],
					"name": "lastWinningCandidate",
					"outputs": [
						{
							"internalType": "string",
							"name": "",
							"type": "string"
						}
					],
					"stateMutability": "view",
					"type": "function"
				},
				{
					"inputs": [],
					"name": "openElection",
					"outputs": [],
					"stateMutability": "nonpayable",
					"type": "function"
				},
				{
					"inputs": [],
					"name": "pauseElection",
					"outputs": [],
					"stateMutability": "nonpayable",
					"type": "function"
				},
				{
					"inputs": [
						{
							"internalType": "uint256",
							"name": "_candidateId",
							"type": "uint256"
						}
					],
					"name": "vote",
					"outputs": [],
					"stateMutability": "nonpayable",
					"type": "function"
				},
				{
					"inputs": [
						{
							"internalType": "address",
							"name": "",
							"type": "address"
						}
					],
					"name": "voters",
					"outputs": [
						{
							"internalType": "bool",
							"name": "",
							"type": "bool"
						}
					],
					"stateMutability": "view",
					"type": "function"
				},
				{
					"inputs": [],
					"name": "winningCandidate",
					"outputs": [],
					"stateMutability": "nonpayable",
					"type": "function"
				}
			],
			"devdoc": {
				"kind": "dev",
				"methods": {},
				"version": 1
			},
			"evm": {
				"assembly": "    /* \"Development-Codebases/Blockchain/Eth_Smart_Contract_Voting/contracts/Election.sol\":304:3727  contract Election {... */\n  mstore(0x40, 0x80)\n    /* \"Development-Codebases/Blockchain/Eth_Smart_Contract_Voting/contracts/Election.sol\":558:559  0 */\n  0x00\n    /* \"Development-Codebases/Blockchain/Eth_Smart_Contract_Voting/contracts/Election.sol\":535:559  uint public isOpened = 0 */\n  0x01\n  sstore\n    /* \"Development-Codebases/Blockchain/Eth_Smart_Contract_Voting/contracts/Election.sol\":823:877  string public lastWinningCandidate = \"No winners ever\" */\n  mload(0x40)\n  dup1\n  0x40\n  add\n  0x40\n  mstore\n  dup1\n  0x0f\n  dup2\n  mstore\n  0x20\n  add\n  0x4e6f2077696e6e65727320657665720000000000000000000000000000000000\n  dup2\n  mstore\n  pop\n  0x05\n  swap1\n  dup1\n  mload\n  swap1\n  0x20\n  add\n  swap1\n  tag_1\n  swap3\n  swap2\n  swap1\n  tag_2\n  jump\t// in\ntag_1:\n  pop\n    /* \"Development-Codebases/Blockchain/Eth_Smart_Contract_Voting/contracts/Election.sol\":1169:1340  constructor() {... */\n  callvalue\n  dup1\n  iszero\n  tag_3\n  jumpi\n  0x00\n  dup1\n  revert\ntag_3:\n  pop\n    /* \"Development-Codebases/Blockchain/Eth_Smart_Contract_Voting/contracts/Election.sol\":1209:1219  msg.sender */\n  caller\n    /* \"Development-Codebases/Blockchain/Eth_Smart_Contract_Voting/contracts/Election.sol\":1193:1206  electionOwner */\n  0x00\n  dup1\n    /* \"Development-Codebases/Blockchain/Eth_Smart_Contract_Voting/contracts/Election.sol\":1193:1219  electionOwner = msg.sender */\n  0x0100\n  exp\n  dup2\n  sload\n  dup2\n  0xffffffffffffffffffffffffffffffffffffffff\n  mul\n  not\n  and\n  swap1\n  dup4\n  0xffffffffffffffffffffffffffffffffffffffff\n  and\n  mul\n  or\n  swap1\n  sstore\n  pop\n    /* \"Development-Codebases/Blockchain/Eth_Smart_Contract_Voting/contracts/Election.sol\":1229:1257  addCandidate(\"Bitcoin club\") */\n  tag_6\n  mload(0x40)\n  dup1\n  0x40\n  add\n  0x40\n  mstore\n  dup1\n  0x0c\n  dup2\n  mstore\n  0x20\n  add\n  0x426974636f696e20636c75620000000000000000000000000000000000000000\n  dup2\n  mstore\n  pop\n    /* \"Development-Codebases/Blockchain/Eth_Smart_Contract_Voting/contracts/Election.sol\":1229:1241  addCandidate */\n  shl(0x20, tag_7)\n    /* \"Development-Codebases/Blockchain/Eth_Smart_Contract_Voting/contracts/Election.sol\":1229:1257  addCandidate(\"Bitcoin club\") */\n  0x20\n  shr\n  jump\t// in\ntag_6:\n    /* \"Development-Codebases/Blockchain/Eth_Smart_Contract_Voting/contracts/Election.sol\":1267:1296  addCandidate(\"Ethereum club\") */\n  tag_8\n  mload(0x40)\n  dup1\n  0x40\n  add\n  0x40\n  mstore\n  dup1\n  0x0d\n  dup2\n  mstore\n  0x20\n  add\n  0x457468657265756d20636c756200000000000000000000000000000000000000\n  dup2\n  mstore\n  pop\n    /* \"Development-Codebases/Blockchain/Eth_Smart_Contract_Voting/contracts/Election.sol\":1267:1279  addCandidate */\n  shl(0x20, tag_7)\n    /* \"Development-Codebases/Blockchain/Eth_Smart_Contract_Voting/contracts/Election.sol\":1267:1296  addCandidate(\"Ethereum club\") */\n  0x20\n  shr\n  jump\t// in\ntag_8:\n    /* \"Development-Codebases/Blockchain/Eth_Smart_Contract_Voting/contracts/Election.sol\":1306:1333  addCandidate(\"Solana club\") */\n  tag_9\n  mload(0x40)\n  dup1\n  0x40\n  add\n  0x40\n  mstore\n  dup1\n  0x0b\n  dup2\n  mstore\n  0x20\n  add\n  0x536f6c616e6120636c7562000000000000000000000000000000000000000000\n  dup2\n  mstore\n  pop\n    /* \"Development-Codebases/Blockchain/Eth_Smart_Contract_Voting/contracts/Election.sol\":1306:1318  addCandidate */\n  shl(0x20, tag_7)\n    /* \"Development-Codebases/Blockchain/Eth_Smart_Contract_Voting/contracts/Election.sol\":1306:1333  addCandidate(\"Solana club\") */\n  0x20\n  shr\n  jump\t// in\ntag_9:\n    /* \"Development-Codebases/Blockchain/Eth_Smart_Contract_Voting/contracts/Election.sol\":304:3727  contract Election {... */\n  jump(tag_10)\n    /* \"Development-Codebases/Blockchain/Eth_Smart_Contract_Voting/contracts/Election.sol\":1370:1533  function addCandidate (string memory _name) private {... */\ntag_7:\n    /* \"Development-Codebases/Blockchain/Eth_Smart_Contract_Voting/contracts/Election.sol\":1432:1447  candidatesCount */\n  0x04\n  0x00\n    /* \"Development-Codebases/Blockchain/Eth_Smart_Contract_Voting/contracts/Election.sol\":1432:1450  candidatesCount ++ */\n  dup2\n  sload\n  dup1\n  swap3\n  swap2\n  swap1\n  tag_12\n  swap1\n  tag_13\n  jump\t// in\ntag_12:\n  swap2\n  swap1\n  pop\n  sstore\n  pop\n    /* \"Development-Codebases/Blockchain/Eth_Smart_Contract_Voting/contracts/Election.sol\":1490:1526  Candidate(candidatesCount, _name, 0) */\n  mload(0x40)\n  dup1\n  0x60\n  add\n  0x40\n  mstore\n  dup1\n    /* \"Development-Codebases/Blockchain/Eth_Smart_Contract_Voting/contracts/Election.sol\":1500:1515  candidatesCount */\n  sload(0x04)\n    /* \"Development-Codebases/Blockchain/Eth_Smart_Contract_Voting/contracts/Election.sol\":1490:1526  Candidate(candidatesCount, _name, 0) */\n  dup2\n  mstore\n  0x20\n  add\n    /* \"Development-Codebases/Blockchain/Eth_Smart_Contract_Voting/contracts/Election.sol\":1517:1522  _name */\n  dup3\n    /* \"Development-Codebases/Blockchain/Eth_Smart_Contract_Voting/contracts/Election.sol\":1490:1526  Candidate(candidatesCount, _name, 0) */\n  dup2\n  mstore\n  0x20\n  add\n    /* \"Development-Codebases/Blockchain/Eth_Smart_Contract_Voting/contracts/Election.sol\":1524:1525  0 */\n  0x00\n    /* \"Development-Codebases/Blockchain/Eth_Smart_Contract_Voting/contracts/Election.sol\":1490:1526  Candidate(candidatesCount, _name, 0) */\n  dup2\n  mstore\n  pop\n    /* \"Development-Codebases/Blockchain/Eth_Smart_Contract_Voting/contracts/Election.sol\":1460:1470  candidates */\n  0x03\n    /* \"Development-Codebases/Blockchain/Eth_Smart_Contract_Voting/contracts/Election.sol\":1460:1487  candidates[candidatesCount] */\n  0x00\n    /* \"Development-Codebases/Blockchain/Eth_Smart_Contract_Voting/contracts/Election.sol\":1471:1486  candidatesCount */\n  sload(0x04)\n    /* \"Development-Codebases/Blockchain/Eth_Smart_Contract_Voting/contracts/Election.sol\":1460:1487  candidates[candidatesCount] */\n  dup2\n  mstore\n  0x20\n  add\n  swap1\n  dup2\n  mstore\n  0x20\n  add\n  0x00\n  keccak256\n    /* \"Development-Codebases/Blockchain/Eth_Smart_Contract_Voting/contracts/Election.sol\":1460:1526  candidates[candidatesCount] = Candidate(candidatesCount, _name, 0) */\n  0x00\n  dup3\n  add\n  mload\n  dup2\n  0x00\n  add\n  sstore\n  0x20\n  dup3\n  add\n  mload\n  dup2\n  0x01\n  add\n  swap1\n  dup1\n  mload\n  swap1\n  0x20\n  add\n  swap1\n  tag_14\n  swap3\n  swap2\n  swap1\n  tag_2\n  jump\t// in\ntag_14:\n  pop\n  0x40\n  dup3\n  add\n  mload\n  dup2\n  0x02\n  add\n  sstore\n  swap1\n  pop\n  pop\n    /* \"Development-Codebases/Blockchain/Eth_Smart_Contract_Voting/contracts/Election.sol\":1370:1533  function addCandidate (string memory _name) private {... */\n  pop\n  jump\t// out\n    /* \"Development-Codebases/Blockchain/Eth_Smart_Contract_Voting/contracts/Election.sol\":304:3727  contract Election {... */\ntag_2:\n  dup3\n  dup1\n  sload\n  tag_15\n  swap1\n  tag_16\n  jump\t// in\ntag_15:\n  swap1\n  0x00\n  mstore\n  keccak256(0x00, 0x20)\n  swap1\n  0x1f\n  add\n  0x20\n  swap1\n  div\n  dup2\n  add\n  swap3\n  dup3\n  tag_18\n  jumpi\n  0x00\n  dup6\n  sstore\n  jump(tag_17)\ntag_18:\n  dup3\n  0x1f\n  lt\n  tag_19\n  jumpi\n  dup1\n  mload\n  not(0xff)\n  and\n  dup4\n  dup1\n  add\n  or\n  dup6\n  sstore\n  jump(tag_17)\ntag_19:\n  dup3\n  dup1\n  add\n  0x01\n  add\n  dup6\n  sstore\n  dup3\n  iszero\n  tag_17\n  jumpi\n  swap2\n  dup3\n  add\ntag_20:\n  dup3\n  dup2\n  gt\n  iszero\n  tag_21\n  jumpi\n  dup3\n  mload\n  dup3\n  sstore\n  swap2\n  0x20\n  add\n  swap2\n  swap1\n  0x01\n  add\n  swap1\n  jump(tag_20)\ntag_21:\ntag_17:\n  pop\n  swap1\n  pop\n  tag_22\n  swap2\n  swap1\n  tag_23\n  jump\t// in\ntag_22:\n  pop\n  swap1\n  jump\t// out\ntag_23:\ntag_24:\n  dup1\n  dup3\n  gt\n  iszero\n  tag_25\n  jumpi\n  0x00\n  dup2\n  0x00\n  swap1\n  sstore\n  pop\n  0x01\n  add\n  jump(tag_24)\ntag_25:\n  pop\n  swap1\n  jump\t// out\n    /* \"#utility.yul\":7:84   */\ntag_27:\n    /* \"#utility.yul\":44:51   */\n  0x00\n    /* \"#utility.yul\":73:78   */\n  dup2\n    /* \"#utility.yul\":62:78   */\n  swap1\n  pop\n    /* \"#utility.yul\":52:84   */\n  swap2\n  swap1\n  pop\n  jump\t// out\n    /* \"#utility.yul\":90:410   */\ntag_16:\n    /* \"#utility.yul\":134:140   */\n  0x00\n    /* \"#utility.yul\":171:172   */\n  0x02\n    /* \"#utility.yul\":165:169   */\n  dup3\n    /* \"#utility.yul\":161:173   */\n  div\n    /* \"#utility.yul\":151:173   */\n  swap1\n  pop\n    /* \"#utility.yul\":218:219   */\n  0x01\n    /* \"#utility.yul\":212:216   */\n  dup3\n    /* \"#utility.yul\":208:220   */\n  and\n    /* \"#utility.yul\":239:257   */\n  dup1\n    /* \"#utility.yul\":229:231   */\n  tag_30\n  jumpi\n    /* \"#utility.yul\":295:299   */\n  0x7f\n    /* \"#utility.yul\":287:293   */\n  dup3\n    /* \"#utility.yul\":283:300   */\n  and\n    /* \"#utility.yul\":273:300   */\n  swap2\n  pop\n    /* \"#utility.yul\":229:231   */\ntag_30:\n    /* \"#utility.yul\":357:359   */\n  0x20\n    /* \"#utility.yul\":349:355   */\n  dup3\n    /* \"#utility.yul\":346:360   */\n  lt\n    /* \"#utility.yul\":326:344   */\n  dup2\n    /* \"#utility.yul\":323:361   */\n  eq\n    /* \"#utility.yul\":320:322   */\n  iszero\n  tag_31\n  jumpi\n    /* \"#utility.yul\":376:394   */\n  tag_32\n  tag_33\n  jump\t// in\ntag_32:\n    /* \"#utility.yul\":320:322   */\ntag_31:\n    /* \"#utility.yul\":141:410   */\n  pop\n  swap2\n  swap1\n  pop\n  jump\t// out\n    /* \"#utility.yul\":416:649   */\ntag_13:\n    /* \"#utility.yul\":455:458   */\n  0x00\n    /* \"#utility.yul\":478:502   */\n  tag_35\n    /* \"#utility.yul\":496:501   */\n  dup3\n    /* \"#utility.yul\":478:502   */\n  tag_27\n  jump\t// in\ntag_35:\n    /* \"#utility.yul\":469:502   */\n  swap2\n  pop\n    /* \"#utility.yul\":524:590   */\n  0xffffffffffffffffffffffffffffffffffffffffffffffffffffffffffffffff\n    /* \"#utility.yul\":517:522   */\n  dup3\n    /* \"#utility.yul\":514:591   */\n  eq\n    /* \"#utility.yul\":511:513   */\n  iszero\n  tag_36\n  jumpi\n    /* \"#utility.yul\":594:612   */\n  tag_37\n  tag_38\n  jump\t// in\ntag_37:\n    /* \"#utility.yul\":511:513   */\ntag_36:\n    /* \"#utility.yul\":641:642   */\n  0x01\n    /* \"#utility.yul\":634:639   */\n  dup3\n    /* \"#utility.yul\":630:643   */\n  add\n    /* \"#utility.yul\":623:643   */\n  swap1\n  pop\n    /* \"#utility.yul\":459:649   */\n  swap2\n  swap1\n  pop\n  jump\t// out\n    /* \"#utility.yul\":655:835   */\ntag_38:\n    /* \"#utility.yul\":703:780   */\n  0x4e487b7100000000000000000000000000000000000000000000000000000000\n    /* \"#utility.yul\":700:701   */\n  0x00\n    /* \"#utility.yul\":693:781   */\n  mstore\n    /* \"#utility.yul\":800:804   */\n  0x11\n    /* \"#utility.yul\":797:798   */\n  0x04\n    /* \"#utility.yul\":790:805   */\n  mstore\n    /* \"#utility.yul\":824:828   */\n  0x24\n    /* \"#utility.yul\":821:822   */\n  0x00\n    /* \"#utility.yul\":814:829   */\n  revert\n    /* \"#utility.yul\":841:1021   */\ntag_33:\n    /* \"#utility.yul\":889:966   */\n  0x4e487b7100000000000000000000000000000000000000000000000000000000\n    /* \"#utility.yul\":886:887   */\n  0x00\n    /* \"#utility.yul\":879:967   */\n  mstore\n    /* \"#utility.yul\":986:990   */\n  0x22\n    /* \"#utility.yul\":983:984   */\n  0x04\n    /* \"#utility.yul\":976:991   */\n  mstore\n    /* \"#utility.yul\":1010:1014   */\n  0x24\n    /* \"#utility.yul\":1007:1008   */\n  0x00\n    /* \"#utility.yul\":1000:1015   */\n  revert\n    /* \"Development-Codebases/Blockchain/Eth_Smart_Contract_Voting/contracts/Election.sol\":304:3727  contract Election {... */\ntag_10:\n  dataSize(sub_0)\n  dup1\n  dataOffset(sub_0)\n  0x00\n  codecopy\n  0x00\n  return\nstop\n\nsub_0: assembly {\n        /* \"Development-Codebases/Blockchain/Eth_Smart_Contract_Voting/contracts/Election.sol\":304:3727  contract Election {... */\n      mstore(0x40, 0x80)\n      callvalue\n      dup1\n      iszero\n      tag_1\n      jumpi\n      0x00\n      dup1\n      revert\n    tag_1:\n      pop\n      jumpi(tag_2, lt(calldatasize, 0x04))\n      shr(0xe0, calldataload(0x00))\n      dup1\n      0x692aa97e\n      gt\n      tag_14\n      jumpi\n      dup1\n      0x692aa97e\n      eq\n      tag_8\n      jumpi\n      dup1\n      0x6c6c32d0\n      eq\n      tag_9\n      jumpi\n      dup1\n      0xa3ec138d\n      eq\n      tag_10\n      jumpi\n      dup1\n      0xc5d00f5d\n      eq\n      tag_11\n      jumpi\n      dup1\n      0xd28178d7\n      eq\n      tag_12\n      jumpi\n      dup1\n      0xe6eea09b\n      eq\n      tag_13\n      jumpi\n      jump(tag_2)\n    tag_14:\n      dup1\n      0x0121b93f\n      eq\n      tag_3\n      jumpi\n      dup1\n      0x2d35a8a2\n      eq\n      tag_4\n      jumpi\n      dup1\n      0x3477ee2e\n      eq\n      tag_5\n      jumpi\n      dup1\n      0x35cc6f02\n      eq\n      tag_6\n      jumpi\n      dup1\n      0x53357ad0\n      eq\n      tag_7\n      jumpi\n    tag_2:\n      0x00\n      dup1\n      revert\n        /* \"Development-Codebases/Blockchain/Eth_Smart_Contract_Voting/contracts/Election.sol\":2919:3725  function vote (uint _candidateId) public {... */\n    tag_3:\n      tag_15\n      0x04\n      dup1\n      calldatasize\n      sub\n      dup2\n      add\n      swap1\n      tag_16\n      swap2\n      swap1\n      tag_17\n      jump\t// in\n    tag_16:\n      tag_18\n      jump\t// in\n    tag_15:\n      stop\n        /* \"Development-Codebases/Blockchain/Eth_Smart_Contract_Voting/contracts/Election.sol\":750:777  uint public candidatesCount */\n    tag_4:\n      tag_19\n      tag_20\n      jump\t// in\n    tag_19:\n      mload(0x40)\n      tag_21\n      swap2\n      swap1\n      tag_22\n      jump\t// in\n    tag_21:\n      mload(0x40)\n      dup1\n      swap2\n      sub\n      swap1\n      return\n        /* \"Development-Codebases/Blockchain/Eth_Smart_Contract_Voting/contracts/Election.sol\":670:714  mapping(uint => Candidate) public candidates */\n    tag_5:\n      tag_23\n      0x04\n      dup1\n      calldatasize\n      sub\n      dup2\n      add\n      swap1\n      tag_24\n      swap2\n      swap1\n      tag_17\n      jump\t// in\n    tag_24:\n      tag_25\n      jump\t// in\n    tag_23:\n      mload(0x40)\n      tag_26\n      swap4\n      swap3\n      swap2\n      swap1\n      tag_27\n      jump\t// in\n    tag_26:\n      mload(0x40)\n      dup1\n      swap2\n      sub\n      swap1\n      return\n        /* \"Development-Codebases/Blockchain/Eth_Smart_Contract_Voting/contracts/Election.sol\":823:877  string public lastWinningCandidate = \"No winners ever\" */\n    tag_6:\n      tag_28\n      tag_29\n      jump\t// in\n    tag_28:\n      mload(0x40)\n      tag_30\n      swap2\n      swap1\n      tag_31\n      jump\t// in\n    tag_30:\n      mload(0x40)\n      dup1\n      swap2\n      sub\n      swap1\n      return\n        /* \"Development-Codebases/Blockchain/Eth_Smart_Contract_Voting/contracts/Election.sol\":468:496  address public electionOwner */\n    tag_7:\n      tag_32\n      tag_33\n      jump\t// in\n    tag_32:\n      mload(0x40)\n      tag_34\n      swap2\n      swap1\n      tag_35\n      jump\t// in\n    tag_34:\n      mload(0x40)\n      dup1\n      swap2\n      sub\n      swap1\n      return\n        /* \"Development-Codebases/Blockchain/Eth_Smart_Contract_Voting/contracts/Election.sol\":535:559  uint public isOpened = 0 */\n    tag_8:\n      tag_36\n      tag_37\n      jump\t// in\n    tag_36:\n      mload(0x40)\n      tag_38\n      swap2\n      swap1\n      tag_22\n      jump\t// in\n    tag_38:\n      mload(0x40)\n      dup1\n      swap2\n      sub\n      swap1\n      return\n        /* \"Development-Codebases/Blockchain/Eth_Smart_Contract_Voting/contracts/Election.sol\":1998:2289  function closeElection() public{... */\n    tag_9:\n      tag_39\n      tag_40\n      jump\t// in\n    tag_39:\n      stop\n        /* \"Development-Codebases/Blockchain/Eth_Smart_Contract_Voting/contracts/Election.sol\":603:641  mapping(address => bool) public voters */\n    tag_10:\n      tag_41\n      0x04\n      dup1\n      calldatasize\n      sub\n      dup2\n      add\n      swap1\n      tag_42\n      swap2\n      swap1\n      tag_43\n      jump\t// in\n    tag_42:\n      tag_44\n      jump\t// in\n    tag_41:\n      mload(0x40)\n      tag_45\n      swap2\n      swap1\n      tag_46\n      jump\t// in\n    tag_45:\n      mload(0x40)\n      dup1\n      swap2\n      sub\n      swap1\n      return\n        /* \"Development-Codebases/Blockchain/Eth_Smart_Contract_Voting/contracts/Election.sol\":1539:1762  function openElection() public{... */\n    tag_11:\n      tag_47\n      tag_48\n      jump\t// in\n    tag_47:\n      stop\n        /* \"Development-Codebases/Blockchain/Eth_Smart_Contract_Voting/contracts/Election.sol\":2295:2913  function winningCandidate() public{... */\n    tag_12:\n      tag_49\n      tag_50\n      jump\t// in\n    tag_49:\n      stop\n        /* \"Development-Codebases/Blockchain/Eth_Smart_Contract_Voting/contracts/Election.sol\":1768:1992  function pauseElection() public{... */\n    tag_13:\n      tag_51\n      tag_52\n      jump\t// in\n    tag_51:\n      stop\n        /* \"Development-Codebases/Blockchain/Eth_Smart_Contract_Voting/contracts/Election.sol\":2919:3725  function vote (uint _candidateId) public {... */\n    tag_18:\n        /* \"Development-Codebases/Blockchain/Eth_Smart_Contract_Voting/contracts/Election.sol\":3037:3038  2 */\n      0x02\n        /* \"Development-Codebases/Blockchain/Eth_Smart_Contract_Voting/contracts/Election.sol\":3025:3033  isOpened */\n      sload(0x01)\n        /* \"Development-Codebases/Blockchain/Eth_Smart_Contract_Voting/contracts/Election.sol\":3025:3038  isOpened == 2 */\n      eq\n        /* \"Development-Codebases/Blockchain/Eth_Smart_Contract_Voting/contracts/Election.sol\":3017:3069  require(isOpened == 2, \"The election is not opened\") */\n      tag_54\n      jumpi\n      mload(0x40)\n      0x08c379a000000000000000000000000000000000000000000000000000000000\n      dup2\n      mstore\n      0x04\n      add\n      tag_55\n      swap1\n      tag_56\n      jump\t// in\n    tag_55:\n      mload(0x40)\n      dup1\n      swap2\n      sub\n      swap1\n      revert\n    tag_54:\n        /* \"Development-Codebases/Blockchain/Eth_Smart_Contract_Voting/contracts/Election.sol\":3149:3162  electionOwner */\n      0x00\n      dup1\n      sload\n      swap1\n      0x0100\n      exp\n      swap1\n      div\n      0xffffffffffffffffffffffffffffffffffffffff\n      and\n        /* \"Development-Codebases/Blockchain/Eth_Smart_Contract_Voting/contracts/Election.sol\":3135:3162  msg.sender != electionOwner */\n      0xffffffffffffffffffffffffffffffffffffffff\n      and\n        /* \"Development-Codebases/Blockchain/Eth_Smart_Contract_Voting/contracts/Election.sol\":3135:3145  msg.sender */\n      caller\n        /* \"Development-Codebases/Blockchain/Eth_Smart_Contract_Voting/contracts/Election.sol\":3135:3162  msg.sender != electionOwner */\n      0xffffffffffffffffffffffffffffffffffffffff\n      and\n      eq\n      iszero\n        /* \"Development-Codebases/Blockchain/Eth_Smart_Contract_Voting/contracts/Election.sol\":3127:3208  require(msg.sender != electionOwner, \"The election owner is not allowed to vote\") */\n      tag_57\n      jumpi\n      mload(0x40)\n      0x08c379a000000000000000000000000000000000000000000000000000000000\n      dup2\n      mstore\n      0x04\n      add\n      tag_58\n      swap1\n      tag_59\n      jump\t// in\n    tag_58:\n      mload(0x40)\n      dup1\n      swap2\n      sub\n      swap1\n      revert\n    tag_57:\n        /* \"Development-Codebases/Blockchain/Eth_Smart_Contract_Voting/contracts/Election.sol\":3278:3284  voters */\n      0x02\n        /* \"Development-Codebases/Blockchain/Eth_Smart_Contract_Voting/contracts/Election.sol\":3278:3296  voters[msg.sender] */\n      0x00\n        /* \"Development-Codebases/Blockchain/Eth_Smart_Contract_Voting/contracts/Election.sol\":3285:3295  msg.sender */\n      caller\n        /* \"Development-Codebases/Blockchain/Eth_Smart_Contract_Voting/contracts/Election.sol\":3278:3296  voters[msg.sender] */\n      0xffffffffffffffffffffffffffffffffffffffff\n      and\n      0xffffffffffffffffffffffffffffffffffffffff\n      and\n      dup2\n      mstore\n      0x20\n      add\n      swap1\n      dup2\n      mstore\n      0x20\n      add\n      0x00\n      keccak256\n      0x00\n      swap1\n      sload\n      swap1\n      0x0100\n      exp\n      swap1\n      div\n      0xff\n      and\n        /* \"Development-Codebases/Blockchain/Eth_Smart_Contract_Voting/contracts/Election.sol\":3277:3296  !voters[msg.sender] */\n      iszero\n        /* \"Development-Codebases/Blockchain/Eth_Smart_Contract_Voting/contracts/Election.sol\":3269:3336  require(!voters[msg.sender], \"This address has already voted once\") */\n      tag_60\n      jumpi\n      mload(0x40)\n      0x08c379a000000000000000000000000000000000000000000000000000000000\n      dup2\n      mstore\n      0x04\n      add\n      tag_61\n      swap1\n      tag_62\n      jump\t// in\n    tag_61:\n      mload(0x40)\n      dup1\n      swap2\n      sub\n      swap1\n      revert\n    tag_60:\n        /* \"Development-Codebases/Blockchain/Eth_Smart_Contract_Voting/contracts/Election.sol\":3407:3408  0 */\n      0x00\n        /* \"Development-Codebases/Blockchain/Eth_Smart_Contract_Voting/contracts/Election.sol\":3392:3404  _candidateId */\n      dup2\n        /* \"Development-Codebases/Blockchain/Eth_Smart_Contract_Voting/contracts/Election.sol\":3392:3408  _candidateId > 0 */\n      gt\n        /* \"Development-Codebases/Blockchain/Eth_Smart_Contract_Voting/contracts/Election.sol\":3392:3443  _candidateId > 0 && _candidateId <= candidatesCount */\n      dup1\n      iszero\n      tag_63\n      jumpi\n      pop\n        /* \"Development-Codebases/Blockchain/Eth_Smart_Contract_Voting/contracts/Election.sol\":3428:3443  candidatesCount */\n      sload(0x04)\n        /* \"Development-Codebases/Blockchain/Eth_Smart_Contract_Voting/contracts/Election.sol\":3412:3424  _candidateId */\n      dup2\n        /* \"Development-Codebases/Blockchain/Eth_Smart_Contract_Voting/contracts/Election.sol\":3412:3443  _candidateId <= candidatesCount */\n      gt\n      iszero\n        /* \"Development-Codebases/Blockchain/Eth_Smart_Contract_Voting/contracts/Election.sol\":3392:3443  _candidateId > 0 && _candidateId <= candidatesCount */\n    tag_63:\n        /* \"Development-Codebases/Blockchain/Eth_Smart_Contract_Voting/contracts/Election.sol\":3384:3485  require(_candidateId > 0 && _candidateId <= candidatesCount, \"The selected candidate does not exist\") */\n      tag_64\n      jumpi\n      mload(0x40)\n      0x08c379a000000000000000000000000000000000000000000000000000000000\n      dup2\n      mstore\n      0x04\n      add\n      tag_65\n      swap1\n      tag_66\n      jump\t// in\n    tag_65:\n      mload(0x40)\n      dup1\n      swap2\n      sub\n      swap1\n      revert\n    tag_64:\n        /* \"Development-Codebases/Blockchain/Eth_Smart_Contract_Voting/contracts/Election.sol\":3556:3560  true */\n      0x01\n        /* \"Development-Codebases/Blockchain/Eth_Smart_Contract_Voting/contracts/Election.sol\":3535:3541  voters */\n      0x02\n        /* \"Development-Codebases/Blockchain/Eth_Smart_Contract_Voting/contracts/Election.sol\":3535:3553  voters[msg.sender] */\n      0x00\n        /* \"Development-Codebases/Blockchain/Eth_Smart_Contract_Voting/contracts/Election.sol\":3542:3552  msg.sender */\n      caller\n        /* \"Development-Codebases/Blockchain/Eth_Smart_Contract_Voting/contracts/Election.sol\":3535:3553  voters[msg.sender] */\n      0xffffffffffffffffffffffffffffffffffffffff\n      and\n      0xffffffffffffffffffffffffffffffffffffffff\n      and\n      dup2\n      mstore\n      0x20\n      add\n      swap1\n      dup2\n      mstore\n      0x20\n      add\n      0x00\n      keccak256\n      0x00\n        /* \"Development-Codebases/Blockchain/Eth_Smart_Contract_Voting/contracts/Election.sol\":3535:3560  voters[msg.sender] = true */\n      0x0100\n      exp\n      dup2\n      sload\n      dup2\n      0xff\n      mul\n      not\n      and\n      swap1\n      dup4\n      iszero\n      iszero\n      mul\n      or\n      swap1\n      sstore\n      pop\n        /* \"Development-Codebases/Blockchain/Eth_Smart_Contract_Voting/contracts/Election.sol\":3610:3620  candidates */\n      0x03\n        /* \"Development-Codebases/Blockchain/Eth_Smart_Contract_Voting/contracts/Election.sol\":3610:3634  candidates[_candidateId] */\n      0x00\n        /* \"Development-Codebases/Blockchain/Eth_Smart_Contract_Voting/contracts/Election.sol\":3621:3633  _candidateId */\n      dup3\n        /* \"Development-Codebases/Blockchain/Eth_Smart_Contract_Voting/contracts/Election.sol\":3610:3634  candidates[_candidateId] */\n      dup2\n      mstore\n      0x20\n      add\n      swap1\n      dup2\n      mstore\n      0x20\n      add\n      0x00\n      keccak256\n        /* \"Development-Codebases/Blockchain/Eth_Smart_Contract_Voting/contracts/Election.sol\":3610:3644  candidates[_candidateId].voteCount */\n      0x02\n      add\n      0x00\n        /* \"Development-Codebases/Blockchain/Eth_Smart_Contract_Voting/contracts/Election.sol\":3610:3647  candidates[_candidateId].voteCount ++ */\n      dup2\n      sload\n      dup1\n      swap3\n      swap2\n      swap1\n      tag_67\n      swap1\n      tag_68\n      jump\t// in\n    tag_67:\n      swap2\n      swap1\n      pop\n      sstore\n      pop\n        /* \"Development-Codebases/Blockchain/Eth_Smart_Contract_Voting/contracts/Election.sol\":3705:3717  _candidateId */\n      dup1\n        /* \"Development-Codebases/Blockchain/Eth_Smart_Contract_Voting/contracts/Election.sol\":3694:3718  VotedEvent(_candidateId) */\n      0xe447c5464cb203c1da94b4db8588d3cbf313ce4a489122f6b88e87f465b2810e\n      mload(0x40)\n      mload(0x40)\n      dup1\n      swap2\n      sub\n      swap1\n      log2\n        /* \"Development-Codebases/Blockchain/Eth_Smart_Contract_Voting/contracts/Election.sol\":2919:3725  function vote (uint _candidateId) public {... */\n      pop\n      jump\t// out\n        /* \"Development-Codebases/Blockchain/Eth_Smart_Contract_Voting/contracts/Election.sol\":750:777  uint public candidatesCount */\n    tag_20:\n      sload(0x04)\n      dup2\n      jump\t// out\n        /* \"Development-Codebases/Blockchain/Eth_Smart_Contract_Voting/contracts/Election.sol\":670:714  mapping(uint => Candidate) public candidates */\n    tag_25:\n      mstore(0x20, 0x03)\n      dup1\n      0x00\n      mstore\n      keccak256(0x00, 0x40)\n      0x00\n      swap2\n      pop\n      swap1\n      pop\n      dup1\n      0x00\n      add\n      sload\n      swap1\n      dup1\n      0x01\n      add\n      dup1\n      sload\n      tag_69\n      swap1\n      tag_70\n      jump\t// in\n    tag_69:\n      dup1\n      0x1f\n      add\n      0x20\n      dup1\n      swap2\n      div\n      mul\n      0x20\n      add\n      mload(0x40)\n      swap1\n      dup2\n      add\n      0x40\n      mstore\n      dup1\n      swap3\n      swap2\n      swap1\n      dup2\n      dup2\n      mstore\n      0x20\n      add\n      dup3\n      dup1\n      sload\n      tag_71\n      swap1\n      tag_70\n      jump\t// in\n    tag_71:\n      dup1\n      iszero\n      tag_72\n      jumpi\n      dup1\n      0x1f\n      lt\n      tag_73\n      jumpi\n      0x0100\n      dup1\n      dup4\n      sload\n      div\n      mul\n      dup4\n      mstore\n      swap2\n      0x20\n      add\n      swap2\n      jump(tag_72)\n    tag_73:\n      dup3\n      add\n      swap2\n      swap1\n      0x00\n      mstore\n      keccak256(0x00, 0x20)\n      swap1\n    tag_74:\n      dup2\n      sload\n      dup2\n      mstore\n      swap1\n      0x01\n      add\n      swap1\n      0x20\n      add\n      dup1\n      dup4\n      gt\n      tag_74\n      jumpi\n      dup3\n      swap1\n      sub\n      0x1f\n      and\n      dup3\n      add\n      swap2\n    tag_72:\n      pop\n      pop\n      pop\n      pop\n      pop\n      swap1\n      dup1\n      0x02\n      add\n      sload\n      swap1\n      pop\n      dup4\n      jump\t// out\n        /* \"Development-Codebases/Blockchain/Eth_Smart_Contract_Voting/contracts/Election.sol\":823:877  string public lastWinningCandidate = \"No winners ever\" */\n    tag_29:\n      0x05\n      dup1\n      sload\n      tag_75\n      swap1\n      tag_70\n      jump\t// in\n    tag_75:\n      dup1\n      0x1f\n      add\n      0x20\n      dup1\n      swap2\n      div\n      mul\n      0x20\n      add\n      mload(0x40)\n      swap1\n      dup2\n      add\n      0x40\n      mstore\n      dup1\n      swap3\n      swap2\n      swap1\n      dup2\n      dup2\n      mstore\n      0x20\n      add\n      dup3\n      dup1\n      sload\n      tag_76\n      swap1\n      tag_70\n      jump\t// in\n    tag_76:\n      dup1\n      iszero\n      tag_77\n      jumpi\n      dup1\n      0x1f\n      lt\n      tag_78\n      jumpi\n      0x0100\n      dup1\n      dup4\n      sload\n      div\n      mul\n      dup4\n      mstore\n      swap2\n      0x20\n      add\n      swap2\n      jump(tag_77)\n    tag_78:\n      dup3\n      add\n      swap2\n      swap1\n      0x00\n      mstore\n      keccak256(0x00, 0x20)\n      swap1\n    tag_79:\n      dup2\n      sload\n      dup2\n      mstore\n      swap1\n      0x01\n      add\n      swap1\n      0x20\n      add\n      dup1\n      dup4\n      gt\n      tag_79\n      jumpi\n      dup3\n      swap1\n      sub\n      0x1f\n      and\n      dup3\n      add\n      swap2\n    tag_77:\n      pop\n      pop\n      pop\n      pop\n      pop\n      dup2\n      jump\t// out\n        /* \"Development-Codebases/Blockchain/Eth_Smart_Contract_Voting/contracts/Election.sol\":468:496  address public electionOwner */\n    tag_33:\n      0x00\n      dup1\n      sload\n      swap1\n      0x0100\n      exp\n      swap1\n      div\n      0xffffffffffffffffffffffffffffffffffffffff\n      and\n      dup2\n      jump\t// out\n        /* \"Development-Codebases/Blockchain/Eth_Smart_Contract_Voting/contracts/Election.sol\":535:559  uint public isOpened = 0 */\n    tag_37:\n      sload(0x01)\n      dup2\n      jump\t// out\n        /* \"Development-Codebases/Blockchain/Eth_Smart_Contract_Voting/contracts/Election.sol\":1998:2289  function closeElection() public{... */\n    tag_40:\n        /* \"Development-Codebases/Blockchain/Eth_Smart_Contract_Voting/contracts/Election.sol\":2138:2148  msg.sender */\n      caller\n        /* \"Development-Codebases/Blockchain/Eth_Smart_Contract_Voting/contracts/Election.sol\":2121:2148  electionOwner == msg.sender */\n      0xffffffffffffffffffffffffffffffffffffffff\n      and\n        /* \"Development-Codebases/Blockchain/Eth_Smart_Contract_Voting/contracts/Election.sol\":2121:2134  electionOwner */\n      0x00\n      dup1\n      sload\n      swap1\n      0x0100\n      exp\n      swap1\n      div\n      0xffffffffffffffffffffffffffffffffffffffff\n      and\n        /* \"Development-Codebases/Blockchain/Eth_Smart_Contract_Voting/contracts/Election.sol\":2121:2148  electionOwner == msg.sender */\n      0xffffffffffffffffffffffffffffffffffffffff\n      and\n      eq\n        /* \"Development-Codebases/Blockchain/Eth_Smart_Contract_Voting/contracts/Election.sol\":2113:2149  require(electionOwner == msg.sender) */\n      tag_81\n      jumpi\n      0x00\n      dup1\n      revert\n    tag_81:\n        /* \"Development-Codebases/Blockchain/Eth_Smart_Contract_Voting/contracts/Election.sol\":2171:2172  0 */\n      0x00\n        /* \"Development-Codebases/Blockchain/Eth_Smart_Contract_Voting/contracts/Election.sol\":2160:2168  isOpened */\n      0x01\n        /* \"Development-Codebases/Blockchain/Eth_Smart_Contract_Voting/contracts/Election.sol\":2160:2172  isOpened = 0 */\n      dup2\n      swap1\n      sstore\n      pop\n        /* \"Development-Codebases/Blockchain/Eth_Smart_Contract_Voting/contracts/Election.sol\":2188:2215  ChangedEventState(\"Closed\") */\n      0xd7ace8df86fe447dcb1863c10e02577466cffc25cec49790f8b1e5d31cd9cd56\n      mload(0x40)\n      tag_82\n      swap1\n      tag_83\n      jump\t// in\n    tag_82:\n      mload(0x40)\n      dup1\n      swap2\n      sub\n      swap1\n      log1\n        /* \"Development-Codebases/Blockchain/Eth_Smart_Contract_Voting/contracts/Election.sol\":2264:2282  winningCandidate() */\n      tag_84\n        /* \"Development-Codebases/Blockchain/Eth_Smart_Contract_Voting/contracts/Election.sol\":2264:2280  winningCandidate */\n      tag_50\n        /* \"Development-Codebases/Blockchain/Eth_Smart_Contract_Voting/contracts/Election.sol\":2264:2282  winningCandidate() */\n      jump\t// in\n    tag_84:\n        /* \"Development-Codebases/Blockchain/Eth_Smart_Contract_Voting/contracts/Election.sol\":1998:2289  function closeElection() public{... */\n      jump\t// out\n        /* \"Development-Codebases/Blockchain/Eth_Smart_Contract_Voting/contracts/Election.sol\":603:641  mapping(address => bool) public voters */\n    tag_44:\n      mstore(0x20, 0x02)\n      dup1\n      0x00\n      mstore\n      keccak256(0x00, 0x40)\n      0x00\n      swap2\n      pop\n      sload\n      swap1\n      0x0100\n      exp\n      swap1\n      div\n      0xff\n      and\n      dup2\n      jump\t// out\n        /* \"Development-Codebases/Blockchain/Eth_Smart_Contract_Voting/contracts/Election.sol\":1539:1762  function openElection() public{... */\n    tag_48:\n        /* \"Development-Codebases/Blockchain/Eth_Smart_Contract_Voting/contracts/Election.sol\":1678:1688  msg.sender */\n      caller\n        /* \"Development-Codebases/Blockchain/Eth_Smart_Contract_Voting/contracts/Election.sol\":1661:1688  electionOwner == msg.sender */\n      0xffffffffffffffffffffffffffffffffffffffff\n      and\n        /* \"Development-Codebases/Blockchain/Eth_Smart_Contract_Voting/contracts/Election.sol\":1661:1674  electionOwner */\n      0x00\n      dup1\n      sload\n      swap1\n      0x0100\n      exp\n      swap1\n      div\n      0xffffffffffffffffffffffffffffffffffffffff\n      and\n        /* \"Development-Codebases/Blockchain/Eth_Smart_Contract_Voting/contracts/Election.sol\":1661:1688  electionOwner == msg.sender */\n      0xffffffffffffffffffffffffffffffffffffffff\n      and\n      eq\n        /* \"Development-Codebases/Blockchain/Eth_Smart_Contract_Voting/contracts/Election.sol\":1653:1689  require(electionOwner == msg.sender) */\n      tag_86\n      jumpi\n      0x00\n      dup1\n      revert\n    tag_86:\n        /* \"Development-Codebases/Blockchain/Eth_Smart_Contract_Voting/contracts/Election.sol\":1711:1712  2 */\n      0x02\n        /* \"Development-Codebases/Blockchain/Eth_Smart_Contract_Voting/contracts/Election.sol\":1700:1708  isOpened */\n      0x01\n        /* \"Development-Codebases/Blockchain/Eth_Smart_Contract_Voting/contracts/Election.sol\":1700:1712  isOpened = 2 */\n      dup2\n      swap1\n      sstore\n      pop\n        /* \"Development-Codebases/Blockchain/Eth_Smart_Contract_Voting/contracts/Election.sol\":1728:1755  ChangedEventState(\"Opened\") */\n      0xd7ace8df86fe447dcb1863c10e02577466cffc25cec49790f8b1e5d31cd9cd56\n      mload(0x40)\n      tag_87\n      swap1\n      tag_88\n      jump\t// in\n    tag_87:\n      mload(0x40)\n      dup1\n      swap2\n      sub\n      swap1\n      log1\n        /* \"Development-Codebases/Blockchain/Eth_Smart_Contract_Voting/contracts/Election.sol\":1539:1762  function openElection() public{... */\n      jump\t// out\n        /* \"Development-Codebases/Blockchain/Eth_Smart_Contract_Voting/contracts/Election.sol\":2295:2913  function winningCandidate() public{... */\n    tag_50:\n        /* \"Development-Codebases/Blockchain/Eth_Smart_Contract_Voting/contracts/Election.sol\":2339:2370  string memory _winningCandidate */\n      0x00\n        /* \"Development-Codebases/Blockchain/Eth_Smart_Contract_Voting/contracts/Election.sol\":2339:2375  string memory _winningCandidate = \"\" */\n      mload(0x40)\n      dup1\n      0x20\n      add\n      0x40\n      mstore\n      dup1\n      0x00\n      dup2\n      mstore\n      pop\n      swap1\n      pop\n        /* \"Development-Codebases/Blockchain/Eth_Smart_Contract_Voting/contracts/Election.sol\":2385:2406  uint winningVoteCount */\n      0x00\n        /* \"Development-Codebases/Blockchain/Eth_Smart_Contract_Voting/contracts/Election.sol\":2425:2439  uint candidate */\n      dup1\n        /* \"Development-Codebases/Blockchain/Eth_Smart_Contract_Voting/contracts/Election.sol\":2420:2711  for (uint candidate = 0; candidate < candidatesCount; candidate++){... */\n    tag_90:\n        /* \"Development-Codebases/Blockchain/Eth_Smart_Contract_Voting/contracts/Election.sol\":2457:2472  candidatesCount */\n      sload(0x04)\n        /* \"Development-Codebases/Blockchain/Eth_Smart_Contract_Voting/contracts/Election.sol\":2445:2454  candidate */\n      dup2\n        /* \"Development-Codebases/Blockchain/Eth_Smart_Contract_Voting/contracts/Election.sol\":2445:2472  candidate < candidatesCount */\n      lt\n        /* \"Development-Codebases/Blockchain/Eth_Smart_Contract_Voting/contracts/Election.sol\":2420:2711  for (uint candidate = 0; candidate < candidatesCount; candidate++){... */\n      iszero\n      tag_91\n      jumpi\n        /* \"Development-Codebases/Blockchain/Eth_Smart_Contract_Voting/contracts/Election.sol\":2537:2553  winningVoteCount */\n      dup2\n        /* \"Development-Codebases/Blockchain/Eth_Smart_Contract_Voting/contracts/Election.sol\":2503:2513  candidates */\n      0x03\n        /* \"Development-Codebases/Blockchain/Eth_Smart_Contract_Voting/contracts/Election.sol\":2503:2524  candidates[candidate] */\n      0x00\n        /* \"Development-Codebases/Blockchain/Eth_Smart_Contract_Voting/contracts/Election.sol\":2514:2523  candidate */\n      dup4\n        /* \"Development-Codebases/Blockchain/Eth_Smart_Contract_Voting/contracts/Election.sol\":2503:2524  candidates[candidate] */\n      dup2\n      mstore\n      0x20\n      add\n      swap1\n      dup2\n      mstore\n      0x20\n      add\n      0x00\n      keccak256\n        /* \"Development-Codebases/Blockchain/Eth_Smart_Contract_Voting/contracts/Election.sol\":2503:2534  candidates[candidate].voteCount */\n      0x02\n      add\n      sload\n        /* \"Development-Codebases/Blockchain/Eth_Smart_Contract_Voting/contracts/Election.sol\":2503:2553  candidates[candidate].voteCount > winningVoteCount */\n      gt\n        /* \"Development-Codebases/Blockchain/Eth_Smart_Contract_Voting/contracts/Election.sol\":2500:2701  if(candidates[candidate].voteCount > winningVoteCount){... */\n      iszero\n      tag_93\n      jumpi\n        /* \"Development-Codebases/Blockchain/Eth_Smart_Contract_Voting/contracts/Election.sol\":2591:2601  candidates */\n      0x03\n        /* \"Development-Codebases/Blockchain/Eth_Smart_Contract_Voting/contracts/Election.sol\":2591:2612  candidates[candidate] */\n      0x00\n        /* \"Development-Codebases/Blockchain/Eth_Smart_Contract_Voting/contracts/Election.sol\":2602:2611  candidate */\n      dup3\n        /* \"Development-Codebases/Blockchain/Eth_Smart_Contract_Voting/contracts/Election.sol\":2591:2612  candidates[candidate] */\n      dup2\n      mstore\n      0x20\n      add\n      swap1\n      dup2\n      mstore\n      0x20\n      add\n      0x00\n      keccak256\n        /* \"Development-Codebases/Blockchain/Eth_Smart_Contract_Voting/contracts/Election.sol\":2591:2622  candidates[candidate].voteCount */\n      0x02\n      add\n      sload\n        /* \"Development-Codebases/Blockchain/Eth_Smart_Contract_Voting/contracts/Election.sol\":2572:2622  winningVoteCount = candidates[candidate].voteCount */\n      swap2\n      pop\n        /* \"Development-Codebases/Blockchain/Eth_Smart_Contract_Voting/contracts/Election.sol\":2660:2670  candidates */\n      0x03\n        /* \"Development-Codebases/Blockchain/Eth_Smart_Contract_Voting/contracts/Election.sol\":2660:2681  candidates[candidate] */\n      0x00\n        /* \"Development-Codebases/Blockchain/Eth_Smart_Contract_Voting/contracts/Election.sol\":2671:2680  candidate */\n      dup3\n        /* \"Development-Codebases/Blockchain/Eth_Smart_Contract_Voting/contracts/Election.sol\":2660:2681  candidates[candidate] */\n      dup2\n      mstore\n      0x20\n      add\n      swap1\n      dup2\n      mstore\n      0x20\n      add\n      0x00\n      keccak256\n        /* \"Development-Codebases/Blockchain/Eth_Smart_Contract_Voting/contracts/Election.sol\":2660:2686  candidates[candidate].name */\n      0x01\n      add\n        /* \"Development-Codebases/Blockchain/Eth_Smart_Contract_Voting/contracts/Election.sol\":2640:2686  _winningCandidate = candidates[candidate].name */\n      dup1\n      sload\n      tag_94\n      swap1\n      tag_70\n      jump\t// in\n    tag_94:\n      dup1\n      0x1f\n      add\n      0x20\n      dup1\n      swap2\n      div\n      mul\n      0x20\n      add\n      mload(0x40)\n      swap1\n      dup2\n      add\n      0x40\n      mstore\n      dup1\n      swap3\n      swap2\n      swap1\n      dup2\n      dup2\n      mstore\n      0x20\n      add\n      dup3\n      dup1\n      sload\n      tag_95\n      swap1\n      tag_70\n      jump\t// in\n    tag_95:\n      dup1\n      iszero\n      tag_96\n      jumpi\n      dup1\n      0x1f\n      lt\n      tag_97\n      jumpi\n      0x0100\n      dup1\n      dup4\n      sload\n      div\n      mul\n      dup4\n      mstore\n      swap2\n      0x20\n      add\n      swap2\n      jump(tag_96)\n    tag_97:\n      dup3\n      add\n      swap2\n      swap1\n      0x00\n      mstore\n      keccak256(0x00, 0x20)\n      swap1\n    tag_98:\n      dup2\n      sload\n      dup2\n      mstore\n      swap1\n      0x01\n      add\n      swap1\n      0x20\n      add\n      dup1\n      dup4\n      gt\n      tag_98\n      jumpi\n      dup3\n      swap1\n      sub\n      0x1f\n      and\n      dup3\n      add\n      swap2\n    tag_96:\n      pop\n      pop\n      pop\n      pop\n      pop\n      swap3\n      pop\n        /* \"Development-Codebases/Blockchain/Eth_Smart_Contract_Voting/contracts/Election.sol\":2500:2701  if(candidates[candidate].voteCount > winningVoteCount){... */\n    tag_93:\n        /* \"Development-Codebases/Blockchain/Eth_Smart_Contract_Voting/contracts/Election.sol\":2474:2485  candidate++ */\n      dup1\n      dup1\n      tag_99\n      swap1\n      tag_68\n      jump\t// in\n    tag_99:\n      swap2\n      pop\n      pop\n        /* \"Development-Codebases/Blockchain/Eth_Smart_Contract_Voting/contracts/Election.sol\":2420:2711  for (uint candidate = 0; candidate < candidatesCount; candidate++){... */\n      jump(tag_90)\n    tag_91:\n      pop\n        /* \"Development-Codebases/Blockchain/Eth_Smart_Contract_Voting/contracts/Election.sol\":2744:2745  0 */\n      0x00\n        /* \"Development-Codebases/Blockchain/Eth_Smart_Contract_Voting/contracts/Election.sol\":2724:2740  winningVoteCount */\n      dup2\n        /* \"Development-Codebases/Blockchain/Eth_Smart_Contract_Voting/contracts/Election.sol\":2724:2745  winningVoteCount == 0 */\n      eq\n        /* \"Development-Codebases/Blockchain/Eth_Smart_Contract_Voting/contracts/Election.sol\":2721:2809  if(winningVoteCount == 0){... */\n      iszero\n      tag_100\n      jumpi\n        /* \"Development-Codebases/Blockchain/Eth_Smart_Contract_Voting/contracts/Election.sol\":2760:2798  _winningCandidate = \"No candidate won\" */\n      mload(0x40)\n      dup1\n      0x40\n      add\n      0x40\n      mstore\n      dup1\n      0x10\n      dup2\n      mstore\n      0x20\n      add\n      0x4e6f2063616e64696461746520776f6e00000000000000000000000000000000\n      dup2\n      mstore\n      pop\n      swap2\n      pop\n        /* \"Development-Codebases/Blockchain/Eth_Smart_Contract_Voting/contracts/Election.sol\":2721:2809  if(winningVoteCount == 0){... */\n    tag_100:\n        /* \"Development-Codebases/Blockchain/Eth_Smart_Contract_Voting/contracts/Election.sol\":2842:2859  _winningCandidate */\n      dup2\n        /* \"Development-Codebases/Blockchain/Eth_Smart_Contract_Voting/contracts/Election.sol\":2819:2839  lastWinningCandidate */\n      0x05\n        /* \"Development-Codebases/Blockchain/Eth_Smart_Contract_Voting/contracts/Election.sol\":2819:2859  lastWinningCandidate = _winningCandidate */\n      swap1\n      dup1\n      mload\n      swap1\n      0x20\n      add\n      swap1\n      tag_101\n      swap3\n      swap2\n      swap1\n      tag_102\n      jump\t// in\n    tag_101:\n      pop\n        /* \"Development-Codebases/Blockchain/Eth_Smart_Contract_Voting/contracts/Election.sol\":2874:2906  WinnerPrinted(_winningCandidate) */\n      0xae2b5fbf864d50a79d0fe2892e3ba1514ce30506f20c27ce4154f6c84719fa31\n        /* \"Development-Codebases/Blockchain/Eth_Smart_Contract_Voting/contracts/Election.sol\":2888:2905  _winningCandidate */\n      dup3\n        /* \"Development-Codebases/Blockchain/Eth_Smart_Contract_Voting/contracts/Election.sol\":2874:2906  WinnerPrinted(_winningCandidate) */\n      mload(0x40)\n      tag_103\n      swap2\n      swap1\n      tag_31\n      jump\t// in\n    tag_103:\n      mload(0x40)\n      dup1\n      swap2\n      sub\n      swap1\n      log1\n        /* \"Development-Codebases/Blockchain/Eth_Smart_Contract_Voting/contracts/Election.sol\":2329:2913  {... */\n      pop\n      pop\n        /* \"Development-Codebases/Blockchain/Eth_Smart_Contract_Voting/contracts/Election.sol\":2295:2913  function winningCandidate() public{... */\n      jump\t// out\n        /* \"Development-Codebases/Blockchain/Eth_Smart_Contract_Voting/contracts/Election.sol\":1768:1992  function pauseElection() public{... */\n    tag_52:\n        /* \"Development-Codebases/Blockchain/Eth_Smart_Contract_Voting/contracts/Election.sol\":1908:1918  msg.sender */\n      caller\n        /* \"Development-Codebases/Blockchain/Eth_Smart_Contract_Voting/contracts/Election.sol\":1891:1918  electionOwner == msg.sender */\n      0xffffffffffffffffffffffffffffffffffffffff\n      and\n        /* \"Development-Codebases/Blockchain/Eth_Smart_Contract_Voting/contracts/Election.sol\":1891:1904  electionOwner */\n      0x00\n      dup1\n      sload\n      swap1\n      0x0100\n      exp\n      swap1\n      div\n      0xffffffffffffffffffffffffffffffffffffffff\n      and\n        /* \"Development-Codebases/Blockchain/Eth_Smart_Contract_Voting/contracts/Election.sol\":1891:1918  electionOwner == msg.sender */\n      0xffffffffffffffffffffffffffffffffffffffff\n      and\n      eq\n        /* \"Development-Codebases/Blockchain/Eth_Smart_Contract_Voting/contracts/Election.sol\":1883:1919  require(electionOwner == msg.sender) */\n      tag_105\n      jumpi\n      0x00\n      dup1\n      revert\n    tag_105:\n        /* \"Development-Codebases/Blockchain/Eth_Smart_Contract_Voting/contracts/Election.sol\":1941:1942  1 */\n      0x01\n        /* \"Development-Codebases/Blockchain/Eth_Smart_Contract_Voting/contracts/Election.sol\":1930:1938  isOpened */\n      dup1\n        /* \"Development-Codebases/Blockchain/Eth_Smart_Contract_Voting/contracts/Election.sol\":1930:1942  isOpened = 1 */\n      dup2\n      swap1\n      sstore\n      pop\n        /* \"Development-Codebases/Blockchain/Eth_Smart_Contract_Voting/contracts/Election.sol\":1958:1985  ChangedEventState(\"Paused\") */\n      0xd7ace8df86fe447dcb1863c10e02577466cffc25cec49790f8b1e5d31cd9cd56\n      mload(0x40)\n      tag_106\n      swap1\n      tag_107\n      jump\t// in\n    tag_106:\n      mload(0x40)\n      dup1\n      swap2\n      sub\n      swap1\n      log1\n        /* \"Development-Codebases/Blockchain/Eth_Smart_Contract_Voting/contracts/Election.sol\":1768:1992  function pauseElection() public{... */\n      jump\t// out\n    tag_102:\n      dup3\n      dup1\n      sload\n      tag_108\n      swap1\n      tag_70\n      jump\t// in\n    tag_108:\n      swap1\n      0x00\n      mstore\n      keccak256(0x00, 0x20)\n      swap1\n      0x1f\n      add\n      0x20\n      swap1\n      div\n      dup2\n      add\n      swap3\n      dup3\n      tag_110\n      jumpi\n      0x00\n      dup6\n      sstore\n      jump(tag_109)\n    tag_110:\n      dup3\n      0x1f\n      lt\n      tag_111\n      jumpi\n      dup1\n      mload\n      not(0xff)\n      and\n      dup4\n      dup1\n      add\n      or\n      dup6\n      sstore\n      jump(tag_109)\n    tag_111:\n      dup3\n      dup1\n      add\n      0x01\n      add\n      dup6\n      sstore\n      dup3\n      iszero\n      tag_109\n      jumpi\n      swap2\n      dup3\n      add\n    tag_112:\n      dup3\n      dup2\n      gt\n      iszero\n      tag_113\n      jumpi\n      dup3\n      mload\n      dup3\n      sstore\n      swap2\n      0x20\n      add\n      swap2\n      swap1\n      0x01\n      add\n      swap1\n      jump(tag_112)\n    tag_113:\n    tag_109:\n      pop\n      swap1\n      pop\n      tag_114\n      swap2\n      swap1\n      tag_115\n      jump\t// in\n    tag_114:\n      pop\n      swap1\n      jump\t// out\n    tag_115:\n    tag_116:\n      dup1\n      dup3\n      gt\n      iszero\n      tag_117\n      jumpi\n      0x00\n      dup2\n      0x00\n      swap1\n      sstore\n      pop\n      0x01\n      add\n      jump(tag_116)\n    tag_117:\n      pop\n      swap1\n      jump\t// out\n        /* \"#utility.yul\":7:146   */\n    tag_119:\n        /* \"#utility.yul\":53:58   */\n      0x00\n        /* \"#utility.yul\":91:97   */\n      dup2\n        /* \"#utility.yul\":78:98   */\n      calldataload\n        /* \"#utility.yul\":69:98   */\n      swap1\n      pop\n        /* \"#utility.yul\":107:140   */\n      tag_121\n        /* \"#utility.yul\":134:139   */\n      dup2\n        /* \"#utility.yul\":107:140   */\n      tag_122\n      jump\t// in\n    tag_121:\n        /* \"#utility.yul\":59:146   */\n      swap3\n      swap2\n      pop\n      pop\n      jump\t// out\n        /* \"#utility.yul\":152:291   */\n    tag_123:\n        /* \"#utility.yul\":198:203   */\n      0x00\n        /* \"#utility.yul\":236:242   */\n      dup2\n        /* \"#utility.yul\":223:243   */\n      calldataload\n        /* \"#utility.yul\":214:243   */\n      swap1\n      pop\n        /* \"#utility.yul\":252:285   */\n      tag_125\n        /* \"#utility.yul\":279:284   */\n      dup2\n        /* \"#utility.yul\":252:285   */\n      tag_126\n      jump\t// in\n    tag_125:\n        /* \"#utility.yul\":204:291   */\n      swap3\n      swap2\n      pop\n      pop\n      jump\t// out\n        /* \"#utility.yul\":297:626   */\n    tag_43:\n        /* \"#utility.yul\":356:362   */\n      0x00\n        /* \"#utility.yul\":405:407   */\n      0x20\n        /* \"#utility.yul\":393:402   */\n      dup3\n        /* \"#utility.yul\":384:391   */\n      dup5\n        /* \"#utility.yul\":380:403   */\n      sub\n        /* \"#utility.yul\":376:408   */\n      slt\n        /* \"#utility.yul\":373:375   */\n      iszero\n      tag_128\n      jumpi\n        /* \"#utility.yul\":411:490   */\n      tag_129\n      tag_130\n      jump\t// in\n    tag_129:\n        /* \"#utility.yul\":373:375   */\n    tag_128:\n        /* \"#utility.yul\":531:532   */\n      0x00\n        /* \"#utility.yul\":556:609   */\n      tag_131\n        /* \"#utility.yul\":601:608   */\n      dup5\n        /* \"#utility.yul\":592:598   */\n      dup3\n        /* \"#utility.yul\":581:590   */\n      dup6\n        /* \"#utility.yul\":577:599   */\n      add\n        /* \"#utility.yul\":556:609   */\n      tag_119\n      jump\t// in\n    tag_131:\n        /* \"#utility.yul\":546:609   */\n      swap2\n      pop\n        /* \"#utility.yul\":502:619   */\n      pop\n        /* \"#utility.yul\":363:626   */\n      swap3\n      swap2\n      pop\n      pop\n      jump\t// out\n        /* \"#utility.yul\":632:961   */\n    tag_17:\n        /* \"#utility.yul\":691:697   */\n      0x00\n        /* \"#utility.yul\":740:742   */\n      0x20\n        /* \"#utility.yul\":728:737   */\n      dup3\n        /* \"#utility.yul\":719:726   */\n      dup5\n        /* \"#utility.yul\":715:738   */\n      sub\n        /* \"#utility.yul\":711:743   */\n      slt\n        /* \"#utility.yul\":708:710   */\n      iszero\n      tag_133\n      jumpi\n        /* \"#utility.yul\":746:825   */\n      tag_134\n      tag_130\n      jump\t// in\n    tag_134:\n        /* \"#utility.yul\":708:710   */\n    tag_133:\n        /* \"#utility.yul\":866:867   */\n      0x00\n        /* \"#utility.yul\":891:944   */\n      tag_135\n        /* \"#utility.yul\":936:943   */\n      dup5\n        /* \"#utility.yul\":927:933   */\n      dup3\n        /* \"#utility.yul\":916:925   */\n      dup6\n        /* \"#utility.yul\":912:934   */\n      add\n        /* \"#utility.yul\":891:944   */\n      tag_123\n      jump\t// in\n    tag_135:\n        /* \"#utility.yul\":881:944   */\n      swap2\n      pop\n        /* \"#utility.yul\":837:954   */\n      pop\n        /* \"#utility.yul\":698:961   */\n      swap3\n      swap2\n      pop\n      pop\n      jump\t// out\n        /* \"#utility.yul\":967:1085   */\n    tag_136:\n        /* \"#utility.yul\":1054:1078   */\n      tag_138\n        /* \"#utility.yul\":1072:1077   */\n      dup2\n        /* \"#utility.yul\":1054:1078   */\n      tag_139\n      jump\t// in\n    tag_138:\n        /* \"#utility.yul\":1049:1052   */\n      dup3\n        /* \"#utility.yul\":1042:1079   */\n      mstore\n        /* \"#utility.yul\":1032:1085   */\n      pop\n      pop\n      jump\t// out\n        /* \"#utility.yul\":1091:1200   */\n    tag_140:\n        /* \"#utility.yul\":1172:1193   */\n      tag_142\n        /* \"#utility.yul\":1187:1192   */\n      dup2\n        /* \"#utility.yul\":1172:1193   */\n      tag_143\n      jump\t// in\n    tag_142:\n        /* \"#utility.yul\":1167:1170   */\n      dup3\n        /* \"#utility.yul\":1160:1194   */\n      mstore\n        /* \"#utility.yul\":1150:1200   */\n      pop\n      pop\n      jump\t// out\n        /* \"#utility.yul\":1206:1570   */\n    tag_144:\n        /* \"#utility.yul\":1294:1297   */\n      0x00\n        /* \"#utility.yul\":1322:1361   */\n      tag_146\n        /* \"#utility.yul\":1355:1360   */\n      dup3\n        /* \"#utility.yul\":1322:1361   */\n      tag_147\n      jump\t// in\n    tag_146:\n        /* \"#utility.yul\":1377:1448   */\n      tag_148\n        /* \"#utility.yul\":1441:1447   */\n      dup2\n        /* \"#utility.yul\":1436:1439   */\n      dup6\n        /* \"#utility.yul\":1377:1448   */\n      tag_149\n      jump\t// in\n    tag_148:\n        /* \"#utility.yul\":1370:1448   */\n      swap4\n      pop\n        /* \"#utility.yul\":1457:1509   */\n      tag_150\n        /* \"#utility.yul\":1502:1508   */\n      dup2\n        /* \"#utility.yul\":1497:1500   */\n      dup6\n        /* \"#utility.yul\":1490:1494   */\n      0x20\n        /* \"#utility.yul\":1483:1488   */\n      dup7\n        /* \"#utility.yul\":1479:1495   */\n      add\n        /* \"#utility.yul\":1457:1509   */\n      tag_151\n      jump\t// in\n    tag_150:\n        /* \"#utility.yul\":1534:1563   */\n      tag_152\n        /* \"#utility.yul\":1556:1562   */\n      dup2\n        /* \"#utility.yul\":1534:1563   */\n      tag_153\n      jump\t// in\n    tag_152:\n        /* \"#utility.yul\":1529:1532   */\n      dup5\n        /* \"#utility.yul\":1525:1564   */\n      add\n        /* \"#utility.yul\":1518:1564   */\n      swap2\n      pop\n        /* \"#utility.yul\":1298:1570   */\n      pop\n      swap3\n      swap2\n      pop\n      pop\n      jump\t// out\n        /* \"#utility.yul\":1576:1941   */\n    tag_154:\n        /* \"#utility.yul\":1718:1721   */\n      0x00\n        /* \"#utility.yul\":1739:1805   */\n      tag_156\n        /* \"#utility.yul\":1803:1804   */\n      0x06\n        /* \"#utility.yul\":1798:1801   */\n      dup4\n        /* \"#utility.yul\":1739:1805   */\n      tag_149\n      jump\t// in\n    tag_156:\n        /* \"#utility.yul\":1732:1805   */\n      swap2\n      pop\n        /* \"#utility.yul\":1814:1907   */\n      tag_157\n        /* \"#utility.yul\":1903:1906   */\n      dup3\n        /* \"#utility.yul\":1814:1907   */\n      tag_158\n      jump\t// in\n    tag_157:\n        /* \"#utility.yul\":1932:1934   */\n      0x20\n        /* \"#utility.yul\":1927:1930   */\n      dup3\n        /* \"#utility.yul\":1923:1935   */\n      add\n        /* \"#utility.yul\":1916:1935   */\n      swap1\n      pop\n        /* \"#utility.yul\":1722:1941   */\n      swap2\n      swap1\n      pop\n      jump\t// out\n        /* \"#utility.yul\":1947:2312   */\n    tag_159:\n        /* \"#utility.yul\":2089:2092   */\n      0x00\n        /* \"#utility.yul\":2110:2176   */\n      tag_161\n        /* \"#utility.yul\":2174:2175   */\n      0x06\n        /* \"#utility.yul\":2169:2172   */\n      dup4\n        /* \"#utility.yul\":2110:2176   */\n      tag_149\n      jump\t// in\n    tag_161:\n        /* \"#utility.yul\":2103:2176   */\n      swap2\n      pop\n        /* \"#utility.yul\":2185:2278   */\n      tag_162\n        /* \"#utility.yul\":2274:2277   */\n      dup3\n        /* \"#utility.yul\":2185:2278   */\n      tag_163\n      jump\t// in\n    tag_162:\n        /* \"#utility.yul\":2303:2305   */\n      0x20\n        /* \"#utility.yul\":2298:2301   */\n      dup3\n        /* \"#utility.yul\":2294:2306   */\n      add\n        /* \"#utility.yul\":2287:2306   */\n      swap1\n      pop\n        /* \"#utility.yul\":2093:2312   */\n      swap2\n      swap1\n      pop\n      jump\t// out\n        /* \"#utility.yul\":2318:2684   */\n    tag_164:\n        /* \"#utility.yul\":2460:2463   */\n      0x00\n        /* \"#utility.yul\":2481:2548   */\n      tag_166\n        /* \"#utility.yul\":2545:2547   */\n      0x23\n        /* \"#utility.yul\":2540:2543   */\n      dup4\n        /* \"#utility.yul\":2481:2548   */\n      tag_149\n      jump\t// in\n    tag_166:\n        /* \"#utility.yul\":2474:2548   */\n      swap2\n      pop\n        /* \"#utility.yul\":2557:2650   */\n      tag_167\n        /* \"#utility.yul\":2646:2649   */\n      dup3\n        /* \"#utility.yul\":2557:2650   */\n      tag_168\n      jump\t// in\n    tag_167:\n        /* \"#utility.yul\":2675:2677   */\n      0x40\n        /* \"#utility.yul\":2670:2673   */\n      dup3\n        /* \"#utility.yul\":2666:2678   */\n      add\n        /* \"#utility.yul\":2659:2678   */\n      swap1\n      pop\n        /* \"#utility.yul\":2464:2684   */\n      swap2\n      swap1\n      pop\n      jump\t// out\n        /* \"#utility.yul\":2690:3056   */\n    tag_169:\n        /* \"#utility.yul\":2832:2835   */\n      0x00\n        /* \"#utility.yul\":2853:2920   */\n      tag_171\n        /* \"#utility.yul\":2917:2919   */\n      0x25\n        /* \"#utility.yul\":2912:2915   */\n      dup4\n        /* \"#utility.yul\":2853:2920   */\n      tag_149\n      jump\t// in\n    tag_171:\n        /* \"#utility.yul\":2846:2920   */\n      swap2\n      pop\n        /* \"#utility.yul\":2929:3022   */\n      tag_172\n        /* \"#utility.yul\":3018:3021   */\n      dup3\n        /* \"#utility.yul\":2929:3022   */\n      tag_173\n      jump\t// in\n    tag_172:\n        /* \"#utility.yul\":3047:3049   */\n      0x40\n        /* \"#utility.yul\":3042:3045   */\n      dup3\n        /* \"#utility.yul\":3038:3050   */\n      add\n        /* \"#utility.yul\":3031:3050   */\n      swap1\n      pop\n        /* \"#utility.yul\":2836:3056   */\n      swap2\n      swap1\n      pop\n      jump\t// out\n        /* \"#utility.yul\":3062:3428   */\n    tag_174:\n        /* \"#utility.yul\":3204:3207   */\n      0x00\n        /* \"#utility.yul\":3225:3292   */\n      tag_176\n        /* \"#utility.yul\":3289:3291   */\n      0x1a\n        /* \"#utility.yul\":3284:3287   */\n      dup4\n        /* \"#utility.yul\":3225:3292   */\n      tag_149\n      jump\t// in\n    tag_176:\n        /* \"#utility.yul\":3218:3292   */\n      swap2\n      pop\n        /* \"#utility.yul\":3301:3394   */\n      tag_177\n        /* \"#utility.yul\":3390:3393   */\n      dup3\n        /* \"#utility.yul\":3301:3394   */\n      tag_178\n      jump\t// in\n    tag_177:\n        /* \"#utility.yul\":3419:3421   */\n      0x20\n        /* \"#utility.yul\":3414:3417   */\n      dup3\n        /* \"#utility.yul\":3410:3422   */\n      add\n        /* \"#utility.yul\":3403:3422   */\n      swap1\n      pop\n        /* \"#utility.yul\":3208:3428   */\n      swap2\n      swap1\n      pop\n      jump\t// out\n        /* \"#utility.yul\":3434:3800   */\n    tag_179:\n        /* \"#utility.yul\":3576:3579   */\n      0x00\n        /* \"#utility.yul\":3597:3664   */\n      tag_181\n        /* \"#utility.yul\":3661:3663   */\n      0x29\n        /* \"#utility.yul\":3656:3659   */\n      dup4\n        /* \"#utility.yul\":3597:3664   */\n      tag_149\n      jump\t// in\n    tag_181:\n        /* \"#utility.yul\":3590:3664   */\n      swap2\n      pop\n        /* \"#utility.yul\":3673:3766   */\n      tag_182\n        /* \"#utility.yul\":3762:3765   */\n      dup3\n        /* \"#utility.yul\":3673:3766   */\n      tag_183\n      jump\t// in\n    tag_182:\n        /* \"#utility.yul\":3791:3793   */\n      0x40\n        /* \"#utility.yul\":3786:3789   */\n      dup3\n        /* \"#utility.yul\":3782:3794   */\n      add\n        /* \"#utility.yul\":3775:3794   */\n      swap1\n      pop\n        /* \"#utility.yul\":3580:3800   */\n      swap2\n      swap1\n      pop\n      jump\t// out\n        /* \"#utility.yul\":3806:4171   */\n    tag_184:\n        /* \"#utility.yul\":3948:3951   */\n      0x00\n        /* \"#utility.yul\":3969:4035   */\n      tag_186\n        /* \"#utility.yul\":4033:4034   */\n      0x06\n        /* \"#utility.yul\":4028:4031   */\n      dup4\n        /* \"#utility.yul\":3969:4035   */\n      tag_149\n      jump\t// in\n    tag_186:\n        /* \"#utility.yul\":3962:4035   */\n      swap2\n      pop\n        /* \"#utility.yul\":4044:4137   */\n      tag_187\n        /* \"#utility.yul\":4133:4136   */\n      dup3\n        /* \"#utility.yul\":4044:4137   */\n      tag_188\n      jump\t// in\n    tag_187:\n        /* \"#utility.yul\":4162:4164   */\n      0x20\n        /* \"#utility.yul\":4157:4160   */\n      dup3\n        /* \"#utility.yul\":4153:4165   */\n      add\n        /* \"#utility.yul\":4146:4165   */\n      swap1\n      pop\n        /* \"#utility.yul\":3952:4171   */\n      swap2\n      swap1\n      pop\n      jump\t// out\n        /* \"#utility.yul\":4177:4295   */\n    tag_189:\n        /* \"#utility.yul\":4264:4288   */\n      tag_191\n        /* \"#utility.yul\":4282:4287   */\n      dup2\n        /* \"#utility.yul\":4264:4288   */\n      tag_192\n      jump\t// in\n    tag_191:\n        /* \"#utility.yul\":4259:4262   */\n      dup3\n        /* \"#utility.yul\":4252:4289   */\n      mstore\n        /* \"#utility.yul\":4242:4295   */\n      pop\n      pop\n      jump\t// out\n        /* \"#utility.yul\":4301:4523   */\n    tag_35:\n        /* \"#utility.yul\":4394:4398   */\n      0x00\n        /* \"#utility.yul\":4432:4434   */\n      0x20\n        /* \"#utility.yul\":4421:4430   */\n      dup3\n        /* \"#utility.yul\":4417:4435   */\n      add\n        /* \"#utility.yul\":4409:4435   */\n      swap1\n      pop\n        /* \"#utility.yul\":4445:4516   */\n      tag_194\n        /* \"#utility.yul\":4513:4514   */\n      0x00\n        /* \"#utility.yul\":4502:4511   */\n      dup4\n        /* \"#utility.yul\":4498:4515   */\n      add\n        /* \"#utility.yul\":4489:4495   */\n      dup5\n        /* \"#utility.yul\":4445:4516   */\n      tag_136\n      jump\t// in\n    tag_194:\n        /* \"#utility.yul\":4399:4523   */\n      swap3\n      swap2\n      pop\n      pop\n      jump\t// out\n        /* \"#utility.yul\":4529:4739   */\n    tag_46:\n        /* \"#utility.yul\":4616:4620   */\n      0x00\n        /* \"#utility.yul\":4654:4656   */\n      0x20\n        /* \"#utility.yul\":4643:4652   */\n      dup3\n        /* \"#utility.yul\":4639:4657   */\n      add\n        /* \"#utility.yul\":4631:4657   */\n      swap1\n      pop\n        /* \"#utility.yul\":4667:4732   */\n      tag_196\n        /* \"#utility.yul\":4729:4730   */\n      0x00\n        /* \"#utility.yul\":4718:4727   */\n      dup4\n        /* \"#utility.yul\":4714:4731   */\n      add\n        /* \"#utility.yul\":4705:4711   */\n      dup5\n        /* \"#utility.yul\":4667:4732   */\n      tag_140\n      jump\t// in\n    tag_196:\n        /* \"#utility.yul\":4621:4739   */\n      swap3\n      swap2\n      pop\n      pop\n      jump\t// out\n        /* \"#utility.yul\":4745:5058   */\n    tag_31:\n        /* \"#utility.yul\":4858:4862   */\n      0x00\n        /* \"#utility.yul\":4896:4898   */\n      0x20\n        /* \"#utility.yul\":4885:4894   */\n      dup3\n        /* \"#utility.yul\":4881:4899   */\n      add\n        /* \"#utility.yul\":4873:4899   */\n      swap1\n      pop\n        /* \"#utility.yul\":4945:4954   */\n      dup2\n        /* \"#utility.yul\":4939:4943   */\n      dup2\n        /* \"#utility.yul\":4935:4955   */\n      sub\n        /* \"#utility.yul\":4931:4932   */\n      0x00\n        /* \"#utility.yul\":4920:4929   */\n      dup4\n        /* \"#utility.yul\":4916:4933   */\n      add\n        /* \"#utility.yul\":4909:4956   */\n      mstore\n        /* \"#utility.yul\":4973:5051   */\n      tag_198\n        /* \"#utility.yul\":5046:5050   */\n      dup2\n        /* \"#utility.yul\":5037:5043   */\n      dup5\n        /* \"#utility.yul\":4973:5051   */\n      tag_144\n      jump\t// in\n    tag_198:\n        /* \"#utility.yul\":4965:5051   */\n      swap1\n      pop\n        /* \"#utility.yul\":4863:5058   */\n      swap3\n      swap2\n      pop\n      pop\n      jump\t// out\n        /* \"#utility.yul\":5064:5483   */\n    tag_107:\n        /* \"#utility.yul\":5230:5234   */\n      0x00\n        /* \"#utility.yul\":5268:5270   */\n      0x20\n        /* \"#utility.yul\":5257:5266   */\n      dup3\n        /* \"#utility.yul\":5253:5271   */\n      add\n        /* \"#utility.yul\":5245:5271   */\n      swap1\n      pop\n        /* \"#utility.yul\":5317:5326   */\n      dup2\n        /* \"#utility.yul\":5311:5315   */\n      dup2\n        /* \"#utility.yul\":5307:5327   */\n      sub\n        /* \"#utility.yul\":5303:5304   */\n      0x00\n        /* \"#utility.yul\":5292:5301   */\n      dup4\n        /* \"#utility.yul\":5288:5305   */\n      add\n        /* \"#utility.yul\":5281:5328   */\n      mstore\n        /* \"#utility.yul\":5345:5476   */\n      tag_200\n        /* \"#utility.yul\":5471:5475   */\n      dup2\n        /* \"#utility.yul\":5345:5476   */\n      tag_154\n      jump\t// in\n    tag_200:\n        /* \"#utility.yul\":5337:5476   */\n      swap1\n      pop\n        /* \"#utility.yul\":5235:5483   */\n      swap2\n      swap1\n      pop\n      jump\t// out\n        /* \"#utility.yul\":5489:5908   */\n    tag_83:\n        /* \"#utility.yul\":5655:5659   */\n      0x00\n        /* \"#utility.yul\":5693:5695   */\n      0x20\n        /* \"#utility.yul\":5682:5691   */\n      dup3\n        /* \"#utility.yul\":5678:5696   */\n      add\n        /* \"#utility.yul\":5670:5696   */\n      swap1\n      pop\n        /* \"#utility.yul\":5742:5751   */\n      dup2\n        /* \"#utility.yul\":5736:5740   */\n      dup2\n        /* \"#utility.yul\":5732:5752   */\n      sub\n        /* \"#utility.yul\":5728:5729   */\n      0x00\n        /* \"#utility.yul\":5717:5726   */\n      dup4\n        /* \"#utility.yul\":5713:5730   */\n      add\n        /* \"#utility.yul\":5706:5753   */\n      mstore\n        /* \"#utility.yul\":5770:5901   */\n      tag_202\n        /* \"#utility.yul\":5896:5900   */\n      dup2\n        /* \"#utility.yul\":5770:5901   */\n      tag_159\n      jump\t// in\n    tag_202:\n        /* \"#utility.yul\":5762:5901   */\n      swap1\n      pop\n        /* \"#utility.yul\":5660:5908   */\n      swap2\n      swap1\n      pop\n      jump\t// out\n        /* \"#utility.yul\":5914:6333   */\n    tag_62:\n        /* \"#utility.yul\":6080:6084   */\n      0x00\n        /* \"#utility.yul\":6118:6120   */\n      0x20\n        /* \"#utility.yul\":6107:6116   */\n      dup3\n        /* \"#utility.yul\":6103:6121   */\n      add\n        /* \"#utility.yul\":6095:6121   */\n      swap1\n      pop\n        /* \"#utility.yul\":6167:6176   */\n      dup2\n        /* \"#utility.yul\":6161:6165   */\n      dup2\n        /* \"#utility.yul\":6157:6177   */\n      sub\n        /* \"#utility.yul\":6153:6154   */\n      0x00\n        /* \"#utility.yul\":6142:6151   */\n      dup4\n        /* \"#utility.yul\":6138:6155   */\n      add\n        /* \"#utility.yul\":6131:6178   */\n      mstore\n        /* \"#utility.yul\":6195:6326   */\n      tag_204\n        /* \"#utility.yul\":6321:6325   */\n      dup2\n        /* \"#utility.yul\":6195:6326   */\n      tag_164\n      jump\t// in\n    tag_204:\n        /* \"#utility.yul\":6187:6326   */\n      swap1\n      pop\n        /* \"#utility.yul\":6085:6333   */\n      swap2\n      swap1\n      pop\n      jump\t// out\n        /* \"#utility.yul\":6339:6758   */\n    tag_66:\n        /* \"#utility.yul\":6505:6509   */\n      0x00\n        /* \"#utility.yul\":6543:6545   */\n      0x20\n        /* \"#utility.yul\":6532:6541   */\n      dup3\n        /* \"#utility.yul\":6528:6546   */\n      add\n        /* \"#utility.yul\":6520:6546   */\n      swap1\n      pop\n        /* \"#utility.yul\":6592:6601   */\n      dup2\n        /* \"#utility.yul\":6586:6590   */\n      dup2\n        /* \"#utility.yul\":6582:6602   */\n      sub\n        /* \"#utility.yul\":6578:6579   */\n      0x00\n        /* \"#utility.yul\":6567:6576   */\n      dup4\n        /* \"#utility.yul\":6563:6580   */\n      add\n        /* \"#utility.yul\":6556:6603   */\n      mstore\n        /* \"#utility.yul\":6620:6751   */\n      tag_206\n        /* \"#utility.yul\":6746:6750   */\n      dup2\n        /* \"#utility.yul\":6620:6751   */\n      tag_169\n      jump\t// in\n    tag_206:\n        /* \"#utility.yul\":6612:6751   */\n      swap1\n      pop\n        /* \"#utility.yul\":6510:6758   */\n      swap2\n      swap1\n      pop\n      jump\t// out\n        /* \"#utility.yul\":6764:7183   */\n    tag_56:\n        /* \"#utility.yul\":6930:6934   */\n      0x00\n        /* \"#utility.yul\":6968:6970   */\n      0x20\n        /* \"#utility.yul\":6957:6966   */\n      dup3\n        /* \"#utility.yul\":6953:6971   */\n      add\n        /* \"#utility.yul\":6945:6971   */\n      swap1\n      pop\n        /* \"#utility.yul\":7017:7026   */\n      dup2\n        /* \"#utility.yul\":7011:7015   */\n      dup2\n        /* \"#utility.yul\":7007:7027   */\n      sub\n        /* \"#utility.yul\":7003:7004   */\n      0x00\n        /* \"#utility.yul\":6992:7001   */\n      dup4\n        /* \"#utility.yul\":6988:7005   */\n      add\n        /* \"#utility.yul\":6981:7028   */\n      mstore\n        /* \"#utility.yul\":7045:7176   */\n      tag_208\n        /* \"#utility.yul\":7171:7175   */\n      dup2\n        /* \"#utility.yul\":7045:7176   */\n      tag_174\n      jump\t// in\n    tag_208:\n        /* \"#utility.yul\":7037:7176   */\n      swap1\n      pop\n        /* \"#utility.yul\":6935:7183   */\n      swap2\n      swap1\n      pop\n      jump\t// out\n        /* \"#utility.yul\":7189:7608   */\n    tag_59:\n        /* \"#utility.yul\":7355:7359   */\n      0x00\n        /* \"#utility.yul\":7393:7395   */\n      0x20\n        /* \"#utility.yul\":7382:7391   */\n      dup3\n        /* \"#utility.yul\":7378:7396   */\n      add\n        /* \"#utility.yul\":7370:7396   */\n      swap1\n      pop\n        /* \"#utility.yul\":7442:7451   */\n      dup2\n        /* \"#utility.yul\":7436:7440   */\n      dup2\n        /* \"#utility.yul\":7432:7452   */\n      sub\n        /* \"#utility.yul\":7428:7429   */\n      0x00\n        /* \"#utility.yul\":7417:7426   */\n      dup4\n        /* \"#utility.yul\":7413:7430   */\n      add\n        /* \"#utility.yul\":7406:7453   */\n      mstore\n        /* \"#utility.yul\":7470:7601   */\n      tag_210\n        /* \"#utility.yul\":7596:7600   */\n      dup2\n        /* \"#utility.yul\":7470:7601   */\n      tag_179\n      jump\t// in\n    tag_210:\n        /* \"#utility.yul\":7462:7601   */\n      swap1\n      pop\n        /* \"#utility.yul\":7360:7608   */\n      swap2\n      swap1\n      pop\n      jump\t// out\n        /* \"#utility.yul\":7614:8033   */\n    tag_88:\n        /* \"#utility.yul\":7780:7784   */\n      0x00\n        /* \"#utility.yul\":7818:7820   */\n      0x20\n        /* \"#utility.yul\":7807:7816   */\n      dup3\n        /* \"#utility.yul\":7803:7821   */\n      add\n        /* \"#utility.yul\":7795:7821   */\n      swap1\n      pop\n        /* \"#utility.yul\":7867:7876   */\n      dup2\n        /* \"#utility.yul\":7861:7865   */\n      dup2\n        /* \"#utility.yul\":7857:7877   */\n      sub\n        /* \"#utility.yul\":7853:7854   */\n      0x00\n        /* \"#utility.yul\":7842:7851   */\n      dup4\n        /* \"#utility.yul\":7838:7855   */\n      add\n        /* \"#utility.yul\":7831:7878   */\n      mstore\n        /* \"#utility.yul\":7895:8026   */\n      tag_212\n        /* \"#utility.yul\":8021:8025   */\n      dup2\n        /* \"#utility.yul\":7895:8026   */\n      tag_184\n      jump\t// in\n    tag_212:\n        /* \"#utility.yul\":7887:8026   */\n      swap1\n      pop\n        /* \"#utility.yul\":7785:8033   */\n      swap2\n      swap1\n      pop\n      jump\t// out\n        /* \"#utility.yul\":8039:8261   */\n    tag_22:\n        /* \"#utility.yul\":8132:8136   */\n      0x00\n        /* \"#utility.yul\":8170:8172   */\n      0x20\n        /* \"#utility.yul\":8159:8168   */\n      dup3\n        /* \"#utility.yul\":8155:8173   */\n      add\n        /* \"#utility.yul\":8147:8173   */\n      swap1\n      pop\n        /* \"#utility.yul\":8183:8254   */\n      tag_214\n        /* \"#utility.yul\":8251:8252   */\n      0x00\n        /* \"#utility.yul\":8240:8249   */\n      dup4\n        /* \"#utility.yul\":8236:8253   */\n      add\n        /* \"#utility.yul\":8227:8233   */\n      dup5\n        /* \"#utility.yul\":8183:8254   */\n      tag_189\n      jump\t// in\n    tag_214:\n        /* \"#utility.yul\":8137:8261   */\n      swap3\n      swap2\n      pop\n      pop\n      jump\t// out\n        /* \"#utility.yul\":8267:8800   */\n    tag_27:\n        /* \"#utility.yul\":8436:8440   */\n      0x00\n        /* \"#utility.yul\":8474:8476   */\n      0x60\n        /* \"#utility.yul\":8463:8472   */\n      dup3\n        /* \"#utility.yul\":8459:8477   */\n      add\n        /* \"#utility.yul\":8451:8477   */\n      swap1\n      pop\n        /* \"#utility.yul\":8487:8558   */\n      tag_216\n        /* \"#utility.yul\":8555:8556   */\n      0x00\n        /* \"#utility.yul\":8544:8553   */\n      dup4\n        /* \"#utility.yul\":8540:8557   */\n      add\n        /* \"#utility.yul\":8531:8537   */\n      dup7\n        /* \"#utility.yul\":8487:8558   */\n      tag_189\n      jump\t// in\n    tag_216:\n        /* \"#utility.yul\":8605:8614   */\n      dup2\n        /* \"#utility.yul\":8599:8603   */\n      dup2\n        /* \"#utility.yul\":8595:8615   */\n      sub\n        /* \"#utility.yul\":8590:8592   */\n      0x20\n        /* \"#utility.yul\":8579:8588   */\n      dup4\n        /* \"#utility.yul\":8575:8593   */\n      add\n        /* \"#utility.yul\":8568:8616   */\n      mstore\n        /* \"#utility.yul\":8633:8711   */\n      tag_217\n        /* \"#utility.yul\":8706:8710   */\n      dup2\n        /* \"#utility.yul\":8697:8703   */\n      dup6\n        /* \"#utility.yul\":8633:8711   */\n      tag_144\n      jump\t// in\n    tag_217:\n        /* \"#utility.yul\":8625:8711   */\n      swap1\n      pop\n        /* \"#utility.yul\":8721:8793   */\n      tag_218\n        /* \"#utility.yul\":8789:8791   */\n      0x40\n        /* \"#utility.yul\":8778:8787   */\n      dup4\n        /* \"#utility.yul\":8774:8792   */\n      add\n        /* \"#utility.yul\":8765:8771   */\n      dup5\n        /* \"#utility.yul\":8721:8793   */\n      tag_189\n      jump\t// in\n    tag_218:\n        /* \"#utility.yul\":8441:8800   */\n      swap5\n      swap4\n      pop\n      pop\n      pop\n      pop\n      jump\t// out\n        /* \"#utility.yul\":8887:8986   */\n    tag_147:\n        /* \"#utility.yul\":8939:8945   */\n      0x00\n        /* \"#utility.yul\":8973:8978   */\n      dup2\n        /* \"#utility.yul\":8967:8979   */\n      mload\n        /* \"#utility.yul\":8957:8979   */\n      swap1\n      pop\n        /* \"#utility.yul\":8946:8986   */\n      swap2\n      swap1\n      pop\n      jump\t// out\n        /* \"#utility.yul\":8992:9161   */\n    tag_149:\n        /* \"#utility.yul\":9076:9087   */\n      0x00\n        /* \"#utility.yul\":9110:9116   */\n      dup3\n        /* \"#utility.yul\":9105:9108   */\n      dup3\n        /* \"#utility.yul\":9098:9117   */\n      mstore\n        /* \"#utility.yul\":9150:9154   */\n      0x20\n        /* \"#utility.yul\":9145:9148   */\n      dup3\n        /* \"#utility.yul\":9141:9155   */\n      add\n        /* \"#utility.yul\":9126:9155   */\n      swap1\n      pop\n        /* \"#utility.yul\":9088:9161   */\n      swap3\n      swap2\n      pop\n      pop\n      jump\t// out\n        /* \"#utility.yul\":9167:9263   */\n    tag_139:\n        /* \"#utility.yul\":9204:9211   */\n      0x00\n        /* \"#utility.yul\":9233:9257   */\n      tag_224\n        /* \"#utility.yul\":9251:9256   */\n      dup3\n        /* \"#utility.yul\":9233:9257   */\n      tag_225\n      jump\t// in\n    tag_224:\n        /* \"#utility.yul\":9222:9257   */\n      swap1\n      pop\n        /* \"#utility.yul\":9212:9263   */\n      swap2\n      swap1\n      pop\n      jump\t// out\n        /* \"#utility.yul\":9269:9359   */\n    tag_143:\n        /* \"#utility.yul\":9303:9310   */\n      0x00\n        /* \"#utility.yul\":9346:9351   */\n      dup2\n        /* \"#utility.yul\":9339:9352   */\n      iszero\n        /* \"#utility.yul\":9332:9353   */\n      iszero\n        /* \"#utility.yul\":9321:9353   */\n      swap1\n      pop\n        /* \"#utility.yul\":9311:9359   */\n      swap2\n      swap1\n      pop\n      jump\t// out\n        /* \"#utility.yul\":9365:9491   */\n    tag_225:\n        /* \"#utility.yul\":9402:9409   */\n      0x00\n        /* \"#utility.yul\":9442:9484   */\n      0xffffffffffffffffffffffffffffffffffffffff\n        /* \"#utility.yul\":9435:9440   */\n      dup3\n        /* \"#utility.yul\":9431:9485   */\n      and\n        /* \"#utility.yul\":9420:9485   */\n      swap1\n      pop\n        /* \"#utility.yul\":9410:9491   */\n      swap2\n      swap1\n      pop\n      jump\t// out\n        /* \"#utility.yul\":9497:9574   */\n    tag_192:\n        /* \"#utility.yul\":9534:9541   */\n      0x00\n        /* \"#utility.yul\":9563:9568   */\n      dup2\n        /* \"#utility.yul\":9552:9568   */\n      swap1\n      pop\n        /* \"#utility.yul\":9542:9574   */\n      swap2\n      swap1\n      pop\n      jump\t// out\n        /* \"#utility.yul\":9580:9887   */\n    tag_151:\n        /* \"#utility.yul\":9648:9649   */\n      0x00\n        /* \"#utility.yul\":9658:9771   */\n    tag_230:\n        /* \"#utility.yul\":9672:9678   */\n      dup4\n        /* \"#utility.yul\":9669:9670   */\n      dup2\n        /* \"#utility.yul\":9666:9679   */\n      lt\n        /* \"#utility.yul\":9658:9771   */\n      iszero\n      tag_232\n      jumpi\n        /* \"#utility.yul\":9757:9758   */\n      dup1\n        /* \"#utility.yul\":9752:9755   */\n      dup3\n        /* \"#utility.yul\":9748:9759   */\n      add\n        /* \"#utility.yul\":9742:9760   */\n      mload\n        /* \"#utility.yul\":9738:9739   */\n      dup2\n        /* \"#utility.yul\":9733:9736   */\n      dup5\n        /* \"#utility.yul\":9729:9740   */\n      add\n        /* \"#utility.yul\":9722:9761   */\n      mstore\n        /* \"#utility.yul\":9694:9696   */\n      0x20\n        /* \"#utility.yul\":9691:9692   */\n      dup2\n        /* \"#utility.yul\":9687:9697   */\n      add\n        /* \"#utility.yul\":9682:9697   */\n      swap1\n      pop\n        /* \"#utility.yul\":9658:9771   */\n      jump(tag_230)\n    tag_232:\n        /* \"#utility.yul\":9789:9795   */\n      dup4\n        /* \"#utility.yul\":9786:9787   */\n      dup2\n        /* \"#utility.yul\":9783:9796   */\n      gt\n        /* \"#utility.yul\":9780:9782   */\n      iszero\n      tag_233\n      jumpi\n        /* \"#utility.yul\":9869:9870   */\n      0x00\n        /* \"#utility.yul\":9860:9866   */\n      dup5\n        /* \"#utility.yul\":9855:9858   */\n      dup5\n        /* \"#utility.yul\":9851:9867   */\n      add\n        /* \"#utility.yul\":9844:9871   */\n      mstore\n        /* \"#utility.yul\":9780:9782   */\n    tag_233:\n        /* \"#utility.yul\":9629:9887   */\n      pop\n      pop\n      pop\n      pop\n      jump\t// out\n        /* \"#utility.yul\":9893:10213   */\n    tag_70:\n        /* \"#utility.yul\":9937:9943   */\n      0x00\n        /* \"#utility.yul\":9974:9975   */\n      0x02\n        /* \"#utility.yul\":9968:9972   */\n      dup3\n        /* \"#utility.yul\":9964:9976   */\n      div\n        /* \"#utility.yul\":9954:9976   */\n      swap1\n      pop\n        /* \"#utility.yul\":10021:10022   */\n      0x01\n        /* \"#utility.yul\":10015:10019   */\n      dup3\n        /* \"#utility.yul\":10011:10023   */\n      and\n        /* \"#utility.yul\":10042:10060   */\n      dup1\n        /* \"#utility.yul\":10032:10034   */\n      tag_235\n      jumpi\n        /* \"#utility.yul\":10098:10102   */\n      0x7f\n        /* \"#utility.yul\":10090:10096   */\n      dup3\n        /* \"#utility.yul\":10086:10103   */\n      and\n        /* \"#utility.yul\":10076:10103   */\n      swap2\n      pop\n        /* \"#utility.yul\":10032:10034   */\n    tag_235:\n        /* \"#utility.yul\":10160:10162   */\n      0x20\n        /* \"#utility.yul\":10152:10158   */\n      dup3\n        /* \"#utility.yul\":10149:10163   */\n      lt\n        /* \"#utility.yul\":10129:10147   */\n      dup2\n        /* \"#utility.yul\":10126:10164   */\n      eq\n        /* \"#utility.yul\":10123:10125   */\n      iszero\n      tag_236\n      jumpi\n        /* \"#utility.yul\":10179:10197   */\n      tag_237\n      tag_238\n      jump\t// in\n    tag_237:\n        /* \"#utility.yul\":10123:10125   */\n    tag_236:\n        /* \"#utility.yul\":9944:10213   */\n      pop\n      swap2\n      swap1\n      pop\n      jump\t// out\n        /* \"#utility.yul\":10219:10452   */\n    tag_68:\n        /* \"#utility.yul\":10258:10261   */\n      0x00\n        /* \"#utility.yul\":10281:10305   */\n      tag_240\n        /* \"#utility.yul\":10299:10304   */\n      dup3\n        /* \"#utility.yul\":10281:10305   */\n      tag_192\n      jump\t// in\n    tag_240:\n        /* \"#utility.yul\":10272:10305   */\n      swap2\n      pop\n        /* \"#utility.yul\":10327:10393   */\n      0xffffffffffffffffffffffffffffffffffffffffffffffffffffffffffffffff\n        /* \"#utility.yul\":10320:10325   */\n      dup3\n        /* \"#utility.yul\":10317:10394   */\n      eq\n        /* \"#utility.yul\":10314:10316   */\n      iszero\n      tag_241\n      jumpi\n        /* \"#utility.yul\":10397:10415   */\n      tag_242\n      tag_243\n      jump\t// in\n    tag_242:\n        /* \"#utility.yul\":10314:10316   */\n    tag_241:\n        /* \"#utility.yul\":10444:10445   */\n      0x01\n        /* \"#utility.yul\":10437:10442   */\n      dup3\n        /* \"#utility.yul\":10433:10446   */\n      add\n        /* \"#utility.yul\":10426:10446   */\n      swap1\n      pop\n        /* \"#utility.yul\":10262:10452   */\n      swap2\n      swap1\n      pop\n      jump\t// out\n        /* \"#utility.yul\":10458:10638   */\n    tag_243:\n        /* \"#utility.yul\":10506:10583   */\n      0x4e487b7100000000000000000000000000000000000000000000000000000000\n        /* \"#utility.yul\":10503:10504   */\n      0x00\n        /* \"#utility.yul\":10496:10584   */\n      mstore\n        /* \"#utility.yul\":10603:10607   */\n      0x11\n        /* \"#utility.yul\":10600:10601   */\n      0x04\n        /* \"#utility.yul\":10593:10608   */\n      mstore\n        /* \"#utility.yul\":10627:10631   */\n      0x24\n        /* \"#utility.yul\":10624:10625   */\n      0x00\n        /* \"#utility.yul\":10617:10632   */\n      revert\n        /* \"#utility.yul\":10644:10824   */\n    tag_238:\n        /* \"#utility.yul\":10692:10769   */\n      0x4e487b7100000000000000000000000000000000000000000000000000000000\n        /* \"#utility.yul\":10689:10690   */\n      0x00\n        /* \"#utility.yul\":10682:10770   */\n      mstore\n        /* \"#utility.yul\":10789:10793   */\n      0x22\n        /* \"#utility.yul\":10786:10787   */\n      0x04\n        /* \"#utility.yul\":10779:10794   */\n      mstore\n        /* \"#utility.yul\":10813:10817   */\n      0x24\n        /* \"#utility.yul\":10810:10811   */\n      0x00\n        /* \"#utility.yul\":10803:10818   */\n      revert\n        /* \"#utility.yul\":10953:11070   */\n    tag_130:\n        /* \"#utility.yul\":11062:11063   */\n      0x00\n        /* \"#utility.yul\":11059:11060   */\n      dup1\n        /* \"#utility.yul\":11052:11064   */\n      revert\n        /* \"#utility.yul\":11076:11178   */\n    tag_153:\n        /* \"#utility.yul\":11117:11123   */\n      0x00\n        /* \"#utility.yul\":11168:11170   */\n      0x1f\n        /* \"#utility.yul\":11164:11171   */\n      not\n        /* \"#utility.yul\":11159:11161   */\n      0x1f\n        /* \"#utility.yul\":11152:11157   */\n      dup4\n        /* \"#utility.yul\":11148:11162   */\n      add\n        /* \"#utility.yul\":11144:11172   */\n      and\n        /* \"#utility.yul\":11134:11172   */\n      swap1\n      pop\n        /* \"#utility.yul\":11124:11178   */\n      swap2\n      swap1\n      pop\n      jump\t// out\n        /* \"#utility.yul\":11184:11340   */\n    tag_158:\n        /* \"#utility.yul\":11324:11332   */\n      0x5061757365640000000000000000000000000000000000000000000000000000\n        /* \"#utility.yul\":11320:11321   */\n      0x00\n        /* \"#utility.yul\":11312:11318   */\n      dup3\n        /* \"#utility.yul\":11308:11322   */\n      add\n        /* \"#utility.yul\":11301:11333   */\n      mstore\n        /* \"#utility.yul\":11290:11340   */\n      pop\n      jump\t// out\n        /* \"#utility.yul\":11346:11502   */\n    tag_163:\n        /* \"#utility.yul\":11486:11494   */\n      0x436c6f7365640000000000000000000000000000000000000000000000000000\n        /* \"#utility.yul\":11482:11483   */\n      0x00\n        /* \"#utility.yul\":11474:11480   */\n      dup3\n        /* \"#utility.yul\":11470:11484   */\n      add\n        /* \"#utility.yul\":11463:11495   */\n      mstore\n        /* \"#utility.yul\":11452:11502   */\n      pop\n      jump\t// out\n        /* \"#utility.yul\":11508:11730   */\n    tag_168:\n        /* \"#utility.yul\":11648:11682   */\n      0x5468697320616464726573732068617320616c726561647920766f746564206f\n        /* \"#utility.yul\":11644:11645   */\n      0x00\n        /* \"#utility.yul\":11636:11642   */\n      dup3\n        /* \"#utility.yul\":11632:11646   */\n      add\n        /* \"#utility.yul\":11625:11683   */\n      mstore\n        /* \"#utility.yul\":11717:11722   */\n      0x6e63650000000000000000000000000000000000000000000000000000000000\n        /* \"#utility.yul\":11712:11714   */\n      0x20\n        /* \"#utility.yul\":11704:11710   */\n      dup3\n        /* \"#utility.yul\":11700:11715   */\n      add\n        /* \"#utility.yul\":11693:11723   */\n      mstore\n        /* \"#utility.yul\":11614:11730   */\n      pop\n      jump\t// out\n        /* \"#utility.yul\":11736:11960   */\n    tag_173:\n        /* \"#utility.yul\":11876:11910   */\n      0x5468652073656c65637465642063616e64696461746520646f6573206e6f7420\n        /* \"#utility.yul\":11872:11873   */\n      0x00\n        /* \"#utility.yul\":11864:11870   */\n      dup3\n        /* \"#utility.yul\":11860:11874   */\n      add\n        /* \"#utility.yul\":11853:11911   */\n      mstore\n        /* \"#utility.yul\":11945:11952   */\n      0x6578697374000000000000000000000000000000000000000000000000000000\n        /* \"#utility.yul\":11940:11942   */\n      0x20\n        /* \"#utility.yul\":11932:11938   */\n      dup3\n        /* \"#utility.yul\":11928:11943   */\n      add\n        /* \"#utility.yul\":11921:11953   */\n      mstore\n        /* \"#utility.yul\":11842:11960   */\n      pop\n      jump\t// out\n        /* \"#utility.yul\":11966:12142   */\n    tag_178:\n        /* \"#utility.yul\":12106:12134   */\n      0x54686520656c656374696f6e206973206e6f74206f70656e6564000000000000\n        /* \"#utility.yul\":12102:12103   */\n      0x00\n        /* \"#utility.yul\":12094:12100   */\n      dup3\n        /* \"#utility.yul\":12090:12104   */\n      add\n        /* \"#utility.yul\":12083:12135   */\n      mstore\n        /* \"#utility.yul\":12072:12142   */\n      pop\n      jump\t// out\n        /* \"#utility.yul\":12148:12376   */\n    tag_183:\n        /* \"#utility.yul\":12288:12322   */\n      0x54686520656c656374696f6e206f776e6572206973206e6f7420616c6c6f7765\n        /* \"#utility.yul\":12284:12285   */\n      0x00\n        /* \"#utility.yul\":12276:12282   */\n      dup3\n        /* \"#utility.yul\":12272:12286   */\n      add\n        /* \"#utility.yul\":12265:12323   */\n      mstore\n        /* \"#utility.yul\":12357:12368   */\n      0x6420746f20766f74650000000000000000000000000000000000000000000000\n        /* \"#utility.yul\":12352:12354   */\n      0x20\n        /* \"#utility.yul\":12344:12350   */\n      dup3\n        /* \"#utility.yul\":12340:12355   */\n      add\n        /* \"#utility.yul\":12333:12369   */\n      mstore\n        /* \"#utility.yul\":12254:12376   */\n      pop\n      jump\t// out\n        /* \"#utility.yul\":12382:12538   */\n    tag_188:\n        /* \"#utility.yul\":12522:12530   */\n      0x4f70656e65640000000000000000000000000000000000000000000000000000\n        /* \"#utility.yul\":12518:12519   */\n      0x00\n        /* \"#utility.yul\":12510:12516   */\n      dup3\n        /* \"#utility.yul\":12506:12520   */\n      add\n        /* \"#utility.yul\":12499:12531   */\n      mstore\n        /* \"#utility.yul\":12488:12538   */\n      pop\n      jump\t// out\n        /* \"#utility.yul\":12544:12666   */\n    tag_122:\n        /* \"#utility.yul\":12617:12641   */\n      tag_258\n        /* \"#utility.yul\":12635:12640   */\n      dup2\n        /* \"#utility.yul\":12617:12641   */\n      tag_139\n      jump\t// in\n    tag_258:\n        /* \"#utility.yul\":12610:12615   */\n      dup2\n        /* \"#utility.yul\":12607:12642   */\n      eq\n        /* \"#utility.yul\":12597:12599   */\n      tag_259\n      jumpi\n        /* \"#utility.yul\":12656:12657   */\n      0x00\n        /* \"#utility.yul\":12653:12654   */\n      dup1\n        /* \"#utility.yul\":12646:12658   */\n      revert\n        /* \"#utility.yul\":12597:12599   */\n    tag_259:\n        /* \"#utility.yul\":12587:12666   */\n      pop\n      jump\t// out\n        /* \"#utility.yul\":12672:12794   */\n    tag_126:\n        /* \"#utility.yul\":12745:12769   */\n      tag_261\n        /* \"#utility.yul\":12763:12768   */\n      dup2\n        /* \"#utility.yul\":12745:12769   */\n      tag_192\n      jump\t// in\n    tag_261:\n        /* \"#utility.yul\":12738:12743   */\n      dup2\n        /* \"#utility.yul\":12735:12770   */\n      eq\n        /* \"#utility.yul\":12725:12727   */\n      tag_262\n      jumpi\n        /* \"#utility.yul\":12784:12785   */\n      0x00\n        /* \"#utility.yul\":12781:12782   */\n      dup1\n        /* \"#utility.yul\":12774:12786   */\n      revert\n        /* \"#utility.yul\":12725:12727   */\n    tag_262:\n        /* \"#utility.yul\":12715:12794   */\n      pop\n      jump\t// out\n\n    auxdata: 0xa264697066735822122071dacb91ae59a5b581261128493ea44f01f33f47b2eba8161bf171a0420633ea64736f6c63430008050033\n}\n",
				"bytecode": {
					"linkReferences": {},
					"object": "608060405260006001556040518060400160405280600f81526020017f4e6f2077696e6e65727320657665720000000000000000000000000000000000815250600590805190602001906200005692919062000203565b503480156200006457600080fd5b50336000806101000a81548173ffffffffffffffffffffffffffffffffffffffff021916908373ffffffffffffffffffffffffffffffffffffffff160217905550620000eb6040518060400160405280600c81526020017f426974636f696e20636c756200000000000000000000000000000000000000008152506200017d60201b60201c565b620001316040518060400160405280600d81526020017f457468657265756d20636c7562000000000000000000000000000000000000008152506200017d60201b60201c565b620001776040518060400160405280600b81526020017f536f6c616e6120636c75620000000000000000000000000000000000000000008152506200017d60201b60201c565b6200039f565b600460008154809291906200019290620002f3565b9190505550604051806060016040528060045481526020018281526020016000815250600360006004548152602001908152602001600020600082015181600001556020820151816001019080519060200190620001f292919062000203565b506040820151816002015590505050565b8280546200021190620002bd565b90600052602060002090601f01602090048101928262000235576000855562000281565b82601f106200025057805160ff191683800117855562000281565b8280016001018555821562000281579182015b828111156200028057825182559160200191906001019062000263565b5b50905062000290919062000294565b5090565b5b80821115620002af57600081600090555060010162000295565b5090565b6000819050919050565b60006002820490506001821680620002d657607f821691505b60208210811415620002ed57620002ec62000370565b5b50919050565b60006200030082620002b3565b91507fffffffffffffffffffffffffffffffffffffffffffffffffffffffffffffffff82141562000336576200033562000341565b5b600182019050919050565b7f4e487b7100000000000000000000000000000000000000000000000000000000600052601160045260246000fd5b7f4e487b7100000000000000000000000000000000000000000000000000000000600052602260045260246000fd5b6110bf80620003af6000396000f3fe608060405234801561001057600080fd5b50600436106100a95760003560e01c8063692aa97e11610071578063692aa97e146101565780636c6c32d014610174578063a3ec138d1461017e578063c5d00f5d146101ae578063d28178d7146101b8578063e6eea09b146101c2576100a9565b80630121b93f146100ae5780632d35a8a2146100ca5780633477ee2e146100e857806335cc6f021461011a57806353357ad014610138575b600080fd5b6100c860048036038101906100c39190610a2b565b6101cc565b005b6100d2610432565b6040516100df9190610ceb565b60405180910390f35b61010260048036038101906100fd9190610a2b565b610438565b60405161011193929190610d06565b60405180910390f35b6101226104ea565b60405161012f9190610be9565b60405180910390f35b610140610578565b60405161014d9190610bb3565b60405180910390f35b61015e61059c565b60405161016b9190610ceb565b60405180910390f35b61017c6105a2565b005b610198600480360381019061019391906109fe565b610641565b6040516101a59190610bce565b60405180910390f35b6101b6610661565b005b6101c06106f8565b005b6101ca61089b565b005b600260015414610211576040517f08c379a000000000000000000000000000000000000000000000000000000000815260040161020890610c8b565b60405180910390fd5b60008054906101000a900473ffffffffffffffffffffffffffffffffffffffff1673ffffffffffffffffffffffffffffffffffffffff163373ffffffffffffffffffffffffffffffffffffffff1614156102a0576040517f08c379a000000000000000000000000000000000000000000000000000000000815260040161029790610cab565b60405180910390fd5b600260003373ffffffffffffffffffffffffffffffffffffffff1673ffffffffffffffffffffffffffffffffffffffff16815260200190815260200160002060009054906101000a900460ff161561032d576040517f08c379a000000000000000000000000000000000000000000000000000000000815260040161032490610c4b565b60405180910390fd5b60008111801561033f57506004548111155b61037e576040517f08c379a000000000000000000000000000000000000000000000000000000000815260040161037590610c6b565b60405180910390fd5b6001600260003373ffffffffffffffffffffffffffffffffffffffff1673ffffffffffffffffffffffffffffffffffffffff16815260200190815260200160002060006101000a81548160ff0219169083151502179055506003600082815260200190815260200160002060020160008154809291906103fd90610e0d565b9190505550807fe447c5464cb203c1da94b4db8588d3cbf313ce4a489122f6b88e87f465b2810e60405160405180910390a250565b60045481565b600360205280600052604060002060009150905080600001549080600101805461046190610ddb565b80601f016020809104026020016040519081016040528092919081815260200182805461048d90610ddb565b80156104da5780601f106104af576101008083540402835291602001916104da565b820191906000526020600020905b8154815290600101906020018083116104bd57829003601f168201915b5050505050908060020154905083565b600580546104f790610ddb565b80601f016020809104026020016040519081016040528092919081815260200182805461052390610ddb565b80156105705780601f1061054557610100808354040283529160200191610570565b820191906000526020600020905b81548152906001019060200180831161055357829003601f168201915b505050505081565b60008054906101000a900473ffffffffffffffffffffffffffffffffffffffff1681565b60015481565b3373ffffffffffffffffffffffffffffffffffffffff1660008054906101000a900473ffffffffffffffffffffffffffffffffffffffff1673ffffffffffffffffffffffffffffffffffffffff16146105fa57600080fd5b60006001819055507fd7ace8df86fe447dcb1863c10e02577466cffc25cec49790f8b1e5d31cd9cd5660405161062f90610c2b565b60405180910390a161063f6106f8565b565b60026020528060005260406000206000915054906101000a900460ff1681565b3373ffffffffffffffffffffffffffffffffffffffff1660008054906101000a900473ffffffffffffffffffffffffffffffffffffffff1673ffffffffffffffffffffffffffffffffffffffff16146106b957600080fd5b60026001819055507fd7ace8df86fe447dcb1863c10e02577466cffc25cec49790f8b1e5d31cd9cd566040516106ee90610ccb565b60405180910390a1565b60006040518060200160405280600081525090506000805b6004548110156108065781600360008381526020019081526020016000206002015411156107f3576003600082815260200190815260200160002060020154915060036000828152602001908152602001600020600101805461077290610ddb565b80601f016020809104026020016040519081016040528092919081815260200182805461079e90610ddb565b80156107eb5780601f106107c0576101008083540402835291602001916107eb565b820191906000526020600020905b8154815290600101906020018083116107ce57829003601f168201915b505050505092505b80806107fe90610e0d565b915050610710565b506000811415610849576040518060400160405280601081526020017f4e6f2063616e64696461746520776f6e0000000000000000000000000000000081525091505b816005908051906020019061085f929190610931565b507fae2b5fbf864d50a79d0fe2892e3ba1514ce30506f20c27ce4154f6c84719fa318260405161088f9190610be9565b60405180910390a15050565b3373ffffffffffffffffffffffffffffffffffffffff1660008054906101000a900473ffffffffffffffffffffffffffffffffffffffff1673ffffffffffffffffffffffffffffffffffffffff16146108f357600080fd5b600180819055507fd7ace8df86fe447dcb1863c10e02577466cffc25cec49790f8b1e5d31cd9cd5660405161092790610c0b565b60405180910390a1565b82805461093d90610ddb565b90600052602060002090601f01602090048101928261095f57600085556109a6565b82601f1061097857805160ff19168380011785556109a6565b828001600101855582156109a6579182015b828111156109a557825182559160200191906001019061098a565b5b5090506109b391906109b7565b5090565b5b808211156109d05760008160009055506001016109b8565b5090565b6000813590506109e38161105b565b92915050565b6000813590506109f881611072565b92915050565b600060208284031215610a1457610a13610eb4565b5b6000610a22848285016109d4565b91505092915050565b600060208284031215610a4157610a40610eb4565b5b6000610a4f848285016109e9565b91505092915050565b610a6181610d60565b82525050565b610a7081610d72565b82525050565b6000610a8182610d44565b610a8b8185610d4f565b9350610a9b818560208601610da8565b610aa481610eb9565b840191505092915050565b6000610abc600683610d4f565b9150610ac782610eca565b602082019050919050565b6000610adf600683610d4f565b9150610aea82610ef3565b602082019050919050565b6000610b02602383610d4f565b9150610b0d82610f1c565b604082019050919050565b6000610b25602583610d4f565b9150610b3082610f6b565b604082019050919050565b6000610b48601a83610d4f565b9150610b5382610fba565b602082019050919050565b6000610b6b602983610d4f565b9150610b7682610fe3565b604082019050919050565b6000610b8e600683610d4f565b9150610b9982611032565b602082019050919050565b610bad81610d9e565b82525050565b6000602082019050610bc86000830184610a58565b92915050565b6000602082019050610be36000830184610a67565b92915050565b60006020820190508181036000830152610c038184610a76565b905092915050565b60006020820190508181036000830152610c2481610aaf565b9050919050565b60006020820190508181036000830152610c4481610ad2565b9050919050565b60006020820190508181036000830152610c6481610af5565b9050919050565b60006020820190508181036000830152610c8481610b18565b9050919050565b60006020820190508181036000830152610ca481610b3b565b9050919050565b60006020820190508181036000830152610cc481610b5e565b9050919050565b60006020820190508181036000830152610ce481610b81565b9050919050565b6000602082019050610d006000830184610ba4565b92915050565b6000606082019050610d1b6000830186610ba4565b8181036020830152610d2d8185610a76565b9050610d3c6040830184610ba4565b949350505050565b600081519050919050565b600082825260208201905092915050565b6000610d6b82610d7e565b9050919050565b60008115159050919050565b600073ffffffffffffffffffffffffffffffffffffffff82169050919050565b6000819050919050565b60005b83811015610dc6578082015181840152602081019050610dab565b83811115610dd5576000848401525b50505050565b60006002820490506001821680610df357607f821691505b60208210811415610e0757610e06610e85565b5b50919050565b6000610e1882610d9e565b91507fffffffffffffffffffffffffffffffffffffffffffffffffffffffffffffffff821415610e4b57610e4a610e56565b5b600182019050919050565b7f4e487b7100000000000000000000000000000000000000000000000000000000600052601160045260246000fd5b7f4e487b7100000000000000000000000000000000000000000000000000000000600052602260045260246000fd5b600080fd5b6000601f19601f8301169050919050565b7f5061757365640000000000000000000000000000000000000000000000000000600082015250565b7f436c6f7365640000000000000000000000000000000000000000000000000000600082015250565b7f5468697320616464726573732068617320616c726561647920766f746564206f60008201527f6e63650000000000000000000000000000000000000000000000000000000000602082015250565b7f5468652073656c65637465642063616e64696461746520646f6573206e6f742060008201527f6578697374000000000000000000000000000000000000000000000000000000602082015250565b7f54686520656c656374696f6e206973206e6f74206f70656e6564000000000000600082015250565b7f54686520656c656374696f6e206f776e6572206973206e6f7420616c6c6f776560008201527f6420746f20766f74650000000000000000000000000000000000000000000000602082015250565b7f4f70656e65640000000000000000000000000000000000000000000000000000600082015250565b61106481610d60565b811461106f57600080fd5b50565b61107b81610d9e565b811461108657600080fd5b5056fea264697066735822122071dacb91ae59a5b581261128493ea44f01f33f47b2eba8161bf171a0420633ea64736f6c63430008050033",
					"opcodes": "PUSH1 0x80 PUSH1 0x40 MSTORE PUSH1 0x0 PUSH1 0x1 SSTORE PUSH1 0x40 MLOAD DUP1 PUSH1 0x40 ADD PUSH1 0x40 MSTORE DUP1 PUSH1 0xF DUP2 MSTORE PUSH1 0x20 ADD PUSH32 0x4E6F2077696E6E65727320657665720000000000000000000000000000000000 DUP2 MSTORE POP PUSH1 0x5 SWAP1 DUP1 MLOAD SWAP1 PUSH1 0x20 ADD SWAP1 PUSH3 0x56 SWAP3 SWAP2 SWAP1 PUSH3 0x203 JUMP JUMPDEST POP CALLVALUE DUP1 ISZERO PUSH3 0x64 JUMPI PUSH1 0x0 DUP1 REVERT JUMPDEST POP CALLER PUSH1 0x0 DUP1 PUSH2 0x100 EXP DUP2 SLOAD DUP2 PUSH20 0xFFFFFFFFFFFFFFFFFFFFFFFFFFFFFFFFFFFFFFFF MUL NOT AND SWAP1 DUP4 PUSH20 0xFFFFFFFFFFFFFFFFFFFFFFFFFFFFFFFFFFFFFFFF AND MUL OR SWAP1 SSTORE POP PUSH3 0xEB PUSH1 0x40 MLOAD DUP1 PUSH1 0x40 ADD PUSH1 0x40 MSTORE DUP1 PUSH1 0xC DUP2 MSTORE PUSH1 0x20 ADD PUSH32 0x426974636F696E20636C75620000000000000000000000000000000000000000 DUP2 MSTORE POP PUSH3 0x17D PUSH1 0x20 SHL PUSH1 0x20 SHR JUMP JUMPDEST PUSH3 0x131 PUSH1 0x40 MLOAD DUP1 PUSH1 0x40 ADD PUSH1 0x40 MSTORE DUP1 PUSH1 0xD DUP2 MSTORE PUSH1 0x20 ADD PUSH32 0x457468657265756D20636C756200000000000000000000000000000000000000 DUP2 MSTORE POP PUSH3 0x17D PUSH1 0x20 SHL PUSH1 0x20 SHR JUMP JUMPDEST PUSH3 0x177 PUSH1 0x40 MLOAD DUP1 PUSH1 0x40 ADD PUSH1 0x40 MSTORE DUP1 PUSH1 0xB DUP2 MSTORE PUSH1 0x20 ADD PUSH32 0x536F6C616E6120636C7562000000000000000000000000000000000000000000 DUP2 MSTORE POP PUSH3 0x17D PUSH1 0x20 SHL PUSH1 0x20 SHR JUMP JUMPDEST PUSH3 0x39F JUMP JUMPDEST PUSH1 0x4 PUSH1 0x0 DUP2 SLOAD DUP1 SWAP3 SWAP2 SWAP1 PUSH3 0x192 SWAP1 PUSH3 0x2F3 JUMP JUMPDEST SWAP2 SWAP1 POP SSTORE POP PUSH1 0x40 MLOAD DUP1 PUSH1 0x60 ADD PUSH1 0x40 MSTORE DUP1 PUSH1 0x4 SLOAD DUP2 MSTORE PUSH1 0x20 ADD DUP3 DUP2 MSTORE PUSH1 0x20 ADD PUSH1 0x0 DUP2 MSTORE POP PUSH1 0x3 PUSH1 0x0 PUSH1 0x4 SLOAD DUP2 MSTORE PUSH1 0x20 ADD SWAP1 DUP2 MSTORE PUSH1 0x20 ADD PUSH1 0x0 KECCAK256 PUSH1 0x0 DUP3 ADD MLOAD DUP2 PUSH1 0x0 ADD SSTORE PUSH1 0x20 DUP3 ADD MLOAD DUP2 PUSH1 0x1 ADD SWAP1 DUP1 MLOAD SWAP1 PUSH1 0x20 ADD SWAP1 PUSH3 0x1F2 SWAP3 SWAP2 SWAP1 PUSH3 0x203 JUMP JUMPDEST POP PUSH1 0x40 DUP3 ADD MLOAD DUP2 PUSH1 0x2 ADD SSTORE SWAP1 POP POP POP JUMP JUMPDEST DUP3 DUP1 SLOAD PUSH3 0x211 SWAP1 PUSH3 0x2BD JUMP JUMPDEST SWAP1 PUSH1 0x0 MSTORE PUSH1 0x20 PUSH1 0x0 KECCAK256 SWAP1 PUSH1 0x1F ADD PUSH1 0x20 SWAP1 DIV DUP2 ADD SWAP3 DUP3 PUSH3 0x235 JUMPI PUSH1 0x0 DUP6 SSTORE PUSH3 0x281 JUMP JUMPDEST DUP3 PUSH1 0x1F LT PUSH3 0x250 JUMPI DUP1 MLOAD PUSH1 0xFF NOT AND DUP4 DUP1 ADD OR DUP6 SSTORE PUSH3 0x281 JUMP JUMPDEST DUP3 DUP1 ADD PUSH1 0x1 ADD DUP6 SSTORE DUP3 ISZERO PUSH3 0x281 JUMPI SWAP2 DUP3 ADD JUMPDEST DUP3 DUP2 GT ISZERO PUSH3 0x280 JUMPI DUP3 MLOAD DUP3 SSTORE SWAP2 PUSH1 0x20 ADD SWAP2 SWAP1 PUSH1 0x1 ADD SWAP1 PUSH3 0x263 JUMP JUMPDEST JUMPDEST POP SWAP1 POP PUSH3 0x290 SWAP2 SWAP1 PUSH3 0x294 JUMP JUMPDEST POP SWAP1 JUMP JUMPDEST JUMPDEST DUP1 DUP3 GT ISZERO PUSH3 0x2AF JUMPI PUSH1 0x0 DUP2 PUSH1 0x0 SWAP1 SSTORE POP PUSH1 0x1 ADD PUSH3 0x295 JUMP JUMPDEST POP SWAP1 JUMP JUMPDEST PUSH1 0x0 DUP2 SWAP1 POP SWAP2 SWAP1 POP JUMP JUMPDEST PUSH1 0x0 PUSH1 0x2 DUP3 DIV SWAP1 POP PUSH1 0x1 DUP3 AND DUP1 PUSH3 0x2D6 JUMPI PUSH1 0x7F DUP3 AND SWAP2 POP JUMPDEST PUSH1 0x20 DUP3 LT DUP2 EQ ISZERO PUSH3 0x2ED JUMPI PUSH3 0x2EC PUSH3 0x370 JUMP JUMPDEST JUMPDEST POP SWAP2 SWAP1 POP JUMP JUMPDEST PUSH1 0x0 PUSH3 0x300 DUP3 PUSH3 0x2B3 JUMP JUMPDEST SWAP2 POP PUSH32 0xFFFFFFFFFFFFFFFFFFFFFFFFFFFFFFFFFFFFFFFFFFFFFFFFFFFFFFFFFFFFFFFF DUP3 EQ ISZERO PUSH3 0x336 JUMPI PUSH3 0x335 PUSH3 0x341 JUMP JUMPDEST JUMPDEST PUSH1 0x1 DUP3 ADD SWAP1 POP SWAP2 SWAP1 POP JUMP JUMPDEST PUSH32 0x4E487B7100000000000000000000000000000000000000000000000000000000 PUSH1 0x0 MSTORE PUSH1 0x11 PUSH1 0x4 MSTORE PUSH1 0x24 PUSH1 0x0 REVERT JUMPDEST PUSH32 0x4E487B7100000000000000000000000000000000000000000000000000000000 PUSH1 0x0 MSTORE PUSH1 0x22 PUSH1 0x4 MSTORE PUSH1 0x24 PUSH1 0x0 REVERT JUMPDEST PUSH2 0x10BF DUP1 PUSH3 0x3AF PUSH1 0x0 CODECOPY PUSH1 0x0 RETURN INVALID PUSH1 0x80 PUSH1 0x40 MSTORE CALLVALUE DUP1 ISZERO PUSH2 0x10 JUMPI PUSH1 0x0 DUP1 REVERT JUMPDEST POP PUSH1 0x4 CALLDATASIZE LT PUSH2 0xA9 JUMPI PUSH1 0x0 CALLDATALOAD PUSH1 0xE0 SHR DUP1 PUSH4 0x692AA97E GT PUSH2 0x71 JUMPI DUP1 PUSH4 0x692AA97E EQ PUSH2 0x156 JUMPI DUP1 PUSH4 0x6C6C32D0 EQ PUSH2 0x174 JUMPI DUP1 PUSH4 0xA3EC138D EQ PUSH2 0x17E JUMPI DUP1 PUSH4 0xC5D00F5D EQ PUSH2 0x1AE JUMPI DUP1 PUSH4 0xD28178D7 EQ PUSH2 0x1B8 JUMPI DUP1 PUSH4 0xE6EEA09B EQ PUSH2 0x1C2 JUMPI PUSH2 0xA9 JUMP JUMPDEST DUP1 PUSH4 0x121B93F EQ PUSH2 0xAE JUMPI DUP1 PUSH4 0x2D35A8A2 EQ PUSH2 0xCA JUMPI DUP1 PUSH4 0x3477EE2E EQ PUSH2 0xE8 JUMPI DUP1 PUSH4 0x35CC6F02 EQ PUSH2 0x11A JUMPI DUP1 PUSH4 0x53357AD0 EQ PUSH2 0x138 JUMPI JUMPDEST PUSH1 0x0 DUP1 REVERT JUMPDEST PUSH2 0xC8 PUSH1 0x4 DUP1 CALLDATASIZE SUB DUP2 ADD SWAP1 PUSH2 0xC3 SWAP2 SWAP1 PUSH2 0xA2B JUMP JUMPDEST PUSH2 0x1CC JUMP JUMPDEST STOP JUMPDEST PUSH2 0xD2 PUSH2 0x432 JUMP JUMPDEST PUSH1 0x40 MLOAD PUSH2 0xDF SWAP2 SWAP1 PUSH2 0xCEB JUMP JUMPDEST PUSH1 0x40 MLOAD DUP1 SWAP2 SUB SWAP1 RETURN JUMPDEST PUSH2 0x102 PUSH1 0x4 DUP1 CALLDATASIZE SUB DUP2 ADD SWAP1 PUSH2 0xFD SWAP2 SWAP1 PUSH2 0xA2B JUMP JUMPDEST PUSH2 0x438 JUMP JUMPDEST PUSH1 0x40 MLOAD PUSH2 0x111 SWAP4 SWAP3 SWAP2 SWAP1 PUSH2 0xD06 JUMP JUMPDEST PUSH1 0x40 MLOAD DUP1 SWAP2 SUB SWAP1 RETURN JUMPDEST PUSH2 0x122 PUSH2 0x4EA JUMP JUMPDEST PUSH1 0x40 MLOAD PUSH2 0x12F SWAP2 SWAP1 PUSH2 0xBE9 JUMP JUMPDEST PUSH1 0x40 MLOAD DUP1 SWAP2 SUB SWAP1 RETURN JUMPDEST PUSH2 0x140 PUSH2 0x578 JUMP JUMPDEST PUSH1 0x40 MLOAD PUSH2 0x14D SWAP2 SWAP1 PUSH2 0xBB3 JUMP JUMPDEST PUSH1 0x40 MLOAD DUP1 SWAP2 SUB SWAP1 RETURN JUMPDEST PUSH2 0x15E PUSH2 0x59C JUMP JUMPDEST PUSH1 0x40 MLOAD PUSH2 0x16B SWAP2 SWAP1 PUSH2 0xCEB JUMP JUMPDEST PUSH1 0x40 MLOAD DUP1 SWAP2 SUB SWAP1 RETURN JUMPDEST PUSH2 0x17C PUSH2 0x5A2 JUMP JUMPDEST STOP JUMPDEST PUSH2 0x198 PUSH1 0x4 DUP1 CALLDATASIZE SUB DUP2 ADD SWAP1 PUSH2 0x193 SWAP2 SWAP1 PUSH2 0x9FE JUMP JUMPDEST PUSH2 0x641 JUMP JUMPDEST PUSH1 0x40 MLOAD PUSH2 0x1A5 SWAP2 SWAP1 PUSH2 0xBCE JUMP JUMPDEST PUSH1 0x40 MLOAD DUP1 SWAP2 SUB SWAP1 RETURN JUMPDEST PUSH2 0x1B6 PUSH2 0x661 JUMP JUMPDEST STOP JUMPDEST PUSH2 0x1C0 PUSH2 0x6F8 JUMP JUMPDEST STOP JUMPDEST PUSH2 0x1CA PUSH2 0x89B JUMP JUMPDEST STOP JUMPDEST PUSH1 0x2 PUSH1 0x1 SLOAD EQ PUSH2 0x211 JUMPI PUSH1 0x40 MLOAD PUSH32 0x8C379A000000000000000000000000000000000000000000000000000000000 DUP2 MSTORE PUSH1 0x4 ADD PUSH2 0x208 SWAP1 PUSH2 0xC8B JUMP JUMPDEST PUSH1 0x40 MLOAD DUP1 SWAP2 SUB SWAP1 REVERT JUMPDEST PUSH1 0x0 DUP1 SLOAD SWAP1 PUSH2 0x100 EXP SWAP1 DIV PUSH20 0xFFFFFFFFFFFFFFFFFFFFFFFFFFFFFFFFFFFFFFFF AND PUSH20 0xFFFFFFFFFFFFFFFFFFFFFFFFFFFFFFFFFFFFFFFF AND CALLER PUSH20 0xFFFFFFFFFFFFFFFFFFFFFFFFFFFFFFFFFFFFFFFF AND EQ ISZERO PUSH2 0x2A0 JUMPI PUSH1 0x40 MLOAD PUSH32 0x8C379A000000000000000000000000000000000000000000000000000000000 DUP2 MSTORE PUSH1 0x4 ADD PUSH2 0x297 SWAP1 PUSH2 0xCAB JUMP JUMPDEST PUSH1 0x40 MLOAD DUP1 SWAP2 SUB SWAP1 REVERT JUMPDEST PUSH1 0x2 PUSH1 0x0 CALLER PUSH20 0xFFFFFFFFFFFFFFFFFFFFFFFFFFFFFFFFFFFFFFFF AND PUSH20 0xFFFFFFFFFFFFFFFFFFFFFFFFFFFFFFFFFFFFFFFF AND DUP2 MSTORE PUSH1 0x20 ADD SWAP1 DUP2 MSTORE PUSH1 0x20 ADD PUSH1 0x0 KECCAK256 PUSH1 0x0 SWAP1 SLOAD SWAP1 PUSH2 0x100 EXP SWAP1 DIV PUSH1 0xFF AND ISZERO PUSH2 0x32D JUMPI PUSH1 0x40 MLOAD PUSH32 0x8C379A000000000000000000000000000000000000000000000000000000000 DUP2 MSTORE PUSH1 0x4 ADD PUSH2 0x324 SWAP1 PUSH2 0xC4B JUMP JUMPDEST PUSH1 0x40 MLOAD DUP1 SWAP2 SUB SWAP1 REVERT JUMPDEST PUSH1 0x0 DUP2 GT DUP1 ISZERO PUSH2 0x33F JUMPI POP PUSH1 0x4 SLOAD DUP2 GT ISZERO JUMPDEST PUSH2 0x37E JUMPI PUSH1 0x40 MLOAD PUSH32 0x8C379A000000000000000000000000000000000000000000000000000000000 DUP2 MSTORE PUSH1 0x4 ADD PUSH2 0x375 SWAP1 PUSH2 0xC6B JUMP JUMPDEST PUSH1 0x40 MLOAD DUP1 SWAP2 SUB SWAP1 REVERT JUMPDEST PUSH1 0x1 PUSH1 0x2 PUSH1 0x0 CALLER PUSH20 0xFFFFFFFFFFFFFFFFFFFFFFFFFFFFFFFFFFFFFFFF AND PUSH20 0xFFFFFFFFFFFFFFFFFFFFFFFFFFFFFFFFFFFFFFFF AND DUP2 MSTORE PUSH1 0x20 ADD SWAP1 DUP2 MSTORE PUSH1 0x20 ADD PUSH1 0x0 KECCAK256 PUSH1 0x0 PUSH2 0x100 EXP DUP2 SLOAD DUP2 PUSH1 0xFF MUL NOT AND SWAP1 DUP4 ISZERO ISZERO MUL OR SWAP1 SSTORE POP PUSH1 0x3 PUSH1 0x0 DUP3 DUP2 MSTORE PUSH1 0x20 ADD SWAP1 DUP2 MSTORE PUSH1 0x20 ADD PUSH1 0x0 KECCAK256 PUSH1 0x2 ADD PUSH1 0x0 DUP2 SLOAD DUP1 SWAP3 SWAP2 SWAP1 PUSH2 0x3FD SWAP1 PUSH2 0xE0D JUMP JUMPDEST SWAP2 SWAP1 POP SSTORE POP DUP1 PUSH32 0xE447C5464CB203C1DA94B4DB8588D3CBF313CE4A489122F6B88E87F465B2810E PUSH1 0x40 MLOAD PUSH1 0x40 MLOAD DUP1 SWAP2 SUB SWAP1 LOG2 POP JUMP JUMPDEST PUSH1 0x4 SLOAD DUP2 JUMP JUMPDEST PUSH1 0x3 PUSH1 0x20 MSTORE DUP1 PUSH1 0x0 MSTORE PUSH1 0x40 PUSH1 0x0 KECCAK256 PUSH1 0x0 SWAP2 POP SWAP1 POP DUP1 PUSH1 0x0 ADD SLOAD SWAP1 DUP1 PUSH1 0x1 ADD DUP1 SLOAD PUSH2 0x461 SWAP1 PUSH2 0xDDB JUMP JUMPDEST DUP1 PUSH1 0x1F ADD PUSH1 0x20 DUP1 SWAP2 DIV MUL PUSH1 0x20 ADD PUSH1 0x40 MLOAD SWAP1 DUP2 ADD PUSH1 0x40 MSTORE DUP1 SWAP3 SWAP2 SWAP1 DUP2 DUP2 MSTORE PUSH1 0x20 ADD DUP3 DUP1 SLOAD PUSH2 0x48D SWAP1 PUSH2 0xDDB JUMP JUMPDEST DUP1 ISZERO PUSH2 0x4DA JUMPI DUP1 PUSH1 0x1F LT PUSH2 0x4AF JUMPI PUSH2 0x100 DUP1 DUP4 SLOAD DIV MUL DUP4 MSTORE SWAP2 PUSH1 0x20 ADD SWAP2 PUSH2 0x4DA JUMP JUMPDEST DUP3 ADD SWAP2 SWAP1 PUSH1 0x0 MSTORE PUSH1 0x20 PUSH1 0x0 KECCAK256 SWAP1 JUMPDEST DUP2 SLOAD DUP2 MSTORE SWAP1 PUSH1 0x1 ADD SWAP1 PUSH1 0x20 ADD DUP1 DUP4 GT PUSH2 0x4BD JUMPI DUP3 SWAP1 SUB PUSH1 0x1F AND DUP3 ADD SWAP2 JUMPDEST POP POP POP POP POP SWAP1 DUP1 PUSH1 0x2 ADD SLOAD SWAP1 POP DUP4 JUMP JUMPDEST PUSH1 0x5 DUP1 SLOAD PUSH2 0x4F7 SWAP1 PUSH2 0xDDB JUMP JUMPDEST DUP1 PUSH1 0x1F ADD PUSH1 0x20 DUP1 SWAP2 DIV MUL PUSH1 0x20 ADD PUSH1 0x40 MLOAD SWAP1 DUP2 ADD PUSH1 0x40 MSTORE DUP1 SWAP3 SWAP2 SWAP1 DUP2 DUP2 MSTORE PUSH1 0x20 ADD DUP3 DUP1 SLOAD PUSH2 0x523 SWAP1 PUSH2 0xDDB JUMP JUMPDEST DUP1 ISZERO PUSH2 0x570 JUMPI DUP1 PUSH1 0x1F LT PUSH2 0x545 JUMPI PUSH2 0x100 DUP1 DUP4 SLOAD DIV MUL DUP4 MSTORE SWAP2 PUSH1 0x20 ADD SWAP2 PUSH2 0x570 JUMP JUMPDEST DUP3 ADD SWAP2 SWAP1 PUSH1 0x0 MSTORE PUSH1 0x20 PUSH1 0x0 KECCAK256 SWAP1 JUMPDEST DUP2 SLOAD DUP2 MSTORE SWAP1 PUSH1 0x1 ADD SWAP1 PUSH1 0x20 ADD DUP1 DUP4 GT PUSH2 0x553 JUMPI DUP3 SWAP1 SUB PUSH1 0x1F AND DUP3 ADD SWAP2 JUMPDEST POP POP POP POP POP DUP2 JUMP JUMPDEST PUSH1 0x0 DUP1 SLOAD SWAP1 PUSH2 0x100 EXP SWAP1 DIV PUSH20 0xFFFFFFFFFFFFFFFFFFFFFFFFFFFFFFFFFFFFFFFF AND DUP2 JUMP JUMPDEST PUSH1 0x1 SLOAD DUP2 JUMP JUMPDEST CALLER PUSH20 0xFFFFFFFFFFFFFFFFFFFFFFFFFFFFFFFFFFFFFFFF AND PUSH1 0x0 DUP1 SLOAD SWAP1 PUSH2 0x100 EXP SWAP1 DIV PUSH20 0xFFFFFFFFFFFFFFFFFFFFFFFFFFFFFFFFFFFFFFFF AND PUSH20 0xFFFFFFFFFFFFFFFFFFFFFFFFFFFFFFFFFFFFFFFF AND EQ PUSH2 0x5FA JUMPI PUSH1 0x0 DUP1 REVERT JUMPDEST PUSH1 0x0 PUSH1 0x1 DUP2 SWAP1 SSTORE POP PUSH32 0xD7ACE8DF86FE447DCB1863C10E02577466CFFC25CEC49790F8B1E5D31CD9CD56 PUSH1 0x40 MLOAD PUSH2 0x62F SWAP1 PUSH2 0xC2B JUMP JUMPDEST PUSH1 0x40 MLOAD DUP1 SWAP2 SUB SWAP1 LOG1 PUSH2 0x63F PUSH2 0x6F8 JUMP JUMPDEST JUMP JUMPDEST PUSH1 0x2 PUSH1 0x20 MSTORE DUP1 PUSH1 0x0 MSTORE PUSH1 0x40 PUSH1 0x0 KECCAK256 PUSH1 0x0 SWAP2 POP SLOAD SWAP1 PUSH2 0x100 EXP SWAP1 DIV PUSH1 0xFF AND DUP2 JUMP JUMPDEST CALLER PUSH20 0xFFFFFFFFFFFFFFFFFFFFFFFFFFFFFFFFFFFFFFFF AND PUSH1 0x0 DUP1 SLOAD SWAP1 PUSH2 0x100 EXP SWAP1 DIV PUSH20 0xFFFFFFFFFFFFFFFFFFFFFFFFFFFFFFFFFFFFFFFF AND PUSH20 0xFFFFFFFFFFFFFFFFFFFFFFFFFFFFFFFFFFFFFFFF AND EQ PUSH2 0x6B9 JUMPI PUSH1 0x0 DUP1 REVERT JUMPDEST PUSH1 0x2 PUSH1 0x1 DUP2 SWAP1 SSTORE POP PUSH32 0xD7ACE8DF86FE447DCB1863C10E02577466CFFC25CEC49790F8B1E5D31CD9CD56 PUSH1 0x40 MLOAD PUSH2 0x6EE SWAP1 PUSH2 0xCCB JUMP JUMPDEST PUSH1 0x40 MLOAD DUP1 SWAP2 SUB SWAP1 LOG1 JUMP JUMPDEST PUSH1 0x0 PUSH1 0x40 MLOAD DUP1 PUSH1 0x20 ADD PUSH1 0x40 MSTORE DUP1 PUSH1 0x0 DUP2 MSTORE POP SWAP1 POP PUSH1 0x0 DUP1 JUMPDEST PUSH1 0x4 SLOAD DUP2 LT ISZERO PUSH2 0x806 JUMPI DUP2 PUSH1 0x3 PUSH1 0x0 DUP4 DUP2 MSTORE PUSH1 0x20 ADD SWAP1 DUP2 MSTORE PUSH1 0x20 ADD PUSH1 0x0 KECCAK256 PUSH1 0x2 ADD SLOAD GT ISZERO PUSH2 0x7F3 JUMPI PUSH1 0x3 PUSH1 0x0 DUP3 DUP2 MSTORE PUSH1 0x20 ADD SWAP1 DUP2 MSTORE PUSH1 0x20 ADD PUSH1 0x0 KECCAK256 PUSH1 0x2 ADD SLOAD SWAP2 POP PUSH1 0x3 PUSH1 0x0 DUP3 DUP2 MSTORE PUSH1 0x20 ADD SWAP1 DUP2 MSTORE PUSH1 0x20 ADD PUSH1 0x0 KECCAK256 PUSH1 0x1 ADD DUP1 SLOAD PUSH2 0x772 SWAP1 PUSH2 0xDDB JUMP JUMPDEST DUP1 PUSH1 0x1F ADD PUSH1 0x20 DUP1 SWAP2 DIV MUL PUSH1 0x20 ADD PUSH1 0x40 MLOAD SWAP1 DUP2 ADD PUSH1 0x40 MSTORE DUP1 SWAP3 SWAP2 SWAP1 DUP2 DUP2 MSTORE PUSH1 0x20 ADD DUP3 DUP1 SLOAD PUSH2 0x79E SWAP1 PUSH2 0xDDB JUMP JUMPDEST DUP1 ISZERO PUSH2 0x7EB JUMPI DUP1 PUSH1 0x1F LT PUSH2 0x7C0 JUMPI PUSH2 0x100 DUP1 DUP4 SLOAD DIV MUL DUP4 MSTORE SWAP2 PUSH1 0x20 ADD SWAP2 PUSH2 0x7EB JUMP JUMPDEST DUP3 ADD SWAP2 SWAP1 PUSH1 0x0 MSTORE PUSH1 0x20 PUSH1 0x0 KECCAK256 SWAP1 JUMPDEST DUP2 SLOAD DUP2 MSTORE SWAP1 PUSH1 0x1 ADD SWAP1 PUSH1 0x20 ADD DUP1 DUP4 GT PUSH2 0x7CE JUMPI DUP3 SWAP1 SUB PUSH1 0x1F AND DUP3 ADD SWAP2 JUMPDEST POP POP POP POP POP SWAP3 POP JUMPDEST DUP1 DUP1 PUSH2 0x7FE SWAP1 PUSH2 0xE0D JUMP JUMPDEST SWAP2 POP POP PUSH2 0x710 JUMP JUMPDEST POP PUSH1 0x0 DUP2 EQ ISZERO PUSH2 0x849 JUMPI PUSH1 0x40 MLOAD DUP1 PUSH1 0x40 ADD PUSH1 0x40 MSTORE DUP1 PUSH1 0x10 DUP2 MSTORE PUSH1 0x20 ADD PUSH32 0x4E6F2063616E64696461746520776F6E00000000000000000000000000000000 DUP2 MSTORE POP SWAP2 POP JUMPDEST DUP2 PUSH1 0x5 SWAP1 DUP1 MLOAD SWAP1 PUSH1 0x20 ADD SWAP1 PUSH2 0x85F SWAP3 SWAP2 SWAP1 PUSH2 0x931 JUMP JUMPDEST POP PUSH32 0xAE2B5FBF864D50A79D0FE2892E3BA1514CE30506F20C27CE4154F6C84719FA31 DUP3 PUSH1 0x40 MLOAD PUSH2 0x88F SWAP2 SWAP1 PUSH2 0xBE9 JUMP JUMPDEST PUSH1 0x40 MLOAD DUP1 SWAP2 SUB SWAP1 LOG1 POP POP JUMP JUMPDEST CALLER PUSH20 0xFFFFFFFFFFFFFFFFFFFFFFFFFFFFFFFFFFFFFFFF AND PUSH1 0x0 DUP1 SLOAD SWAP1 PUSH2 0x100 EXP SWAP1 DIV PUSH20 0xFFFFFFFFFFFFFFFFFFFFFFFFFFFFFFFFFFFFFFFF AND PUSH20 0xFFFFFFFFFFFFFFFFFFFFFFFFFFFFFFFFFFFFFFFF AND EQ PUSH2 0x8F3 JUMPI PUSH1 0x0 DUP1 REVERT JUMPDEST PUSH1 0x1 DUP1 DUP2 SWAP1 SSTORE POP PUSH32 0xD7ACE8DF86FE447DCB1863C10E02577466CFFC25CEC49790F8B1E5D31CD9CD56 PUSH1 0x40 MLOAD PUSH2 0x927 SWAP1 PUSH2 0xC0B JUMP JUMPDEST PUSH1 0x40 MLOAD DUP1 SWAP2 SUB SWAP1 LOG1 JUMP JUMPDEST DUP3 DUP1 SLOAD PUSH2 0x93D SWAP1 PUSH2 0xDDB JUMP JUMPDEST SWAP1 PUSH1 0x0 MSTORE PUSH1 0x20 PUSH1 0x0 KECCAK256 SWAP1 PUSH1 0x1F ADD PUSH1 0x20 SWAP1 DIV DUP2 ADD SWAP3 DUP3 PUSH2 0x95F JUMPI PUSH1 0x0 DUP6 SSTORE PUSH2 0x9A6 JUMP JUMPDEST DUP3 PUSH1 0x1F LT PUSH2 0x978 JUMPI DUP1 MLOAD PUSH1 0xFF NOT AND DUP4 DUP1 ADD OR DUP6 SSTORE PUSH2 0x9A6 JUMP JUMPDEST DUP3 DUP1 ADD PUSH1 0x1 ADD DUP6 SSTORE DUP3 ISZERO PUSH2 0x9A6 JUMPI SWAP2 DUP3 ADD JUMPDEST DUP3 DUP2 GT ISZERO PUSH2 0x9A5 JUMPI DUP3 MLOAD DUP3 SSTORE SWAP2 PUSH1 0x20 ADD SWAP2 SWAP1 PUSH1 0x1 ADD SWAP1 PUSH2 0x98A JUMP JUMPDEST JUMPDEST POP SWAP1 POP PUSH2 0x9B3 SWAP2 SWAP1 PUSH2 0x9B7 JUMP JUMPDEST POP SWAP1 JUMP JUMPDEST JUMPDEST DUP1 DUP3 GT ISZERO PUSH2 0x9D0 JUMPI PUSH1 0x0 DUP2 PUSH1 0x0 SWAP1 SSTORE POP PUSH1 0x1 ADD PUSH2 0x9B8 JUMP JUMPDEST POP SWAP1 JUMP JUMPDEST PUSH1 0x0 DUP2 CALLDATALOAD SWAP1 POP PUSH2 0x9E3 DUP2 PUSH2 0x105B JUMP JUMPDEST SWAP3 SWAP2 POP POP JUMP JUMPDEST PUSH1 0x0 DUP2 CALLDATALOAD SWAP1 POP PUSH2 0x9F8 DUP2 PUSH2 0x1072 JUMP JUMPDEST SWAP3 SWAP2 POP POP JUMP JUMPDEST PUSH1 0x0 PUSH1 0x20 DUP3 DUP5 SUB SLT ISZERO PUSH2 0xA14 JUMPI PUSH2 0xA13 PUSH2 0xEB4 JUMP JUMPDEST JUMPDEST PUSH1 0x0 PUSH2 0xA22 DUP5 DUP3 DUP6 ADD PUSH2 0x9D4 JUMP JUMPDEST SWAP2 POP POP SWAP3 SWAP2 POP POP JUMP JUMPDEST PUSH1 0x0 PUSH1 0x20 DUP3 DUP5 SUB SLT ISZERO PUSH2 0xA41 JUMPI PUSH2 0xA40 PUSH2 0xEB4 JUMP JUMPDEST JUMPDEST PUSH1 0x0 PUSH2 0xA4F DUP5 DUP3 DUP6 ADD PUSH2 0x9E9 JUMP JUMPDEST SWAP2 POP POP SWAP3 SWAP2 POP POP JUMP JUMPDEST PUSH2 0xA61 DUP2 PUSH2 0xD60 JUMP JUMPDEST DUP3 MSTORE POP POP JUMP JUMPDEST PUSH2 0xA70 DUP2 PUSH2 0xD72 JUMP JUMPDEST DUP3 MSTORE POP POP JUMP JUMPDEST PUSH1 0x0 PUSH2 0xA81 DUP3 PUSH2 0xD44 JUMP JUMPDEST PUSH2 0xA8B DUP2 DUP6 PUSH2 0xD4F JUMP JUMPDEST SWAP4 POP PUSH2 0xA9B DUP2 DUP6 PUSH1 0x20 DUP7 ADD PUSH2 0xDA8 JUMP JUMPDEST PUSH2 0xAA4 DUP2 PUSH2 0xEB9 JUMP JUMPDEST DUP5 ADD SWAP2 POP POP SWAP3 SWAP2 POP POP JUMP JUMPDEST PUSH1 0x0 PUSH2 0xABC PUSH1 0x6 DUP4 PUSH2 0xD4F JUMP JUMPDEST SWAP2 POP PUSH2 0xAC7 DUP3 PUSH2 0xECA JUMP JUMPDEST PUSH1 0x20 DUP3 ADD SWAP1 POP SWAP2 SWAP1 POP JUMP JUMPDEST PUSH1 0x0 PUSH2 0xADF PUSH1 0x6 DUP4 PUSH2 0xD4F JUMP JUMPDEST SWAP2 POP PUSH2 0xAEA DUP3 PUSH2 0xEF3 JUMP JUMPDEST PUSH1 0x20 DUP3 ADD SWAP1 POP SWAP2 SWAP1 POP JUMP JUMPDEST PUSH1 0x0 PUSH2 0xB02 PUSH1 0x23 DUP4 PUSH2 0xD4F JUMP JUMPDEST SWAP2 POP PUSH2 0xB0D DUP3 PUSH2 0xF1C JUMP JUMPDEST PUSH1 0x40 DUP3 ADD SWAP1 POP SWAP2 SWAP1 POP JUMP JUMPDEST PUSH1 0x0 PUSH2 0xB25 PUSH1 0x25 DUP4 PUSH2 0xD4F JUMP JUMPDEST SWAP2 POP PUSH2 0xB30 DUP3 PUSH2 0xF6B JUMP JUMPDEST PUSH1 0x40 DUP3 ADD SWAP1 POP SWAP2 SWAP1 POP JUMP JUMPDEST PUSH1 0x0 PUSH2 0xB48 PUSH1 0x1A DUP4 PUSH2 0xD4F JUMP JUMPDEST SWAP2 POP PUSH2 0xB53 DUP3 PUSH2 0xFBA JUMP JUMPDEST PUSH1 0x20 DUP3 ADD SWAP1 POP SWAP2 SWAP1 POP JUMP JUMPDEST PUSH1 0x0 PUSH2 0xB6B PUSH1 0x29 DUP4 PUSH2 0xD4F JUMP JUMPDEST SWAP2 POP PUSH2 0xB76 DUP3 PUSH2 0xFE3 JUMP JUMPDEST PUSH1 0x40 DUP3 ADD SWAP1 POP SWAP2 SWAP1 POP JUMP JUMPDEST PUSH1 0x0 PUSH2 0xB8E PUSH1 0x6 DUP4 PUSH2 0xD4F JUMP JUMPDEST SWAP2 POP PUSH2 0xB99 DUP3 PUSH2 0x1032 JUMP JUMPDEST PUSH1 0x20 DUP3 ADD SWAP1 POP SWAP2 SWAP1 POP JUMP JUMPDEST PUSH2 0xBAD DUP2 PUSH2 0xD9E JUMP JUMPDEST DUP3 MSTORE POP POP JUMP JUMPDEST PUSH1 0x0 PUSH1 0x20 DUP3 ADD SWAP1 POP PUSH2 0xBC8 PUSH1 0x0 DUP4 ADD DUP5 PUSH2 0xA58 JUMP JUMPDEST SWAP3 SWAP2 POP POP JUMP JUMPDEST PUSH1 0x0 PUSH1 0x20 DUP3 ADD SWAP1 POP PUSH2 0xBE3 PUSH1 0x0 DUP4 ADD DUP5 PUSH2 0xA67 JUMP JUMPDEST SWAP3 SWAP2 POP POP JUMP JUMPDEST PUSH1 0x0 PUSH1 0x20 DUP3 ADD SWAP1 POP DUP2 DUP2 SUB PUSH1 0x0 DUP4 ADD MSTORE PUSH2 0xC03 DUP2 DUP5 PUSH2 0xA76 JUMP JUMPDEST SWAP1 POP SWAP3 SWAP2 POP POP JUMP JUMPDEST PUSH1 0x0 PUSH1 0x20 DUP3 ADD SWAP1 POP DUP2 DUP2 SUB PUSH1 0x0 DUP4 ADD MSTORE PUSH2 0xC24 DUP2 PUSH2 0xAAF JUMP JUMPDEST SWAP1 POP SWAP2 SWAP1 POP JUMP JUMPDEST PUSH1 0x0 PUSH1 0x20 DUP3 ADD SWAP1 POP DUP2 DUP2 SUB PUSH1 0x0 DUP4 ADD MSTORE PUSH2 0xC44 DUP2 PUSH2 0xAD2 JUMP JUMPDEST SWAP1 POP SWAP2 SWAP1 POP JUMP JUMPDEST PUSH1 0x0 PUSH1 0x20 DUP3 ADD SWAP1 POP DUP2 DUP2 SUB PUSH1 0x0 DUP4 ADD MSTORE PUSH2 0xC64 DUP2 PUSH2 0xAF5 JUMP JUMPDEST SWAP1 POP SWAP2 SWAP1 POP JUMP JUMPDEST PUSH1 0x0 PUSH1 0x20 DUP3 ADD SWAP1 POP DUP2 DUP2 SUB PUSH1 0x0 DUP4 ADD MSTORE PUSH2 0xC84 DUP2 PUSH2 0xB18 JUMP JUMPDEST SWAP1 POP SWAP2 SWAP1 POP JUMP JUMPDEST PUSH1 0x0 PUSH1 0x20 DUP3 ADD SWAP1 POP DUP2 DUP2 SUB PUSH1 0x0 DUP4 ADD MSTORE PUSH2 0xCA4 DUP2 PUSH2 0xB3B JUMP JUMPDEST SWAP1 POP SWAP2 SWAP1 POP JUMP JUMPDEST PUSH1 0x0 PUSH1 0x20 DUP3 ADD SWAP1 POP DUP2 DUP2 SUB PUSH1 0x0 DUP4 ADD MSTORE PUSH2 0xCC4 DUP2 PUSH2 0xB5E JUMP JUMPDEST SWAP1 POP SWAP2 SWAP1 POP JUMP JUMPDEST PUSH1 0x0 PUSH1 0x20 DUP3 ADD SWAP1 POP DUP2 DUP2 SUB PUSH1 0x0 DUP4 ADD MSTORE PUSH2 0xCE4 DUP2 PUSH2 0xB81 JUMP JUMPDEST SWAP1 POP SWAP2 SWAP1 POP JUMP JUMPDEST PUSH1 0x0 PUSH1 0x20 DUP3 ADD SWAP1 POP PUSH2 0xD00 PUSH1 0x0 DUP4 ADD DUP5 PUSH2 0xBA4 JUMP JUMPDEST SWAP3 SWAP2 POP POP JUMP JUMPDEST PUSH1 0x0 PUSH1 0x60 DUP3 ADD SWAP1 POP PUSH2 0xD1B PUSH1 0x0 DUP4 ADD DUP7 PUSH2 0xBA4 JUMP JUMPDEST DUP2 DUP2 SUB PUSH1 0x20 DUP4 ADD MSTORE PUSH2 0xD2D DUP2 DUP6 PUSH2 0xA76 JUMP JUMPDEST SWAP1 POP PUSH2 0xD3C PUSH1 0x40 DUP4 ADD DUP5 PUSH2 0xBA4 JUMP JUMPDEST SWAP5 SWAP4 POP POP POP POP JUMP JUMPDEST PUSH1 0x0 DUP2 MLOAD SWAP1 POP SWAP2 SWAP1 POP JUMP JUMPDEST PUSH1 0x0 DUP3 DUP3 MSTORE PUSH1 0x20 DUP3 ADD SWAP1 POP SWAP3 SWAP2 POP POP JUMP JUMPDEST PUSH1 0x0 PUSH2 0xD6B DUP3 PUSH2 0xD7E JUMP JUMPDEST SWAP1 POP SWAP2 SWAP1 POP JUMP JUMPDEST PUSH1 0x0 DUP2 ISZERO ISZERO SWAP1 POP SWAP2 SWAP1 POP JUMP JUMPDEST PUSH1 0x0 PUSH20 0xFFFFFFFFFFFFFFFFFFFFFFFFFFFFFFFFFFFFFFFF DUP3 AND SWAP1 POP SWAP2 SWAP1 POP JUMP JUMPDEST PUSH1 0x0 DUP2 SWAP1 POP SWAP2 SWAP1 POP JUMP JUMPDEST PUSH1 0x0 JUMPDEST DUP4 DUP2 LT ISZERO PUSH2 0xDC6 JUMPI DUP1 DUP3 ADD MLOAD DUP2 DUP5 ADD MSTORE PUSH1 0x20 DUP2 ADD SWAP1 POP PUSH2 0xDAB JUMP JUMPDEST DUP4 DUP2 GT ISZERO PUSH2 0xDD5 JUMPI PUSH1 0x0 DUP5 DUP5 ADD MSTORE JUMPDEST POP POP POP POP JUMP JUMPDEST PUSH1 0x0 PUSH1 0x2 DUP3 DIV SWAP1 POP PUSH1 0x1 DUP3 AND DUP1 PUSH2 0xDF3 JUMPI PUSH1 0x7F DUP3 AND SWAP2 POP JUMPDEST PUSH1 0x20 DUP3 LT DUP2 EQ ISZERO PUSH2 0xE07 JUMPI PUSH2 0xE06 PUSH2 0xE85 JUMP JUMPDEST JUMPDEST POP SWAP2 SWAP1 POP JUMP JUMPDEST PUSH1 0x0 PUSH2 0xE18 DUP3 PUSH2 0xD9E JUMP JUMPDEST SWAP2 POP PUSH32 0xFFFFFFFFFFFFFFFFFFFFFFFFFFFFFFFFFFFFFFFFFFFFFFFFFFFFFFFFFFFFFFFF DUP3 EQ ISZERO PUSH2 0xE4B JUMPI PUSH2 0xE4A PUSH2 0xE56 JUMP JUMPDEST JUMPDEST PUSH1 0x1 DUP3 ADD SWAP1 POP SWAP2 SWAP1 POP JUMP JUMPDEST PUSH32 0x4E487B7100000000000000000000000000000000000000000000000000000000 PUSH1 0x0 MSTORE PUSH1 0x11 PUSH1 0x4 MSTORE PUSH1 0x24 PUSH1 0x0 REVERT JUMPDEST PUSH32 0x4E487B7100000000000000000000000000000000000000000000000000000000 PUSH1 0x0 MSTORE PUSH1 0x22 PUSH1 0x4 MSTORE PUSH1 0x24 PUSH1 0x0 REVERT JUMPDEST PUSH1 0x0 DUP1 REVERT JUMPDEST PUSH1 0x0 PUSH1 0x1F NOT PUSH1 0x1F DUP4 ADD AND SWAP1 POP SWAP2 SWAP1 POP JUMP JUMPDEST PUSH32 0x5061757365640000000000000000000000000000000000000000000000000000 PUSH1 0x0 DUP3 ADD MSTORE POP JUMP JUMPDEST PUSH32 0x436C6F7365640000000000000000000000000000000000000000000000000000 PUSH1 0x0 DUP3 ADD MSTORE POP JUMP JUMPDEST PUSH32 0x5468697320616464726573732068617320616C726561647920766F746564206F PUSH1 0x0 DUP3 ADD MSTORE PUSH32 0x6E63650000000000000000000000000000000000000000000000000000000000 PUSH1 0x20 DUP3 ADD MSTORE POP JUMP JUMPDEST PUSH32 0x5468652073656C65637465642063616E64696461746520646F6573206E6F7420 PUSH1 0x0 DUP3 ADD MSTORE PUSH32 0x6578697374000000000000000000000000000000000000000000000000000000 PUSH1 0x20 DUP3 ADD MSTORE POP JUMP JUMPDEST PUSH32 0x54686520656C656374696F6E206973206E6F74206F70656E6564000000000000 PUSH1 0x0 DUP3 ADD MSTORE POP JUMP JUMPDEST PUSH32 0x54686520656C656374696F6E206F776E6572206973206E6F7420616C6C6F7765 PUSH1 0x0 DUP3 ADD MSTORE PUSH32 0x6420746F20766F74650000000000000000000000000000000000000000000000 PUSH1 0x20 DUP3 ADD MSTORE POP JUMP JUMPDEST PUSH32 0x4F70656E65640000000000000000000000000000000000000000000000000000 PUSH1 0x0 DUP3 ADD MSTORE POP JUMP JUMPDEST PUSH2 0x1064 DUP2 PUSH2 0xD60 JUMP JUMPDEST DUP2 EQ PUSH2 0x106F JUMPI PUSH1 0x0 DUP1 REVERT JUMPDEST POP JUMP JUMPDEST PUSH2 0x107B DUP2 PUSH2 0xD9E JUMP JUMPDEST DUP2 EQ PUSH2 0x1086 JUMPI PUSH1 0x0 DUP1 REVERT JUMPDEST POP JUMP INVALID LOG2 PUSH5 0x6970667358 0x22 SLT KECCAK256 PUSH18 0xDACB91AE59A5B581261128493EA44F01F33F SELFBALANCE 0xB2 0xEB 0xA8 AND SHL CALL PUSH18 0xA0420633EA64736F6C634300080500330000 "
				},
				"gasEstimates": {
					"creation": {
						"codeDepositCost": "857400",
						"executionCost": "infinite",
						"totalCost": "infinite"
					},
					"external": {
						"candidates(uint256)": "infinite",
						"candidatesCount()": "2452",
						"closeElection()": "infinite",
						"electionOwner()": "2600",
						"isOpened()": "2429",
						"lastWinningCandidate()": "infinite",
						"openElection()": "26293",
						"pauseElection()": "26337",
						"vote(uint256)": "infinite",
						"voters(address)": "2889",
						"winningCandidate()": "infinite"
					},
					"internal": {
						"addCandidate(string memory)": "infinite"
					}
				},
				"methodIdentifiers": {
					"candidates(uint256)": "3477ee2e",
					"candidatesCount()": "2d35a8a2",
					"closeElection()": "6c6c32d0",
					"electionOwner()": "53357ad0",
					"isOpened()": "692aa97e",
					"lastWinningCandidate()": "35cc6f02",
					"openElection()": "c5d00f5d",
					"pauseElection()": "e6eea09b",
					"vote(uint256)": "0121b93f",
					"voters(address)": "a3ec138d",
					"winningCandidate()": "d28178d7"
				}
			},
			"storageLayout": {
				"storage": [
					{
						"astId": 10,
						"contract": "Development-Codebases/Blockchain/Eth_Smart_Contract_Voting/contracts/Election.sol:Election",
						"label": "electionOwner",
						"offset": 0,
						"slot": "0",
						"type": "t_address"
					},
					{
						"astId": 13,
						"contract": "Development-Codebases/Blockchain/Eth_Smart_Contract_Voting/contracts/Election.sol:Election",
						"label": "isOpened",
						"offset": 0,
						"slot": "1",
						"type": "t_uint256"
					},
					{
						"astId": 17,
						"contract": "Development-Codebases/Blockchain/Eth_Smart_Contract_Voting/contracts/Election.sol:Election",
						"label": "voters",
						"offset": 0,
						"slot": "2",
						"type": "t_mapping(t_address,t_bool)"
					},
					{
						"astId": 22,
						"contract": "Development-Codebases/Blockchain/Eth_Smart_Contract_Voting/contracts/Election.sol:Election",
						"label": "candidates",
						"offset": 0,
						"slot": "3",
						"type": "t_mapping(t_uint256,t_struct(Candidate)8_storage)"
					},
					{
						"astId": 24,
						"contract": "Development-Codebases/Blockchain/Eth_Smart_Contract_Voting/contracts/Election.sol:Election",
						"label": "candidatesCount",
						"offset": 0,
						"slot": "4",
						"type": "t_uint256"
					},
					{
						"astId": 27,
						"contract": "Development-Codebases/Blockchain/Eth_Smart_Contract_Voting/contracts/Election.sol:Election",
						"label": "lastWinningCandidate",
						"offset": 0,
						"slot": "5",
						"type": "t_string_storage"
					}
				],
				"types": {
					"t_address": {
						"encoding": "inplace",
						"label": "address",
						"numberOfBytes": "20"
					},
					"t_bool": {
						"encoding": "inplace",
						"label": "bool",
						"numberOfBytes": "1"
					},
					"t_mapping(t_address,t_bool)": {
						"encoding": "mapping",
						"key": "t_address",
						"label": "mapping(address => bool)",
						"numberOfBytes": "32",
						"value": "t_bool"
					},
					"t_mapping(t_uint256,t_struct(Candidate)8_storage)": {
						"encoding": "mapping",
						"key": "t_uint256",
						"label": "mapping(uint256 => struct Election.Candidate)",
						"numberOfBytes": "32",
						"value": "t_struct(Candidate)8_storage"
					},
					"t_string_storage": {
						"encoding": "bytes",
						"label": "string",
						"numberOfBytes": "32"
					},
					"t_struct(Candidate)8_storage": {
						"encoding": "inplace",
						"label": "struct Election.Candidate",
						"members": [
							{
								"astId": 3,
								"contract": "Development-Codebases/Blockchain/Eth_Smart_Contract_Voting/contracts/Election.sol:Election",
								"label": "id",
								"offset": 0,
								"slot": "0",
								"type": "t_uint256"
							},
							{
								"astId": 5,
								"contract": "Development-Codebases/Blockchain/Eth_Smart_Contract_Voting/contracts/Election.sol:Election",
								"label": "name",
								"offset": 0,
								"slot": "1",
								"type": "t_string_storage"
							},
							{
								"astId": 7,
								"contract": "Development-Codebases/Blockchain/Eth_Smart_Contract_Voting/contracts/Election.sol:Election",
								"label": "voteCount",
								"offset": 0,
								"slot": "2",
								"type": "t_uint256"
							}
						],
						"numberOfBytes": "96"
					},
					"t_uint256": {
						"encoding": "inplace",
						"label": "uint256",
						"numberOfBytes": "32"
					}
				}
			},
			"userdoc": {
				"kind": "user",
				"methods": {},
				"version": 1
			}
		}
	}
}