{
	"Development-Codebases/Blockchain/Eth_Smart_Contract_Voting/contracts/Election.sol": {
		"Election": {
			"abi": [
				{
					"inputs": [],
					"stateMutability": "nonpayable",
					"type": "constructor"
				},
				{
					"anonymous": false,
					"inputs": [
						{
							"indexed": false,
							"internalType": "uint256",
							"name": "_isOpened",
							"type": "uint256"
						}
					],
					"name": "changedEventState",
					"type": "event"
				},
				{
					"anonymous": false,
					"inputs": [
						{
							"indexed": true,
							"internalType": "uint256",
							"name": "_candidateId",
							"type": "uint256"
						}
					],
					"name": "votedEvent",
					"type": "event"
				},
				{
					"anonymous": false,
					"inputs": [
						{
							"indexed": false,
							"internalType": "string",
							"name": "_winningCandidate",
							"type": "string"
						}
					],
					"name": "winnerPrinted",
					"type": "event"
				},
				{
					"inputs": [
						{
							"internalType": "uint256",
							"name": "",
							"type": "uint256"
						}
					],
					"name": "candidates",
					"outputs": [
						{
							"internalType": "uint256",
							"name": "id",
							"type": "uint256"
						},
						{
							"internalType": "string",
							"name": "name",
							"type": "string"
						},
						{
							"internalType": "uint256",
							"name": "voteCount",
							"type": "uint256"
						}
					],
					"stateMutability": "view",
					"type": "function"
				},
				{
					"inputs": [],
					"name": "candidatesCount",
					"outputs": [
						{
							"internalType": "uint256",
							"name": "",
							"type": "uint256"
						}
					],
					"stateMutability": "view",
					"type": "function"
				},
				{
					"inputs": [],
					"name": "closeElection",
					"outputs": [],
					"stateMutability": "nonpayable",
					"type": "function"
				},
				{
					"inputs": [],
					"name": "electionOwner",
					"outputs": [
						{
							"internalType": "address",
							"name": "",
							"type": "address"
						}
					],
					"stateMutability": "view",
					"type": "function"
				},
				{
					"inputs": [],
					"name": "isOpened",
					"outputs": [
						{
							"internalType": "uint256",
							"name": "",
							"type": "uint256"
						}
					],
					"stateMutability": "view",
					"type": "function"
				},
				{
					"inputs": [],
					"name": "openElection",
					"outputs": [],
					"stateMutability": "nonpayable",
					"type": "function"
				},
				{
					"inputs": [],
					"name": "pauseElection",
					"outputs": [],
					"stateMutability": "nonpayable",
					"type": "function"
				},
				{
					"inputs": [
						{
							"internalType": "uint256",
							"name": "_candidateId",
							"type": "uint256"
						}
					],
					"name": "vote",
					"outputs": [],
					"stateMutability": "nonpayable",
					"type": "function"
				},
				{
					"inputs": [
						{
							"internalType": "address",
							"name": "",
							"type": "address"
						}
					],
					"name": "voters",
					"outputs": [
						{
							"internalType": "bool",
							"name": "",
							"type": "bool"
						}
					],
					"stateMutability": "view",
					"type": "function"
				}
			],
			"devdoc": {
				"kind": "dev",
				"methods": {},
				"version": 1
			},
			"evm": {
				"assembly": "    /* \"Development-Codebases/Blockchain/Eth_Smart_Contract_Voting/contracts/Election.sol\":56:3127  contract Election {... */\n  mstore(0x40, 0x80)\n    /* \"Development-Codebases/Blockchain/Eth_Smart_Contract_Voting/contracts/Election.sol\":309:310  0 */\n  0x00\n    /* \"Development-Codebases/Blockchain/Eth_Smart_Contract_Voting/contracts/Election.sol\":286:310  uint public isOpened = 0 */\n  0x01\n  sstore\n    /* \"Development-Codebases/Blockchain/Eth_Smart_Contract_Voting/contracts/Election.sol\":746:881  constructor () {... */\n  callvalue\n  dup1\n  iszero\n  tag_1\n  jumpi\n  0x00\n  dup1\n  revert\ntag_1:\n  pop\n    /* \"Development-Codebases/Blockchain/Eth_Smart_Contract_Voting/contracts/Election.sol\":787:797  msg.sender */\n  caller\n    /* \"Development-Codebases/Blockchain/Eth_Smart_Contract_Voting/contracts/Election.sol\":771:784  electionOwner */\n  0x00\n  dup1\n    /* \"Development-Codebases/Blockchain/Eth_Smart_Contract_Voting/contracts/Election.sol\":771:797  electionOwner = msg.sender */\n  0x0100\n  exp\n  dup2\n  sload\n  dup2\n  0xffffffffffffffffffffffffffffffffffffffff\n  mul\n  not\n  and\n  swap1\n  dup4\n  0xffffffffffffffffffffffffffffffffffffffff\n  and\n  mul\n  or\n  swap1\n  sstore\n  pop\n    /* \"Development-Codebases/Blockchain/Eth_Smart_Contract_Voting/contracts/Election.sol\":807:835  addCandidate(\"Bitcoin club\") */\n  tag_4\n  mload(0x40)\n  dup1\n  0x40\n  add\n  0x40\n  mstore\n  dup1\n  0x0c\n  dup2\n  mstore\n  0x20\n  add\n  0x426974636f696e20636c75620000000000000000000000000000000000000000\n  dup2\n  mstore\n  pop\n    /* \"Development-Codebases/Blockchain/Eth_Smart_Contract_Voting/contracts/Election.sol\":807:819  addCandidate */\n  shl(0x20, tag_5)\n    /* \"Development-Codebases/Blockchain/Eth_Smart_Contract_Voting/contracts/Election.sol\":807:835  addCandidate(\"Bitcoin club\") */\n  0x20\n  shr\n  jump\t// in\ntag_4:\n    /* \"Development-Codebases/Blockchain/Eth_Smart_Contract_Voting/contracts/Election.sol\":845:874  addCandidate(\"Ethereum club\") */\n  tag_6\n  mload(0x40)\n  dup1\n  0x40\n  add\n  0x40\n  mstore\n  dup1\n  0x0d\n  dup2\n  mstore\n  0x20\n  add\n  0x457468657265756d20636c756200000000000000000000000000000000000000\n  dup2\n  mstore\n  pop\n    /* \"Development-Codebases/Blockchain/Eth_Smart_Contract_Voting/contracts/Election.sol\":845:857  addCandidate */\n  shl(0x20, tag_5)\n    /* \"Development-Codebases/Blockchain/Eth_Smart_Contract_Voting/contracts/Election.sol\":845:874  addCandidate(\"Ethereum club\") */\n  0x20\n  shr\n  jump\t// in\ntag_6:\n    /* \"Development-Codebases/Blockchain/Eth_Smart_Contract_Voting/contracts/Election.sol\":56:3127  contract Election {... */\n  jump(tag_7)\n    /* \"Development-Codebases/Blockchain/Eth_Smart_Contract_Voting/contracts/Election.sol\":911:1074  function addCandidate (string memory _name) private {... */\ntag_5:\n    /* \"Development-Codebases/Blockchain/Eth_Smart_Contract_Voting/contracts/Election.sol\":973:988  candidatesCount */\n  0x04\n  0x00\n    /* \"Development-Codebases/Blockchain/Eth_Smart_Contract_Voting/contracts/Election.sol\":973:991  candidatesCount ++ */\n  dup2\n  sload\n  dup1\n  swap3\n  swap2\n  swap1\n  tag_9\n  swap1\n  tag_10\n  jump\t// in\ntag_9:\n  swap2\n  swap1\n  pop\n  sstore\n  pop\n    /* \"Development-Codebases/Blockchain/Eth_Smart_Contract_Voting/contracts/Election.sol\":1031:1067  Candidate(candidatesCount, _name, 0) */\n  mload(0x40)\n  dup1\n  0x60\n  add\n  0x40\n  mstore\n  dup1\n    /* \"Development-Codebases/Blockchain/Eth_Smart_Contract_Voting/contracts/Election.sol\":1041:1056  candidatesCount */\n  sload(0x04)\n    /* \"Development-Codebases/Blockchain/Eth_Smart_Contract_Voting/contracts/Election.sol\":1031:1067  Candidate(candidatesCount, _name, 0) */\n  dup2\n  mstore\n  0x20\n  add\n    /* \"Development-Codebases/Blockchain/Eth_Smart_Contract_Voting/contracts/Election.sol\":1058:1063  _name */\n  dup3\n    /* \"Development-Codebases/Blockchain/Eth_Smart_Contract_Voting/contracts/Election.sol\":1031:1067  Candidate(candidatesCount, _name, 0) */\n  dup2\n  mstore\n  0x20\n  add\n    /* \"Development-Codebases/Blockchain/Eth_Smart_Contract_Voting/contracts/Election.sol\":1065:1066  0 */\n  0x00\n    /* \"Development-Codebases/Blockchain/Eth_Smart_Contract_Voting/contracts/Election.sol\":1031:1067  Candidate(candidatesCount, _name, 0) */\n  dup2\n  mstore\n  pop\n    /* \"Development-Codebases/Blockchain/Eth_Smart_Contract_Voting/contracts/Election.sol\":1001:1011  candidates */\n  0x03\n    /* \"Development-Codebases/Blockchain/Eth_Smart_Contract_Voting/contracts/Election.sol\":1001:1028  candidates[candidatesCount] */\n  0x00\n    /* \"Development-Codebases/Blockchain/Eth_Smart_Contract_Voting/contracts/Election.sol\":1012:1027  candidatesCount */\n  sload(0x04)\n    /* \"Development-Codebases/Blockchain/Eth_Smart_Contract_Voting/contracts/Election.sol\":1001:1028  candidates[candidatesCount] */\n  dup2\n  mstore\n  0x20\n  add\n  swap1\n  dup2\n  mstore\n  0x20\n  add\n  0x00\n  keccak256\n    /* \"Development-Codebases/Blockchain/Eth_Smart_Contract_Voting/contracts/Election.sol\":1001:1067  candidates[candidatesCount] = Candidate(candidatesCount, _name, 0) */\n  0x00\n  dup3\n  add\n  mload\n  dup2\n  0x00\n  add\n  sstore\n  0x20\n  dup3\n  add\n  mload\n  dup2\n  0x01\n  add\n  swap1\n  dup1\n  mload\n  swap1\n  0x20\n  add\n  swap1\n  tag_11\n  swap3\n  swap2\n  swap1\n  tag_12\n  jump\t// in\ntag_11:\n  pop\n  0x40\n  dup3\n  add\n  mload\n  dup2\n  0x02\n  add\n  sstore\n  swap1\n  pop\n  pop\n    /* \"Development-Codebases/Blockchain/Eth_Smart_Contract_Voting/contracts/Election.sol\":911:1074  function addCandidate (string memory _name) private {... */\n  pop\n  jump\t// out\n    /* \"Development-Codebases/Blockchain/Eth_Smart_Contract_Voting/contracts/Election.sol\":56:3127  contract Election {... */\ntag_12:\n  dup3\n  dup1\n  sload\n  tag_13\n  swap1\n  tag_14\n  jump\t// in\ntag_13:\n  swap1\n  0x00\n  mstore\n  keccak256(0x00, 0x20)\n  swap1\n  0x1f\n  add\n  0x20\n  swap1\n  div\n  dup2\n  add\n  swap3\n  dup3\n  tag_16\n  jumpi\n  0x00\n  dup6\n  sstore\n  jump(tag_15)\ntag_16:\n  dup3\n  0x1f\n  lt\n  tag_17\n  jumpi\n  dup1\n  mload\n  not(0xff)\n  and\n  dup4\n  dup1\n  add\n  or\n  dup6\n  sstore\n  jump(tag_15)\ntag_17:\n  dup3\n  dup1\n  add\n  0x01\n  add\n  dup6\n  sstore\n  dup3\n  iszero\n  tag_15\n  jumpi\n  swap2\n  dup3\n  add\ntag_18:\n  dup3\n  dup2\n  gt\n  iszero\n  tag_19\n  jumpi\n  dup3\n  mload\n  dup3\n  sstore\n  swap2\n  0x20\n  add\n  swap2\n  swap1\n  0x01\n  add\n  swap1\n  jump(tag_18)\ntag_19:\ntag_15:\n  pop\n  swap1\n  pop\n  tag_20\n  swap2\n  swap1\n  tag_21\n  jump\t// in\ntag_20:\n  pop\n  swap1\n  jump\t// out\ntag_21:\ntag_22:\n  dup1\n  dup3\n  gt\n  iszero\n  tag_23\n  jumpi\n  0x00\n  dup2\n  0x00\n  swap1\n  sstore\n  pop\n  0x01\n  add\n  jump(tag_22)\ntag_23:\n  pop\n  swap1\n  jump\t// out\n    /* \"#utility.yul\":7:84   */\ntag_25:\n    /* \"#utility.yul\":44:51   */\n  0x00\n    /* \"#utility.yul\":73:78   */\n  dup2\n    /* \"#utility.yul\":62:78   */\n  swap1\n  pop\n    /* \"#utility.yul\":52:84   */\n  swap2\n  swap1\n  pop\n  jump\t// out\n    /* \"#utility.yul\":90:410   */\ntag_14:\n    /* \"#utility.yul\":134:140   */\n  0x00\n    /* \"#utility.yul\":171:172   */\n  0x02\n    /* \"#utility.yul\":165:169   */\n  dup3\n    /* \"#utility.yul\":161:173   */\n  div\n    /* \"#utility.yul\":151:173   */\n  swap1\n  pop\n    /* \"#utility.yul\":218:219   */\n  0x01\n    /* \"#utility.yul\":212:216   */\n  dup3\n    /* \"#utility.yul\":208:220   */\n  and\n    /* \"#utility.yul\":239:257   */\n  dup1\n    /* \"#utility.yul\":229:231   */\n  tag_28\n  jumpi\n    /* \"#utility.yul\":295:299   */\n  0x7f\n    /* \"#utility.yul\":287:293   */\n  dup3\n    /* \"#utility.yul\":283:300   */\n  and\n    /* \"#utility.yul\":273:300   */\n  swap2\n  pop\n    /* \"#utility.yul\":229:231   */\ntag_28:\n    /* \"#utility.yul\":357:359   */\n  0x20\n    /* \"#utility.yul\":349:355   */\n  dup3\n    /* \"#utility.yul\":346:360   */\n  lt\n    /* \"#utility.yul\":326:344   */\n  dup2\n    /* \"#utility.yul\":323:361   */\n  eq\n    /* \"#utility.yul\":320:322   */\n  iszero\n  tag_29\n  jumpi\n    /* \"#utility.yul\":376:394   */\n  tag_30\n  tag_31\n  jump\t// in\ntag_30:\n    /* \"#utility.yul\":320:322   */\ntag_29:\n    /* \"#utility.yul\":141:410   */\n  pop\n  swap2\n  swap1\n  pop\n  jump\t// out\n    /* \"#utility.yul\":416:649   */\ntag_10:\n    /* \"#utility.yul\":455:458   */\n  0x00\n    /* \"#utility.yul\":478:502   */\n  tag_33\n    /* \"#utility.yul\":496:501   */\n  dup3\n    /* \"#utility.yul\":478:502   */\n  tag_25\n  jump\t// in\ntag_33:\n    /* \"#utility.yul\":469:502   */\n  swap2\n  pop\n    /* \"#utility.yul\":524:590   */\n  0xffffffffffffffffffffffffffffffffffffffffffffffffffffffffffffffff\n    /* \"#utility.yul\":517:522   */\n  dup3\n    /* \"#utility.yul\":514:591   */\n  eq\n    /* \"#utility.yul\":511:513   */\n  iszero\n  tag_34\n  jumpi\n    /* \"#utility.yul\":594:612   */\n  tag_35\n  tag_36\n  jump\t// in\ntag_35:\n    /* \"#utility.yul\":511:513   */\ntag_34:\n    /* \"#utility.yul\":641:642   */\n  0x01\n    /* \"#utility.yul\":634:639   */\n  dup3\n    /* \"#utility.yul\":630:643   */\n  add\n    /* \"#utility.yul\":623:643   */\n  swap1\n  pop\n    /* \"#utility.yul\":459:649   */\n  swap2\n  swap1\n  pop\n  jump\t// out\n    /* \"#utility.yul\":655:835   */\ntag_36:\n    /* \"#utility.yul\":703:780   */\n  0x4e487b7100000000000000000000000000000000000000000000000000000000\n    /* \"#utility.yul\":700:701   */\n  0x00\n    /* \"#utility.yul\":693:781   */\n  mstore\n    /* \"#utility.yul\":800:804   */\n  0x11\n    /* \"#utility.yul\":797:798   */\n  0x04\n    /* \"#utility.yul\":790:805   */\n  mstore\n    /* \"#utility.yul\":824:828   */\n  0x24\n    /* \"#utility.yul\":821:822   */\n  0x00\n    /* \"#utility.yul\":814:829   */\n  revert\n    /* \"#utility.yul\":841:1021   */\ntag_31:\n    /* \"#utility.yul\":889:966   */\n  0x4e487b7100000000000000000000000000000000000000000000000000000000\n    /* \"#utility.yul\":886:887   */\n  0x00\n    /* \"#utility.yul\":879:967   */\n  mstore\n    /* \"#utility.yul\":986:990   */\n  0x22\n    /* \"#utility.yul\":983:984   */\n  0x04\n    /* \"#utility.yul\":976:991   */\n  mstore\n    /* \"#utility.yul\":1010:1014   */\n  0x24\n    /* \"#utility.yul\":1007:1008   */\n  0x00\n    /* \"#utility.yul\":1000:1015   */\n  revert\n    /* \"Development-Codebases/Blockchain/Eth_Smart_Contract_Voting/contracts/Election.sol\":56:3127  contract Election {... */\ntag_7:\n  dataSize(sub_0)\n  dup1\n  dataOffset(sub_0)\n  0x00\n  codecopy\n  0x00\n  return\nstop\n\nsub_0: assembly {\n        /* \"Development-Codebases/Blockchain/Eth_Smart_Contract_Voting/contracts/Election.sol\":56:3127  contract Election {... */\n      mstore(0x40, 0x80)\n      callvalue\n      dup1\n      iszero\n      tag_1\n      jumpi\n      0x00\n      dup1\n      revert\n    tag_1:\n      pop\n      jumpi(tag_2, lt(calldatasize, 0x04))\n      shr(0xe0, calldataload(0x00))\n      dup1\n      0x692aa97e\n      gt\n      tag_12\n      jumpi\n      dup1\n      0x692aa97e\n      eq\n      tag_7\n      jumpi\n      dup1\n      0x6c6c32d0\n      eq\n      tag_8\n      jumpi\n      dup1\n      0xa3ec138d\n      eq\n      tag_9\n      jumpi\n      dup1\n      0xc5d00f5d\n      eq\n      tag_10\n      jumpi\n      dup1\n      0xe6eea09b\n      eq\n      tag_11\n      jumpi\n      jump(tag_2)\n    tag_12:\n      dup1\n      0x0121b93f\n      eq\n      tag_3\n      jumpi\n      dup1\n      0x2d35a8a2\n      eq\n      tag_4\n      jumpi\n      dup1\n      0x3477ee2e\n      eq\n      tag_5\n      jumpi\n      dup1\n      0x53357ad0\n      eq\n      tag_6\n      jumpi\n    tag_2:\n      0x00\n      dup1\n      revert\n        /* \"Development-Codebases/Blockchain/Eth_Smart_Contract_Voting/contracts/Election.sol\":2319:3125  function vote (uint _candidateId) public {... */\n    tag_3:\n      tag_13\n      0x04\n      dup1\n      calldatasize\n      sub\n      dup2\n      add\n      swap1\n      tag_14\n      swap2\n      swap1\n      tag_15\n      jump\t// in\n    tag_14:\n      tag_16\n      jump\t// in\n    tag_13:\n      stop\n        /* \"Development-Codebases/Blockchain/Eth_Smart_Contract_Voting/contracts/Election.sol\":501:528  uint public candidatesCount */\n    tag_4:\n      tag_17\n      tag_18\n      jump\t// in\n    tag_17:\n      mload(0x40)\n      tag_19\n      swap2\n      swap1\n      tag_20\n      jump\t// in\n    tag_19:\n      mload(0x40)\n      dup1\n      swap2\n      sub\n      swap1\n      return\n        /* \"Development-Codebases/Blockchain/Eth_Smart_Contract_Voting/contracts/Election.sol\":421:465  mapping(uint => Candidate) public candidates */\n    tag_5:\n      tag_21\n      0x04\n      dup1\n      calldatasize\n      sub\n      dup2\n      add\n      swap1\n      tag_22\n      swap2\n      swap1\n      tag_15\n      jump\t// in\n    tag_22:\n      tag_23\n      jump\t// in\n    tag_21:\n      mload(0x40)\n      tag_24\n      swap4\n      swap3\n      swap2\n      swap1\n      tag_25\n      jump\t// in\n    tag_24:\n      mload(0x40)\n      dup1\n      swap2\n      sub\n      swap1\n      return\n        /* \"Development-Codebases/Blockchain/Eth_Smart_Contract_Voting/contracts/Election.sol\":219:247  address public electionOwner */\n    tag_6:\n      tag_26\n      tag_27\n      jump\t// in\n    tag_26:\n      mload(0x40)\n      tag_28\n      swap2\n      swap1\n      tag_29\n      jump\t// in\n    tag_28:\n      mload(0x40)\n      dup1\n      swap2\n      sub\n      swap1\n      return\n        /* \"Development-Codebases/Blockchain/Eth_Smart_Contract_Voting/contracts/Election.sol\":286:310  uint public isOpened = 0 */\n    tag_7:\n      tag_30\n      tag_31\n      jump\t// in\n    tag_30:\n      mload(0x40)\n      tag_32\n      swap2\n      swap1\n      tag_20\n      jump\t// in\n    tag_32:\n      mload(0x40)\n      dup1\n      swap2\n      sub\n      swap1\n      return\n        /* \"Development-Codebases/Blockchain/Eth_Smart_Contract_Voting/contracts/Election.sol\":1525:1742  function closeElection() public{... */\n    tag_8:\n      tag_33\n      tag_34\n      jump\t// in\n    tag_33:\n      stop\n        /* \"Development-Codebases/Blockchain/Eth_Smart_Contract_Voting/contracts/Election.sol\":354:392  mapping(address => bool) public voters */\n    tag_9:\n      tag_35\n      0x04\n      dup1\n      calldatasize\n      sub\n      dup2\n      add\n      swap1\n      tag_36\n      swap2\n      swap1\n      tag_37\n      jump\t// in\n    tag_36:\n      tag_38\n      jump\t// in\n    tag_35:\n      mload(0x40)\n      tag_39\n      swap2\n      swap1\n      tag_40\n      jump\t// in\n    tag_39:\n      mload(0x40)\n      dup1\n      swap2\n      sub\n      swap1\n      return\n        /* \"Development-Codebases/Blockchain/Eth_Smart_Contract_Voting/contracts/Election.sol\":1080:1296  function openElection() public{... */\n    tag_10:\n      tag_41\n      tag_42\n      jump\t// in\n    tag_41:\n      stop\n        /* \"Development-Codebases/Blockchain/Eth_Smart_Contract_Voting/contracts/Election.sol\":1302:1519  function pauseElection() public{... */\n    tag_11:\n      tag_43\n      tag_44\n      jump\t// in\n    tag_43:\n      stop\n        /* \"Development-Codebases/Blockchain/Eth_Smart_Contract_Voting/contracts/Election.sol\":2319:3125  function vote (uint _candidateId) public {... */\n    tag_16:\n        /* \"Development-Codebases/Blockchain/Eth_Smart_Contract_Voting/contracts/Election.sol\":2437:2438  2 */\n      0x02\n        /* \"Development-Codebases/Blockchain/Eth_Smart_Contract_Voting/contracts/Election.sol\":2425:2433  isOpened */\n      sload(0x01)\n        /* \"Development-Codebases/Blockchain/Eth_Smart_Contract_Voting/contracts/Election.sol\":2425:2438  isOpened != 2 */\n      eq\n      iszero\n        /* \"Development-Codebases/Blockchain/Eth_Smart_Contract_Voting/contracts/Election.sol\":2417:2469  require(isOpened != 2, \"The election is not opened\") */\n      tag_46\n      jumpi\n      mload(0x40)\n      0x08c379a000000000000000000000000000000000000000000000000000000000\n      dup2\n      mstore\n      0x04\n      add\n      tag_47\n      swap1\n      tag_48\n      jump\t// in\n    tag_47:\n      mload(0x40)\n      dup1\n      swap2\n      sub\n      swap1\n      revert\n    tag_46:\n        /* \"Development-Codebases/Blockchain/Eth_Smart_Contract_Voting/contracts/Election.sol\":2549:2562  electionOwner */\n      0x00\n      dup1\n      sload\n      swap1\n      0x0100\n      exp\n      swap1\n      div\n      0xffffffffffffffffffffffffffffffffffffffff\n      and\n        /* \"Development-Codebases/Blockchain/Eth_Smart_Contract_Voting/contracts/Election.sol\":2535:2562  msg.sender != electionOwner */\n      0xffffffffffffffffffffffffffffffffffffffff\n      and\n        /* \"Development-Codebases/Blockchain/Eth_Smart_Contract_Voting/contracts/Election.sol\":2535:2545  msg.sender */\n      caller\n        /* \"Development-Codebases/Blockchain/Eth_Smart_Contract_Voting/contracts/Election.sol\":2535:2562  msg.sender != electionOwner */\n      0xffffffffffffffffffffffffffffffffffffffff\n      and\n      eq\n      iszero\n        /* \"Development-Codebases/Blockchain/Eth_Smart_Contract_Voting/contracts/Election.sol\":2527:2608  require(msg.sender != electionOwner, \"The election owner is not allowed to vote\") */\n      tag_49\n      jumpi\n      mload(0x40)\n      0x08c379a000000000000000000000000000000000000000000000000000000000\n      dup2\n      mstore\n      0x04\n      add\n      tag_50\n      swap1\n      tag_51\n      jump\t// in\n    tag_50:\n      mload(0x40)\n      dup1\n      swap2\n      sub\n      swap1\n      revert\n    tag_49:\n        /* \"Development-Codebases/Blockchain/Eth_Smart_Contract_Voting/contracts/Election.sol\":2678:2684  voters */\n      0x02\n        /* \"Development-Codebases/Blockchain/Eth_Smart_Contract_Voting/contracts/Election.sol\":2678:2696  voters[msg.sender] */\n      0x00\n        /* \"Development-Codebases/Blockchain/Eth_Smart_Contract_Voting/contracts/Election.sol\":2685:2695  msg.sender */\n      caller\n        /* \"Development-Codebases/Blockchain/Eth_Smart_Contract_Voting/contracts/Election.sol\":2678:2696  voters[msg.sender] */\n      0xffffffffffffffffffffffffffffffffffffffff\n      and\n      0xffffffffffffffffffffffffffffffffffffffff\n      and\n      dup2\n      mstore\n      0x20\n      add\n      swap1\n      dup2\n      mstore\n      0x20\n      add\n      0x00\n      keccak256\n      0x00\n      swap1\n      sload\n      swap1\n      0x0100\n      exp\n      swap1\n      div\n      0xff\n      and\n        /* \"Development-Codebases/Blockchain/Eth_Smart_Contract_Voting/contracts/Election.sol\":2677:2696  !voters[msg.sender] */\n      iszero\n        /* \"Development-Codebases/Blockchain/Eth_Smart_Contract_Voting/contracts/Election.sol\":2669:2736  require(!voters[msg.sender], \"This address has already voted once\") */\n      tag_52\n      jumpi\n      mload(0x40)\n      0x08c379a000000000000000000000000000000000000000000000000000000000\n      dup2\n      mstore\n      0x04\n      add\n      tag_53\n      swap1\n      tag_54\n      jump\t// in\n    tag_53:\n      mload(0x40)\n      dup1\n      swap2\n      sub\n      swap1\n      revert\n    tag_52:\n        /* \"Development-Codebases/Blockchain/Eth_Smart_Contract_Voting/contracts/Election.sol\":2807:2808  0 */\n      0x00\n        /* \"Development-Codebases/Blockchain/Eth_Smart_Contract_Voting/contracts/Election.sol\":2792:2804  _candidateId */\n      dup2\n        /* \"Development-Codebases/Blockchain/Eth_Smart_Contract_Voting/contracts/Election.sol\":2792:2808  _candidateId > 0 */\n      gt\n        /* \"Development-Codebases/Blockchain/Eth_Smart_Contract_Voting/contracts/Election.sol\":2792:2843  _candidateId > 0 && _candidateId <= candidatesCount */\n      dup1\n      iszero\n      tag_55\n      jumpi\n      pop\n        /* \"Development-Codebases/Blockchain/Eth_Smart_Contract_Voting/contracts/Election.sol\":2828:2843  candidatesCount */\n      sload(0x04)\n        /* \"Development-Codebases/Blockchain/Eth_Smart_Contract_Voting/contracts/Election.sol\":2812:2824  _candidateId */\n      dup2\n        /* \"Development-Codebases/Blockchain/Eth_Smart_Contract_Voting/contracts/Election.sol\":2812:2843  _candidateId <= candidatesCount */\n      gt\n      iszero\n        /* \"Development-Codebases/Blockchain/Eth_Smart_Contract_Voting/contracts/Election.sol\":2792:2843  _candidateId > 0 && _candidateId <= candidatesCount */\n    tag_55:\n        /* \"Development-Codebases/Blockchain/Eth_Smart_Contract_Voting/contracts/Election.sol\":2784:2885  require(_candidateId > 0 && _candidateId <= candidatesCount, \"The selected candidate does not exist\") */\n      tag_56\n      jumpi\n      mload(0x40)\n      0x08c379a000000000000000000000000000000000000000000000000000000000\n      dup2\n      mstore\n      0x04\n      add\n      tag_57\n      swap1\n      tag_58\n      jump\t// in\n    tag_57:\n      mload(0x40)\n      dup1\n      swap2\n      sub\n      swap1\n      revert\n    tag_56:\n        /* \"Development-Codebases/Blockchain/Eth_Smart_Contract_Voting/contracts/Election.sol\":2956:2960  true */\n      0x01\n        /* \"Development-Codebases/Blockchain/Eth_Smart_Contract_Voting/contracts/Election.sol\":2935:2941  voters */\n      0x02\n        /* \"Development-Codebases/Blockchain/Eth_Smart_Contract_Voting/contracts/Election.sol\":2935:2953  voters[msg.sender] */\n      0x00\n        /* \"Development-Codebases/Blockchain/Eth_Smart_Contract_Voting/contracts/Election.sol\":2942:2952  msg.sender */\n      caller\n        /* \"Development-Codebases/Blockchain/Eth_Smart_Contract_Voting/contracts/Election.sol\":2935:2953  voters[msg.sender] */\n      0xffffffffffffffffffffffffffffffffffffffff\n      and\n      0xffffffffffffffffffffffffffffffffffffffff\n      and\n      dup2\n      mstore\n      0x20\n      add\n      swap1\n      dup2\n      mstore\n      0x20\n      add\n      0x00\n      keccak256\n      0x00\n        /* \"Development-Codebases/Blockchain/Eth_Smart_Contract_Voting/contracts/Election.sol\":2935:2960  voters[msg.sender] = true */\n      0x0100\n      exp\n      dup2\n      sload\n      dup2\n      0xff\n      mul\n      not\n      and\n      swap1\n      dup4\n      iszero\n      iszero\n      mul\n      or\n      swap1\n      sstore\n      pop\n        /* \"Development-Codebases/Blockchain/Eth_Smart_Contract_Voting/contracts/Election.sol\":3010:3020  candidates */\n      0x03\n        /* \"Development-Codebases/Blockchain/Eth_Smart_Contract_Voting/contracts/Election.sol\":3010:3034  candidates[_candidateId] */\n      0x00\n        /* \"Development-Codebases/Blockchain/Eth_Smart_Contract_Voting/contracts/Election.sol\":3021:3033  _candidateId */\n      dup3\n        /* \"Development-Codebases/Blockchain/Eth_Smart_Contract_Voting/contracts/Election.sol\":3010:3034  candidates[_candidateId] */\n      dup2\n      mstore\n      0x20\n      add\n      swap1\n      dup2\n      mstore\n      0x20\n      add\n      0x00\n      keccak256\n        /* \"Development-Codebases/Blockchain/Eth_Smart_Contract_Voting/contracts/Election.sol\":3010:3044  candidates[_candidateId].voteCount */\n      0x02\n      add\n      0x00\n        /* \"Development-Codebases/Blockchain/Eth_Smart_Contract_Voting/contracts/Election.sol\":3010:3047  candidates[_candidateId].voteCount ++ */\n      dup2\n      sload\n      dup1\n      swap3\n      swap2\n      swap1\n      tag_59\n      swap1\n      tag_60\n      jump\t// in\n    tag_59:\n      swap2\n      swap1\n      pop\n      sstore\n      pop\n        /* \"Development-Codebases/Blockchain/Eth_Smart_Contract_Voting/contracts/Election.sol\":3105:3117  _candidateId */\n      dup1\n        /* \"Development-Codebases/Blockchain/Eth_Smart_Contract_Voting/contracts/Election.sol\":3094:3118  votedEvent(_candidateId) */\n      0xfff3c900d938d21d0990d786e819f29b8d05c1ef587b462b939609625b684b16\n      mload(0x40)\n      mload(0x40)\n      dup1\n      swap2\n      sub\n      swap1\n      log2\n        /* \"Development-Codebases/Blockchain/Eth_Smart_Contract_Voting/contracts/Election.sol\":2319:3125  function vote (uint _candidateId) public {... */\n      pop\n      jump\t// out\n        /* \"Development-Codebases/Blockchain/Eth_Smart_Contract_Voting/contracts/Election.sol\":501:528  uint public candidatesCount */\n    tag_18:\n      sload(0x04)\n      dup2\n      jump\t// out\n        /* \"Development-Codebases/Blockchain/Eth_Smart_Contract_Voting/contracts/Election.sol\":421:465  mapping(uint => Candidate) public candidates */\n    tag_23:\n      mstore(0x20, 0x03)\n      dup1\n      0x00\n      mstore\n      keccak256(0x00, 0x40)\n      0x00\n      swap2\n      pop\n      swap1\n      pop\n      dup1\n      0x00\n      add\n      sload\n      swap1\n      dup1\n      0x01\n      add\n      dup1\n      sload\n      tag_61\n      swap1\n      tag_62\n      jump\t// in\n    tag_61:\n      dup1\n      0x1f\n      add\n      0x20\n      dup1\n      swap2\n      div\n      mul\n      0x20\n      add\n      mload(0x40)\n      swap1\n      dup2\n      add\n      0x40\n      mstore\n      dup1\n      swap3\n      swap2\n      swap1\n      dup2\n      dup2\n      mstore\n      0x20\n      add\n      dup3\n      dup1\n      sload\n      tag_63\n      swap1\n      tag_62\n      jump\t// in\n    tag_63:\n      dup1\n      iszero\n      tag_64\n      jumpi\n      dup1\n      0x1f\n      lt\n      tag_65\n      jumpi\n      0x0100\n      dup1\n      dup4\n      sload\n      div\n      mul\n      dup4\n      mstore\n      swap2\n      0x20\n      add\n      swap2\n      jump(tag_64)\n    tag_65:\n      dup3\n      add\n      swap2\n      swap1\n      0x00\n      mstore\n      keccak256(0x00, 0x20)\n      swap1\n    tag_66:\n      dup2\n      sload\n      dup2\n      mstore\n      swap1\n      0x01\n      add\n      swap1\n      0x20\n      add\n      dup1\n      dup4\n      gt\n      tag_66\n      jumpi\n      dup3\n      swap1\n      sub\n      0x1f\n      and\n      dup3\n      add\n      swap2\n    tag_64:\n      pop\n      pop\n      pop\n      pop\n      pop\n      swap1\n      dup1\n      0x02\n      add\n      sload\n      swap1\n      pop\n      dup4\n      jump\t// out\n        /* \"Development-Codebases/Blockchain/Eth_Smart_Contract_Voting/contracts/Election.sol\":219:247  address public electionOwner */\n    tag_27:\n      0x00\n      dup1\n      sload\n      swap1\n      0x0100\n      exp\n      swap1\n      div\n      0xffffffffffffffffffffffffffffffffffffffff\n      and\n      dup2\n      jump\t// out\n        /* \"Development-Codebases/Blockchain/Eth_Smart_Contract_Voting/contracts/Election.sol\":286:310  uint public isOpened = 0 */\n    tag_31:\n      sload(0x01)\n      dup2\n      jump\t// out\n        /* \"Development-Codebases/Blockchain/Eth_Smart_Contract_Voting/contracts/Election.sol\":1525:1742  function closeElection() public{... */\n    tag_34:\n        /* \"Development-Codebases/Blockchain/Eth_Smart_Contract_Voting/contracts/Election.sol\":1665:1675  msg.sender */\n      caller\n        /* \"Development-Codebases/Blockchain/Eth_Smart_Contract_Voting/contracts/Election.sol\":1648:1675  electionOwner == msg.sender */\n      0xffffffffffffffffffffffffffffffffffffffff\n      and\n        /* \"Development-Codebases/Blockchain/Eth_Smart_Contract_Voting/contracts/Election.sol\":1648:1661  electionOwner */\n      0x00\n      dup1\n      sload\n      swap1\n      0x0100\n      exp\n      swap1\n      div\n      0xffffffffffffffffffffffffffffffffffffffff\n      and\n        /* \"Development-Codebases/Blockchain/Eth_Smart_Contract_Voting/contracts/Election.sol\":1648:1675  electionOwner == msg.sender */\n      0xffffffffffffffffffffffffffffffffffffffff\n      and\n      eq\n        /* \"Development-Codebases/Blockchain/Eth_Smart_Contract_Voting/contracts/Election.sol\":1640:1676  require(electionOwner == msg.sender) */\n      tag_68\n      jumpi\n      0x00\n      dup1\n      revert\n    tag_68:\n        /* \"Development-Codebases/Blockchain/Eth_Smart_Contract_Voting/contracts/Election.sol\":1698:1699  0 */\n      0x00\n        /* \"Development-Codebases/Blockchain/Eth_Smart_Contract_Voting/contracts/Election.sol\":1687:1695  isOpened */\n      0x01\n        /* \"Development-Codebases/Blockchain/Eth_Smart_Contract_Voting/contracts/Election.sol\":1687:1699  isOpened = 0 */\n      dup2\n      swap1\n      sstore\n      pop\n        /* \"Development-Codebases/Blockchain/Eth_Smart_Contract_Voting/contracts/Election.sol\":1715:1735  changedEventState(0) */\n      0x87cb50bc54b39a8c8f675f764b7743c67f901780d87853059fd73827ca3d46eb\n        /* \"Development-Codebases/Blockchain/Eth_Smart_Contract_Voting/contracts/Election.sol\":1733:1734  0 */\n      0x00\n        /* \"Development-Codebases/Blockchain/Eth_Smart_Contract_Voting/contracts/Election.sol\":1715:1735  changedEventState(0) */\n      mload(0x40)\n      tag_69\n      swap2\n      swap1\n      tag_70\n      jump\t// in\n    tag_69:\n      mload(0x40)\n      dup1\n      swap2\n      sub\n      swap1\n      log1\n        /* \"Development-Codebases/Blockchain/Eth_Smart_Contract_Voting/contracts/Election.sol\":1525:1742  function closeElection() public{... */\n      jump\t// out\n        /* \"Development-Codebases/Blockchain/Eth_Smart_Contract_Voting/contracts/Election.sol\":354:392  mapping(address => bool) public voters */\n    tag_38:\n      mstore(0x20, 0x02)\n      dup1\n      0x00\n      mstore\n      keccak256(0x00, 0x40)\n      0x00\n      swap2\n      pop\n      sload\n      swap1\n      0x0100\n      exp\n      swap1\n      div\n      0xff\n      and\n      dup2\n      jump\t// out\n        /* \"Development-Codebases/Blockchain/Eth_Smart_Contract_Voting/contracts/Election.sol\":1080:1296  function openElection() public{... */\n    tag_42:\n        /* \"Development-Codebases/Blockchain/Eth_Smart_Contract_Voting/contracts/Election.sol\":1219:1229  msg.sender */\n      caller\n        /* \"Development-Codebases/Blockchain/Eth_Smart_Contract_Voting/contracts/Election.sol\":1202:1229  electionOwner == msg.sender */\n      0xffffffffffffffffffffffffffffffffffffffff\n      and\n        /* \"Development-Codebases/Blockchain/Eth_Smart_Contract_Voting/contracts/Election.sol\":1202:1215  electionOwner */\n      0x00\n      dup1\n      sload\n      swap1\n      0x0100\n      exp\n      swap1\n      div\n      0xffffffffffffffffffffffffffffffffffffffff\n      and\n        /* \"Development-Codebases/Blockchain/Eth_Smart_Contract_Voting/contracts/Election.sol\":1202:1229  electionOwner == msg.sender */\n      0xffffffffffffffffffffffffffffffffffffffff\n      and\n      eq\n        /* \"Development-Codebases/Blockchain/Eth_Smart_Contract_Voting/contracts/Election.sol\":1194:1230  require(electionOwner == msg.sender) */\n      tag_72\n      jumpi\n      0x00\n      dup1\n      revert\n    tag_72:\n        /* \"Development-Codebases/Blockchain/Eth_Smart_Contract_Voting/contracts/Election.sol\":1252:1253  2 */\n      0x02\n        /* \"Development-Codebases/Blockchain/Eth_Smart_Contract_Voting/contracts/Election.sol\":1241:1249  isOpened */\n      0x01\n        /* \"Development-Codebases/Blockchain/Eth_Smart_Contract_Voting/contracts/Election.sol\":1241:1253  isOpened = 2 */\n      dup2\n      swap1\n      sstore\n      pop\n        /* \"Development-Codebases/Blockchain/Eth_Smart_Contract_Voting/contracts/Election.sol\":1269:1289  changedEventState(2) */\n      0x87cb50bc54b39a8c8f675f764b7743c67f901780d87853059fd73827ca3d46eb\n        /* \"Development-Codebases/Blockchain/Eth_Smart_Contract_Voting/contracts/Election.sol\":1287:1288  2 */\n      0x02\n        /* \"Development-Codebases/Blockchain/Eth_Smart_Contract_Voting/contracts/Election.sol\":1269:1289  changedEventState(2) */\n      mload(0x40)\n      tag_73\n      swap2\n      swap1\n      tag_74\n      jump\t// in\n    tag_73:\n      mload(0x40)\n      dup1\n      swap2\n      sub\n      swap1\n      log1\n        /* \"Development-Codebases/Blockchain/Eth_Smart_Contract_Voting/contracts/Election.sol\":1080:1296  function openElection() public{... */\n      jump\t// out\n        /* \"Development-Codebases/Blockchain/Eth_Smart_Contract_Voting/contracts/Election.sol\":1302:1519  function pauseElection() public{... */\n    tag_44:\n        /* \"Development-Codebases/Blockchain/Eth_Smart_Contract_Voting/contracts/Election.sol\":1442:1452  msg.sender */\n      caller\n        /* \"Development-Codebases/Blockchain/Eth_Smart_Contract_Voting/contracts/Election.sol\":1425:1452  electionOwner == msg.sender */\n      0xffffffffffffffffffffffffffffffffffffffff\n      and\n        /* \"Development-Codebases/Blockchain/Eth_Smart_Contract_Voting/contracts/Election.sol\":1425:1438  electionOwner */\n      0x00\n      dup1\n      sload\n      swap1\n      0x0100\n      exp\n      swap1\n      div\n      0xffffffffffffffffffffffffffffffffffffffff\n      and\n        /* \"Development-Codebases/Blockchain/Eth_Smart_Contract_Voting/contracts/Election.sol\":1425:1452  electionOwner == msg.sender */\n      0xffffffffffffffffffffffffffffffffffffffff\n      and\n      eq\n        /* \"Development-Codebases/Blockchain/Eth_Smart_Contract_Voting/contracts/Election.sol\":1417:1453  require(electionOwner == msg.sender) */\n      tag_76\n      jumpi\n      0x00\n      dup1\n      revert\n    tag_76:\n        /* \"Development-Codebases/Blockchain/Eth_Smart_Contract_Voting/contracts/Election.sol\":1475:1476  1 */\n      0x01\n        /* \"Development-Codebases/Blockchain/Eth_Smart_Contract_Voting/contracts/Election.sol\":1464:1472  isOpened */\n      dup1\n        /* \"Development-Codebases/Blockchain/Eth_Smart_Contract_Voting/contracts/Election.sol\":1464:1476  isOpened = 1 */\n      dup2\n      swap1\n      sstore\n      pop\n        /* \"Development-Codebases/Blockchain/Eth_Smart_Contract_Voting/contracts/Election.sol\":1492:1512  changedEventState(1) */\n      0x87cb50bc54b39a8c8f675f764b7743c67f901780d87853059fd73827ca3d46eb\n        /* \"Development-Codebases/Blockchain/Eth_Smart_Contract_Voting/contracts/Election.sol\":1510:1511  1 */\n      0x01\n        /* \"Development-Codebases/Blockchain/Eth_Smart_Contract_Voting/contracts/Election.sol\":1492:1512  changedEventState(1) */\n      mload(0x40)\n      tag_77\n      swap2\n      swap1\n      tag_78\n      jump\t// in\n    tag_77:\n      mload(0x40)\n      dup1\n      swap2\n      sub\n      swap1\n      log1\n        /* \"Development-Codebases/Blockchain/Eth_Smart_Contract_Voting/contracts/Election.sol\":1302:1519  function pauseElection() public{... */\n      jump\t// out\n        /* \"#utility.yul\":7:146   */\n    tag_80:\n        /* \"#utility.yul\":53:58   */\n      0x00\n        /* \"#utility.yul\":91:97   */\n      dup2\n        /* \"#utility.yul\":78:98   */\n      calldataload\n        /* \"#utility.yul\":69:98   */\n      swap1\n      pop\n        /* \"#utility.yul\":107:140   */\n      tag_82\n        /* \"#utility.yul\":134:139   */\n      dup2\n        /* \"#utility.yul\":107:140   */\n      tag_83\n      jump\t// in\n    tag_82:\n        /* \"#utility.yul\":59:146   */\n      swap3\n      swap2\n      pop\n      pop\n      jump\t// out\n        /* \"#utility.yul\":152:291   */\n    tag_84:\n        /* \"#utility.yul\":198:203   */\n      0x00\n        /* \"#utility.yul\":236:242   */\n      dup2\n        /* \"#utility.yul\":223:243   */\n      calldataload\n        /* \"#utility.yul\":214:243   */\n      swap1\n      pop\n        /* \"#utility.yul\":252:285   */\n      tag_86\n        /* \"#utility.yul\":279:284   */\n      dup2\n        /* \"#utility.yul\":252:285   */\n      tag_87\n      jump\t// in\n    tag_86:\n        /* \"#utility.yul\":204:291   */\n      swap3\n      swap2\n      pop\n      pop\n      jump\t// out\n        /* \"#utility.yul\":297:626   */\n    tag_37:\n        /* \"#utility.yul\":356:362   */\n      0x00\n        /* \"#utility.yul\":405:407   */\n      0x20\n        /* \"#utility.yul\":393:402   */\n      dup3\n        /* \"#utility.yul\":384:391   */\n      dup5\n        /* \"#utility.yul\":380:403   */\n      sub\n        /* \"#utility.yul\":376:408   */\n      slt\n        /* \"#utility.yul\":373:375   */\n      iszero\n      tag_89\n      jumpi\n        /* \"#utility.yul\":411:490   */\n      tag_90\n      tag_91\n      jump\t// in\n    tag_90:\n        /* \"#utility.yul\":373:375   */\n    tag_89:\n        /* \"#utility.yul\":531:532   */\n      0x00\n        /* \"#utility.yul\":556:609   */\n      tag_92\n        /* \"#utility.yul\":601:608   */\n      dup5\n        /* \"#utility.yul\":592:598   */\n      dup3\n        /* \"#utility.yul\":581:590   */\n      dup6\n        /* \"#utility.yul\":577:599   */\n      add\n        /* \"#utility.yul\":556:609   */\n      tag_80\n      jump\t// in\n    tag_92:\n        /* \"#utility.yul\":546:609   */\n      swap2\n      pop\n        /* \"#utility.yul\":502:619   */\n      pop\n        /* \"#utility.yul\":363:626   */\n      swap3\n      swap2\n      pop\n      pop\n      jump\t// out\n        /* \"#utility.yul\":632:961   */\n    tag_15:\n        /* \"#utility.yul\":691:697   */\n      0x00\n        /* \"#utility.yul\":740:742   */\n      0x20\n        /* \"#utility.yul\":728:737   */\n      dup3\n        /* \"#utility.yul\":719:726   */\n      dup5\n        /* \"#utility.yul\":715:738   */\n      sub\n        /* \"#utility.yul\":711:743   */\n      slt\n        /* \"#utility.yul\":708:710   */\n      iszero\n      tag_94\n      jumpi\n        /* \"#utility.yul\":746:825   */\n      tag_95\n      tag_91\n      jump\t// in\n    tag_95:\n        /* \"#utility.yul\":708:710   */\n    tag_94:\n        /* \"#utility.yul\":866:867   */\n      0x00\n        /* \"#utility.yul\":891:944   */\n      tag_96\n        /* \"#utility.yul\":936:943   */\n      dup5\n        /* \"#utility.yul\":927:933   */\n      dup3\n        /* \"#utility.yul\":916:925   */\n      dup6\n        /* \"#utility.yul\":912:934   */\n      add\n        /* \"#utility.yul\":891:944   */\n      tag_84\n      jump\t// in\n    tag_96:\n        /* \"#utility.yul\":881:944   */\n      swap2\n      pop\n        /* \"#utility.yul\":837:954   */\n      pop\n        /* \"#utility.yul\":698:961   */\n      swap3\n      swap2\n      pop\n      pop\n      jump\t// out\n        /* \"#utility.yul\":967:1085   */\n    tag_97:\n        /* \"#utility.yul\":1054:1078   */\n      tag_99\n        /* \"#utility.yul\":1072:1077   */\n      dup2\n        /* \"#utility.yul\":1054:1078   */\n      tag_100\n      jump\t// in\n    tag_99:\n        /* \"#utility.yul\":1049:1052   */\n      dup3\n        /* \"#utility.yul\":1042:1079   */\n      mstore\n        /* \"#utility.yul\":1032:1085   */\n      pop\n      pop\n      jump\t// out\n        /* \"#utility.yul\":1091:1200   */\n    tag_101:\n        /* \"#utility.yul\":1172:1193   */\n      tag_103\n        /* \"#utility.yul\":1187:1192   */\n      dup2\n        /* \"#utility.yul\":1172:1193   */\n      tag_104\n      jump\t// in\n    tag_103:\n        /* \"#utility.yul\":1167:1170   */\n      dup3\n        /* \"#utility.yul\":1160:1194   */\n      mstore\n        /* \"#utility.yul\":1150:1200   */\n      pop\n      pop\n      jump\t// out\n        /* \"#utility.yul\":1206:1353   */\n    tag_105:\n        /* \"#utility.yul\":1301:1346   */\n      tag_107\n        /* \"#utility.yul\":1340:1345   */\n      dup2\n        /* \"#utility.yul\":1301:1346   */\n      tag_108\n      jump\t// in\n    tag_107:\n        /* \"#utility.yul\":1296:1299   */\n      dup3\n        /* \"#utility.yul\":1289:1347   */\n      mstore\n        /* \"#utility.yul\":1279:1353   */\n      pop\n      pop\n      jump\t// out\n        /* \"#utility.yul\":1359:1506   */\n    tag_109:\n        /* \"#utility.yul\":1454:1499   */\n      tag_111\n        /* \"#utility.yul\":1493:1498   */\n      dup2\n        /* \"#utility.yul\":1454:1499   */\n      tag_112\n      jump\t// in\n    tag_111:\n        /* \"#utility.yul\":1449:1452   */\n      dup3\n        /* \"#utility.yul\":1442:1500   */\n      mstore\n        /* \"#utility.yul\":1432:1506   */\n      pop\n      pop\n      jump\t// out\n        /* \"#utility.yul\":1512:1659   */\n    tag_113:\n        /* \"#utility.yul\":1607:1652   */\n      tag_115\n        /* \"#utility.yul\":1646:1651   */\n      dup2\n        /* \"#utility.yul\":1607:1652   */\n      tag_116\n      jump\t// in\n    tag_115:\n        /* \"#utility.yul\":1602:1605   */\n      dup3\n        /* \"#utility.yul\":1595:1653   */\n      mstore\n        /* \"#utility.yul\":1585:1659   */\n      pop\n      pop\n      jump\t// out\n        /* \"#utility.yul\":1665:2029   */\n    tag_117:\n        /* \"#utility.yul\":1753:1756   */\n      0x00\n        /* \"#utility.yul\":1781:1820   */\n      tag_119\n        /* \"#utility.yul\":1814:1819   */\n      dup3\n        /* \"#utility.yul\":1781:1820   */\n      tag_120\n      jump\t// in\n    tag_119:\n        /* \"#utility.yul\":1836:1907   */\n      tag_121\n        /* \"#utility.yul\":1900:1906   */\n      dup2\n        /* \"#utility.yul\":1895:1898   */\n      dup6\n        /* \"#utility.yul\":1836:1907   */\n      tag_122\n      jump\t// in\n    tag_121:\n        /* \"#utility.yul\":1829:1907   */\n      swap4\n      pop\n        /* \"#utility.yul\":1916:1968   */\n      tag_123\n        /* \"#utility.yul\":1961:1967   */\n      dup2\n        /* \"#utility.yul\":1956:1959   */\n      dup6\n        /* \"#utility.yul\":1949:1953   */\n      0x20\n        /* \"#utility.yul\":1942:1947   */\n      dup7\n        /* \"#utility.yul\":1938:1954   */\n      add\n        /* \"#utility.yul\":1916:1968   */\n      tag_124\n      jump\t// in\n    tag_123:\n        /* \"#utility.yul\":1993:2022   */\n      tag_125\n        /* \"#utility.yul\":2015:2021   */\n      dup2\n        /* \"#utility.yul\":1993:2022   */\n      tag_126\n      jump\t// in\n    tag_125:\n        /* \"#utility.yul\":1988:1991   */\n      dup5\n        /* \"#utility.yul\":1984:2023   */\n      add\n        /* \"#utility.yul\":1977:2023   */\n      swap2\n      pop\n        /* \"#utility.yul\":1757:2029   */\n      pop\n      swap3\n      swap2\n      pop\n      pop\n      jump\t// out\n        /* \"#utility.yul\":2035:2401   */\n    tag_127:\n        /* \"#utility.yul\":2177:2180   */\n      0x00\n        /* \"#utility.yul\":2198:2265   */\n      tag_129\n        /* \"#utility.yul\":2262:2264   */\n      0x23\n        /* \"#utility.yul\":2257:2260   */\n      dup4\n        /* \"#utility.yul\":2198:2265   */\n      tag_122\n      jump\t// in\n    tag_129:\n        /* \"#utility.yul\":2191:2265   */\n      swap2\n      pop\n        /* \"#utility.yul\":2274:2367   */\n      tag_130\n        /* \"#utility.yul\":2363:2366   */\n      dup3\n        /* \"#utility.yul\":2274:2367   */\n      tag_131\n      jump\t// in\n    tag_130:\n        /* \"#utility.yul\":2392:2394   */\n      0x40\n        /* \"#utility.yul\":2387:2390   */\n      dup3\n        /* \"#utility.yul\":2383:2395   */\n      add\n        /* \"#utility.yul\":2376:2395   */\n      swap1\n      pop\n        /* \"#utility.yul\":2181:2401   */\n      swap2\n      swap1\n      pop\n      jump\t// out\n        /* \"#utility.yul\":2407:2773   */\n    tag_132:\n        /* \"#utility.yul\":2549:2552   */\n      0x00\n        /* \"#utility.yul\":2570:2637   */\n      tag_134\n        /* \"#utility.yul\":2634:2636   */\n      0x25\n        /* \"#utility.yul\":2629:2632   */\n      dup4\n        /* \"#utility.yul\":2570:2637   */\n      tag_122\n      jump\t// in\n    tag_134:\n        /* \"#utility.yul\":2563:2637   */\n      swap2\n      pop\n        /* \"#utility.yul\":2646:2739   */\n      tag_135\n        /* \"#utility.yul\":2735:2738   */\n      dup3\n        /* \"#utility.yul\":2646:2739   */\n      tag_136\n      jump\t// in\n    tag_135:\n        /* \"#utility.yul\":2764:2766   */\n      0x40\n        /* \"#utility.yul\":2759:2762   */\n      dup3\n        /* \"#utility.yul\":2755:2767   */\n      add\n        /* \"#utility.yul\":2748:2767   */\n      swap1\n      pop\n        /* \"#utility.yul\":2553:2773   */\n      swap2\n      swap1\n      pop\n      jump\t// out\n        /* \"#utility.yul\":2779:3145   */\n    tag_137:\n        /* \"#utility.yul\":2921:2924   */\n      0x00\n        /* \"#utility.yul\":2942:3009   */\n      tag_139\n        /* \"#utility.yul\":3006:3008   */\n      0x1a\n        /* \"#utility.yul\":3001:3004   */\n      dup4\n        /* \"#utility.yul\":2942:3009   */\n      tag_122\n      jump\t// in\n    tag_139:\n        /* \"#utility.yul\":2935:3009   */\n      swap2\n      pop\n        /* \"#utility.yul\":3018:3111   */\n      tag_140\n        /* \"#utility.yul\":3107:3110   */\n      dup3\n        /* \"#utility.yul\":3018:3111   */\n      tag_141\n      jump\t// in\n    tag_140:\n        /* \"#utility.yul\":3136:3138   */\n      0x20\n        /* \"#utility.yul\":3131:3134   */\n      dup3\n        /* \"#utility.yul\":3127:3139   */\n      add\n        /* \"#utility.yul\":3120:3139   */\n      swap1\n      pop\n        /* \"#utility.yul\":2925:3145   */\n      swap2\n      swap1\n      pop\n      jump\t// out\n        /* \"#utility.yul\":3151:3517   */\n    tag_142:\n        /* \"#utility.yul\":3293:3296   */\n      0x00\n        /* \"#utility.yul\":3314:3381   */\n      tag_144\n        /* \"#utility.yul\":3378:3380   */\n      0x29\n        /* \"#utility.yul\":3373:3376   */\n      dup4\n        /* \"#utility.yul\":3314:3381   */\n      tag_122\n      jump\t// in\n    tag_144:\n        /* \"#utility.yul\":3307:3381   */\n      swap2\n      pop\n        /* \"#utility.yul\":3390:3483   */\n      tag_145\n        /* \"#utility.yul\":3479:3482   */\n      dup3\n        /* \"#utility.yul\":3390:3483   */\n      tag_146\n      jump\t// in\n    tag_145:\n        /* \"#utility.yul\":3508:3510   */\n      0x40\n        /* \"#utility.yul\":3503:3506   */\n      dup3\n        /* \"#utility.yul\":3499:3511   */\n      add\n        /* \"#utility.yul\":3492:3511   */\n      swap1\n      pop\n        /* \"#utility.yul\":3297:3517   */\n      swap2\n      swap1\n      pop\n      jump\t// out\n        /* \"#utility.yul\":3523:3641   */\n    tag_147:\n        /* \"#utility.yul\":3610:3634   */\n      tag_149\n        /* \"#utility.yul\":3628:3633   */\n      dup2\n        /* \"#utility.yul\":3610:3634   */\n      tag_150\n      jump\t// in\n    tag_149:\n        /* \"#utility.yul\":3605:3608   */\n      dup3\n        /* \"#utility.yul\":3598:3635   */\n      mstore\n        /* \"#utility.yul\":3588:3641   */\n      pop\n      pop\n      jump\t// out\n        /* \"#utility.yul\":3647:3869   */\n    tag_29:\n        /* \"#utility.yul\":3740:3744   */\n      0x00\n        /* \"#utility.yul\":3778:3780   */\n      0x20\n        /* \"#utility.yul\":3767:3776   */\n      dup3\n        /* \"#utility.yul\":3763:3781   */\n      add\n        /* \"#utility.yul\":3755:3781   */\n      swap1\n      pop\n        /* \"#utility.yul\":3791:3862   */\n      tag_152\n        /* \"#utility.yul\":3859:3860   */\n      0x00\n        /* \"#utility.yul\":3848:3857   */\n      dup4\n        /* \"#utility.yul\":3844:3861   */\n      add\n        /* \"#utility.yul\":3835:3841   */\n      dup5\n        /* \"#utility.yul\":3791:3862   */\n      tag_97\n      jump\t// in\n    tag_152:\n        /* \"#utility.yul\":3745:3869   */\n      swap3\n      swap2\n      pop\n      pop\n      jump\t// out\n        /* \"#utility.yul\":3875:4085   */\n    tag_40:\n        /* \"#utility.yul\":3962:3966   */\n      0x00\n        /* \"#utility.yul\":4000:4002   */\n      0x20\n        /* \"#utility.yul\":3989:3998   */\n      dup3\n        /* \"#utility.yul\":3985:4003   */\n      add\n        /* \"#utility.yul\":3977:4003   */\n      swap1\n      pop\n        /* \"#utility.yul\":4013:4078   */\n      tag_154\n        /* \"#utility.yul\":4075:4076   */\n      0x00\n        /* \"#utility.yul\":4064:4073   */\n      dup4\n        /* \"#utility.yul\":4060:4077   */\n      add\n        /* \"#utility.yul\":4051:4057   */\n      dup5\n        /* \"#utility.yul\":4013:4078   */\n      tag_101\n      jump\t// in\n    tag_154:\n        /* \"#utility.yul\":3967:4085   */\n      swap3\n      swap2\n      pop\n      pop\n      jump\t// out\n        /* \"#utility.yul\":4091:4329   */\n    tag_70:\n        /* \"#utility.yul\":4192:4196   */\n      0x00\n        /* \"#utility.yul\":4230:4232   */\n      0x20\n        /* \"#utility.yul\":4219:4228   */\n      dup3\n        /* \"#utility.yul\":4215:4233   */\n      add\n        /* \"#utility.yul\":4207:4233   */\n      swap1\n      pop\n        /* \"#utility.yul\":4243:4322   */\n      tag_156\n        /* \"#utility.yul\":4319:4320   */\n      0x00\n        /* \"#utility.yul\":4308:4317   */\n      dup4\n        /* \"#utility.yul\":4304:4321   */\n      add\n        /* \"#utility.yul\":4295:4301   */\n      dup5\n        /* \"#utility.yul\":4243:4322   */\n      tag_105\n      jump\t// in\n    tag_156:\n        /* \"#utility.yul\":4197:4329   */\n      swap3\n      swap2\n      pop\n      pop\n      jump\t// out\n        /* \"#utility.yul\":4335:4573   */\n    tag_78:\n        /* \"#utility.yul\":4436:4440   */\n      0x00\n        /* \"#utility.yul\":4474:4476   */\n      0x20\n        /* \"#utility.yul\":4463:4472   */\n      dup3\n        /* \"#utility.yul\":4459:4477   */\n      add\n        /* \"#utility.yul\":4451:4477   */\n      swap1\n      pop\n        /* \"#utility.yul\":4487:4566   */\n      tag_158\n        /* \"#utility.yul\":4563:4564   */\n      0x00\n        /* \"#utility.yul\":4552:4561   */\n      dup4\n        /* \"#utility.yul\":4548:4565   */\n      add\n        /* \"#utility.yul\":4539:4545   */\n      dup5\n        /* \"#utility.yul\":4487:4566   */\n      tag_109\n      jump\t// in\n    tag_158:\n        /* \"#utility.yul\":4441:4573   */\n      swap3\n      swap2\n      pop\n      pop\n      jump\t// out\n        /* \"#utility.yul\":4579:4817   */\n    tag_74:\n        /* \"#utility.yul\":4680:4684   */\n      0x00\n        /* \"#utility.yul\":4718:4720   */\n      0x20\n        /* \"#utility.yul\":4707:4716   */\n      dup3\n        /* \"#utility.yul\":4703:4721   */\n      add\n        /* \"#utility.yul\":4695:4721   */\n      swap1\n      pop\n        /* \"#utility.yul\":4731:4810   */\n      tag_160\n        /* \"#utility.yul\":4807:4808   */\n      0x00\n        /* \"#utility.yul\":4796:4805   */\n      dup4\n        /* \"#utility.yul\":4792:4809   */\n      add\n        /* \"#utility.yul\":4783:4789   */\n      dup5\n        /* \"#utility.yul\":4731:4810   */\n      tag_113\n      jump\t// in\n    tag_160:\n        /* \"#utility.yul\":4685:4817   */\n      swap3\n      swap2\n      pop\n      pop\n      jump\t// out\n        /* \"#utility.yul\":4823:5242   */\n    tag_54:\n        /* \"#utility.yul\":4989:4993   */\n      0x00\n        /* \"#utility.yul\":5027:5029   */\n      0x20\n        /* \"#utility.yul\":5016:5025   */\n      dup3\n        /* \"#utility.yul\":5012:5030   */\n      add\n        /* \"#utility.yul\":5004:5030   */\n      swap1\n      pop\n        /* \"#utility.yul\":5076:5085   */\n      dup2\n        /* \"#utility.yul\":5070:5074   */\n      dup2\n        /* \"#utility.yul\":5066:5086   */\n      sub\n        /* \"#utility.yul\":5062:5063   */\n      0x00\n        /* \"#utility.yul\":5051:5060   */\n      dup4\n        /* \"#utility.yul\":5047:5064   */\n      add\n        /* \"#utility.yul\":5040:5087   */\n      mstore\n        /* \"#utility.yul\":5104:5235   */\n      tag_162\n        /* \"#utility.yul\":5230:5234   */\n      dup2\n        /* \"#utility.yul\":5104:5235   */\n      tag_127\n      jump\t// in\n    tag_162:\n        /* \"#utility.yul\":5096:5235   */\n      swap1\n      pop\n        /* \"#utility.yul\":4994:5242   */\n      swap2\n      swap1\n      pop\n      jump\t// out\n        /* \"#utility.yul\":5248:5667   */\n    tag_58:\n        /* \"#utility.yul\":5414:5418   */\n      0x00\n        /* \"#utility.yul\":5452:5454   */\n      0x20\n        /* \"#utility.yul\":5441:5450   */\n      dup3\n        /* \"#utility.yul\":5437:5455   */\n      add\n        /* \"#utility.yul\":5429:5455   */\n      swap1\n      pop\n        /* \"#utility.yul\":5501:5510   */\n      dup2\n        /* \"#utility.yul\":5495:5499   */\n      dup2\n        /* \"#utility.yul\":5491:5511   */\n      sub\n        /* \"#utility.yul\":5487:5488   */\n      0x00\n        /* \"#utility.yul\":5476:5485   */\n      dup4\n        /* \"#utility.yul\":5472:5489   */\n      add\n        /* \"#utility.yul\":5465:5512   */\n      mstore\n        /* \"#utility.yul\":5529:5660   */\n      tag_164\n        /* \"#utility.yul\":5655:5659   */\n      dup2\n        /* \"#utility.yul\":5529:5660   */\n      tag_132\n      jump\t// in\n    tag_164:\n        /* \"#utility.yul\":5521:5660   */\n      swap1\n      pop\n        /* \"#utility.yul\":5419:5667   */\n      swap2\n      swap1\n      pop\n      jump\t// out\n        /* \"#utility.yul\":5673:6092   */\n    tag_48:\n        /* \"#utility.yul\":5839:5843   */\n      0x00\n        /* \"#utility.yul\":5877:5879   */\n      0x20\n        /* \"#utility.yul\":5866:5875   */\n      dup3\n        /* \"#utility.yul\":5862:5880   */\n      add\n        /* \"#utility.yul\":5854:5880   */\n      swap1\n      pop\n        /* \"#utility.yul\":5926:5935   */\n      dup2\n        /* \"#utility.yul\":5920:5924   */\n      dup2\n        /* \"#utility.yul\":5916:5936   */\n      sub\n        /* \"#utility.yul\":5912:5913   */\n      0x00\n        /* \"#utility.yul\":5901:5910   */\n      dup4\n        /* \"#utility.yul\":5897:5914   */\n      add\n        /* \"#utility.yul\":5890:5937   */\n      mstore\n        /* \"#utility.yul\":5954:6085   */\n      tag_166\n        /* \"#utility.yul\":6080:6084   */\n      dup2\n        /* \"#utility.yul\":5954:6085   */\n      tag_137\n      jump\t// in\n    tag_166:\n        /* \"#utility.yul\":5946:6085   */\n      swap1\n      pop\n        /* \"#utility.yul\":5844:6092   */\n      swap2\n      swap1\n      pop\n      jump\t// out\n        /* \"#utility.yul\":6098:6517   */\n    tag_51:\n        /* \"#utility.yul\":6264:6268   */\n      0x00\n        /* \"#utility.yul\":6302:6304   */\n      0x20\n        /* \"#utility.yul\":6291:6300   */\n      dup3\n        /* \"#utility.yul\":6287:6305   */\n      add\n        /* \"#utility.yul\":6279:6305   */\n      swap1\n      pop\n        /* \"#utility.yul\":6351:6360   */\n      dup2\n        /* \"#utility.yul\":6345:6349   */\n      dup2\n        /* \"#utility.yul\":6341:6361   */\n      sub\n        /* \"#utility.yul\":6337:6338   */\n      0x00\n        /* \"#utility.yul\":6326:6335   */\n      dup4\n        /* \"#utility.yul\":6322:6339   */\n      add\n        /* \"#utility.yul\":6315:6362   */\n      mstore\n        /* \"#utility.yul\":6379:6510   */\n      tag_168\n        /* \"#utility.yul\":6505:6509   */\n      dup2\n        /* \"#utility.yul\":6379:6510   */\n      tag_142\n      jump\t// in\n    tag_168:\n        /* \"#utility.yul\":6371:6510   */\n      swap1\n      pop\n        /* \"#utility.yul\":6269:6517   */\n      swap2\n      swap1\n      pop\n      jump\t// out\n        /* \"#utility.yul\":6523:6745   */\n    tag_20:\n        /* \"#utility.yul\":6616:6620   */\n      0x00\n        /* \"#utility.yul\":6654:6656   */\n      0x20\n        /* \"#utility.yul\":6643:6652   */\n      dup3\n        /* \"#utility.yul\":6639:6657   */\n      add\n        /* \"#utility.yul\":6631:6657   */\n      swap1\n      pop\n        /* \"#utility.yul\":6667:6738   */\n      tag_170\n        /* \"#utility.yul\":6735:6736   */\n      0x00\n        /* \"#utility.yul\":6724:6733   */\n      dup4\n        /* \"#utility.yul\":6720:6737   */\n      add\n        /* \"#utility.yul\":6711:6717   */\n      dup5\n        /* \"#utility.yul\":6667:6738   */\n      tag_147\n      jump\t// in\n    tag_170:\n        /* \"#utility.yul\":6621:6745   */\n      swap3\n      swap2\n      pop\n      pop\n      jump\t// out\n        /* \"#utility.yul\":6751:7284   */\n    tag_25:\n        /* \"#utility.yul\":6920:6924   */\n      0x00\n        /* \"#utility.yul\":6958:6960   */\n      0x60\n        /* \"#utility.yul\":6947:6956   */\n      dup3\n        /* \"#utility.yul\":6943:6961   */\n      add\n        /* \"#utility.yul\":6935:6961   */\n      swap1\n      pop\n        /* \"#utility.yul\":6971:7042   */\n      tag_172\n        /* \"#utility.yul\":7039:7040   */\n      0x00\n        /* \"#utility.yul\":7028:7037   */\n      dup4\n        /* \"#utility.yul\":7024:7041   */\n      add\n        /* \"#utility.yul\":7015:7021   */\n      dup7\n        /* \"#utility.yul\":6971:7042   */\n      tag_147\n      jump\t// in\n    tag_172:\n        /* \"#utility.yul\":7089:7098   */\n      dup2\n        /* \"#utility.yul\":7083:7087   */\n      dup2\n        /* \"#utility.yul\":7079:7099   */\n      sub\n        /* \"#utility.yul\":7074:7076   */\n      0x20\n        /* \"#utility.yul\":7063:7072   */\n      dup4\n        /* \"#utility.yul\":7059:7077   */\n      add\n        /* \"#utility.yul\":7052:7100   */\n      mstore\n        /* \"#utility.yul\":7117:7195   */\n      tag_173\n        /* \"#utility.yul\":7190:7194   */\n      dup2\n        /* \"#utility.yul\":7181:7187   */\n      dup6\n        /* \"#utility.yul\":7117:7195   */\n      tag_117\n      jump\t// in\n    tag_173:\n        /* \"#utility.yul\":7109:7195   */\n      swap1\n      pop\n        /* \"#utility.yul\":7205:7277   */\n      tag_174\n        /* \"#utility.yul\":7273:7275   */\n      0x40\n        /* \"#utility.yul\":7262:7271   */\n      dup4\n        /* \"#utility.yul\":7258:7276   */\n      add\n        /* \"#utility.yul\":7249:7255   */\n      dup5\n        /* \"#utility.yul\":7205:7277   */\n      tag_147\n      jump\t// in\n    tag_174:\n        /* \"#utility.yul\":6925:7284   */\n      swap5\n      swap4\n      pop\n      pop\n      pop\n      pop\n      jump\t// out\n        /* \"#utility.yul\":7371:7470   */\n    tag_120:\n        /* \"#utility.yul\":7423:7429   */\n      0x00\n        /* \"#utility.yul\":7457:7462   */\n      dup2\n        /* \"#utility.yul\":7451:7463   */\n      mload\n        /* \"#utility.yul\":7441:7463   */\n      swap1\n      pop\n        /* \"#utility.yul\":7430:7470   */\n      swap2\n      swap1\n      pop\n      jump\t// out\n        /* \"#utility.yul\":7476:7645   */\n    tag_122:\n        /* \"#utility.yul\":7560:7571   */\n      0x00\n        /* \"#utility.yul\":7594:7600   */\n      dup3\n        /* \"#utility.yul\":7589:7592   */\n      dup3\n        /* \"#utility.yul\":7582:7601   */\n      mstore\n        /* \"#utility.yul\":7634:7638   */\n      0x20\n        /* \"#utility.yul\":7629:7632   */\n      dup3\n        /* \"#utility.yul\":7625:7639   */\n      add\n        /* \"#utility.yul\":7610:7639   */\n      swap1\n      pop\n        /* \"#utility.yul\":7572:7645   */\n      swap3\n      swap2\n      pop\n      pop\n      jump\t// out\n        /* \"#utility.yul\":7651:7747   */\n    tag_100:\n        /* \"#utility.yul\":7688:7695   */\n      0x00\n        /* \"#utility.yul\":7717:7741   */\n      tag_180\n        /* \"#utility.yul\":7735:7740   */\n      dup3\n        /* \"#utility.yul\":7717:7741   */\n      tag_181\n      jump\t// in\n    tag_180:\n        /* \"#utility.yul\":7706:7741   */\n      swap1\n      pop\n        /* \"#utility.yul\":7696:7747   */\n      swap2\n      swap1\n      pop\n      jump\t// out\n        /* \"#utility.yul\":7753:7843   */\n    tag_104:\n        /* \"#utility.yul\":7787:7794   */\n      0x00\n        /* \"#utility.yul\":7830:7835   */\n      dup2\n        /* \"#utility.yul\":7823:7836   */\n      iszero\n        /* \"#utility.yul\":7816:7837   */\n      iszero\n        /* \"#utility.yul\":7805:7837   */\n      swap1\n      pop\n        /* \"#utility.yul\":7795:7843   */\n      swap2\n      swap1\n      pop\n      jump\t// out\n        /* \"#utility.yul\":7849:7975   */\n    tag_181:\n        /* \"#utility.yul\":7886:7893   */\n      0x00\n        /* \"#utility.yul\":7926:7968   */\n      0xffffffffffffffffffffffffffffffffffffffff\n        /* \"#utility.yul\":7919:7924   */\n      dup3\n        /* \"#utility.yul\":7915:7969   */\n      and\n        /* \"#utility.yul\":7904:7969   */\n      swap1\n      pop\n        /* \"#utility.yul\":7894:7975   */\n      swap2\n      swap1\n      pop\n      jump\t// out\n        /* \"#utility.yul\":7981:8058   */\n    tag_150:\n        /* \"#utility.yul\":8018:8025   */\n      0x00\n        /* \"#utility.yul\":8047:8052   */\n      dup2\n        /* \"#utility.yul\":8036:8052   */\n      swap1\n      pop\n        /* \"#utility.yul\":8026:8058   */\n      swap2\n      swap1\n      pop\n      jump\t// out\n        /* \"#utility.yul\":8064:8185   */\n    tag_108:\n        /* \"#utility.yul\":8122:8131   */\n      0x00\n        /* \"#utility.yul\":8155:8179   */\n      tag_186\n        /* \"#utility.yul\":8173:8178   */\n      dup3\n        /* \"#utility.yul\":8155:8179   */\n      tag_150\n      jump\t// in\n    tag_186:\n        /* \"#utility.yul\":8142:8179   */\n      swap1\n      pop\n        /* \"#utility.yul\":8132:8185   */\n      swap2\n      swap1\n      pop\n      jump\t// out\n        /* \"#utility.yul\":8191:8312   */\n    tag_112:\n        /* \"#utility.yul\":8249:8258   */\n      0x00\n        /* \"#utility.yul\":8282:8306   */\n      tag_188\n        /* \"#utility.yul\":8300:8305   */\n      dup3\n        /* \"#utility.yul\":8282:8306   */\n      tag_150\n      jump\t// in\n    tag_188:\n        /* \"#utility.yul\":8269:8306   */\n      swap1\n      pop\n        /* \"#utility.yul\":8259:8312   */\n      swap2\n      swap1\n      pop\n      jump\t// out\n        /* \"#utility.yul\":8318:8439   */\n    tag_116:\n        /* \"#utility.yul\":8376:8385   */\n      0x00\n        /* \"#utility.yul\":8409:8433   */\n      tag_190\n        /* \"#utility.yul\":8427:8432   */\n      dup3\n        /* \"#utility.yul\":8409:8433   */\n      tag_150\n      jump\t// in\n    tag_190:\n        /* \"#utility.yul\":8396:8433   */\n      swap1\n      pop\n        /* \"#utility.yul\":8386:8439   */\n      swap2\n      swap1\n      pop\n      jump\t// out\n        /* \"#utility.yul\":8445:8752   */\n    tag_124:\n        /* \"#utility.yul\":8513:8514   */\n      0x00\n        /* \"#utility.yul\":8523:8636   */\n    tag_192:\n        /* \"#utility.yul\":8537:8543   */\n      dup4\n        /* \"#utility.yul\":8534:8535   */\n      dup2\n        /* \"#utility.yul\":8531:8544   */\n      lt\n        /* \"#utility.yul\":8523:8636   */\n      iszero\n      tag_194\n      jumpi\n        /* \"#utility.yul\":8622:8623   */\n      dup1\n        /* \"#utility.yul\":8617:8620   */\n      dup3\n        /* \"#utility.yul\":8613:8624   */\n      add\n        /* \"#utility.yul\":8607:8625   */\n      mload\n        /* \"#utility.yul\":8603:8604   */\n      dup2\n        /* \"#utility.yul\":8598:8601   */\n      dup5\n        /* \"#utility.yul\":8594:8605   */\n      add\n        /* \"#utility.yul\":8587:8626   */\n      mstore\n        /* \"#utility.yul\":8559:8561   */\n      0x20\n        /* \"#utility.yul\":8556:8557   */\n      dup2\n        /* \"#utility.yul\":8552:8562   */\n      add\n        /* \"#utility.yul\":8547:8562   */\n      swap1\n      pop\n        /* \"#utility.yul\":8523:8636   */\n      jump(tag_192)\n    tag_194:\n        /* \"#utility.yul\":8654:8660   */\n      dup4\n        /* \"#utility.yul\":8651:8652   */\n      dup2\n        /* \"#utility.yul\":8648:8661   */\n      gt\n        /* \"#utility.yul\":8645:8647   */\n      iszero\n      tag_195\n      jumpi\n        /* \"#utility.yul\":8734:8735   */\n      0x00\n        /* \"#utility.yul\":8725:8731   */\n      dup5\n        /* \"#utility.yul\":8720:8723   */\n      dup5\n        /* \"#utility.yul\":8716:8732   */\n      add\n        /* \"#utility.yul\":8709:8736   */\n      mstore\n        /* \"#utility.yul\":8645:8647   */\n    tag_195:\n        /* \"#utility.yul\":8494:8752   */\n      pop\n      pop\n      pop\n      pop\n      jump\t// out\n        /* \"#utility.yul\":8758:9078   */\n    tag_62:\n        /* \"#utility.yul\":8802:8808   */\n      0x00\n        /* \"#utility.yul\":8839:8840   */\n      0x02\n        /* \"#utility.yul\":8833:8837   */\n      dup3\n        /* \"#utility.yul\":8829:8841   */\n      div\n        /* \"#utility.yul\":8819:8841   */\n      swap1\n      pop\n        /* \"#utility.yul\":8886:8887   */\n      0x01\n        /* \"#utility.yul\":8880:8884   */\n      dup3\n        /* \"#utility.yul\":8876:8888   */\n      and\n        /* \"#utility.yul\":8907:8925   */\n      dup1\n        /* \"#utility.yul\":8897:8899   */\n      tag_197\n      jumpi\n        /* \"#utility.yul\":8963:8967   */\n      0x7f\n        /* \"#utility.yul\":8955:8961   */\n      dup3\n        /* \"#utility.yul\":8951:8968   */\n      and\n        /* \"#utility.yul\":8941:8968   */\n      swap2\n      pop\n        /* \"#utility.yul\":8897:8899   */\n    tag_197:\n        /* \"#utility.yul\":9025:9027   */\n      0x20\n        /* \"#utility.yul\":9017:9023   */\n      dup3\n        /* \"#utility.yul\":9014:9028   */\n      lt\n        /* \"#utility.yul\":8994:9012   */\n      dup2\n        /* \"#utility.yul\":8991:9029   */\n      eq\n        /* \"#utility.yul\":8988:8990   */\n      iszero\n      tag_198\n      jumpi\n        /* \"#utility.yul\":9044:9062   */\n      tag_199\n      tag_200\n      jump\t// in\n    tag_199:\n        /* \"#utility.yul\":8988:8990   */\n    tag_198:\n        /* \"#utility.yul\":8809:9078   */\n      pop\n      swap2\n      swap1\n      pop\n      jump\t// out\n        /* \"#utility.yul\":9084:9317   */\n    tag_60:\n        /* \"#utility.yul\":9123:9126   */\n      0x00\n        /* \"#utility.yul\":9146:9170   */\n      tag_202\n        /* \"#utility.yul\":9164:9169   */\n      dup3\n        /* \"#utility.yul\":9146:9170   */\n      tag_150\n      jump\t// in\n    tag_202:\n        /* \"#utility.yul\":9137:9170   */\n      swap2\n      pop\n        /* \"#utility.yul\":9192:9258   */\n      0xffffffffffffffffffffffffffffffffffffffffffffffffffffffffffffffff\n        /* \"#utility.yul\":9185:9190   */\n      dup3\n        /* \"#utility.yul\":9182:9259   */\n      eq\n        /* \"#utility.yul\":9179:9181   */\n      iszero\n      tag_203\n      jumpi\n        /* \"#utility.yul\":9262:9280   */\n      tag_204\n      tag_205\n      jump\t// in\n    tag_204:\n        /* \"#utility.yul\":9179:9181   */\n    tag_203:\n        /* \"#utility.yul\":9309:9310   */\n      0x01\n        /* \"#utility.yul\":9302:9307   */\n      dup3\n        /* \"#utility.yul\":9298:9311   */\n      add\n        /* \"#utility.yul\":9291:9311   */\n      swap1\n      pop\n        /* \"#utility.yul\":9127:9317   */\n      swap2\n      swap1\n      pop\n      jump\t// out\n        /* \"#utility.yul\":9323:9503   */\n    tag_205:\n        /* \"#utility.yul\":9371:9448   */\n      0x4e487b7100000000000000000000000000000000000000000000000000000000\n        /* \"#utility.yul\":9368:9369   */\n      0x00\n        /* \"#utility.yul\":9361:9449   */\n      mstore\n        /* \"#utility.yul\":9468:9472   */\n      0x11\n        /* \"#utility.yul\":9465:9466   */\n      0x04\n        /* \"#utility.yul\":9458:9473   */\n      mstore\n        /* \"#utility.yul\":9492:9496   */\n      0x24\n        /* \"#utility.yul\":9489:9490   */\n      0x00\n        /* \"#utility.yul\":9482:9497   */\n      revert\n        /* \"#utility.yul\":9509:9689   */\n    tag_200:\n        /* \"#utility.yul\":9557:9634   */\n      0x4e487b7100000000000000000000000000000000000000000000000000000000\n        /* \"#utility.yul\":9554:9555   */\n      0x00\n        /* \"#utility.yul\":9547:9635   */\n      mstore\n        /* \"#utility.yul\":9654:9658   */\n      0x22\n        /* \"#utility.yul\":9651:9652   */\n      0x04\n        /* \"#utility.yul\":9644:9659   */\n      mstore\n        /* \"#utility.yul\":9678:9682   */\n      0x24\n        /* \"#utility.yul\":9675:9676   */\n      0x00\n        /* \"#utility.yul\":9668:9683   */\n      revert\n        /* \"#utility.yul\":9818:9935   */\n    tag_91:\n        /* \"#utility.yul\":9927:9928   */\n      0x00\n        /* \"#utility.yul\":9924:9925   */\n      dup1\n        /* \"#utility.yul\":9917:9929   */\n      revert\n        /* \"#utility.yul\":9941:10043   */\n    tag_126:\n        /* \"#utility.yul\":9982:9988   */\n      0x00\n        /* \"#utility.yul\":10033:10035   */\n      0x1f\n        /* \"#utility.yul\":10029:10036   */\n      not\n        /* \"#utility.yul\":10024:10026   */\n      0x1f\n        /* \"#utility.yul\":10017:10022   */\n      dup4\n        /* \"#utility.yul\":10013:10027   */\n      add\n        /* \"#utility.yul\":10009:10037   */\n      and\n        /* \"#utility.yul\":9999:10037   */\n      swap1\n      pop\n        /* \"#utility.yul\":9989:10043   */\n      swap2\n      swap1\n      pop\n      jump\t// out\n        /* \"#utility.yul\":10049:10271   */\n    tag_131:\n        /* \"#utility.yul\":10189:10223   */\n      0x5468697320616464726573732068617320616c726561647920766f746564206f\n        /* \"#utility.yul\":10185:10186   */\n      0x00\n        /* \"#utility.yul\":10177:10183   */\n      dup3\n        /* \"#utility.yul\":10173:10187   */\n      add\n        /* \"#utility.yul\":10166:10224   */\n      mstore\n        /* \"#utility.yul\":10258:10263   */\n      0x6e63650000000000000000000000000000000000000000000000000000000000\n        /* \"#utility.yul\":10253:10255   */\n      0x20\n        /* \"#utility.yul\":10245:10251   */\n      dup3\n        /* \"#utility.yul\":10241:10256   */\n      add\n        /* \"#utility.yul\":10234:10264   */\n      mstore\n        /* \"#utility.yul\":10155:10271   */\n      pop\n      jump\t// out\n        /* \"#utility.yul\":10277:10501   */\n    tag_136:\n        /* \"#utility.yul\":10417:10451   */\n      0x5468652073656c65637465642063616e64696461746520646f6573206e6f7420\n        /* \"#utility.yul\":10413:10414   */\n      0x00\n        /* \"#utility.yul\":10405:10411   */\n      dup3\n        /* \"#utility.yul\":10401:10415   */\n      add\n        /* \"#utility.yul\":10394:10452   */\n      mstore\n        /* \"#utility.yul\":10486:10493   */\n      0x6578697374000000000000000000000000000000000000000000000000000000\n        /* \"#utility.yul\":10481:10483   */\n      0x20\n        /* \"#utility.yul\":10473:10479   */\n      dup3\n        /* \"#utility.yul\":10469:10484   */\n      add\n        /* \"#utility.yul\":10462:10494   */\n      mstore\n        /* \"#utility.yul\":10383:10501   */\n      pop\n      jump\t// out\n        /* \"#utility.yul\":10507:10683   */\n    tag_141:\n        /* \"#utility.yul\":10647:10675   */\n      0x54686520656c656374696f6e206973206e6f74206f70656e6564000000000000\n        /* \"#utility.yul\":10643:10644   */\n      0x00\n        /* \"#utility.yul\":10635:10641   */\n      dup3\n        /* \"#utility.yul\":10631:10645   */\n      add\n        /* \"#utility.yul\":10624:10676   */\n      mstore\n        /* \"#utility.yul\":10613:10683   */\n      pop\n      jump\t// out\n        /* \"#utility.yul\":10689:10917   */\n    tag_146:\n        /* \"#utility.yul\":10829:10863   */\n      0x54686520656c656374696f6e206f776e6572206973206e6f7420616c6c6f7765\n        /* \"#utility.yul\":10825:10826   */\n      0x00\n        /* \"#utility.yul\":10817:10823   */\n      dup3\n        /* \"#utility.yul\":10813:10827   */\n      add\n        /* \"#utility.yul\":10806:10864   */\n      mstore\n        /* \"#utility.yul\":10898:10909   */\n      0x6420746f20766f74650000000000000000000000000000000000000000000000\n        /* \"#utility.yul\":10893:10895   */\n      0x20\n        /* \"#utility.yul\":10885:10891   */\n      dup3\n        /* \"#utility.yul\":10881:10896   */\n      add\n        /* \"#utility.yul\":10874:10910   */\n      mstore\n        /* \"#utility.yul\":10795:10917   */\n      pop\n      jump\t// out\n        /* \"#utility.yul\":10923:11045   */\n    tag_83:\n        /* \"#utility.yul\":10996:11020   */\n      tag_217\n        /* \"#utility.yul\":11014:11019   */\n      dup2\n        /* \"#utility.yul\":10996:11020   */\n      tag_100\n      jump\t// in\n    tag_217:\n        /* \"#utility.yul\":10989:10994   */\n      dup2\n        /* \"#utility.yul\":10986:11021   */\n      eq\n        /* \"#utility.yul\":10976:10978   */\n      tag_218\n      jumpi\n        /* \"#utility.yul\":11035:11036   */\n      0x00\n        /* \"#utility.yul\":11032:11033   */\n      dup1\n        /* \"#utility.yul\":11025:11037   */\n      revert\n        /* \"#utility.yul\":10976:10978   */\n    tag_218:\n        /* \"#utility.yul\":10966:11045   */\n      pop\n      jump\t// out\n        /* \"#utility.yul\":11051:11173   */\n    tag_87:\n        /* \"#utility.yul\":11124:11148   */\n      tag_220\n        /* \"#utility.yul\":11142:11147   */\n      dup2\n        /* \"#utility.yul\":11124:11148   */\n      tag_150\n      jump\t// in\n    tag_220:\n        /* \"#utility.yul\":11117:11122   */\n      dup2\n        /* \"#utility.yul\":11114:11149   */\n      eq\n        /* \"#utility.yul\":11104:11106   */\n      tag_221\n      jumpi\n        /* \"#utility.yul\":11163:11164   */\n      0x00\n        /* \"#utility.yul\":11160:11161   */\n      dup1\n        /* \"#utility.yul\":11153:11165   */\n      revert\n        /* \"#utility.yul\":11104:11106   */\n    tag_221:\n        /* \"#utility.yul\":11094:11173   */\n      pop\n      jump\t// out\n\n    auxdata: 0xa2646970667358221220fdf0d0a1dfbe498452f70f6e2440db5cc7a691135ae4d0ba41d8926bda14161e64736f6c63430008050033\n}\n",
				"bytecode": {
					"linkReferences": {},
					"object": "608060405260006001553480156200001657600080fd5b50336000806101000a81548173ffffffffffffffffffffffffffffffffffffffff021916908373ffffffffffffffffffffffffffffffffffffffff1602179055506200009d6040518060400160405280600c81526020017f426974636f696e20636c75620000000000000000000000000000000000000000815250620000e960201b60201c565b620000e36040518060400160405280600d81526020017f457468657265756d20636c756200000000000000000000000000000000000000815250620000e960201b60201c565b6200030b565b60046000815480929190620000fe906200025f565b91905055506040518060600160405280600454815260200182815260200160008152506003600060045481526020019081526020016000206000820151816000015560208201518160010190805190602001906200015e9291906200016f565b506040820151816002015590505050565b8280546200017d9062000229565b90600052602060002090601f016020900481019282620001a15760008555620001ed565b82601f10620001bc57805160ff1916838001178555620001ed565b82800160010185558215620001ed579182015b82811115620001ec578251825591602001919060010190620001cf565b5b509050620001fc919062000200565b5090565b5b808211156200021b57600081600090555060010162000201565b5090565b6000819050919050565b600060028204905060018216806200024257607f821691505b60208210811415620002595762000258620002dc565b5b50919050565b60006200026c826200021f565b91507fffffffffffffffffffffffffffffffffffffffffffffffffffffffffffffffff821415620002a257620002a1620002ad565b5b600182019050919050565b7f4e487b7100000000000000000000000000000000000000000000000000000000600052601160045260246000fd5b7f4e487b7100000000000000000000000000000000000000000000000000000000600052602260045260246000fd5b610cfd806200031b6000396000f3fe608060405234801561001057600080fd5b50600436106100935760003560e01c8063692aa97e11610066578063692aa97e146101225780636c6c32d014610140578063a3ec138d1461014a578063c5d00f5d1461017a578063e6eea09b1461018457610093565b80630121b93f146100985780632d35a8a2146100b45780633477ee2e146100d257806353357ad014610104575b600080fd5b6100b260048036038101906100ad919061071b565b61018e565b005b6100bc6103f5565b6040516100c9919061096e565b60405180910390f35b6100ec60048036038101906100e7919061071b565b6103fb565b6040516100fb93929190610989565b60405180910390f35b61010c6104ad565b6040516101199190610867565b60405180910390f35b61012a6104d1565b604051610137919061096e565b60405180910390f35b6101486104d7565b005b610164600480360381019061015f91906106ee565b610571565b6040516101719190610882565b60405180910390f35b610182610591565b005b61018c61062b565b005b600260015414156101d4576040517f08c379a00000000000000000000000000000000000000000000000000000000081526004016101cb9061092e565b60405180910390fd5b60008054906101000a900473ffffffffffffffffffffffffffffffffffffffff1673ffffffffffffffffffffffffffffffffffffffff163373ffffffffffffffffffffffffffffffffffffffff161415610263576040517f08c379a000000000000000000000000000000000000000000000000000000000815260040161025a9061094e565b60405180910390fd5b600260003373ffffffffffffffffffffffffffffffffffffffff1673ffffffffffffffffffffffffffffffffffffffff16815260200190815260200160002060009054906101000a900460ff16156102f0576040517f08c379a00000000000000000000000000000000000000000000000000000000081526004016102e7906108ee565b60405180910390fd5b60008111801561030257506004548111155b610341576040517f08c379a00000000000000000000000000000000000000000000000000000000081526004016103389061090e565b60405180910390fd5b6001600260003373ffffffffffffffffffffffffffffffffffffffff1673ffffffffffffffffffffffffffffffffffffffff16815260200190815260200160002060006101000a81548160ff0219169083151502179055506003600082815260200190815260200160002060020160008154809291906103c090610ac6565b9190505550807ffff3c900d938d21d0990d786e819f29b8d05c1ef587b462b939609625b684b1660405160405180910390a250565b60045481565b600360205280600052604060002060009150905080600001549080600101805461042490610a94565b80601f016020809104026020016040519081016040528092919081815260200182805461045090610a94565b801561049d5780601f106104725761010080835404028352916020019161049d565b820191906000526020600020905b81548152906001019060200180831161048057829003601f168201915b5050505050908060020154905083565b60008054906101000a900473ffffffffffffffffffffffffffffffffffffffff1681565b60015481565b3373ffffffffffffffffffffffffffffffffffffffff1660008054906101000a900473ffffffffffffffffffffffffffffffffffffffff1673ffffffffffffffffffffffffffffffffffffffff161461052f57600080fd5b60006001819055507f87cb50bc54b39a8c8f675f764b7743c67f901780d87853059fd73827ca3d46eb6000604051610567919061089d565b60405180910390a1565b60026020528060005260406000206000915054906101000a900460ff1681565b3373ffffffffffffffffffffffffffffffffffffffff1660008054906101000a900473ffffffffffffffffffffffffffffffffffffffff1673ffffffffffffffffffffffffffffffffffffffff16146105e957600080fd5b60026001819055507f87cb50bc54b39a8c8f675f764b7743c67f901780d87853059fd73827ca3d46eb600260405161062191906108d3565b60405180910390a1565b3373ffffffffffffffffffffffffffffffffffffffff1660008054906101000a900473ffffffffffffffffffffffffffffffffffffffff1673ffffffffffffffffffffffffffffffffffffffff161461068357600080fd5b600180819055507f87cb50bc54b39a8c8f675f764b7743c67f901780d87853059fd73827ca3d46eb60016040516106ba91906108b8565b60405180910390a1565b6000813590506106d381610c99565b92915050565b6000813590506106e881610cb0565b92915050565b60006020828403121561070457610703610b6d565b5b6000610712848285016106c4565b91505092915050565b60006020828403121561073157610730610b6d565b5b600061073f848285016106d9565b91505092915050565b610751816109e3565b82525050565b610760816109f5565b82525050565b61076f81610a2b565b82525050565b61077e81610a3d565b82525050565b61078d81610a4f565b82525050565b600061079e826109c7565b6107a881856109d2565b93506107b8818560208601610a61565b6107c181610b72565b840191505092915050565b60006107d96023836109d2565b91506107e482610b83565b604082019050919050565b60006107fc6025836109d2565b915061080782610bd2565b604082019050919050565b600061081f601a836109d2565b915061082a82610c21565b602082019050919050565b60006108426029836109d2565b915061084d82610c4a565b604082019050919050565b61086181610a21565b82525050565b600060208201905061087c6000830184610748565b92915050565b60006020820190506108976000830184610757565b92915050565b60006020820190506108b26000830184610766565b92915050565b60006020820190506108cd6000830184610775565b92915050565b60006020820190506108e86000830184610784565b92915050565b60006020820190508181036000830152610907816107cc565b9050919050565b60006020820190508181036000830152610927816107ef565b9050919050565b6000602082019050818103600083015261094781610812565b9050919050565b6000602082019050818103600083015261096781610835565b9050919050565b60006020820190506109836000830184610858565b92915050565b600060608201905061099e6000830186610858565b81810360208301526109b08185610793565b90506109bf6040830184610858565b949350505050565b600081519050919050565b600082825260208201905092915050565b60006109ee82610a01565b9050919050565b60008115159050919050565b600073ffffffffffffffffffffffffffffffffffffffff82169050919050565b6000819050919050565b6000610a3682610a21565b9050919050565b6000610a4882610a21565b9050919050565b6000610a5a82610a21565b9050919050565b60005b83811015610a7f578082015181840152602081019050610a64565b83811115610a8e576000848401525b50505050565b60006002820490506001821680610aac57607f821691505b60208210811415610ac057610abf610b3e565b5b50919050565b6000610ad182610a21565b91507fffffffffffffffffffffffffffffffffffffffffffffffffffffffffffffffff821415610b0457610b03610b0f565b5b600182019050919050565b7f4e487b7100000000000000000000000000000000000000000000000000000000600052601160045260246000fd5b7f4e487b7100000000000000000000000000000000000000000000000000000000600052602260045260246000fd5b600080fd5b6000601f19601f8301169050919050565b7f5468697320616464726573732068617320616c726561647920766f746564206f60008201527f6e63650000000000000000000000000000000000000000000000000000000000602082015250565b7f5468652073656c65637465642063616e64696461746520646f6573206e6f742060008201527f6578697374000000000000000000000000000000000000000000000000000000602082015250565b7f54686520656c656374696f6e206973206e6f74206f70656e6564000000000000600082015250565b7f54686520656c656374696f6e206f776e6572206973206e6f7420616c6c6f776560008201527f6420746f20766f74650000000000000000000000000000000000000000000000602082015250565b610ca2816109e3565b8114610cad57600080fd5b50565b610cb981610a21565b8114610cc457600080fd5b5056fea2646970667358221220fdf0d0a1dfbe498452f70f6e2440db5cc7a691135ae4d0ba41d8926bda14161e64736f6c63430008050033",
					"opcodes": "PUSH1 0x80 PUSH1 0x40 MSTORE PUSH1 0x0 PUSH1 0x1 SSTORE CALLVALUE DUP1 ISZERO PUSH3 0x16 JUMPI PUSH1 0x0 DUP1 REVERT JUMPDEST POP CALLER PUSH1 0x0 DUP1 PUSH2 0x100 EXP DUP2 SLOAD DUP2 PUSH20 0xFFFFFFFFFFFFFFFFFFFFFFFFFFFFFFFFFFFFFFFF MUL NOT AND SWAP1 DUP4 PUSH20 0xFFFFFFFFFFFFFFFFFFFFFFFFFFFFFFFFFFFFFFFF AND MUL OR SWAP1 SSTORE POP PUSH3 0x9D PUSH1 0x40 MLOAD DUP1 PUSH1 0x40 ADD PUSH1 0x40 MSTORE DUP1 PUSH1 0xC DUP2 MSTORE PUSH1 0x20 ADD PUSH32 0x426974636F696E20636C75620000000000000000000000000000000000000000 DUP2 MSTORE POP PUSH3 0xE9 PUSH1 0x20 SHL PUSH1 0x20 SHR JUMP JUMPDEST PUSH3 0xE3 PUSH1 0x40 MLOAD DUP1 PUSH1 0x40 ADD PUSH1 0x40 MSTORE DUP1 PUSH1 0xD DUP2 MSTORE PUSH1 0x20 ADD PUSH32 0x457468657265756D20636C756200000000000000000000000000000000000000 DUP2 MSTORE POP PUSH3 0xE9 PUSH1 0x20 SHL PUSH1 0x20 SHR JUMP JUMPDEST PUSH3 0x30B JUMP JUMPDEST PUSH1 0x4 PUSH1 0x0 DUP2 SLOAD DUP1 SWAP3 SWAP2 SWAP1 PUSH3 0xFE SWAP1 PUSH3 0x25F JUMP JUMPDEST SWAP2 SWAP1 POP SSTORE POP PUSH1 0x40 MLOAD DUP1 PUSH1 0x60 ADD PUSH1 0x40 MSTORE DUP1 PUSH1 0x4 SLOAD DUP2 MSTORE PUSH1 0x20 ADD DUP3 DUP2 MSTORE PUSH1 0x20 ADD PUSH1 0x0 DUP2 MSTORE POP PUSH1 0x3 PUSH1 0x0 PUSH1 0x4 SLOAD DUP2 MSTORE PUSH1 0x20 ADD SWAP1 DUP2 MSTORE PUSH1 0x20 ADD PUSH1 0x0 KECCAK256 PUSH1 0x0 DUP3 ADD MLOAD DUP2 PUSH1 0x0 ADD SSTORE PUSH1 0x20 DUP3 ADD MLOAD DUP2 PUSH1 0x1 ADD SWAP1 DUP1 MLOAD SWAP1 PUSH1 0x20 ADD SWAP1 PUSH3 0x15E SWAP3 SWAP2 SWAP1 PUSH3 0x16F JUMP JUMPDEST POP PUSH1 0x40 DUP3 ADD MLOAD DUP2 PUSH1 0x2 ADD SSTORE SWAP1 POP POP POP JUMP JUMPDEST DUP3 DUP1 SLOAD PUSH3 0x17D SWAP1 PUSH3 0x229 JUMP JUMPDEST SWAP1 PUSH1 0x0 MSTORE PUSH1 0x20 PUSH1 0x0 KECCAK256 SWAP1 PUSH1 0x1F ADD PUSH1 0x20 SWAP1 DIV DUP2 ADD SWAP3 DUP3 PUSH3 0x1A1 JUMPI PUSH1 0x0 DUP6 SSTORE PUSH3 0x1ED JUMP JUMPDEST DUP3 PUSH1 0x1F LT PUSH3 0x1BC JUMPI DUP1 MLOAD PUSH1 0xFF NOT AND DUP4 DUP1 ADD OR DUP6 SSTORE PUSH3 0x1ED JUMP JUMPDEST DUP3 DUP1 ADD PUSH1 0x1 ADD DUP6 SSTORE DUP3 ISZERO PUSH3 0x1ED JUMPI SWAP2 DUP3 ADD JUMPDEST DUP3 DUP2 GT ISZERO PUSH3 0x1EC JUMPI DUP3 MLOAD DUP3 SSTORE SWAP2 PUSH1 0x20 ADD SWAP2 SWAP1 PUSH1 0x1 ADD SWAP1 PUSH3 0x1CF JUMP JUMPDEST JUMPDEST POP SWAP1 POP PUSH3 0x1FC SWAP2 SWAP1 PUSH3 0x200 JUMP JUMPDEST POP SWAP1 JUMP JUMPDEST JUMPDEST DUP1 DUP3 GT ISZERO PUSH3 0x21B JUMPI PUSH1 0x0 DUP2 PUSH1 0x0 SWAP1 SSTORE POP PUSH1 0x1 ADD PUSH3 0x201 JUMP JUMPDEST POP SWAP1 JUMP JUMPDEST PUSH1 0x0 DUP2 SWAP1 POP SWAP2 SWAP1 POP JUMP JUMPDEST PUSH1 0x0 PUSH1 0x2 DUP3 DIV SWAP1 POP PUSH1 0x1 DUP3 AND DUP1 PUSH3 0x242 JUMPI PUSH1 0x7F DUP3 AND SWAP2 POP JUMPDEST PUSH1 0x20 DUP3 LT DUP2 EQ ISZERO PUSH3 0x259 JUMPI PUSH3 0x258 PUSH3 0x2DC JUMP JUMPDEST JUMPDEST POP SWAP2 SWAP1 POP JUMP JUMPDEST PUSH1 0x0 PUSH3 0x26C DUP3 PUSH3 0x21F JUMP JUMPDEST SWAP2 POP PUSH32 0xFFFFFFFFFFFFFFFFFFFFFFFFFFFFFFFFFFFFFFFFFFFFFFFFFFFFFFFFFFFFFFFF DUP3 EQ ISZERO PUSH3 0x2A2 JUMPI PUSH3 0x2A1 PUSH3 0x2AD JUMP JUMPDEST JUMPDEST PUSH1 0x1 DUP3 ADD SWAP1 POP SWAP2 SWAP1 POP JUMP JUMPDEST PUSH32 0x4E487B7100000000000000000000000000000000000000000000000000000000 PUSH1 0x0 MSTORE PUSH1 0x11 PUSH1 0x4 MSTORE PUSH1 0x24 PUSH1 0x0 REVERT JUMPDEST PUSH32 0x4E487B7100000000000000000000000000000000000000000000000000000000 PUSH1 0x0 MSTORE PUSH1 0x22 PUSH1 0x4 MSTORE PUSH1 0x24 PUSH1 0x0 REVERT JUMPDEST PUSH2 0xCFD DUP1 PUSH3 0x31B PUSH1 0x0 CODECOPY PUSH1 0x0 RETURN INVALID PUSH1 0x80 PUSH1 0x40 MSTORE CALLVALUE DUP1 ISZERO PUSH2 0x10 JUMPI PUSH1 0x0 DUP1 REVERT JUMPDEST POP PUSH1 0x4 CALLDATASIZE LT PUSH2 0x93 JUMPI PUSH1 0x0 CALLDATALOAD PUSH1 0xE0 SHR DUP1 PUSH4 0x692AA97E GT PUSH2 0x66 JUMPI DUP1 PUSH4 0x692AA97E EQ PUSH2 0x122 JUMPI DUP1 PUSH4 0x6C6C32D0 EQ PUSH2 0x140 JUMPI DUP1 PUSH4 0xA3EC138D EQ PUSH2 0x14A JUMPI DUP1 PUSH4 0xC5D00F5D EQ PUSH2 0x17A JUMPI DUP1 PUSH4 0xE6EEA09B EQ PUSH2 0x184 JUMPI PUSH2 0x93 JUMP JUMPDEST DUP1 PUSH4 0x121B93F EQ PUSH2 0x98 JUMPI DUP1 PUSH4 0x2D35A8A2 EQ PUSH2 0xB4 JUMPI DUP1 PUSH4 0x3477EE2E EQ PUSH2 0xD2 JUMPI DUP1 PUSH4 0x53357AD0 EQ PUSH2 0x104 JUMPI JUMPDEST PUSH1 0x0 DUP1 REVERT JUMPDEST PUSH2 0xB2 PUSH1 0x4 DUP1 CALLDATASIZE SUB DUP2 ADD SWAP1 PUSH2 0xAD SWAP2 SWAP1 PUSH2 0x71B JUMP JUMPDEST PUSH2 0x18E JUMP JUMPDEST STOP JUMPDEST PUSH2 0xBC PUSH2 0x3F5 JUMP JUMPDEST PUSH1 0x40 MLOAD PUSH2 0xC9 SWAP2 SWAP1 PUSH2 0x96E JUMP JUMPDEST PUSH1 0x40 MLOAD DUP1 SWAP2 SUB SWAP1 RETURN JUMPDEST PUSH2 0xEC PUSH1 0x4 DUP1 CALLDATASIZE SUB DUP2 ADD SWAP1 PUSH2 0xE7 SWAP2 SWAP1 PUSH2 0x71B JUMP JUMPDEST PUSH2 0x3FB JUMP JUMPDEST PUSH1 0x40 MLOAD PUSH2 0xFB SWAP4 SWAP3 SWAP2 SWAP1 PUSH2 0x989 JUMP JUMPDEST PUSH1 0x40 MLOAD DUP1 SWAP2 SUB SWAP1 RETURN JUMPDEST PUSH2 0x10C PUSH2 0x4AD JUMP JUMPDEST PUSH1 0x40 MLOAD PUSH2 0x119 SWAP2 SWAP1 PUSH2 0x867 JUMP JUMPDEST PUSH1 0x40 MLOAD DUP1 SWAP2 SUB SWAP1 RETURN JUMPDEST PUSH2 0x12A PUSH2 0x4D1 JUMP JUMPDEST PUSH1 0x40 MLOAD PUSH2 0x137 SWAP2 SWAP1 PUSH2 0x96E JUMP JUMPDEST PUSH1 0x40 MLOAD DUP1 SWAP2 SUB SWAP1 RETURN JUMPDEST PUSH2 0x148 PUSH2 0x4D7 JUMP JUMPDEST STOP JUMPDEST PUSH2 0x164 PUSH1 0x4 DUP1 CALLDATASIZE SUB DUP2 ADD SWAP1 PUSH2 0x15F SWAP2 SWAP1 PUSH2 0x6EE JUMP JUMPDEST PUSH2 0x571 JUMP JUMPDEST PUSH1 0x40 MLOAD PUSH2 0x171 SWAP2 SWAP1 PUSH2 0x882 JUMP JUMPDEST PUSH1 0x40 MLOAD DUP1 SWAP2 SUB SWAP1 RETURN JUMPDEST PUSH2 0x182 PUSH2 0x591 JUMP JUMPDEST STOP JUMPDEST PUSH2 0x18C PUSH2 0x62B JUMP JUMPDEST STOP JUMPDEST PUSH1 0x2 PUSH1 0x1 SLOAD EQ ISZERO PUSH2 0x1D4 JUMPI PUSH1 0x40 MLOAD PUSH32 0x8C379A000000000000000000000000000000000000000000000000000000000 DUP2 MSTORE PUSH1 0x4 ADD PUSH2 0x1CB SWAP1 PUSH2 0x92E JUMP JUMPDEST PUSH1 0x40 MLOAD DUP1 SWAP2 SUB SWAP1 REVERT JUMPDEST PUSH1 0x0 DUP1 SLOAD SWAP1 PUSH2 0x100 EXP SWAP1 DIV PUSH20 0xFFFFFFFFFFFFFFFFFFFFFFFFFFFFFFFFFFFFFFFF AND PUSH20 0xFFFFFFFFFFFFFFFFFFFFFFFFFFFFFFFFFFFFFFFF AND CALLER PUSH20 0xFFFFFFFFFFFFFFFFFFFFFFFFFFFFFFFFFFFFFFFF AND EQ ISZERO PUSH2 0x263 JUMPI PUSH1 0x40 MLOAD PUSH32 0x8C379A000000000000000000000000000000000000000000000000000000000 DUP2 MSTORE PUSH1 0x4 ADD PUSH2 0x25A SWAP1 PUSH2 0x94E JUMP JUMPDEST PUSH1 0x40 MLOAD DUP1 SWAP2 SUB SWAP1 REVERT JUMPDEST PUSH1 0x2 PUSH1 0x0 CALLER PUSH20 0xFFFFFFFFFFFFFFFFFFFFFFFFFFFFFFFFFFFFFFFF AND PUSH20 0xFFFFFFFFFFFFFFFFFFFFFFFFFFFFFFFFFFFFFFFF AND DUP2 MSTORE PUSH1 0x20 ADD SWAP1 DUP2 MSTORE PUSH1 0x20 ADD PUSH1 0x0 KECCAK256 PUSH1 0x0 SWAP1 SLOAD SWAP1 PUSH2 0x100 EXP SWAP1 DIV PUSH1 0xFF AND ISZERO PUSH2 0x2F0 JUMPI PUSH1 0x40 MLOAD PUSH32 0x8C379A000000000000000000000000000000000000000000000000000000000 DUP2 MSTORE PUSH1 0x4 ADD PUSH2 0x2E7 SWAP1 PUSH2 0x8EE JUMP JUMPDEST PUSH1 0x40 MLOAD DUP1 SWAP2 SUB SWAP1 REVERT JUMPDEST PUSH1 0x0 DUP2 GT DUP1 ISZERO PUSH2 0x302 JUMPI POP PUSH1 0x4 SLOAD DUP2 GT ISZERO JUMPDEST PUSH2 0x341 JUMPI PUSH1 0x40 MLOAD PUSH32 0x8C379A000000000000000000000000000000000000000000000000000000000 DUP2 MSTORE PUSH1 0x4 ADD PUSH2 0x338 SWAP1 PUSH2 0x90E JUMP JUMPDEST PUSH1 0x40 MLOAD DUP1 SWAP2 SUB SWAP1 REVERT JUMPDEST PUSH1 0x1 PUSH1 0x2 PUSH1 0x0 CALLER PUSH20 0xFFFFFFFFFFFFFFFFFFFFFFFFFFFFFFFFFFFFFFFF AND PUSH20 0xFFFFFFFFFFFFFFFFFFFFFFFFFFFFFFFFFFFFFFFF AND DUP2 MSTORE PUSH1 0x20 ADD SWAP1 DUP2 MSTORE PUSH1 0x20 ADD PUSH1 0x0 KECCAK256 PUSH1 0x0 PUSH2 0x100 EXP DUP2 SLOAD DUP2 PUSH1 0xFF MUL NOT AND SWAP1 DUP4 ISZERO ISZERO MUL OR SWAP1 SSTORE POP PUSH1 0x3 PUSH1 0x0 DUP3 DUP2 MSTORE PUSH1 0x20 ADD SWAP1 DUP2 MSTORE PUSH1 0x20 ADD PUSH1 0x0 KECCAK256 PUSH1 0x2 ADD PUSH1 0x0 DUP2 SLOAD DUP1 SWAP3 SWAP2 SWAP1 PUSH2 0x3C0 SWAP1 PUSH2 0xAC6 JUMP JUMPDEST SWAP2 SWAP1 POP SSTORE POP DUP1 PUSH32 0xFFF3C900D938D21D0990D786E819F29B8D05C1EF587B462B939609625B684B16 PUSH1 0x40 MLOAD PUSH1 0x40 MLOAD DUP1 SWAP2 SUB SWAP1 LOG2 POP JUMP JUMPDEST PUSH1 0x4 SLOAD DUP2 JUMP JUMPDEST PUSH1 0x3 PUSH1 0x20 MSTORE DUP1 PUSH1 0x0 MSTORE PUSH1 0x40 PUSH1 0x0 KECCAK256 PUSH1 0x0 SWAP2 POP SWAP1 POP DUP1 PUSH1 0x0 ADD SLOAD SWAP1 DUP1 PUSH1 0x1 ADD DUP1 SLOAD PUSH2 0x424 SWAP1 PUSH2 0xA94 JUMP JUMPDEST DUP1 PUSH1 0x1F ADD PUSH1 0x20 DUP1 SWAP2 DIV MUL PUSH1 0x20 ADD PUSH1 0x40 MLOAD SWAP1 DUP2 ADD PUSH1 0x40 MSTORE DUP1 SWAP3 SWAP2 SWAP1 DUP2 DUP2 MSTORE PUSH1 0x20 ADD DUP3 DUP1 SLOAD PUSH2 0x450 SWAP1 PUSH2 0xA94 JUMP JUMPDEST DUP1 ISZERO PUSH2 0x49D JUMPI DUP1 PUSH1 0x1F LT PUSH2 0x472 JUMPI PUSH2 0x100 DUP1 DUP4 SLOAD DIV MUL DUP4 MSTORE SWAP2 PUSH1 0x20 ADD SWAP2 PUSH2 0x49D JUMP JUMPDEST DUP3 ADD SWAP2 SWAP1 PUSH1 0x0 MSTORE PUSH1 0x20 PUSH1 0x0 KECCAK256 SWAP1 JUMPDEST DUP2 SLOAD DUP2 MSTORE SWAP1 PUSH1 0x1 ADD SWAP1 PUSH1 0x20 ADD DUP1 DUP4 GT PUSH2 0x480 JUMPI DUP3 SWAP1 SUB PUSH1 0x1F AND DUP3 ADD SWAP2 JUMPDEST POP POP POP POP POP SWAP1 DUP1 PUSH1 0x2 ADD SLOAD SWAP1 POP DUP4 JUMP JUMPDEST PUSH1 0x0 DUP1 SLOAD SWAP1 PUSH2 0x100 EXP SWAP1 DIV PUSH20 0xFFFFFFFFFFFFFFFFFFFFFFFFFFFFFFFFFFFFFFFF AND DUP2 JUMP JUMPDEST PUSH1 0x1 SLOAD DUP2 JUMP JUMPDEST CALLER PUSH20 0xFFFFFFFFFFFFFFFFFFFFFFFFFFFFFFFFFFFFFFFF AND PUSH1 0x0 DUP1 SLOAD SWAP1 PUSH2 0x100 EXP SWAP1 DIV PUSH20 0xFFFFFFFFFFFFFFFFFFFFFFFFFFFFFFFFFFFFFFFF AND PUSH20 0xFFFFFFFFFFFFFFFFFFFFFFFFFFFFFFFFFFFFFFFF AND EQ PUSH2 0x52F JUMPI PUSH1 0x0 DUP1 REVERT JUMPDEST PUSH1 0x0 PUSH1 0x1 DUP2 SWAP1 SSTORE POP PUSH32 0x87CB50BC54B39A8C8F675F764B7743C67F901780D87853059FD73827CA3D46EB PUSH1 0x0 PUSH1 0x40 MLOAD PUSH2 0x567 SWAP2 SWAP1 PUSH2 0x89D JUMP JUMPDEST PUSH1 0x40 MLOAD DUP1 SWAP2 SUB SWAP1 LOG1 JUMP JUMPDEST PUSH1 0x2 PUSH1 0x20 MSTORE DUP1 PUSH1 0x0 MSTORE PUSH1 0x40 PUSH1 0x0 KECCAK256 PUSH1 0x0 SWAP2 POP SLOAD SWAP1 PUSH2 0x100 EXP SWAP1 DIV PUSH1 0xFF AND DUP2 JUMP JUMPDEST CALLER PUSH20 0xFFFFFFFFFFFFFFFFFFFFFFFFFFFFFFFFFFFFFFFF AND PUSH1 0x0 DUP1 SLOAD SWAP1 PUSH2 0x100 EXP SWAP1 DIV PUSH20 0xFFFFFFFFFFFFFFFFFFFFFFFFFFFFFFFFFFFFFFFF AND PUSH20 0xFFFFFFFFFFFFFFFFFFFFFFFFFFFFFFFFFFFFFFFF AND EQ PUSH2 0x5E9 JUMPI PUSH1 0x0 DUP1 REVERT JUMPDEST PUSH1 0x2 PUSH1 0x1 DUP2 SWAP1 SSTORE POP PUSH32 0x87CB50BC54B39A8C8F675F764B7743C67F901780D87853059FD73827CA3D46EB PUSH1 0x2 PUSH1 0x40 MLOAD PUSH2 0x621 SWAP2 SWAP1 PUSH2 0x8D3 JUMP JUMPDEST PUSH1 0x40 MLOAD DUP1 SWAP2 SUB SWAP1 LOG1 JUMP JUMPDEST CALLER PUSH20 0xFFFFFFFFFFFFFFFFFFFFFFFFFFFFFFFFFFFFFFFF AND PUSH1 0x0 DUP1 SLOAD SWAP1 PUSH2 0x100 EXP SWAP1 DIV PUSH20 0xFFFFFFFFFFFFFFFFFFFFFFFFFFFFFFFFFFFFFFFF AND PUSH20 0xFFFFFFFFFFFFFFFFFFFFFFFFFFFFFFFFFFFFFFFF AND EQ PUSH2 0x683 JUMPI PUSH1 0x0 DUP1 REVERT JUMPDEST PUSH1 0x1 DUP1 DUP2 SWAP1 SSTORE POP PUSH32 0x87CB50BC54B39A8C8F675F764B7743C67F901780D87853059FD73827CA3D46EB PUSH1 0x1 PUSH1 0x40 MLOAD PUSH2 0x6BA SWAP2 SWAP1 PUSH2 0x8B8 JUMP JUMPDEST PUSH1 0x40 MLOAD DUP1 SWAP2 SUB SWAP1 LOG1 JUMP JUMPDEST PUSH1 0x0 DUP2 CALLDATALOAD SWAP1 POP PUSH2 0x6D3 DUP2 PUSH2 0xC99 JUMP JUMPDEST SWAP3 SWAP2 POP POP JUMP JUMPDEST PUSH1 0x0 DUP2 CALLDATALOAD SWAP1 POP PUSH2 0x6E8 DUP2 PUSH2 0xCB0 JUMP JUMPDEST SWAP3 SWAP2 POP POP JUMP JUMPDEST PUSH1 0x0 PUSH1 0x20 DUP3 DUP5 SUB SLT ISZERO PUSH2 0x704 JUMPI PUSH2 0x703 PUSH2 0xB6D JUMP JUMPDEST JUMPDEST PUSH1 0x0 PUSH2 0x712 DUP5 DUP3 DUP6 ADD PUSH2 0x6C4 JUMP JUMPDEST SWAP2 POP POP SWAP3 SWAP2 POP POP JUMP JUMPDEST PUSH1 0x0 PUSH1 0x20 DUP3 DUP5 SUB SLT ISZERO PUSH2 0x731 JUMPI PUSH2 0x730 PUSH2 0xB6D JUMP JUMPDEST JUMPDEST PUSH1 0x0 PUSH2 0x73F DUP5 DUP3 DUP6 ADD PUSH2 0x6D9 JUMP JUMPDEST SWAP2 POP POP SWAP3 SWAP2 POP POP JUMP JUMPDEST PUSH2 0x751 DUP2 PUSH2 0x9E3 JUMP JUMPDEST DUP3 MSTORE POP POP JUMP JUMPDEST PUSH2 0x760 DUP2 PUSH2 0x9F5 JUMP JUMPDEST DUP3 MSTORE POP POP JUMP JUMPDEST PUSH2 0x76F DUP2 PUSH2 0xA2B JUMP JUMPDEST DUP3 MSTORE POP POP JUMP JUMPDEST PUSH2 0x77E DUP2 PUSH2 0xA3D JUMP JUMPDEST DUP3 MSTORE POP POP JUMP JUMPDEST PUSH2 0x78D DUP2 PUSH2 0xA4F JUMP JUMPDEST DUP3 MSTORE POP POP JUMP JUMPDEST PUSH1 0x0 PUSH2 0x79E DUP3 PUSH2 0x9C7 JUMP JUMPDEST PUSH2 0x7A8 DUP2 DUP6 PUSH2 0x9D2 JUMP JUMPDEST SWAP4 POP PUSH2 0x7B8 DUP2 DUP6 PUSH1 0x20 DUP7 ADD PUSH2 0xA61 JUMP JUMPDEST PUSH2 0x7C1 DUP2 PUSH2 0xB72 JUMP JUMPDEST DUP5 ADD SWAP2 POP POP SWAP3 SWAP2 POP POP JUMP JUMPDEST PUSH1 0x0 PUSH2 0x7D9 PUSH1 0x23 DUP4 PUSH2 0x9D2 JUMP JUMPDEST SWAP2 POP PUSH2 0x7E4 DUP3 PUSH2 0xB83 JUMP JUMPDEST PUSH1 0x40 DUP3 ADD SWAP1 POP SWAP2 SWAP1 POP JUMP JUMPDEST PUSH1 0x0 PUSH2 0x7FC PUSH1 0x25 DUP4 PUSH2 0x9D2 JUMP JUMPDEST SWAP2 POP PUSH2 0x807 DUP3 PUSH2 0xBD2 JUMP JUMPDEST PUSH1 0x40 DUP3 ADD SWAP1 POP SWAP2 SWAP1 POP JUMP JUMPDEST PUSH1 0x0 PUSH2 0x81F PUSH1 0x1A DUP4 PUSH2 0x9D2 JUMP JUMPDEST SWAP2 POP PUSH2 0x82A DUP3 PUSH2 0xC21 JUMP JUMPDEST PUSH1 0x20 DUP3 ADD SWAP1 POP SWAP2 SWAP1 POP JUMP JUMPDEST PUSH1 0x0 PUSH2 0x842 PUSH1 0x29 DUP4 PUSH2 0x9D2 JUMP JUMPDEST SWAP2 POP PUSH2 0x84D DUP3 PUSH2 0xC4A JUMP JUMPDEST PUSH1 0x40 DUP3 ADD SWAP1 POP SWAP2 SWAP1 POP JUMP JUMPDEST PUSH2 0x861 DUP2 PUSH2 0xA21 JUMP JUMPDEST DUP3 MSTORE POP POP JUMP JUMPDEST PUSH1 0x0 PUSH1 0x20 DUP3 ADD SWAP1 POP PUSH2 0x87C PUSH1 0x0 DUP4 ADD DUP5 PUSH2 0x748 JUMP JUMPDEST SWAP3 SWAP2 POP POP JUMP JUMPDEST PUSH1 0x0 PUSH1 0x20 DUP3 ADD SWAP1 POP PUSH2 0x897 PUSH1 0x0 DUP4 ADD DUP5 PUSH2 0x757 JUMP JUMPDEST SWAP3 SWAP2 POP POP JUMP JUMPDEST PUSH1 0x0 PUSH1 0x20 DUP3 ADD SWAP1 POP PUSH2 0x8B2 PUSH1 0x0 DUP4 ADD DUP5 PUSH2 0x766 JUMP JUMPDEST SWAP3 SWAP2 POP POP JUMP JUMPDEST PUSH1 0x0 PUSH1 0x20 DUP3 ADD SWAP1 POP PUSH2 0x8CD PUSH1 0x0 DUP4 ADD DUP5 PUSH2 0x775 JUMP JUMPDEST SWAP3 SWAP2 POP POP JUMP JUMPDEST PUSH1 0x0 PUSH1 0x20 DUP3 ADD SWAP1 POP PUSH2 0x8E8 PUSH1 0x0 DUP4 ADD DUP5 PUSH2 0x784 JUMP JUMPDEST SWAP3 SWAP2 POP POP JUMP JUMPDEST PUSH1 0x0 PUSH1 0x20 DUP3 ADD SWAP1 POP DUP2 DUP2 SUB PUSH1 0x0 DUP4 ADD MSTORE PUSH2 0x907 DUP2 PUSH2 0x7CC JUMP JUMPDEST SWAP1 POP SWAP2 SWAP1 POP JUMP JUMPDEST PUSH1 0x0 PUSH1 0x20 DUP3 ADD SWAP1 POP DUP2 DUP2 SUB PUSH1 0x0 DUP4 ADD MSTORE PUSH2 0x927 DUP2 PUSH2 0x7EF JUMP JUMPDEST SWAP1 POP SWAP2 SWAP1 POP JUMP JUMPDEST PUSH1 0x0 PUSH1 0x20 DUP3 ADD SWAP1 POP DUP2 DUP2 SUB PUSH1 0x0 DUP4 ADD MSTORE PUSH2 0x947 DUP2 PUSH2 0x812 JUMP JUMPDEST SWAP1 POP SWAP2 SWAP1 POP JUMP JUMPDEST PUSH1 0x0 PUSH1 0x20 DUP3 ADD SWAP1 POP DUP2 DUP2 SUB PUSH1 0x0 DUP4 ADD MSTORE PUSH2 0x967 DUP2 PUSH2 0x835 JUMP JUMPDEST SWAP1 POP SWAP2 SWAP1 POP JUMP JUMPDEST PUSH1 0x0 PUSH1 0x20 DUP3 ADD SWAP1 POP PUSH2 0x983 PUSH1 0x0 DUP4 ADD DUP5 PUSH2 0x858 JUMP JUMPDEST SWAP3 SWAP2 POP POP JUMP JUMPDEST PUSH1 0x0 PUSH1 0x60 DUP3 ADD SWAP1 POP PUSH2 0x99E PUSH1 0x0 DUP4 ADD DUP7 PUSH2 0x858 JUMP JUMPDEST DUP2 DUP2 SUB PUSH1 0x20 DUP4 ADD MSTORE PUSH2 0x9B0 DUP2 DUP6 PUSH2 0x793 JUMP JUMPDEST SWAP1 POP PUSH2 0x9BF PUSH1 0x40 DUP4 ADD DUP5 PUSH2 0x858 JUMP JUMPDEST SWAP5 SWAP4 POP POP POP POP JUMP JUMPDEST PUSH1 0x0 DUP2 MLOAD SWAP1 POP SWAP2 SWAP1 POP JUMP JUMPDEST PUSH1 0x0 DUP3 DUP3 MSTORE PUSH1 0x20 DUP3 ADD SWAP1 POP SWAP3 SWAP2 POP POP JUMP JUMPDEST PUSH1 0x0 PUSH2 0x9EE DUP3 PUSH2 0xA01 JUMP JUMPDEST SWAP1 POP SWAP2 SWAP1 POP JUMP JUMPDEST PUSH1 0x0 DUP2 ISZERO ISZERO SWAP1 POP SWAP2 SWAP1 POP JUMP JUMPDEST PUSH1 0x0 PUSH20 0xFFFFFFFFFFFFFFFFFFFFFFFFFFFFFFFFFFFFFFFF DUP3 AND SWAP1 POP SWAP2 SWAP1 POP JUMP JUMPDEST PUSH1 0x0 DUP2 SWAP1 POP SWAP2 SWAP1 POP JUMP JUMPDEST PUSH1 0x0 PUSH2 0xA36 DUP3 PUSH2 0xA21 JUMP JUMPDEST SWAP1 POP SWAP2 SWAP1 POP JUMP JUMPDEST PUSH1 0x0 PUSH2 0xA48 DUP3 PUSH2 0xA21 JUMP JUMPDEST SWAP1 POP SWAP2 SWAP1 POP JUMP JUMPDEST PUSH1 0x0 PUSH2 0xA5A DUP3 PUSH2 0xA21 JUMP JUMPDEST SWAP1 POP SWAP2 SWAP1 POP JUMP JUMPDEST PUSH1 0x0 JUMPDEST DUP4 DUP2 LT ISZERO PUSH2 0xA7F JUMPI DUP1 DUP3 ADD MLOAD DUP2 DUP5 ADD MSTORE PUSH1 0x20 DUP2 ADD SWAP1 POP PUSH2 0xA64 JUMP JUMPDEST DUP4 DUP2 GT ISZERO PUSH2 0xA8E JUMPI PUSH1 0x0 DUP5 DUP5 ADD MSTORE JUMPDEST POP POP POP POP JUMP JUMPDEST PUSH1 0x0 PUSH1 0x2 DUP3 DIV SWAP1 POP PUSH1 0x1 DUP3 AND DUP1 PUSH2 0xAAC JUMPI PUSH1 0x7F DUP3 AND SWAP2 POP JUMPDEST PUSH1 0x20 DUP3 LT DUP2 EQ ISZERO PUSH2 0xAC0 JUMPI PUSH2 0xABF PUSH2 0xB3E JUMP JUMPDEST JUMPDEST POP SWAP2 SWAP1 POP JUMP JUMPDEST PUSH1 0x0 PUSH2 0xAD1 DUP3 PUSH2 0xA21 JUMP JUMPDEST SWAP2 POP PUSH32 0xFFFFFFFFFFFFFFFFFFFFFFFFFFFFFFFFFFFFFFFFFFFFFFFFFFFFFFFFFFFFFFFF DUP3 EQ ISZERO PUSH2 0xB04 JUMPI PUSH2 0xB03 PUSH2 0xB0F JUMP JUMPDEST JUMPDEST PUSH1 0x1 DUP3 ADD SWAP1 POP SWAP2 SWAP1 POP JUMP JUMPDEST PUSH32 0x4E487B7100000000000000000000000000000000000000000000000000000000 PUSH1 0x0 MSTORE PUSH1 0x11 PUSH1 0x4 MSTORE PUSH1 0x24 PUSH1 0x0 REVERT JUMPDEST PUSH32 0x4E487B7100000000000000000000000000000000000000000000000000000000 PUSH1 0x0 MSTORE PUSH1 0x22 PUSH1 0x4 MSTORE PUSH1 0x24 PUSH1 0x0 REVERT JUMPDEST PUSH1 0x0 DUP1 REVERT JUMPDEST PUSH1 0x0 PUSH1 0x1F NOT PUSH1 0x1F DUP4 ADD AND SWAP1 POP SWAP2 SWAP1 POP JUMP JUMPDEST PUSH32 0x5468697320616464726573732068617320616C726561647920766F746564206F PUSH1 0x0 DUP3 ADD MSTORE PUSH32 0x6E63650000000000000000000000000000000000000000000000000000000000 PUSH1 0x20 DUP3 ADD MSTORE POP JUMP JUMPDEST PUSH32 0x5468652073656C65637465642063616E64696461746520646F6573206E6F7420 PUSH1 0x0 DUP3 ADD MSTORE PUSH32 0x6578697374000000000000000000000000000000000000000000000000000000 PUSH1 0x20 DUP3 ADD MSTORE POP JUMP JUMPDEST PUSH32 0x54686520656C656374696F6E206973206E6F74206F70656E6564000000000000 PUSH1 0x0 DUP3 ADD MSTORE POP JUMP JUMPDEST PUSH32 0x54686520656C656374696F6E206F776E6572206973206E6F7420616C6C6F7765 PUSH1 0x0 DUP3 ADD MSTORE PUSH32 0x6420746F20766F74650000000000000000000000000000000000000000000000 PUSH1 0x20 DUP3 ADD MSTORE POP JUMP JUMPDEST PUSH2 0xCA2 DUP2 PUSH2 0x9E3 JUMP JUMPDEST DUP2 EQ PUSH2 0xCAD JUMPI PUSH1 0x0 DUP1 REVERT JUMPDEST POP JUMP JUMPDEST PUSH2 0xCB9 DUP2 PUSH2 0xA21 JUMP JUMPDEST DUP2 EQ PUSH2 0xCC4 JUMPI PUSH1 0x0 DUP1 REVERT JUMPDEST POP JUMP INVALID LOG2 PUSH5 0x6970667358 0x22 SLT KECCAK256 REVERT CREATE 0xD0 LOG1 0xDF 0xBE 0x49 DUP5 MSTORE 0xF7 0xF PUSH15 0x2440DB5CC7A691135AE4D0BA41D892 PUSH12 0xDA14161E64736F6C63430008 SDIV STOP CALLER "
				},
				"gasEstimates": {
					"creation": {
						"codeDepositCost": "665000",
						"executionCost": "infinite",
						"totalCost": "infinite"
					},
					"external": {
						"candidates(uint256)": "infinite",
						"candidatesCount()": "2452",
						"closeElection()": "8581",
						"electionOwner()": "2578",
						"isOpened()": "2429",
						"openElection()": "25725",
						"pauseElection()": "25747",
						"vote(uint256)": "infinite",
						"voters(address)": "2889"
					},
					"internal": {
						"addCandidate(string memory)": "infinite",
						"winningCandidate()": "infinite"
					}
				},
				"methodIdentifiers": {
					"candidates(uint256)": "3477ee2e",
					"candidatesCount()": "2d35a8a2",
					"closeElection()": "6c6c32d0",
					"electionOwner()": "53357ad0",
					"isOpened()": "692aa97e",
					"openElection()": "c5d00f5d",
					"pauseElection()": "e6eea09b",
					"vote(uint256)": "0121b93f",
					"voters(address)": "a3ec138d"
				}
			},
			"storageLayout": {
				"storage": [
					{
						"astId": 10,
						"contract": "Development-Codebases/Blockchain/Eth_Smart_Contract_Voting/contracts/Election.sol:Election",
						"label": "electionOwner",
						"offset": 0,
						"slot": "0",
						"type": "t_address"
					},
					{
						"astId": 13,
						"contract": "Development-Codebases/Blockchain/Eth_Smart_Contract_Voting/contracts/Election.sol:Election",
						"label": "isOpened",
						"offset": 0,
						"slot": "1",
						"type": "t_uint256"
					},
					{
						"astId": 17,
						"contract": "Development-Codebases/Blockchain/Eth_Smart_Contract_Voting/contracts/Election.sol:Election",
						"label": "voters",
						"offset": 0,
						"slot": "2",
						"type": "t_mapping(t_address,t_bool)"
					},
					{
						"astId": 22,
						"contract": "Development-Codebases/Blockchain/Eth_Smart_Contract_Voting/contracts/Election.sol:Election",
						"label": "candidates",
						"offset": 0,
						"slot": "3",
						"type": "t_mapping(t_uint256,t_struct(Candidate)8_storage)"
					},
					{
						"astId": 24,
						"contract": "Development-Codebases/Blockchain/Eth_Smart_Contract_Voting/contracts/Election.sol:Election",
						"label": "candidatesCount",
						"offset": 0,
						"slot": "4",
						"type": "t_uint256"
					}
				],
				"types": {
					"t_address": {
						"encoding": "inplace",
						"label": "address",
						"numberOfBytes": "20"
					},
					"t_bool": {
						"encoding": "inplace",
						"label": "bool",
						"numberOfBytes": "1"
					},
					"t_mapping(t_address,t_bool)": {
						"encoding": "mapping",
						"key": "t_address",
						"label": "mapping(address => bool)",
						"numberOfBytes": "32",
						"value": "t_bool"
					},
					"t_mapping(t_uint256,t_struct(Candidate)8_storage)": {
						"encoding": "mapping",
						"key": "t_uint256",
						"label": "mapping(uint256 => struct Election.Candidate)",
						"numberOfBytes": "32",
						"value": "t_struct(Candidate)8_storage"
					},
					"t_string_storage": {
						"encoding": "bytes",
						"label": "string",
						"numberOfBytes": "32"
					},
					"t_struct(Candidate)8_storage": {
						"encoding": "inplace",
						"label": "struct Election.Candidate",
						"members": [
							{
								"astId": 3,
								"contract": "Development-Codebases/Blockchain/Eth_Smart_Contract_Voting/contracts/Election.sol:Election",
								"label": "id",
								"offset": 0,
								"slot": "0",
								"type": "t_uint256"
							},
							{
								"astId": 5,
								"contract": "Development-Codebases/Blockchain/Eth_Smart_Contract_Voting/contracts/Election.sol:Election",
								"label": "name",
								"offset": 0,
								"slot": "1",
								"type": "t_string_storage"
							},
							{
								"astId": 7,
								"contract": "Development-Codebases/Blockchain/Eth_Smart_Contract_Voting/contracts/Election.sol:Election",
								"label": "voteCount",
								"offset": 0,
								"slot": "2",
								"type": "t_uint256"
							}
						],
						"numberOfBytes": "96"
					},
					"t_uint256": {
						"encoding": "inplace",
						"label": "uint256",
						"numberOfBytes": "32"
					}
				}
			},
			"userdoc": {
				"kind": "user",
				"methods": {},
				"version": 1
			}
		}
	}
}